:020000040000FA
:100000000C9403020C942B020C942B020C942B02E4
:100010000C942B020C942B020C942B020C942B02AC
:100020000C94EC0B0C942B020C942B020C942B02D2
:100030000C942B020C942B020C942B020C942B028C
:100040000C942F0A0C942B020C949F0A0C94790A9E
:100050000C942B020C942B020C942B020C942B026C
:100060000C94D10A0C942B022A2A2A2A2A2A2A2AF8
:100070002A2A2A2A2A2A2A2A2A2A2A2A2A2A2A2AE0
:100080002A2A2A2A2A2A2A2A2A2A2A2A2A2A2A2AD0
:100090002A2A2A2A2A2A2A2A2A2A2A2A2A2A2A2AC0
:1000A0002A2A2A2A2A2A2A2A2A2A2A2A2A2A2A2AB0
:1000B0002A2A2A2A2A2A2A2A2A2A2A2A2A2A2A2AA0
:1000C0002A2A2A2A2A2A2A2A2A2A005468616E6B96
:1000D00073002068747470733A2F2F6769746875A1
:1000E000622E636F6D2F41726475696E6F2D495278
:1000F00072656D6F74652F41726475696E6F2D49FD
:100100005272656D6F746523636F6E766572746984
:100110006E672D796F75722D32782D70726F6772E0
:10012000616D2D746F2D7468652D34782D76657230
:1001300073696F6E004120677569646520686F7729
:1001400020746F20636F6E7665727420796F75729C
:1001500020322E302070726F6772616D20697320BB
:10016000686572653A002068747470733A2F2F675F
:1001700069746875622E636F6D2F41726475696E64
:100180006F2D495272656D6F74652F417264756988
:100190006E6F2D495272656D6F7465236578616D60
:1001A000706C65732D666F722D746869732D6C6940
:1001B000627261727900546865206578616D706C57
:1001C00065732061726520646F63756D656E74651B
:1001D0006420686572653A005374617274207769AF
:1001E0007468207468652053696D706C655265632E
:1001F0006569766572206F722053696D706C655306
:10020000656E646572206578616D706C652E004F57
:100210007220646F776E677261646520796F7572A2
:10022000206C69627261727920746F2076657273D6
:10023000696F6E20322E362E302E00206176616975
:100240006C61626C65206174202246696C65203E99
:10025000204578616D706C6573203E204578616D36
:10026000706C65732066726F6D20437573746F6D6B
:10027000204C6962726172696573202F2049527245
:10028000656D6F7465222E00506C65617365207515
:100290007365206F6E65206F6620746865206E65DB
:1002A0007720636F6465206578616D706C6573207D
:1002B00066726F6D20746865206C69627261727914
:1002C0002C00546869732076657273696F6E2069BB
:1002D00073206E6F206C6F6E67657220737570701F
:1002E0006F7274656421004974207365656D732CA9
:1002F000207468617420796F752061726520757350
:10030000696E672061206F6C642076657273696F17
:100310006E20322E3020636F6465202F2065786157
:100320006D706C652E005468616E6B20796F75205E
:10033000666F72207573696E672074686520495214
:1003400072656D6F7465206C6962726172792100EB
:100350002A2A2A2A2A2A2A2A2A2A2A2A2A2A2A2AFD
:100360002A2A2A2A2A2A2A2A2A2A2A2A2A2A2A2AED
:100370002A2A2A2A2A2A2A2A2A2A2A2A2A2A2A2ADD
:100380002A2A2A2A2A2A2A2A2A2A2A2A2A2A2A2ACD
:100390002A2A2A2A2A2A2A2A2A2A2A2A2A2A2A2ABD
:1003A0002A2A2A2A2A2A2A2A2A2A2A2A2A2A2A2AAD
:1003B0002A2A0000000000240027002A0000000074
:1003C00000250028002B00000000080002010000AA
:1003D00003040700000000000000000404040404FB
:1003E00004040402020202020203030303030301E2
:1003F00002040810204080010204081020010204B9
:1004000008102000530D11241FBECFEFD8E0DEBF2F
:10041000CDBF24E0ACE3B1E001C01D92A436B20729
:10042000E1F711E0A0E0B1E0E2E3F2E302C0059001
:100430000D92AC33B107D9F712E0C3E0D2E004C0AB
:100440002197FE010E94EC17C230D107C9F70E9424
:10045000B50D0C9417190C9400000F931F93CF93B4
:10046000DF934091D8018091130410E0481708F001
:1004700063C0142F11700091D70101114EC0E0919B
:100480001604F0911704E40FF11DE585F0E02CEE61
:100490003FEF112311F024E130E0C091D501D0915C
:1004A000D6012C0F3D1FC90163E470E00E94B9170B
:1004B000E617F70760F0C90168E270E00E94B9171B
:1004C0006F5F7F4F81E090E06E177F0710F52C0F74
:1004D0003D1FC90163E470E00E94B917E617F707F2
:1004E00050F0C90168E270E00E94B9176F5F7F4F5A
:1004F0006E177F0760F42C0F3D1FC90163E470E0A5
:100500000E94B917E617F707E8F41FEF15C082E05D
:1005100090E09093D4018093D3010F5F0093D701B3
:100520008091D3019091D4010817190628F01092F8
:10053000D7014F5F4093D801812FDF91CF911F9159
:100540000F910895C90168E270E00E94B9176F5FCA
:100550007F4F6E177F07C8F283E090E0DACFCF932A
:10056000DF93482FE0911604F091170470969B01D9
:100570002C5E3F4FC90163E470E00E94B917EB01A4
:10058000C90168E270E00E94B9176F5F7F4F80E099
:1005900090E0DC01208130E0880F991FAA1FBB1F6B
:1005A00032962C173D0720F06217730708F0816020
:1005B000415081F78093F0039093F103A093F203ED
:1005C000B093F30381E0DF91CF910895FC01538D47
:1005D000448D252F30E0842F90E0821B930B54171D
:1005E00010F0CF96089501970895FC01918D828DAA
:1005F000981761F0A28DAE0FBF2FB11D5D968C9143
:10060000928D9F5F9F73928F90E008958FEF9FEF81
:100610000895FC01918D828D981731F0828DE80F3D
:10062000F11D858D90E008958FEF9FEF0895FC01F7
:10063000918D228D892F90E0805C9F4F821B9109C4
:100640008F7399270895FC01A48DA80FB92FB11DB0
:10065000A35ABF4F2C91848D90E001968F739927F8
:10066000848FA689B7892C93A089B1898C918370D6
:1006700080648C93938D848D981306C00288F389CF
:10068000E02D80818F7D80830895EF92FF920F93FC
:100690001F93CF93DF93EC0181E0888F9B8D8C8D2E
:1006A00098131AC0E889F989808185FF15C09FB722
:1006B000F894EE89FF896083E889F98980818370E5
:1006C000806480839FBF81E090E0DF91CF911F9194
:1006D0000F91FF90EF900895F62E0B8D10E00F5FB5
:1006E0001F4F0F731127E02E8C8D8E110CC00FB68B
:1006F00007FCFACFE889F989808185FFF5CFCE0123
:100700000E942303F1CFEB8DEC0FFD2FF11DE35A77
:10071000FF4FF0829FB7F8940B8FEA89FB898081A5
:100720008062CFCFCF93DF93EC01888D8823B9F01F
:10073000AA89BB89E889F9898C9185FD03C08081EC
:1007400086FD0DC00FB607FCF7CF8C9185FFF2CF69
:10075000808185FFEDCFCE010E942303E9CFDF9199
:10076000CF91089589ED91E00E94170321E0892B34
:1007700009F420E0822F089580E090E0892B29F091
:100780000E94B20381110C940000089590E0FC01D6
:10079000E953FC4F2491FC01E151FC4F3491FC01E1
:1007A000E552FC4FE491EE23C9F0222339F02330C7
:1007B00001F1A8F4213019F1223029F1F0E0EE0F17
:1007C000FF1FE354FC4FA591B4918FB7F894EC91BF
:1007D000611126C030953E233C938FBF089527308A
:1007E000A9F02830C9F0243049F7809180008F7D2E
:1007F00003C0809180008F7780938000DFCF84B525
:100800008F7784BDDBCF84B58F7DFBCF8091B00027
:100810008F778093B000D2CF8091B0008F7DF9CFD9
:100820003E2BDACFCF93DF9390E0FC01E151FC4FF8
:10083000249185529C4FFC0184918823D1F090E053
:10084000880F991FFC01ED54FC4FA591B491FC0158
:10085000E354FC4FC591D49161110EC09FB7F89439
:100860008C91E22FE0958E238C932881E223E883FC
:100870009FBFDF91CF9108958FB7F894EC91E22B51
:10088000EC938FBFF6CFAF92BF92CF92DF92EF92F1
:10089000FF920F931F93CF93DF936C017B018B012A
:1008A000040F151FEB015E01AE18BF08C017D1077A
:1008B00059F06991D601ED91FC910190F081E02D04
:1008C000C6010995892B79F7C501DF91CF911F9159
:1008D0000F91FF90EF90DF90CF90BF90AF90089571
:1008E00042E050E068E371E089ED91E00C9443044C
:1008F0000F931F93CF93DF938C01D0E0C0E0F801FA
:10090000EC0FFD1F6491662341F089ED91E00E9498
:100910004503892B11F02196F2CF0E9470048C0FB1
:100920009D1FDF91CF911F910F9108952091630139
:10093000260F3327331F21323105ECF42091870134
:10094000FC0190E080E0243069F082E00895A091FD
:1009500063012191AC014D5B5E4FA40FB52FB11D1A
:100960002C930196861798F380916301680F60932A
:10097000630180E0089581E0089508958FEF9FEF6F
:1009800008958FEF9FEF089580913C0190E091953D
:10099000819591090895CF93DF93CB01EA01642FEC
:1009A0000E949604CE01DF91CF910895CF93DF93FB
:1009B0001F92CDB7DEB7698361E0CE0101960E9438
:1009C000960481E090E00F90DF91CF91089590E040
:1009D00080E00895CF92DF92EF92FF92CF93DF9362
:1009E000EC013FB7F8948091CA019091CB01A0919E
:1009F000CC01B091CD0126B5A89B05C02F3F19F0C1
:100A00000196A11DB11D3FBFBA2FA92F982F88278E
:100A10006C017D01C20ED11CE11CF11C42E0CC0C2A
:100A2000DD1CEE1CFF1C4A95D1F788A599A5AAA547
:100A3000BBA5B701A601481B590B6A0B7B0B8B8129
:100A40009C81AD81BE81481759076A077B0748F131
:100A500088899989AA89BB892A812223F1F0019684
:100A6000A11DB11D888B998BAA8BBB8B4889598995
:100A70006A897B89E881F9810484F585E02DCE01BE
:100A80000995C8A6D9A6EAA6FBA681E0DF91CF9179
:100A9000FF90EF90DF90CF9008950197A109B109E1
:100AA000E1CF80E0F3CFFC014489558966897789DD
:100AB00080899189A289B389481759076A077B07FA
:100AC000A1F084179507A607B7076CF481E082832D
:100AD00083819481A581B681892B8A2B8B2B29F068
:100AE000CF010C94EA041282F3CF80E00895CF93F3
:100AF000DF93FC012781222359F1EC0161E080851D
:100B00000E94120461E089850E9412048F81843062
:100B100011F08830B1F461E08A850E94120461E02E
:100B20008B850E9412048FA58F3F91F061E00E9497
:100B300012046EA581E068278FA5DF91CF910C94F8
:100B4000C603833011F0863071F761E08A85E9CF02
:100B5000DF91CF910895CF93DF93FC01278122236A
:100B6000A9F0EC010190F081E02D0284F385E02DE5
:100B700060E009958FA58F3F49F061E00E94120463
:100B80006EA58FA5DF91CF910C94C603DF91CF9115
:100B90000895DC01ED91FC9122853385477055273E
:100BA000662777274150510961097109473051057E
:100BB0006105710560F4FA01E052FA4F0C94EC17EC
:100BC000EA05EC05EE05F005F205F405F60561E031
:100BD000F901099465E0FCCF64E0FACF66E0F8CF54
:100BE00062E0F6CF6AE0F4CF68E0F2CF69E0F0CFE0
:100BF000CF93DF93EC01CB01BA0126E030E040E077
:100C000050E00E94CD17623071058105910589F190
:100C10006CF46115710581059105D1F061307105A4
:100C200081059105F9F0DF91CF9108956430710548
:100C30008105910561F124F165307105810591050A
:100C400091F7E881F9810284F385E02D66E006C022
:100C5000E881F9810284F385E02D64E0CE01DF9123
:100C6000CF910994E881F9810284F385E02D65E054
:100C7000F5CFE881F9810284F385E02D61E0EECFC4
:100C8000E881F9810284F385E02D63E0E7CFE88114
:100C9000F9810284F385E02D62E0E0CFDC01ED9183
:100CA000FC910284F385E02D437055276627772752
:100CB000423051056105710571F043305105610500
:100CC000710559F0413051056105710511F065E07C
:100CD000099466E0FDCF6AE0FBCF69E0F9CFCF93DE
:100CE000DF93EC01CB01BA0123E030E040E050E0BB
:100CF0000E94CD17613071058105910599F0623030
:100D0000710581059105A9F0672B682B692BC1F44A
:100D1000E881F9810284F385E02D64E0CE01DF9162
:100D2000CF910994E881F9810284F385E02D61E097
:100D3000F5CFE881F9810284F385E02D62E0EECF02
:100D4000DF91CF910895DC01ED91FC910284F38550
:100D5000E02D4370552766277727423051056105FE
:100D6000710571F0433051056105710559F041304D
:100D700051056105710511F062E0099463E0FDCF52
:100D800061E0FBCF60E0F9CFCF93DF93EC01E88126
:100D9000F9810284F385E02D8A8160E0811162E0AF
:100DA000CE010995E881F9810284F385E02D8A81DD
:100DB00061E0811163E0CE0109958CA59DA582308B
:100DC000910538F0880F991F880F991F0597019793
:100DD000F1F7E881F9810284F385E02D8A8160E0F2
:100DE000811162E0CE01DF91CF910994CF93DF931F
:100DF000EC0120E030E0A901688D798D8A8D9B8D12
:100E00000E94591718162CF4E8A9F9A9DF91CF917F
:100E10000994EAA9FBA9FACFCF92DF92EF92FF9251
:100E20000F931F93CF93DF93DC011796CC91C430BF
:100E300039F0C83059F1C33019F0C63049F1C2E079
:100E40008C01085F1F4FF12CE12CC62ED12CD1E074
:100E5000F8016481C6010E2C02C0959587950A940D
:100E6000E2F780FD6D270F5F1F4F80810E94C60350
:100E7000BFEFEB1AFB0AEC1658F3DF91CF911F91ED
:100E80000F91FF90EF90DF90CF900895C4E0D8CFFE
:100E9000C3E0D6CFDC011796EC911797E93008F044
:100EA00038C0F0E0EA5AF84F0C94EC175F0765077A
:100EB0006B077107770789077D0789078307ED911E
:100EC000FC910684F785E02D0994ED91FC91008852
:100ED000F189E02DF9CFED91FC910288F389E02DA5
:100EE000F3CFED91FC910488F589E02DEDCFED91E4
:100EF000FC910688F789E02DE7CFED91FC91008CFD
:100F0000F18DE02DE1CFED91FC91028CF38DE02D80
:100F1000DBCF08954F925F926F927F928F929F9254
:100F2000AF92BF92CF92DF92EF92FF920F931F93F7
:100F3000CF93DF93EC01CC88DD88EE88FF88888929
:100F40009989AA89BB89C81AD90AEA0AFB0A688D55
:100F5000798D8A8D9B8D9B01AC010E943A154B01C6
:100F60005C0168A179A18AA19BA19B01AC010E94AF
:100F700045169B01AC01C501B4010E94B1160E9447
:100F80002317C114D104E104F10409F0B6C06230A2
:100F90007105810591050CF0D0C01B821C821D8259
:100FA0001E82188E198E1A8E1B8E1CAA1DAA1EAAAE
:100FB0001FAAC12CD12C7601C701B601DF91CF91B8
:100FC0001F910F91FF90EF90DF90CF90BF90AF9067
:100FD0009F908F907F906F905F904F900895101624
:100FE000110612061306B4F46C157D058E059F05D7
:100FF0001CF42A812111A1C09B01AC0188279927EB
:10100000DC01821B930BA40BB50B8CAB9DABAEAB81
:10101000BFAB93C0011511052105310509F48DC041
:101020006C157D058E059F050CF087C08A8188238D
:1010300009F483C030952095109501951F4F2F4FCF
:101040003F4F0CAB1DAB2EAB3FAB77C0011511056D
:101050002105310509F471C08824992454018C18A4
:101060009D08AE08BF08681579058A059B050CF038
:1010700064C08A81811161C0DDCFCCACDDACEEAC47
:10108000FFACA7019601C701B6010E9445162B01CE
:101090003C01C501B4010E94DB1420E030E040E8CF
:1010A00050E40E943A1520E030E040E85FE30E94FF
:1010B00045169B01AC01C301B2010E94B1169B0110
:1010C000AC01C701B6010E9444163B016C01FE0150
:1010D000E05CFF4FE080F180028113819701A8015D
:1010E0000E945917181614F473018601C701D8011C
:1010F0008CAF9DAFAEAFBFAF3AC00CA91DA92EA952
:101100003FA91C141D041E041F040CF468CF101604
:101110001106120613060CF099CF0027112798012B
:101120000C191D092E093F096017710782079307E3
:101130000CF062CF2A8121115FCF8CA89DA8AEA8A8
:10114000BFA881149104A104B10409F096CF88AD21
:1011500099ADAAADBBAD8CAF9DAFAEAFBFAF81E0D7
:101160001C141D041E041F040CF080E08A833FEF52
:10117000831A930AA30AB30A8CAA9DAAAEAABFAA8D
:101180008CAC9DACAEACBFACC501B4010E942A17BB
:101190006B017C01CB82DC82ED82FE82A501940191
:1011A00060E074E284E799E40E94B116688F798F59
:1011B0008A8F9B8F2A812111FFCE9058688F798F5B
:1011C0008A8F9B8FF9CECF92DF92EF92FF92CF93CF
:1011D000DF93EC01688D798D8A8D9B8D9B01AC012D
:1011E0000E943A156B017C0168A179A18AA19BA19B
:1011F0009B01AC010E9445169B01AC01C701B601E1
:101200000E94B1160E9423176CAB7DAB8EAB9FABD7
:10121000CE01DF91CF91FF90EF90DF90CF900C94B3
:101220008A070F931F93DC0154960D911D912D9108
:101230003C915797041715072607370771F0FC01F3
:10124000448B558B668B778B0190F081E02D008469
:10125000F185E02D1F910F9109941F910F91089531
:1012600008951F93CF93DF9385ED8093BC00809109
:101270003F0190914001A0914101B0914201079638
:10128000A11DB11D23E0B695A795979587952A9541
:10129000D1F72091BC0024FD03C01092870152C0F9
:1012A00040913F0150914001609141017091420194
:1012B000452B462B472B69F30097A105B10541F05B
:1012C0002AE22A95F1F700C00197A109B109E1CFFF
:1012D00080913E01C1E0C0933D01882399F1D091F6
:1012E000B8001091BA008091BC008A7B8093BC004A
:1012F00060E082E10E94C60360E083E10E94C603D1
:1013000010928701C09389011092880161E082E107
:101310000E94C60361E083E10E94C6038091B90088
:101320008E7F8093B9008091B9008D7F8093B90042
:1013300088E48093B80085E48093BC001093BA00E1
:10134000D093B800DF91CF911F9108954F925F9293
:101350006F927F928F929F92AF92BF92CF92DF92C5
:10136000EF92FF92CF93DF93EC016A017B0120E0C3
:1013700030E0A901CB01B6010E94D41487FF04C05C
:10138000F7FAF094F7F8F09488A099A0AAA0BBA06F
:10139000A7019601C501B4010E94D414882309F461
:1013A0004DC06CA97DA98EA99FA90E94DB142B01B9
:1013B0003C01A7019601C501B4010E94B1169B0131
:1013C000AC01C301B2010E943A150E9423176CAB15
:1013D0007DAB8EAB9FABA701960160E070E080E033
:1013E00090E40E94B1160E94641726E53EE04DE2AB
:1013F0005FE30E943A1520E034E244E759E40E949A
:101400003A1568AF79AF8AAF9BAFC8A2D9A2EAA25A
:10141000FBA2E881F9810084F185E02DCE01DF9106
:10142000CF91FF90EF90DF90CF90BF90AF909F90C3
:101430008F907F906F905F904F900994DF91CF9144
:10144000FF90EF90DF90CF90BF90AF909F908F90E4
:101450007F906F905F904F9008950C948E181F921C
:101460000F920FB60F9211242F933F938F939F9358
:10147000AF93BF938091CF019091D001A091D10102
:10148000B091D2013091CE0123E0230F2D3758F5D2
:101490000196A11DB11D2093CE018093CF019093A1
:1014A000D001A093D101B093D2018091CA01909153
:1014B000CB01A091CC01B091CD010196A11DB11D30
:1014C0008093CA019093CB01A093CC01B093CD013E
:1014D000BF91AF919F918F913F912F910F900FBE30
:1014E0000F901F90189526E8230F0296A11DB11D9D
:1014F000D2CF1F920F920FB60F9211242F933F93CA
:101500004F935F936F937F938F939F93AF93BF930B
:10151000EF93FF9389ED91E00E942303FF91EF91F8
:10152000BF91AF919F918F917F916F915F914F91FB
:101530003F912F910F900FBE0F901F9018951F9203
:101540000F920FB60F9211242F938F939F93EF93C7
:10155000FF93E091E901F091EA018081E091EF01D0
:10156000F091F00182FD1BC090818091F2018F5FAC
:101570008F732091F301821741F0E091F201F0E0C6
:10158000E752FE4F958F8093F201FF91EF919F916B
:101590008F912F910F900FBE0F901F901895808103
:1015A000F4CF1F920F920FB60F9211242F933F93F7
:1015B0004F935F936F937F938F939F93AF93BF935B
:1015C000EF93FF938091B900887F803609F44AC079
:1015D000F0F5883209F4A5C018F5803109F499C0F6
:1015E000B8F4882309F4F5C0883009F492C0FF915B
:1015F000EF91BF91AF919F918F917F916F915F918B
:101600004F913F912F910F900FBE0F901F90189503
:10161000883109F486C0803251F78093860114C066
:10162000803409F49BC040F48033B9F38833F9F671
:101630008093860185ECAEC0803509F483C088357F
:1016400009F494C0883499F60E943109D0CF8839C2
:1016500009F48AC038F5883729F050F4883611F03B
:10166000803729F683E0809387011092850155C069
:10167000883809F479C0803919F0803809F0B7CF7B
:1016800080918501803208F06FC0E091850181E092
:101690008E0F809385018091BB00F0E0EB59FE4FE7
:1016A00080833BC0803B39F0D0F4803A09F477C0A6
:1016B000883A09F09CCF84E08093870110926401FE
:1016C00010926301F0E0E0E00995809163018111DF
:1016D0000FC081E0809363011092430109C0803CF8
:1016E00009F4A8CF883C09F4A5CF883B09F07FCF47
:1016F000E091640181E08E0F80936401F0E0ED5B86
:10170000FE4F80818093BB009091640180916301C2
:1017100029C08091AC018093BB0085EC8093BC0014
:1017200066CF9091AB018091AA01981758F5E0918E
:10173000AB0181E08E0F8093AB01F0E0E657FE4FE6
:101740008081E9CFE091AB0181E08E0F8093AB0106
:101750008091BB00F0E0E657FE4F80839091AB0193
:101760008091AA019817C8F285E8D8CFE091AB0123
:1017700081E08E0F8093AB018091BB00F0E0E657D3
:10178000FE4F80838091890181115ECF81E080933B
:10179000880184EA8093BC001092870128CF85ECF1
:1017A0008093BC001092870180918501803230F4D3
:1017B000E0918501F0E0EB59FE4F108260918501C8
:1017C00070E085E691E0F0E0E0E009951092850197
:1017D0000ECF1092860138CF1F920F920FB60F9244
:1017E00011242F933F934F935F936F937F938F9326
:1017F0009F93AF93BF93CF93EF93FF93E0917802C2
:10180000F0917902C08180917A02C82380917B0295
:1018100090917C02019649F080917B0290917C022C
:10182000019690937C0280937B02809176028111D5
:101830001DC0C11176C080917B0290917C02813ADB
:10184000910578F010927F0280917B0290917C024A
:10185000909382028093810281E080938002809342
:10186000760210927C0210927B025BC0809176021D
:10187000813099F4CC2309F454C080917B0290917B
:101880007C02E091800291E09E0F90938002F0E054
:10189000EA58FD4F858782E0E2CF80917602823060
:1018A00009F05DC0C11120C0E0918002E83C70F0F9
:1018B00081E080937F0283E080937602E0917D0255
:1018C000F0917E02309769F20995CBCF80917B022F
:1018D00090917C0291E09E0F90938002F0E0EA5894
:1018E000FD4F858781E0BBCF80917B0290917C0288
:1018F000813A9105B0F0809181029091820290939B
:10190000520480935104809180028093500483E0BC
:1019100080937602E0917D02F0917E02309709F08B
:1019200009958091240480FF08C080912304C1118F
:101930001DC061E081111DC02D9AFF91EF91CF91E3
:10194000BF91AF919F918F917F916F915F914F91D7
:101950003F912F910F900FBE0F901F90189580917F
:1019600076028330F1F6C111DCCF7BCF882321F0E2
:1019700060E00E94C603E1CF2D98DFCFCF92DF92C7
:10198000EF92FF920F931F93CF93DF93EC018E2D75
:10199000EAE0F1E0F983E8836F83188A198A1A8AEA
:1019A0001B8A1C8A1D8A1E8A1F8A188E198E1A8EFF
:1019B0001B8E1C8E1D8E1E8E1F8E18A219A21AA29F
:1019C0001BA2C12CD12C90E8E92E9FE3F92ECCA2CA
:1019D000DDA2EEA2FFA21B821C821D821E8261E09C
:1019E00070E07DA76CA79FEF9FA718A619A61AA65F
:1019F0001BA6488729870A878B871EA61CAA1DAAB3
:101A00001EAA1FAA18AE19AE1AAE1BAE1CAE1DAE92
:101A10001EAE1FAE8E01005C1F4FF801C082D18246
:101A2000E282F3821A821C861D861E861F86CE01E4
:101A30000E947705B701A601CE010E94A609A70161
:101A400096016C8D7D8D8E8D9F8D0E94D414882380
:101A500009F1CC8EDD8EEE8EFF8E80E094E2A4E75D
:101A6000B9E4F80180839183A283B3838CA99DA9F3
:101A7000AEA9BFA9181619061A061B065CF4CE01FA
:101A8000DF91CF911F910F91FF90EF90DF90CF905A
:101A90000C94E308DF91CF911F910F91FF90EF908D
:101AA000DF90CF900895EF920F93E9EDF1E013826C
:101AB000128288EE93E0A0E0B0E084839583A68351
:101AC000B7838AE291E09183808385EC90E09587EB
:101AD000848784EC90E09787868780EC90E0918BF8
:101AE000808B81EC90E0938B828B82EC90E0958BE5
:101AF000848B86EC90E0978B868B118E128E138EE2
:101B0000148EE6E7F2E0F0935404E093530411825C
:101B100081E0848389E290E0938382835098A3E2FA
:101B2000B4E01C92F0931704E093160487E08183DD
:101B300080E8848357981C9285E0E82E04E025E035
:101B400044E061E084EA93E00E94BE0C9AE0E92E52
:101B50000CE02BE04DE064E080E693E00E94BE0CD8
:101B600010925F030F91EF900895CF93DF9300D011
:101B70001F92CDB7DEB7789484B5826084BD84B5FA
:101B8000816084BD85B5826085BD85B5816085BD78
:101B900080916E00816080936E0010928100809130
:101BA00081008260809381008091810081608093B8
:101BB0008100809180008160809380008091B100DD
:101BC00084608093B1008091B00081608093B00008
:101BD00080917A00846080937A0080917A0082609C
:101BE00080937A0080917A00816080937A0080915E
:101BF0007A00806880937A001092C10020E030E083
:101C000048E452E460917C0370917D0380917E03EF
:101C100090917F030E94D414882349F180E090E0E2
:101C2000A8E4B2E480937C0390937D03A0937E03A9
:101C3000B0937F0380E090E4ACE9B6E48093A00326
:101C40009093A103A093A203B093A3038091940364
:101C500090919503A0919603B091970318161906D9
:101C60001A061B0624F480E693E00E94E30840E095
:101C700050E068E472E480E693E00E94A60920E068
:101C800030E046E153E46091C0037091C10380915C
:101C9000C2039091C3030E94D414882349F180E0C9
:101CA00090E0A6E1B3E48093C0039093C103A093B6
:101CB000C203B093C30385E595E5A0EDB5E4809339
:101CC000E4039093E503A093E603B093E7038091C8
:101CD000D8039091D903A091DA03B091DB031816D1
:101CE00019061A061B0624F484EA93E00E94E3080E
:101CF00040E050E068EC72E484EA93E00E94A609B8
:101D0000E0915F03EA3068F481E08E0F80935F0317
:101D1000F0E0EE0FFF1FE55BFC4F84EA93E0918358
:101D20008083E0915F03EA3068F481E08E0F809356
:101D30005F03F0E0EE0FFF1FE55BFC4F80E693E0F2
:101D40009183808382E08093B0008093B10084E629
:101D50008093B3008093B4001092B2008091760219
:101D6000833011F41092760284E0809370008091A9
:101D7000AD01811145C080E593E00E94780486E2C0
:101D800093E00E94780487EE92E00E94780482EC4F
:101D900092E00E94780488E892E00E9478048BE345
:101DA00092E00E9478048FE092E00E9478040E9402
:101DB000700488ED91E00E9478040E94700486EB24
:101DC00091E00E94780486E691E00E94780485E321
:101DD00091E00E94780482ED90E00E9478040E94D5
:101DE00070048BEC90E00E94780488E690E00E94FA
:101DF00078040E9470040E94700421E02093AD01D9
:101E000080917602833009F0ACC1E091C601F09177
:101E1000C7018091810290918202DF018D939D9391
:101E2000AD0164E872E09F0120573E4FDB018D91C8
:101E3000BD0190E0DA018D939D93AD012A173B0718
:101E4000A9F7209180022093C80180917F02882306
:101E500021F010927F021092800280917F02809385
:101E6000C9011092BE011092BF011092C0011092E0
:101E7000C10180E880931204828193818658910980
:101E80008C35910568F4243069F5848195818197BA
:101E9000489730F4868197810897089708F458C0CE
:101EA0008091C8018A3108F48BC0E091C601F0919D
:101EB000C701208131812A30310508F060C01092BD
:101EC000C2018FEF9FEFDC018093BE019093BF01B1
:101ED000A093C001B093C10191E09093120488E1F6
:101EE00090E048C02434E1F68481958182549109C0
:101EF0008F97B0F640E956E060E372E080E20E941E
:101F0000AF02882369F2E091C601F091C701EA5758
:101F1000FF4F808191810897089710F68091F00318
:101F20009091F103A091F203B091F3038093BE016D
:101F30009093BF01A093C001B093C10180E2809350
:101F4000C20188E090E09093BB018093BA0112C077
:101F50001092C2012FEF3FEFA9012093BE013093F1
:101F6000BF014093C0015093C10181E880931204E6
:101F700088E090E09093E9038093E803D4C0228145
:101F80003381245231092A313105D0F443E050E045
:101F900060E0C12CD12C760190E04817590708F079
:101FA00055C024813581285031092830310540F44D
:101FB000268137812231310598F120323105D8F15F
:101FC000A1E0A093D801E9E7F3E0F093D601E09314
:101FD000D5011092D7010E942D02813009F0CEC0A8
:101FE000C12CD12C76011982909113048091D801D3
:101FF000891708F043C00E942D028A830E942D0297
:10200000FA81F11130C0813009F0B8C0CC0CDD1C70
:10201000EE1CFF1C6894C0F839813F5F3983E4CF20
:102020002930310568F22131310550F6CC0CDD1C28
:10203000EE1CFF1C06C0CC0CDD1CEE1CFF1C6894C3
:10204000C0F86F5F4E5F5F4F3496A7CF6093C201B9
:10205000C092BE01D092BF01E092C001F092C101D6
:1020600088E190E070CF2A81213009F087C081118A
:1020700085C0CC0CDD1CEE1CFF1CCECF4981842F0B
:1020800090E09093110480931004C092F003D092DA
:10209000F103E092F203F092F3038C2D8F7390E042
:1020A0009093ED038093EC03960146E036952795D7
:1020B0004A95E1F72F7133273093EB032093EA031E
:1020C000960122273071232B31F4805C9F4F90932F
:1020D000ED038093EC0380E8D3FC88E8809312043E
:1020E00081E190E09093E9038093E80380911404E8
:1020F000909115048F3C994028F4809112048160DE
:102100008093120489818093C201C092BE01D09253
:10211000BF01E092C001F092C10181E190E0909393
:10212000BB018093BA018091BE019091BF01A09143
:10213000C001B091C101873EE8E19E07EFEFAE0715
:10214000B10509F49CC208F07FC28F3E9041AF4FA9
:10215000B10509F416C480917602833011F410920F
:10216000760280E090E0892B09F401CE0E94B20350
:10217000882309F4FCCD0E940000F9CDE0911604FB
:10218000F0911704868588528D3108F048C0878504
:102190008C508B3008F043C083E08093D8018CEBE7
:1021A00091E09093D6018093D5011092D7010E94BF
:1021B0002D028130A1F50E942D02811130C0C12C69
:1021C000D12C76011982909113048091D80189173E
:1021D00008F07BC00E942D02182F99819330D9F00E
:1021E0000E942D028A83A981A33029F40E942D0226
:1021F000BA81B81314C0113009F05CC0EA81E11152
:102200000EC0CC0CDD1CEE1CFF1C6894C0F82981AC
:102210002F5F2983D8CF0E942D02181709F38091D0
:10222000C8018C3309F0B8C0E091C601F091C70134
:1022300082819381865891098D35910508F0ACC053
:1022400084819581CE978C9708F0A6C04CE256E029
:1022500064EF71E08CE10E94AF02882309F49CC016
:10226000E091C601F091C701EA58FF4F808191814A
:102270000797089708F090C08091F0039091F103C0
:10228000A091F203B091F3038093BE019093BF013C
:10229000A093C001B093C1018CE18093C201E6E03C
:1022A000F0E0F093BB01E093BA01F093E903E0930F
:1022B000E80339CF1111B3CFFA81F13009F0AFCF74
:1022C000CC0CDD1CEE1CFF1CA2CF3981832F90E0CB
:1022D0009093110480931004C092F003D092F10304
:1022E000E092F203F092F3032C2D30E08D2D90E07C
:1022F00049814332C0F540E8409312043093ED0326
:102300002093EC039093EB038093EA03E0FE03C079
:1023100088E8809312045981553128F08091120485
:1023200080618093120482E190E09093E9038093AE
:10233000E803809114049091150483379A4028F49F
:1023400080911204816080931204B981B093C2011C
:10235000C092BE01D092BF01E092C001F092C101D3
:1023600082E190E0DCCE40E9409312043093ED032B
:102370002093EC039093EB038093EA03C7019F73D0
:102380009093EF038093EE03F7FE03C088E98093F8
:10239000120483E190E0C9CF4091C801E091C601E9
:1023A000F091C70182819381423289F49C012850C7
:1023B00031092730310558F4DF01AE5BBF4F2D9155
:1023C0003C91285031092730310508F45DC08D5704
:1023D00091098735910508F46EC0E091C601F0912E
:1023E000C70182819381835491098F9780F48091F2
:1023F000C801843009F094C0848195818197489701
:1024000030F4868197810897089708F4B3C08091CB
:102410001304823209F0C1C0E091C601F091C701F6
:10242000828193810497059708F0B7C084819581D4
:102430000B970A9708F0B1C04CE157E064E071E0F7
:102440008FE00E94AF02882309F4A7C08091F003B7
:102450009091F103A091F203B091F3038093BE0138
:102460009093BF01A093C001B093C1018FE080930E
:10247000C201A4E0B0E0B093BB01A093BA01B09355
:10248000E903A093E8034FCE1092C2012FEF3FEF74
:10249000A9012093BE013093BF014093C001509326
:1024A000C10131E03093120445E050E05093E9035C
:1024B0004093E80338CE443208F48FCF848195816D
:1024C000CE978C9708F089CF4AE256E06EE072E032
:1024D00080E10E94AF02882309F47FCFE091C6011A
:1024E000F091C701EA5BFF4F8081918108970797C0
:1024F00008F073CF8091F0039091F103A091F20363
:10250000B091F3038093BE019093BF01A093C001EB
:10251000B093C10180E18093C20185E090E013CDCA
:10252000843408F474CF84819581825491098F9703
:1025300008F06DCF40E956E060E372E080E20E946F
:10254000AF02882309F463CF8091F0039091F103E7
:10255000A091F203B091F3038093BE019093BF0169
:10256000A093C001B093C10180E28093C20184E1D5
:1025700090E0E9CC1092C2012FEF3FEFA901209328
:10258000BE013093BF014093C0015093C10131E0BF
:102590003093120444E150E089CFE091C801EA830E
:1025A000E63008F4D8CDE091C601F091C70132962B
:1025B00025EC3DE94CE151E883E089831AE0848110
:1025C000958161917191189F7001199FF00C1124F0
:1025D000DB0103E0AA0FBB1F0A95E1F700E0EA1652
:1025E000FB0678F0169FD001179FB00D112463E011
:1025F000880F991F6A95E1F702E0A817B90708F05C
:1026000001E063E971E080E091E00E94F8159B0130
:10261000AC01202799819F5F9983AA81A913CFCF0D
:102620002093BE013093BF014093C0015093C1017C
:1026300080E28093C2011092BB011092BA01109205
:10264000E9031092E8036FCD853B3AE493073FEF2F
:10265000A307B10509F471C1853A9A45AF4FB10599
:1026600009F079CD4091B4035091B5036091B60360
:102670007091B703465F5F4F6F4F7F4F8EC1809160
:10268000B6019091B701A091B801B091B90186341B
:102690009105A105B1050CF05ECD0197A109B10925
:1026A0008093B6019093B701A093B801B093B9019C
:1026B0008093B2019093B301A093B401B093B5019C
:1026C000A0905F034EEA642E41E0742E5BE4E52E99
:1026D00053E0F52EC12C812C10E000E0B12CAC149D
:1026E00009F440C0D3016D917D918D919D913D0183
:1026F000F701219131917F013B832A83D9015096C3
:102700002D913D914D915C915397621B730B840BFE
:10271000950B97FF07C090958095709561957F4FB9
:102720008F4F9F4F0E94DB14EA81FB81248D358DF2
:10273000468D578D0E94B116962ED72E8A83998387
:10274000282D312F402F5B2D0E945917181624F089
:10275000982CD12E0A83B982C394892C1D2D0A810D
:10276000B980BDCF20E030E0A901682D712F802F06
:102770009B2D0E94591718160CF0B2C0A12C809105
:102780005F03A81608F0ACC06A2C712CF301EE0FA1
:10279000FF1FEE0FFF1FE255FE4FC080D180E28089
:1027A000F380660C771C9301255B3C4F3901D901FE
:1027B0000D90BC91A02DBB83AA8350968D919D91C5
:1027C0000D90BC91A02DA7019601281B390B4A0B37
:1027D0005B0BCA01B9010E94DB14282D312F402F59
:1027E0005B2D0E94B1161B018983992EB701A601AA
:1027F0008A819B810E941109D3010D90BC91A02D6B
:10280000BB83AA8358962D913D914D915C915B9726
:10281000B1018981992D0E94D4148823D1F1EA81D4
:10282000FB81448C558C668C778C73016201F7FABE
:10283000F094F7F8F094A7019601B1018981992DE0
:102840000E94D41487FD0EC0A3019201B1018981B9
:10285000992D0E9459176101E980F92C181614F47A
:102860007301620120E030E0A901C701B6010E94B6
:10287000D414811110C0AA81BB8113961D921D92A0
:102880001D921C921697EA81FB81C08ED18EE28E3A
:10289000F38EA39474CFA701960160E074E284E7FD
:1028A00099E40E94B1169F770E942A17EA81FB8162
:1028B00063837483858396839924939420E030E026
:1028C000A901C701B6010E94591718160CF0912CE6
:1028D000AA81BB8112969C92D6CF882309F43BCC67
:1028E00080E0198290915F03F981F917B0F7EF2F1B
:1028F000F0E0EE0FFF1FE55BFC4F0190F081E02D53
:1029000004891589268937894089518962897389A3
:10291000041715072607370761F083819481A58185
:10292000B681892B8A2B8B2B19F0CF010E94EA04E8
:1029300081E029812F5F2983D5CF4091B601509145
:10294000B7016091B8017091B9014B3B3FEF53075C
:10295000630773070CF4FFCB4150510961097109FA
:102960004093B6015093B7016093B8017093B901D9
:1029700080E693E00E94110980E693E00E945305EF
:10298000EACB4091B4035091B5036091B6037091C6
:10299000B7034A5051096109710984EA93E00E9422
:1029A000110984EA93E0EACF0E94161508F481E049
:1029B0000895E89409C097FB3EF490958095709532
:1029C00061957F4F8F4F9F4F9923A9F0F92F96E97B
:1029D000BB279395F695879577956795B795F111F0
:1029E000F8CFFAF4BB0F11F460FF1BC06F5F7F4F8D
:1029F0008F4F9F4F16C0882311F096E911C077239F
:102A000021F09EE8872F762F05C0662371F096E8A7
:102A1000862F70E060E02AF09A95660F771F881F76
:102A2000DAF7880F9695879597F90895990F00081A
:102A3000550FAA0BE0E8FEEF16161706E807F90790
:102A4000C0F012161306E407F50798F0621B730B2B
:102A5000840B950B39F40A2661F0232B242B252BAC
:102A600021F408950A2609F4A140A6958FEF811D4F
:102A7000811D08950E944D150C94BE150E94B0153D
:102A800038F00E94B71520F0952311F00C94A7158B
:102A90000C94AD1511240C94F2150E94CF1570F30F
:102AA000959FC1F3950F50E0551F629FF001729FF3
:102AB000BB27F00DB11D639FAA27F00DB11DAA1F02
:102AC000649F6627B00DA11D661F829F2227B00D4F
:102AD000A11D621F739FB00DA11D621F839FA00DDA
:102AE000611D221F749F3327A00D611D231F849F2A
:102AF000600D211D822F762F6A2F11249F57504081
:102B00009AF0F1F088234AF0EE0FFF1FBB1F661FFB
:102B1000771F881F91505040A9F79E3F510580F0C4
:102B20000C94A7150C94F2155F3FE4F3983ED4F390
:102B3000869577956795B795F795E7959F5FC1F768
:102B4000FE2B880F911D9695879597F9089597F913
:102B50009F6780E870E060E008959FEF80EC089543
:102B600000240A941616170618060906089500246C
:102B70000A9412161306140605060895092E0394E6
:102B8000000C11F4882352F0BB0F40F4BF2B11F45A
:102B900060FF04C06F5F7F4F8F4F9F4F089557FDB9
:102BA0009058440F551F59F05F3F71F04795880FBB
:102BB00097FB991F61F09F3F79F087950895121652
:102BC00013061406551FF2CF4695F1DF08C01616FE
:102BD00017061806991FF1CF8695710561050894AF
:102BE0000895E894BB2766277727CB0197F90895C6
:102BF000DB018F939F930E942A16BF91AF91A29FF2
:102C0000800D911DA39F900DB29F900D11240895EA
:102C1000A1E21A2EAA1BBB1BFD010DC0AA1FBB1FE0
:102C2000EE1FFF1FA217B307E407F50720F0A21B52
:102C3000B30BE40BF50B661F771F881F991F1A94BF
:102C400069F760957095809590959B01AC01BD01E9
:102C5000CF0108950E943516A59F900DB49F900D49
:102C6000A49F800D911D11240895A29FB001B39FD0
:102C7000C001A39F700D811D1124911DB29F700D85
:102C8000811D1124911D08955058BB27AA270E9429
:102C90005C160C94BE150E94B01538F00E94B71552
:102CA00020F039F49F3F19F426F40C94AD150EF47E
:102CB000E095E7FB0C94A715E92F0E94CF1558F378
:102CC000BA17620773078407950720F079F4A6F511
:102CD0000C94F1150EF4E0950B2EBA2FA02D0B01DC
:102CE000B90190010C01CA01A0011124FF27591B51
:102CF00099F0593F50F4503E68F11A16F040A22F57
:102D0000232F342F4427585FF3CF469537952795C7
:102D1000A795F0405395C9F77EF41F16BA0B620BC6
:102D2000730B840BBAF09150A1F0FF0FBB1F661F0D
:102D3000771F881FC2F70EC0BA0F621F731F841F50
:102D400048F4879577956795B795F7959E3F08F076
:102D5000B0CF9395880F08F09927EE0F9795879538
:102D600008950E94C5160C94BE150E94B71558F020
:102D70000E94B01540F029F45F3F29F00C94A7158C
:102D800051110C94F2150C94AD150E94CF1568F3F7
:102D90009923B1F3552391F3951B550BBB27AA2714
:102DA00062177307840738F09F5F5F4F220F331F4E
:102DB000441FAA1FA9F335D00E2E3AF0E0E832D016
:102DC00091505040E695001CCAF72BD0FE2F29D019
:102DD000660F771F881FBB1F261737074807AB07EB
:102DE000B0E809F0BB0B802DBF01FF2793585F4F60
:102DF0003AF09E3F510578F00C94A7150C94F2150B
:102E00005F3FE4F3983ED4F3869577956795B79541
:102E1000F7959F5FC9F7880F911D9695879597F94C
:102E20000895E1E0660F771F881FBB1F62177307C5
:102E30008407BA0720F0621B730B840BBA0BEE1FDA
:102E400088F7E09508950E942A176894B1110C94B0
:102E5000F21508950E94D71588F09F5798F0B92F62
:102E60009927B751B0F0E1F0660F771F881F991FBF
:102E70001AF0BA95C9F714C0B13091F00E94F1155B
:102E8000B1E008950C94F115672F782F8827B85F6B
:102E900039F0B93FCCF3869577956795B395D9F717
:102EA0003EF490958095709561957F4F8F4F9F4F21
:102EB00008950E94161508F48FEF089519F416F47A
:102EC0000C94AD150C94A4170E94D715B8F3992350
:102ED000C9F3B6F39F57550B87FF0E94B217002422
:102EE000A0E640EA900180585695979528F4805CBA
:102EF000660F771F881F20F026173707480730F422
:102F0000621B730B840B202931294A2BA695179439
:102F10000794202531254A2758F7660F771F881F09
:102F200020F026173707480730F4620B730B840B29
:102F3000200D311D411DA09581F7B901842F9158B5
:102F4000880F9695879508959F3F31F0915020F412
:102F5000879577956795B795880F911D9695879575
:102F600097F9089591505040660F771F881FD2F748
:102F70000895AA1BBB1B51E107C0AA1FBB1FA617C0
:102F8000B70710F0A61BB70B881F991F5A95A9F712
:102F900080959095BC01CD010895052E97FB1EF4F8
:102FA00000940E94E41757FD07D00E94081607FC02
:102FB00003D04EF40C94E41750954095309521952C
:102FC0003F4F4F4F5F4F0895909580957095619555
:102FD0007F4F8F4F9F4F0895EE0FFF1F0590F49185
:102FE000E02D09940F931F93CF93DF9382309105C7
:102FF00010F482E090E0E0916204F091630430E02C
:1030000020E0B0E0A0E0309799F42115310509F4F3
:103010004AC0281B390B24303105D8F58A819B81A1
:103020006115710589F1FB0193838283FE0111C053
:10303000408151810281138148175907E0F04817F8
:10304000590799F4109761F012960C931297139602
:103050001C933296CF01DF91CF911F910F9108956C
:103060000093620410936304F4CF2115310551F0ED
:103070004217530738F0A901DB019A01BD01DF01B6
:10308000F801C1CFEF01F9CF9093630480936204FC
:10309000CDCFFE01E20FF31F8193919322503109AE
:1030A00039832883D7CF2091600430916104232B8A
:1030B00041F4209102013091030130936104209387
:1030C000600420910001309101012115310541F486
:1030D0002DB73EB74091040150910501241B350BDB
:1030E000E0916004F0916104E217F307A0F42E1B55
:1030F0003F0B2817390778F0AC014E5F5F4F24175C
:10310000350748F04E0F5F1F5093610440936004F1
:10311000819391939FCFF0E0E0E09CCFCF93DF933A
:103120000097E9F0FC01329713821282A0916204A9
:10313000B0916304ED0130E020E01097A1F420810C
:103140003181820F931F2091600430916104281710
:10315000390709F061C0F0936104E0936004DF91E6
:10316000CF910895EA01CE17DF07E8F54A815B8128
:103170009E0141155105B1F7E901FB83EA834991AD
:103180005991C40FD51FEC17FD0761F4808191811F
:103190000296840F951FE901998388838281938128
:1031A0009B838A83F0E0E0E012968D919C911397C7
:1031B0000097B9F52D913C911197CD010296820FA0
:1031C000931F20916004309161042817390739F664
:1031D000309751F51092630410926204B093610429
:1031E000A0936004BCCFD383C28340815181840FFC
:1031F000951FC817D90761F44E5F5F4F8881998189
:10320000480F591F518340838A819B819383828316
:103210002115310509F0B0CFF0936304E093620407
:103220009ECFFD01DC01C0CF13821282D7CFF8946C
:10323000FFCF00006404800000000000AB057705AC
:1032400030092D0A8A070C074A07F606C406A306AA
:103250006F064E06F805C90500000000450343044B
:0E326000E60292031703F50209030D0A0000AF
:107E0000112484B714BE81FFF0D085E080938100F7
:107E100082E08093C00088E18093C10086E0809377
:107E2000C20080E18093C4008EE0C9D0259A86E02C
:107E300020E33CEF91E0309385002093840096BBD3
:107E4000B09BFECF1D9AA8958150A9F7CC24DD24C4
:107E500088248394B5E0AB2EA1E19A2EF3E0BF2EE7
:107E6000A2D0813461F49FD0082FAFD0023811F036
:107E7000013811F484E001C083E08DD089C08234E0
:107E800011F484E103C0853419F485E0A6D080C0E4
:107E9000853579F488D0E82EFF2485D0082F10E0AE
:107EA000102F00270E291F29000F111F8ED06801E7
:107EB0006FC0863521F484E090D080E0DECF843638
:107EC00009F040C070D06FD0082F6DD080E0C81688
:107ED00080E7D80618F4F601B7BEE895C0E0D1E017
:107EE00062D089930C17E1F7F0E0CF16F0E7DF06D8
:107EF00018F0F601B7BEE89568D007B600FCFDCFD4
:107F0000A601A0E0B1E02C9130E011968C91119780
:107F100090E0982F8827822B932B1296FA010C0160
:107F200087BEE89511244E5F5F4FF1E0A038BF0790
:107F300051F7F601A7BEE89507B600FCFDCF97BE46
:107F4000E89526C08437B1F42ED02DD0F82E2BD052
:107F50003CD0F601EF2C8F010F5F1F4F84911BD097
:107F6000EA94F801C1F70894C11CD11CFA94CF0C13
:107F7000D11C0EC0853739F428D08EE10CD085E9AC
:107F80000AD08FE07ACF813511F488E018D01DD067
:107F900080E101D065CF982F8091C00085FFFCCF94
:107FA0009093C60008958091C00087FFFCCF809118
:107FB000C00084FD01C0A8958091C6000895E0E648
:107FC000F0E098E1908380830895EDDF803219F02E
:107FD00088E0F5DFFFCF84E1DECF1F93182FE3DFCA
:107FE0001150E9F7F2DF1F91089580E0E8DFEE27F6
:047FF000FF270994CA
:027FFE00040479
:00000001FF
