:020000040000FA
:100000000C946F000C9497000C9497000C9497003C
:100010000C9497000C9497000C9497000C94970004
:100020000C9497000C9497000C9497000C949700F4
:100030000C9497000C9497000C9497000C949700E4
:100040000C949B060C9497000C940B070C94E506FB
:100050000C9497000C9497000C9497000C949700C4
:100060000C943D070C949700084AD73B3BCE016E99
:1000700084BCBFFDC12F3D6C74319ABD56833DDAFF
:100080003D00C77F11BED9E4BB4C3E916BAAAABE0E
:10009000000000803F0000000000250028002B0029
:1000A000040404040404040402020202020203031E
:1000B0000303030301020408102040800102040826
:1000C00010200102040810200000000800020100B6
:1000D0000003040700000000000000005C08112479
:1000E0001FBECFEFD8E0DEBFCDBF11E0A0E0B1E092
:1000F000E4E5FFE102C005900D92A234B107D9F703
:1001000022E0A2E4B1E001C01D92AC3CB207E1F7ED
:1001100010E0CFE6D0E004C02197FE010E94A20FBC
:10012000CE36D107C9F70E9495080C94A80F0C94FD
:1001300000008091D2019091D101891B990B089503
:1001400090E0FC01E853FF4F2491FC01EC54FF4F79
:100150003491FC01E056FF4FE491EE23C9F02223D5
:1001600039F0233001F1A8F4213019F1223029F1BE
:10017000F0E0EE0FFF1FEA56FF4FA591B4918FB745
:10018000F894EC91611126C030953E233C938FBFCB
:1001900008952730A9F02830C9F0243049F780911C
:1001A00080008F7D03C0809180008F7780938000D6
:1001B000DFCF84B58F7784BDDBCF84B58F7DFBCF58
:1001C0008091B0008F778093B000D2CF8091B00043
:1001D0008F7DF9CF3E2BDACF3FB7F8948091AD01F8
:1001E0009091AE01A091AF01B091B00126B5A89B4E
:1001F00005C02F3F19F00196A11DB11D3FBFBA2FB9
:10020000A92F982F8827BC01CD01620F711D811D78
:10021000911D42E0660F771F881F991F4A95D1F7FD
:10022000089508950895AF92BF92CF92DF92EF9212
:10023000FF920F931F93CF93DF936C017B018B0190
:10024000040F151FEB015E01AE18BF08C017D107E0
:1002500059F06991D601ED91FC910190F081E02D6A
:10026000C6010995892B79F7C501DF91CF911F91BF
:100270000F91FF90EF90DF90CF90BF90AF900895D7
:10028000FC01538D448D252F30E0842F90E0821B9C
:10029000930B541710F0CF96089501970895FC0121
:1002A000918D828D981761F0A28DAE0FBF2FB11D79
:1002B0005D968C91928D9F5F9F73928F90E00895D1
:1002C0008FEF9FEF0895FC01918D828D981731F08B
:1002D000828DE80FF11D858D90E008958FEF9FEFDF
:1002E0000895FC01918D228D892F90E0805C9F4FB5
:1002F000821B91098F739927089583E292E00E94EF
:10030000710121E0892B09F420E0822F089580E01B
:1003100090E0892B29F00E947D0181110C9400004E
:100320000895FC01A48DA80FB92FB11DA35ABF4F8A
:100330002C91848D90E001968F739927848FA689E4
:10034000B7892C93A089B1898C91837080648C9338
:10035000938D848D981306C00288F389E02D8081E7
:100360008F7D80830895EF92FF920F931F93CF9319
:10037000DF93EC0181E0888F9B8D8C8D98131AC0E0
:10038000E889F989808185FF15C09FB7F894EE89C7
:10039000FF896083E889F989808183708064808324
:1003A0009FBF81E090E0DF91CF911F910F91FF906F
:1003B000EF900895F62E0B8D10E00F5F1F4F0F7317
:1003C0001127E02E8C8D8E110CC00FB607FCFACFD2
:1003D000E889F989808185FFF5CFCE010E949101DE
:1003E000F1CFEB8DEC0FFD2FF11DE35AFF4FF082A3
:1003F0009FB7F8940B8FEA89FB8980818062CFCF09
:10040000CF93DF93EC01888D8823B9F0AA89BB894B
:10041000E889F9898C9185FD03C0808186FD0DC036
:100420000FB607FCF7CF8C9185FFF2CF808185FF57
:10043000EDCFCE010E949101E9CFDF91CF910895D8
:1004400020916301260F3327331F21323105ECF44D
:100450002091F901FC0190E080E0243069F082E015
:100460000895A09163012191AC014D5B5E4FA40FF3
:10047000B52FB11D2C930196861798F380916301D7
:10048000680F6093630180E0089581E00895109201
:10049000F90181E08093F8011092D30161E082E1DB
:1004A0000E94A00061E083E10E94A000E9EBF0E07F
:1004B00080818E7F808380818D7F808388E480939C
:1004C000B80085E48093BC000895CF93DF9391E05A
:1004D000909342018823B9F0C091B800D091BA003E
:1004E0008091BC008A7B8093BC0060E082E10E9426
:1004F000A00060E083E10E94A0000E944702D09328
:10050000BA00C093B800DF91CF9108958F929F9267
:10051000AF92BF92CF92DF92EF92FF920F931F9311
:10052000CF93DF93D0912202D13208F0D7C0182F99
:10053000C09121020E94EC006B017C018091F901C5
:1005400081116BC082E08093F9011093F8018FEF65
:100550008093F7011092F601D093F501A1E0B2E08B
:10056000E5EDF1E080E0D81391C01092D4018091C4
:10057000D401CC0FC82BC093D4018091D30181301A
:1005800009F088C01092D3010E94EC006B017C013D
:100590008091D4018093BB008091FB019091FC017C
:1005A000A091FD01B091FE01892B8A2B8B2BA1F02C
:1005B0000E94EC000091FB011091FC012091FD01D3
:1005C0003091FE016C197D098E099F0906171707E6
:1005D0002807390708F442C08091BC0083FDD8CFBA
:1005E00085EC8093BC000E94EC006B017C01809143
:1005F000F901823009F450C08091F7018F3F09F46E
:100600006FC08091F701803209F46CC08091F701CE
:10061000803309F469C084E026C08091FB01909189
:10062000FC01A091FD01B091FE01892B8A2B8B2B3F
:1006300009F484CF0E94EC008090FB019090FC01B3
:10064000A090FD01B090FE016C197D098E099F09F3
:1006500086169706A806B90608F070CF8091FA01B1
:100660000E94650285E01092000210922202109210
:10067000FF01DF91CF911F910F91FF90EF90DF90DD
:10068000CF90BF90AF909F908F9008959D91919340
:100690008F5F69CF85EEA5CF8091FB019091FC0122
:1006A000A091FD01B091FE01892B8A2B8B2B09F4BF
:1006B0009ECF0E94EC000091FB011091FC01209163
:1006C000FD013091FE016C197D098E099F09061705
:1006D00017072807390708F08ACFC0CF81E0C3CFBA
:1006E00080E0C1CF82E0BFCF83E0BDCF0895E0912D
:1006F000D1018091D201E81730F4F0E0EF54FE4FC1
:10070000808190E008958FEF9FEF08959091D1013F
:100710008091D2012FEF3FEF981748F4E92FF0E0D6
:10072000EF54FE4F208130E09F5F9093D101C901CB
:100730000895CF92DF92EF92FF920F931F93CF9382
:10074000DF937C01CB018A012091FF01222389F0F4
:10075000EB016B01C40ED51ECC15DD0569F0699166
:10076000D701ED91FC910190F081E02DC701099531
:10077000F3CF642F0E942002C801DF91CF911F9117
:100780000F91FF90EF90DF90CF900895CF93DF937C
:100790001F92CDB7DEB769832091FF012223F9F0C4
:1007A00020912202203258F021E030E0FC01338316
:1007B000228390E080E00F90DF91CF9108958091A7
:1007C0000002E82FF0E0EF5FFD4F998190838F5F8B
:1007D000809300028093220281E090E0ECCF61E000
:1007E000CE0101960E942002F7CFCF93DF93EB0159
:1007F00091E09093FF0198E69093210210920002FD
:1008000010922202682F80EC92E00E94C6030197AA
:1008100081F441E050E0BE0180EC92E00E94990337
:10082000019751F481E00E94860290E0DF91CF9120
:1008300008958CEE9FEFFACF8BEE9FEFF7CF90E00D
:1008400080E008954F925F926F927F928F929F9275
:10085000AF92BF92CF92DF92EF92FF920F931F93CE
:10086000CF937B016A0191E09093FF0198E690930A
:1008700021021092000210922202682F80EC92E076
:100880000E94C60306EF1FEF019709F0DEC080E06B
:100890000E948602082F10E00115110509F0D5C04D
:1008A0000E94EC004B015C018091F901811165C04F
:1008B000CC2D81E08093F9018093F8019FEF909314
:1008C000F7011092F6019C0D9093F5018093D401ED
:1008D0008091D401806D8093D4018091D3018130C7
:1008E00009F08AC01092D3010E94EC004B015C0118
:1008F0008091D4018093BB008091FB019091FC0119
:10090000A091FD01B091FE01892B8A2B8B2BA1F0C8
:100910000E94EC004090FB015090FC016090FD01B2
:100920007090FE01681979098A099B0946165706D5
:100930006806790608F442C08091BC0083FDD8CFD8
:1009400085EC8093BC000E94EC004B015C0180911F
:10095000F901813009F452C08091F6018C1710F42E
:10096000C091F601A5EDB1E0E1EBF1E080E08C177C
:1009700051F19D9191938F5FFACF8091FB019091FE
:10098000FC01A091FD01B091FE01892B8A2B8B2BDC
:1009900009F48ACF0E94EC004090FB015090FC01CA
:1009A0006090FD017090FE01681979098A099B0920
:1009B000461657066806790608F076CF8091FA0148
:1009C0000E946502C0E01092D101C093D20157018C
:1009D000F12CE12C8091D101C81791F1CE14DF04E4
:1009E000A1F180EC92E00E9486039FEFE91AF90AD8
:1009F000F50181935F01EECF85EEA3CF8091FB01DE
:100A00009091FC01A091FD01B091FE01892B8A2BF0
:100A10008B2B09F49CCF0E94EC004090FB0150907E
:100A2000FC016090FD017090FE01681979098A0946
:100A30009B09461657066806790608F088CFBECF90
:100A4000CE14DF0411F005EF1FEFC801CF911F9105
:100A50000F91FF90EF90DF90CF90BF90AF909F905D
:100A60008F907F906F905F904F900895FC01019060
:100A70000020E9F73197AF01481B590BBC0183E215
:100A800092E00C9413018F929F92AF92BF920F93BA
:100A90001F93CF93DF93CDB7DEB7A1970FB6F8942E
:100AA000DEBF0FBECDBF19A2423008F44AE08E016E
:100AB0000F5D1F4F842E912CB12CA12CA501940108
:100AC0000E94610FE62FB901CA01EA30F4F4E05D3B
:100AD000D801EE938D01232B242B252B79F790E061
:100AE00080E0109719F0CD010E943605A1960FB64F
:100AF000F894DEBF0FBECDBFDF91CF911F910F9154
:100B0000BF90AF909F908F900895E95CE1CF4F9296
:100B10005F926F927F928F929F92AF92BF92CF928D
:100B2000DF92EF92FF920F931F93CF936B017C01A3
:100B3000742EAC019B010E94470F882399F080E33B
:100B400091E0CF911F910F91FF90EF90DF90CF90A8
:100B5000BF90AF909F908F907F906F905F904F90DD
:100B60000C94360546015701E894B7F82FEF3FEF94
:100B70004FE75FE7C501B4010E94470F81110DC027
:100B80002FEF3FEF4FE75FE7C501B4010E94040D6F
:100B900018161CF484E391E0D4CF2FEF3FEF4FE71A
:100BA0005FE4C701B6010E94830E18161CF488E3A7
:100BB00091E0C7CF2FEF3FEF4FE75FECC701B601E2
:100BC0000E94040D87FDF3CF20E030E0A901C701AA
:100BD000B6010E94040D10E000E087FF0AC06DE23C
:100BE00083E292E00E94B3018C01F7FAF094F7F8E7
:100BF000F094C0E060E070E080E09FE37C1641F09C
:100C000020E030E040E251E40E94090DCF5FF6CFD2
:100C1000A70196010E94260C2B013C010E947B0D2E
:100C20004B015C014AE00E9443057C01E00EF11E8D
:100C3000CC23C1F1C501B4010E94AA0D9B01AC01F6
:100C4000C301B2010E94250C4B015C016EE283E2FC
:100C500092E00E94B301E80EF91EC15018F120E0A5
:100C600030E040E251E4C501B4010E94900E2B0136
:100C70003C010E947B0D4B01B12CA12C4AE0C50127
:100C8000B4010E944305E80EF91EC501B4010E949B
:100C9000AA0D9B01AC01C301B2010E94250C4B01BE
:100CA0005C01DBCFC701CF911F910F91FF90EF90B7
:100CB000DF90CF90BF90AF909F908F907F906F907C
:100CC0005F904F90089585ED8093BC008091FB016B
:100CD0009091FC01A091FD01B091FE010796A11D2C
:100CE000B11D23E0B695A795979587952A95D1F7DD
:100CF0002091BC0024FD03C01092F9010895409199
:100D0000FB015091FC016091FD017091FE01452BAA
:100D1000462B472B69F30097A105B10541F02AE264
:100D20002A95F1F700C00197A109B109E1CF80919F
:100D3000FA010C9465021F920F920FB60F921124C4
:100D40002F933F938F939F93AF93BF938091A9016C
:100D50009091AA01A091AB01B091AC013091A80192
:100D600023E0230F2D3758F50196A11DB11D2093C7
:100D7000A8018093A9019093AA01A093AB01B0931D
:100D8000AC018091AD019091AE01A091AF01B09105
:100D9000B0010196A11DB11D8093AD019093AE01EC
:100DA000A093AF01B093B001BF91AF919F918F918C
:100DB0003F912F910F900FBE0F901F90189526E82E
:100DC000230F0296A11DB11DD2CF1F920F920FB615
:100DD0000F9211242F933F934F935F936F937F93C1
:100DE0008F939F93AF93BF93EF93FF9383E292E030
:100DF0000E949101FF91EF91BF91AF919F918F91CF
:100E00007F916F915F914F913F912F910F900FBE06
:100E10000F901F9018951F920F920FB60F921124EA
:100E20002F938F939F93EF93FF93E0913302F09171
:100E300034028081E0913902F0913A0282FD1BC0B8
:100E4000908180913C028F5F8F7320913D028217C9
:100E500041F0E0913C02F0E0ED5DFD4F958F809315
:100E60003C02FF91EF919F918F912F910F900FBEB8
:100E70000F901F9018958081F4CF1F920F920FB69C
:100E80000F9211242F933F934F935F936F937F9310
:100E90008F939F93AF93BF93EF93FF938091B9008C
:100EA000887F803609F44AC0F0F5883209F4A7C07B
:100EB00018F5803109F49BC0B8F4882309F4F9C00F
:100EC000883009F494C0FF91EF91BF91AF919F9149
:100ED0008F917F916F915F914F913F912F910F90E3
:100EE0000FBE0F901F901895883109F488C080328A
:100EF00051F78093F70114C0803409F49DC040F489
:100F00008033B9F38833F9F68093F70185ECB0C0EC
:100F1000803509F485C0883509F496C0883499F67F
:100F20000E946306D0CF883909F48CC038F5883721
:100F300029F050F4883611F0803729F683E0809349
:100F4000F9011092850157C0883809F47BC08039B7
:100F500019F0803809F0B7CF80918501803208F010
:100F600071C0E091850181E08E0F809385018091B1
:100F7000BB00F0E0EB59FE4F80833DC0803B39F071
:100F8000E0F4803A09F479C0883A09F09CCF84E013
:100F90008093F9011092640110926301E09188013D
:100FA000F091890109958091630181110FC081E061
:100FB000809363011092430109C0803C09F4A6CFDD
:100FC000883C09F4A3CF883B09F07DCFE091640110
:100FD00081E08E0F80936401F0E0ED5BFE4F808135
:100FE0008093BB00909164018091630129C080913E
:100FF000D4018093BB0085EC8093BC0064CF9091BA
:10100000F6018091F501981758F5E091F60181E01D
:101010008E0F8093F601F0E0EB52FE4F8081E9CF16
:10102000E091F60181E08E0F8093F6018091BB0084
:10103000F0E0EB52FE4F80839091F6018091F50134
:101040009817C8F285E8D8CFE091F60181E08E0FBD
:101050008093F6018091BB00F0E0EB52FE4F80835D
:101060008091F80181115CCF81E08093D30184EA03
:101070008093BC001092F90126CF85EC8093BC00D0
:101080001092F90180918501803230F4E091850160
:10109000F0E0EB59FE4F10826091850170E0E09125
:1010A0008601F091870185E691E00995109285010E
:1010B0000ACF1092F70134CFE3E2F2E013821282FA
:1010C00088EE93E0A0E0B0E084839583A683B783A5
:1010D00020E131E03183208325EC30E0358724871F
:1010E00024EC30E03787268720EC30E0318B208BF2
:1010F00021EC30E0338B228B22EC30E0358B248BDB
:1011000026EC30E0378B268B118E128E138E148EC8
:10111000E0ECF2E01382128284839583A683B78386
:1011200082E291E0918380830895CF93DF93CDB7DE
:10113000DEB76A970FB6F894DEBF0FBECDBF7894C6
:1011400084B5826084BD84B5816084BD85B58260CC
:1011500085BD85B5816085BD80916E00816080937D
:101160006E001092810080918100826080938100E6
:1011700080918100816080938100809180008160F6
:10118000809380008091B10084608093B100809151
:10119000B00081608093B00080917A008460809379
:1011A0007A0080917A00826080937A0080917A0040
:1011B000816080937A0080917A00806880937A00C1
:1011C0001092C100E0913302F091340282E08083FA
:1011D000E0912F02F09130021082E0913102F09103
:1011E00032028FEC808310923B02E0913702F09143
:1011F000380286E08083E0913502F09136028081EA
:1012000080618083E0913502F091360280818860B0
:101210008083E0913502F09136028081806880837E
:10122000E0913502F091360280818F7D80831092AB
:10123000D1011092D20110920002109222020E945B
:10124000470281E191E0909389018093880182E1D6
:1012500091E090938701809386011F86BE01615FB4
:101260007F4F8BE690E00E94F50381E0888BBE0102
:10127000605F7F4F8AE190E00E94F50388E0898BF0
:10128000BE016F5E7F4F8BE190E00E94F50380E22C
:101290008A8BBE016E5E7F4F89E190E00E94F5036C
:1012A00061E08DE00E94A00004EF11E01B8A1C8A1F
:1012B0001D8A1E8A812C912C5401412C512C320103
:1012C00046E050E0BE016F5F7F4F83E490E00E94F4
:1012D0002204811171C089819A81982789279827D2
:1012E000092E000CAA0BBB0B480E591E6A1E7B1E52
:1012F0008B819C81982789279827092E000CAA0B9F
:10130000BB0B880E991EAA1EBB1E8D819E8198273D
:1013100089279827092E000CAA0BBB0B2B893C8927
:101320004D895E89280F391F4A1F5B1F2B8B3C8B11
:101330004D8B5E8B0150110909F0C2CF84EFC82E8E
:10134000DD24D394E12CF12CC301B201A701960155
:101350000E94830FCA01B9010E94AC0D609308017D
:101360007093090180930A0190930B01C501B401A8
:10137000A70196010E94830FCA01B9010E94AC0D1A
:101380006093040170930501809306019093070117
:101390006B897C898D899E89A70196010E94830FA4
:1013A000CA01B9010E94AC0D609300017093010164
:1013B000809302019093030160E08DE00E94A00001
:1013C00000E010E08FB7F8942091A9013091AA01B4
:1013D0004091AB015091AC012F8B388F498F5A8FC0
:1013E0008FBF4EE050E0BE016F5F7F4F8BE390E018
:1013F0000E942204811184C089819A8198278927BB
:1014000098279093A3018093A2018B819C819827B8
:10141000892798279093A7018093A6018D819E81AB
:101420009827892798279093A5018093A40169851F
:101430007A85762767277627072E000C880B990B6D
:101440000E94AC0D209108013091090140910A01E0
:1014500050910B010E94250C20E030E043E852E45B
:101460000E94090D60939E0170939F018093A001DB
:101470009093A1016B857C85762767277627072EB9
:10148000000C880B990B0E94AC0D20910401309147
:10149000050140910601509107010E94250C20E0B2
:1014A00030E043E852E40E94090D6093920170938A
:1014B000930180939401909395016D857E857627A5
:1014C00067277627072E000C880B990B0E94AC0D1E
:1014D00020910001309101014091020150910301DE
:1014E0000E94250C20E030E043E852E40E94090D00
:1014F00060938E0170938F0180939001909391017E
:101500006091A6017091A701072E000C880B990B22
:101510000E94AC0D4B015C016091A4017091A5018A
:10152000072E000C880B990B0E94AC0D9B01AC019F
:101530000E94900E6B8B7C8B8D8B9E8BA5019401F2
:10154000C501B4010E94900E2B893C894D895E89AA
:101550000E94260C0E94030F6B017C016091A20186
:101560007091A301072E000C880B990B0E94AC0D03
:101570002B013C01A70196010E94A50C6B017C0187
:10158000A3019201C301B2010E94900E2B893C89F4
:101590004D895E890E94260C0E94030F9B01AC01BD
:1015A000C501B4010E94A50C4B015C0120E030E0B4
:1015B00040EF51E460919E0170919F018091A001E4
:1015C0009091A1010E94090D20919A0130919B01F7
:1015D00040919C0150919D010E94260C2B013C01E1
:1015E00020E030E040EF51E460919201709193016E
:1015F00080919401909195010E94090D9B01AC018D
:101600006091960170919701809198019091990154
:101610000E94250C6B8B7C8B8D8B9E8B20E030E0A9
:1016200040EF51E460918E0170918F0180919001A3
:10163000909191010E94090D9B01AC0160918A017A
:1016400070918B0180918C0190918D010E94260CEC
:1016500060938A0170938B0180938C0190938D012C
:1016600020E030E044E353E4C501B4010E94900E51
:101670002BED3FE049E450E40E94090D2AE037EDEC
:1016800043E25DE30E94900E4B015C012FE832ECD7
:1016900045E75FE3C301B2010E94900E9B01AC01DC
:1016A000C501B4010E94260C4B015C0180929A0195
:1016B00090929B01A0929C01B0929D0120E030E0AD
:1016C00044E353E4C701B6010E94900E2BED3FE0C6
:1016D00049E450E40E94090D2AE037ED43E25DE35E
:1016E0000E94900E6B017C012FE832EC45E75FE32E
:1016F0006B897C898D899E890E94900E9B01AC012B
:10170000C701B6010E94260C609396017093970161
:10171000809398019093990183E292E00E94710175
:10172000892BB1F183E292E00E944F018E3209F0E1
:1017300065C061E08DE00E94A00042E0C501B401F7
:101740000E9487058CE391E00E9436056091960126
:1017500070919701809198019091990142E00E94C7
:1017600087058CE391E00E94360560918A017091B3
:101770008B0180918C0190918D0142E00E94870540
:101780008EE391E00E94360560E08DE00E94A000AB
:101790002FB7F8946091A9017091AA018091AB01D3
:1017A0009091AC012FBF2F89388D498D5A8D621BC6
:1017B000730B840B950B0E94AA0D9B01AC0166E58F
:1017C00075E585E092E40E94250C0E947B0D6B017B
:1017D0007C010E94EC004B015C01C114D104E104C6
:1017E000F10439F50115110509F4ECCD0E947D01D4
:1017F000882309F4E7CD0E940000E4CD8A3741F642
:1018000010928A0110928B0110928C0110928D011E
:10181000BFCF31E0C31AD108E108F10848EE840EC9
:1018200043E0941EA11CB11CC114D104E104F104D5
:10183000A1F20E94EC00681979098A099B09683EA7
:1018400073408105910528F7C8CF5058BB27AA27B8
:101850000E943D0C0C94490E0E943B0E38F00E94F1
:10186000420E20F039F49F3F19F426F40C94110E27
:101870000EF4E095E7FB0C940B0EE92F0E945A0E34
:1018800058F3BA17620773078407950720F079F4B5
:10189000A6F50C947C0E0EF4E0950B2EBA2FA02D1D
:1018A0000B01B90190010C01CA01A0011124FF270D
:1018B000591B99F0593F50F4503E68F11A16F04008
:1018C000A22F232F342F4427585FF3CF4695379507
:1018D0002795A795F0405395C9F77EF41F16BA0BCC
:1018E000620B730B840BBAF09150A1F0FF0FBB1F7A
:1018F000661F771F881FC2F70EC0BA0F621F731FC3
:10190000841F48F4879577956795B795F7959E3F1F
:1019100008F0B0CF9395880F08F09927EE0F9795B0
:10192000879508950E943B0E60F080E891E009F4ED
:101930009EEF0E94420E28F040E851E071F45EEF05
:101940000CC00C94110E0C947C0EE92FE0780E94D0
:101950005A0E40F3092E052AB1F326173707480718
:10196000590738F00E2E07F8E02569F0E025E0640D
:101970000AC0EF6307F8009407FADB01B9019D0183
:10198000DC01CA01AD01EF930E94200D0E94490EB7
:101990000E94D50C5F91552339F02BED3FE049E4CF
:1019A00050FD49EC0C94260C0895DF93DD27B92FE8
:1019B000BF7740E85FE31616170648075B0718F481
:1019C000D92F0E94880E9F938F937F936F930E94CD
:1019D000430FE8E6F0E00E94140E0E94490E2F919A
:1019E0003F914F915F910E94A30EDD2351F09058DB
:1019F000A2EA2AED3FE049EC5FE3D0785D270E9440
:101A00003D0CDF910C94490E0E94E70D08F481E033
:101A100008950E941D0D0C94490E0E94420E58F02C
:101A20000E943B0E40F029F45F3F29F00C940B0E0E
:101A300051110C947D0E0C94110E0E945A0E68F3F5
:101A40009923B1F3552391F3951B550BBB27AA2777
:101A500062177307840738F09F5F5F4F220F331FB1
:101A6000441FAA1FA9F335D00E2E3AF0E0E832D079
:101A700091505040E695001CCAF72BD0FE2F29D07C
:101A8000660F771F881FBB1F261737074807AB074E
:101A9000B0E809F0BB0B802DBF01FF2793585F4FC3
:101AA0003AF09E3F510578F00C940B0E0C947D0E8D
:101AB0005F3FE4F3983ED4F3869577956795B795A5
:101AC000F7959F5FC9F7880F911D9695879597F9B0
:101AD0000895E1E0660F771F881FBB1F6217730729
:101AE0008407BA0720F0621B730B840BBA0BEE1F3E
:101AF00088F7E09508950E94620E88F09F5798F04D
:101B0000B92F9927B751B0F0E1F0660F771F881F02
:101B1000991F1AF0BA95C9F714C0B13091F00E941C
:101B20007C0EB1E008950C947C0E672F782F8827E7
:101B3000B85F39F0B93FCCF3869577956795B39543
:101B4000D9F73EF490958095709561957F4F8F4FB2
:101B50009F4F0895E89409C097FB3EF490958095B7
:101B6000709561957F4F8F4F9F4F9923A9F0F92F63
:101B700096E9BB279395F695879577956795B795E1
:101B8000F111F8CFFAF4BB0F11F460FF1BC06F5FC7
:101B90007F4F8F4F9F4F16C0882311F096E911C0D9
:101BA000772321F09EE8872F762F05C0662371F0FA
:101BB00096E8862F70E060E02AF09A95660F771F0E
:101BC000881FDAF7880F9695879597F90895990FEA
:101BD0000008550FAA0BE0E8FEEF16161706E807F7
:101BE000F907C0F012161306E407F50798F0621B18
:101BF000730B840B950B39F40A2661F0232B242BED
:101C0000252B21F408950A2609F4A140A6958FEF0B
:101C1000811D811D089597F99F6780E870E060E05D
:101C200008959FEF80EC0895DF93CF931F930F9358
:101C3000FF92EF92DF927B018C01689406C0DA2E4E
:101C4000EF010E94A30EFE01E894A5912591359124
:101C500045915591A6F3EF010E943D0CFE019701BD
:101C6000A801DA9469F7DF90EF90FF900F911F9130
:101C7000CF91DF91089500240A94161617061806CE
:101C80000906089500240A94121613061406050680
:101C90000895092E0394000C11F4882352F0BB0F11
:101CA00040F4BF2B11F460FF04C06F5F7F4F8F4F74
:101CB0009F4F089557FD9058440F551F59F05F3FAF
:101CC00071F04795880F97FB991F61F09F3F79F05E
:101CD00087950895121613061406551FF2CF4695E0
:101CE000F1DF08C0161617061806991FF1CF869562
:101CF0007105610508940895E894BB276627772746
:101D0000CB0197F908950E94E70D08F48FEF08952D
:101D10009B01AC0160E070E080E89FE30C94090D4A
:101D20000E94A30E0C94490E0E943B0E38F00E94B4
:101D3000420E20F0952311F00C940B0E0C94110E12
:101D400011240C947D0E0E945A0E70F3959FC1F3DE
:101D5000950F50E0551F629FF001729FBB27F00D59
:101D6000B11D639FAA27F00DB11DAA1F649F6627AE
:101D7000B00DA11D661F829F2227B00DA11D621FFD
:101D8000739FB00DA11D621F839FA00D611D221FB7
:101D9000749F3327A00D611D231F849F600D211D9B
:101DA000822F762F6A2F11249F5750409AF0F1F01E
:101DB00088234AF0EE0FFF1FBB1F661F771F881F87
:101DC00091505040A9F79E3F510580F00C940B0EA6
:101DD0000C947D0E5F3FE4F3983ED4F3869577959F
:101DE0006795B795F795E7959F5FC1F7FE2B880F2D
:101DF000911D9695879597F9089519F416F40C940A
:101E0000110E0C944C0F0E94620EB8F39923C9F383
:101E1000B6F39F57550B87FF0E945A0F0024A0E688
:101E200040EA900180585695979528F4805C660F9B
:101E3000771F881F20F026173707480730F4621BEA
:101E4000730B840B202931294A2BA69517940794EC
:101E5000202531254A2758F7660F771F881F20F065
:101E600026173707480730F4620B730B840B200DDD
:101E7000311D411DA09581F7B901842F9158880F1C
:101E80009695879508959B01AC010C94900E0E9445
:101E9000E70D880B990B08959F3F31F0915020F486
:101EA000879577956795B795880F911D9695879536
:101EB00097F9089591505040660F771F881FD2F709
:101EC0000895A1E21A2EAA1BBB1BFD010DC0AA1F7B
:101ED000BB1FEE1FFF1FA217B307E407F50720F093
:101EE000A21BB30BE40BF50B661F771F881F991F0E
:101EF0001A9469F760957095809590959B01AC0157
:101F0000BD01CF010895052E97FB1EF400940E9499
:101F10009A0F57FD07D00E94610F07FC03D04EF4C3
:101F20000C949A0F50954095309521953F4F4F4F07
:101F30005F4F089590958095709561957F4F8F4F75
:101F40009F4F0895EE0FFF1F0590F491E02D099427
:101F5000F894FFCF0000A6C20000904100808CC31F
:101F600000000000B30113014001000271014F01A4
:101F7000630100000000C60399031F047603990063
:101F8000860377036E616E00696E66006F76660089
:061F90002C000D0A000008
:107E0000112484B714BE81FFF0D085E080938100F7
:107E100082E08093C00088E18093C10086E0809377
:107E2000C20080E18093C4008EE0C9D0259A86E02C
:107E300020E33CEF91E0309385002093840096BBD3
:107E4000B09BFECF1D9AA8958150A9F7CC24DD24C4
:107E500088248394B5E0AB2EA1E19A2EF3E0BF2EE7
:107E6000A2D0813461F49FD0082FAFD0023811F036
:107E7000013811F484E001C083E08DD089C08234E0
:107E800011F484E103C0853419F485E0A6D080C0E4
:107E9000853579F488D0E82EFF2485D0082F10E0AE
:107EA000102F00270E291F29000F111F8ED06801E7
:107EB0006FC0863521F484E090D080E0DECF843638
:107EC00009F040C070D06FD0082F6DD080E0C81688
:107ED00080E7D80618F4F601B7BEE895C0E0D1E017
:107EE00062D089930C17E1F7F0E0CF16F0E7DF06D8
:107EF00018F0F601B7BEE89568D007B600FCFDCFD4
:107F0000A601A0E0B1E02C9130E011968C91119780
:107F100090E0982F8827822B932B1296FA010C0160
:107F200087BEE89511244E5F5F4FF1E0A038BF0790
:107F300051F7F601A7BEE89507B600FCFDCF97BE46
:107F4000E89526C08437B1F42ED02DD0F82E2BD052
:107F50003CD0F601EF2C8F010F5F1F4F84911BD097
:107F6000EA94F801C1F70894C11CD11CFA94CF0C13
:107F7000D11C0EC0853739F428D08EE10CD085E9AC
:107F80000AD08FE07ACF813511F488E018D01DD067
:107F900080E101D065CF982F8091C00085FFFCCF94
:107FA0009093C60008958091C00087FFFCCF809118
:107FB000C00084FD01C0A8958091C6000895E0E648
:107FC000F0E098E1908380830895EDDF803219F02E
:107FD00088E0F5DFFFCF84E1DECF1F93182FE3DFCA
:107FE0001150E9F7F2DF1F91089580E0E8DFEE27F6
:047FF000FF270994CA
:027FFE00040479
:00000001FF
