:100000000C945D000C9485000C9485000C94850084
:100010000C9485000C9485000C9485000C9485004C
:100020000C9485000C9485000C9485000C9485003C
:100030000C9485000C9485000C9485000C9485002C
:100040000C94A10C0C9485000C94110D0C94EB0CE9
:100050000C9485000C9485000C9485000C9485000C
:100060000C94430D0C948500000000080002010070
:100070000003040700000000000000000000000072
:10008000250028002B0000000000240027002A0083
:10009000040404040404040402020202020203032E
:1000A0000303030301020408102040800102040836
:1000B0001020010204081020F70E11241FBECFEFFC
:1000C000D8E0DEBFCDBF23E0A6E6B1E001C01D92BF
:1000D000AF37B207E1F711E0A0E0B1E0EEECF3E3F7
:1000E00002C005900D92A636B107D9F710E0CDE514
:1000F000D0E004C02197FE010E94C317CC35D10780
:10010000C9F70E944A0F0C94E5190C94000090E086
:10011000FC01EC55FF4F249180579F4FFC018491C7
:10012000882399F090E0880F991FFC01EA57FF4F50
:10013000A591B491FC01E458FF4F859194918FB73C
:10014000F894EC91E22BEC938FBF08958091E40139
:100150009091E301891B990B08952F923F924F9242
:100160005F926F927F928F929F92AF92BF92CF9247
:10017000DF92EF92FF920F931F93CF93DF9300D004
:1001800000D01F92CDB7DEB75C019090F2027C01E7
:100190002EED32E03D832C8300E01A821B82212C5D
:1001A00010E09016D1F1D7016D917D918D919D91C7
:1001B0007D01EC81FD81C190D190FD83EC83D6015E
:1001C00050964D905D906D907C9053976419750991
:1001D0008609970997FF07C090958095709561955E
:1001E0007F4F8F4F9F4F0E949D14F601248D358DB8
:1001F000468D578D0E946116762E872E6C012A81BE
:100200003B81422D512F0E940917181624F47A823F
:100210008B822C2C1D2D0F5FC4CF20E030E0A90174
:100220006A817B81822D912F0E94091718160CF08C
:10023000C5C019828091F202F981F81708F0BEC09A
:100240002F2F30E0F901EE0FFF1FEE0FFF1FEA0D19
:10025000FB1D4080518062807380220F331F3D83DD
:100260002C83F901E252FD4FE080F180F701808993
:100270009189A289B389A3019201281B390B4A0BEA
:100280005B0BCA01B9010E949D142A813B81422D5A
:10029000512F0E946116362E872E982E092FF701B6
:1002A00084899589A689B789481659066A067B0606
:1002B00061F0448A558A668A778A0190F081E02D40
:1002C0000084F185E02DC7010995EC81FD81E252A2
:1002D000FD4F208131813D832C83D90158962D918A
:1002E0003D914D915C915B97632D782D892D902FD9
:1002F0000E9496148823E9F1EC81FD81448C558C91
:10030000668C778C73016201F7FAF094F7F8F09439
:10031000A7019601632D782D892D902F0E949614A8
:1003200087FD10C0A3019201632D782D892D902F98
:100330000E94091773016201181624F0C32CD82CEF
:10034000E92CF02E20E030E0A901C701B6010E949F
:100350009614811112C0AC81BD8113961D921D921D
:100360001D921C921697EC81FD81C08ED18EE28E7B
:10037000F38EF981FF5FF9835DCFA701960160E0FD
:1003800074E284E799E40E9461169F770E94DA166E
:10039000EC81FD81638374838583968301E020E093
:1003A00030E0A901C701B6010E94091718160CF028
:1003B00000E0AC81BD8112960C93D5CF0F900F90C9
:1003C0000F900F900F90DF91CF911F910F91FF90A1
:1003D000EF90DF90CF90BF90AF909F908F907F90E5
:1003E0006F905F904F903F902F90089590E0FC01A8
:1003F000E859FF4F2491FC01EC55FF4F3491FC016B
:10040000E057FF4FE491EE23C9F0222339F0233067
:1004100001F1A8F4213019F1223029F1F0E0EE0FBA
:10042000FF1FE458FF4FA591B4918FB7F894EC915A
:10043000611126C030953E233C938FBF089527302D
:10044000A9F02830C9F0243049F7809180008F7DD1
:1004500003C0809180008F7780938000DFCF84B5C8
:100460008F7784BDDBCF84B58F7DFBCF8091B000CB
:100470008F778093B000D2CF8091B0008F7DF9CF7D
:100480003E2BDACF3FB7F8948091BF019091C00125
:10049000A091C101B091C20126B5A89B05C02F3F14
:1004A00019F00196A11DB11D3FBFBA2FA92F982F9A
:1004B0008827BC01CD01620F711D811D911D42E095
:1004C000660F771F881F991F4A95D1F70895CF921D
:1004D000DF92EF92FF921F93CF93DF9380E010E0C3
:1004E0009091F202191708F059C0E12FF0E0EE0FD9
:1004F000FF1FE252FD4FC081D181CC88DD88EE889C
:10050000FF88488959896A897B89C416D506E60619
:10051000F70649F08B819C81AD81BE81892B8A2BA6
:100520008B2B19F481E01F5FDBCF0E9442026B012D
:100530007C0188A599A5AAA5BBA5B701A601481B62
:10054000590B6A0B7B0B8B819C81AD81BE81481757
:1005500059076A077B0730F388899989AA89BB897B
:100560002A812223B9F00196A11DB11D888B998B98
:10057000AA8BBB8B488959896A897B89E881F98173
:100580000484F585E02DCE010995C8A6D9A6EAA672
:10059000FBA6C8CF0197A109B109E8CF81119ECF71
:1005A000DF91CF911F91FF90EF90DF90CF90089552
:1005B0002FB7F8946091BB017091BC018091BD018F
:1005C0009091BE012FBF089508950895AF92BF92F4
:1005D000CF92DF92EF92FF920F931F93CF93DF930F
:1005E0006C017B018B01040F151FEB015E01AE183E
:1005F000BF08C017D10759F06991D601ED91FC9160
:100600000190F081E02DC6010995892B79F7C5018C
:10061000DF91CF911F910F91FF90EF90DF90CF90DE
:10062000BF90AF900895FC01538D448D252F30E08D
:10063000842F90E0821B930B541710F0CF960895EF
:1006400001970895FC01918D828D981761F0A28D1C
:10065000AE0FBF2FB11D5D968C91928D9F5F9F73E2
:10066000928F90E008958FEF9FEF08950F931F935F
:100670000E94D80260933D0270933E0280933F0235
:100680009093400285E392E00E94220397FF1DC0F1
:100690000E94D80200913D0210913E0220913F023B
:1006A00030914002601B710B820B930B0091390259
:1006B00010913A0220913B0230913C026017710781
:1006C00082079307F8F28FEF9FEF1F910F91089524
:1006D000FC01918D828D981731F0828DE80FF11D0C
:1006E000858D90E008958FEF9FEF0895FC01918D27
:1006F000228D892F90E0805C9F4F821B91098F7320
:100700009927089585E392E00E94760321E0892BE2
:1007100009F420E0822F089580E090E0892B29F0F1
:100720000E94820381110C9400000895FC01A48DA5
:10073000A80FB92FB11DA35ABF4F2C91848D90E003
:1007400001968F739927848FA689B7892C93A089E6
:10075000B1898C91837080648C93938D848D981370
:1007600006C00288F389E02D80818F7D8083089503
:10077000EF92FF920F931F93CF93DF93EC0181E0F1
:10078000888F9B8D8C8D98131AC0E889F989808198
:1007900085FF15C09FB7F894EE89FF896083E889CB
:1007A000F98980818370806480839FBF81E090E0BD
:1007B000DF91CF911F910F91FF90EF900895F62E4A
:1007C0000B8D10E00F5F1F4F0F731127E02E8C8DE4
:1007D0008E110CC00FB607FCFACFE889F989808129
:1007E00085FFF5CFCE010E949603F1CFEB8DEC0F84
:1007F000FD2FF11DE35AFF4FF0829FB7F8940B8F46
:10080000EA89FB8980818062CFCFCF93DF93EC01AF
:10081000888D8823B9F0AA89BB89E889F9898C91E8
:1008200085FD03C0808186FD0DC00FB607FCF7CFA4
:100830008C9185FFF2CF808185FFEDCFCE010E94A4
:100840009603E9CFDF91CF91089520918701260F7C
:100850003327331F21323105ECF420910B02FC01C8
:1008600090E080E0243069F082E00895A091870153
:100870002191AC0149595E4FA40FB52FB11D2C93A6
:100880000196861798F380918701680F609387011E
:1008900080E0089581E0089510920B0281E080933A
:1008A0000A021092E50161E082E10E94F60161E036
:1008B00083E10E94F601E9EBF0E080818E7F808386
:1008C00080818D7F808388E48093B80085E4809365
:1008D000BC000895CF93DF9391E090936601882345
:1008E000B9F0C091B800D091BA008091BC008A7B69
:1008F0008093BC0060E082E10E94F60160E083E149
:100900000E94F6010E944C04D093BA00C093B80034
:10091000DF91CF9108958F929F92AF92BF92CF9225
:10092000DF92EF92FF920F931F93CF93DF93D091BB
:100930003402D13208F0D7C0182FC09133020E9480
:1009400042026B017C0180910B0281116BC082E03D
:1009500080930B0210930A028FEF8093090210928A
:100960000802D0930702A3E1B2E0E7EEF1E080E0F5
:10097000D81391C01092E6018091E601CC0FC82BEC
:10098000C093E6018091E501813009F088C01092A2
:10099000E5010E9442026B017C018091E601809397
:1009A000BB0080910D0290910E02A0910F02B091B8
:1009B0001002892B8A2B8B2BA1F00E9442020091FE
:1009C0000D0210910E0220910F02309110026C194D
:1009D0007D098E099F09061717072807390708F4AC
:1009E00042C08091BC0083FDD8CF85EC8093BC00D1
:1009F0000E9442026B017C0180910B02823009F45B
:100A000050C0809109028F3F09F46FC080910902A4
:100A1000803209F46CC080910902803309F469C006
:100A200084E026C080910D0290910E02A0910F02E9
:100A3000B0911002892B8A2B8B2B09F484CF0E9452
:100A4000420280900D0290900E02A0900F02B09092
:100A500010026C197D098E099F0986169706A80653
:100A6000B90608F070CF80910C020E946A0485E0FC
:100A7000109212021092340210921102DF91CF9163
:100A80001F910F91FF90EF90DF90CF90BF90AF90AC
:100A90009F908F9008959D9191938F5F69CF85EE80
:100AA000A5CF80910D0290910E02A0910F02B091FE
:100AB0001002892B8A2B8B2B09F49ECF0E944202B5
:100AC00000910D0210910E0220910F023091100240
:100AD0006C197D098E099F09061717072807390722
:100AE00008F08ACFC0CF81E0C3CF80E0C1CF82E0E1
:100AF000BFCF83E0BDCF0895E091E3018091E40191
:100B0000E81730F4F0E0ED53FE4F808190E0089557
:100B10008FEF9FEF08959091E3018091E4012FEF13
:100B20003FEF981748F4E92FF0E0ED53FE4F208196
:100B300030E09F5F9093E301C9010895CF92DF9267
:100B4000EF92FF920F931F93CF93DF937C01CB0122
:100B50008A0120911102222389F0EB016B01C40E5E
:100B6000D51ECC15DD0569F06991D701ED91FC9199
:100B70000190F081E02DC7010995F3CF642F0E9409
:100B80002504C801DF91CF911F910F91FF90EF9045
:100B9000DF90CF900895CF93DF931F92CDB7DEB74C
:100BA0006983209111022223F9F02091340220322E
:100BB00058F021E030E0FC013383228390E080E0B4
:100BC0000F90DF91CF91089580911202E82FF0E00D
:100BD000ED5EFD4F998190838F5F80931202809329
:100BE000340281E090E0ECCF61E0CE0101960E94FA
:100BF0002504F7CFCF93DF93EB0191E0909311029F
:100C000098E6909333021092120210923402682FE9
:100C100082ED92E00E94CB05019781F441E050E023
:100C2000BE0182ED92E00E949E05019751F481E0A1
:100C30000E948B0490E0DF91CF9108958CEE9FEF9E
:100C4000FACF8BEE9FEFF7CF90E080E00895CF933F
:100C5000DF93FC012781222329F1EC0180850E948A
:100C6000870089850E9487008F81843011F0883049
:100C700099F48A850E9487008B850E9487008FA542
:100C80008F3F81F00E9487006EA581E068278FA5C5
:100C9000DF91CF910C94F601833011F0863079F713
:100CA0008A85EBCFDF91CF910895CF93DF93FC013D
:100CB00027812223A1F0EC010190F081E02D028434
:100CC000F385E02D60E009958FA58F3F41F00E94EC
:100CD00087006EA58FA5DF91CF910C94F601DF916F
:100CE000CF910895DC01ED91FC9122853385477009
:100CF0005527662777274150510961097109473007
:100D000051056105710560F4FA01E757F94F0C943C
:100D1000C31793069506970699069B069D069F06A0
:100D200061E0F901099465E0FCCF64E0FACF66E088
:100D3000F8CF62E0F6CF6AE0F4CF68E0F2CF69E086
:100D4000F0CFCF93DF93EC01CB01BA0126E030E086
:100D500040E050E00E94A4176230710581059105C2
:100D600089F16CF46115710581059105D1F061304F
:100D7000710581059105F9F0DF91CF9108956430F7
:100D800071058105910561F124F1653071058105D9
:100D9000910591F7E881F9810284F385E02D66E001
:100DA00006C0E881F9810284F385E02D64E0CE017C
:100DB000DF91CF910994E881F9810284F385E02DD8
:100DC00065E0F5CFE881F9810284F385E02D61E0EB
:100DD000EECFE881F9810284F385E02D63E0E7CF6F
:100DE000E881F9810284F385E02D62E0E0CFDC0147
:100DF000ED91FC910284F385E02D43705527662721
:100E00007727423051056105710571F04330510576
:100E10006105710559F0413051056105710511F009
:100E200065E0099466E0FDCF6AE0FBCF69E0F9CFA9
:100E3000CF93DF93EC01CB01BA0123E030E040E037
:100E400050E00E94A417613071058105910599F069
:100E50006230710581059105A9F0672B682B692B1C
:100E6000C1F4E881F9810284F385E02D64E0CE01CC
:100E7000DF91CF910994E881F9810284F385E02D17
:100E800061E0F5CFE881F9810284F385E02D62E02D
:100E9000EECFDF91CF910895DC01ED91FC910284BA
:100EA000F385E02D4370552766277727423051059B
:100EB0006105710571F0433051056105710559F007
:100EC000413051056105710511F062E0099463E05C
:100ED000FDCF61E0FBCF60E0F9CFCF93DF93EC0172
:100EE000E881F9810284F385E02D8A8160E0811137
:100EF00062E0CE010995E881F9810284F385E02D55
:100F00008A8161E0811163E0CE0109958CA59DA5E0
:100F10008230910538F0880F991F880F991F059727
:100F20000197F1F7E881F9810284F385E02D8A8148
:100F300060E0811162E0CE01DF91CF910994CF93FF
:100F4000DF93EC0120E030E0A901688D798D8A8D76
:100F50009B8D0E94091718162CF4E8A9F9A9DF91B6
:100F6000CF910994EAA9FBA9FACFCF92DF92EF9231
:100F7000FF920F931F93CF93DF93DC011796CC91D1
:100F8000C43039F0C83059F1C33019F0C63049F1D6
:100F9000C2E08C01085F1F4FF12CE12CC62ED12C32
:100FA000D1E0F8016481C6010E2C02C095958795A9
:100FB0000A94E2F780FD6D270F5F1F4F80810E942A
:100FC000F601BFEFEB1AFB0AEC1658F3DF91CF9155
:100FD0001F910F91FF90EF90DF90CF900895C4E0A4
:100FE000D8CFC3E0D6CFDC011796EC911797E93044
:100FF00008F038C0F0E0E150F84F0C94C31708082F
:101000000E0814081A0820083208260832082C088E
:10101000ED91FC910684F785E02D0994ED91FC910A
:101020000088F189E02DF9CFED91FC910288F389D8
:10103000E02DF3CFED91FC910488F589E02DEDCF03
:10104000ED91FC910688F789E02DE7CFED91FC91B9
:10105000008CF18DE02DE1CFED91FC91028CF38DB0
:10106000E02DDBCF08954F925F926F927F928F9227
:101070009F92AF92BF92CF92DF92EF92FF920F9327
:101080001F93CF93DF93EC01CC88DD88EE88FF8837
:1010900088899989AA89BB89C81AD90AEA0AFB0AE8
:1010A000688D798D8A8D9B8D9B01AC010E94FC140B
:1010B0004B015C0168A179A18AA19BA19B01AC01B4
:1010C0000E94F5159B01AC01C501B4010E94611697
:1010D0000E94D316C114D104E104F10409F0B6C092
:1010E00062307105810591050CF0D0C01B821C8215
:1010F0001D821E82188E198E1A8E1B8E1CAA1DAA86
:101100001EAA1FAAC12CD12C7601C701B601DF91FE
:10111000CF911F910F91FF90EF90DF90CF90BF90F4
:10112000AF909F908F907F906F905F904F900895B9
:101130001016110612061306B4F46C157D058E0503
:101140009F051CF42A812111A1C09B01AC018827B5
:101150009927DC01821B930BA40BB50B8CAB9DABC9
:10116000AEABBFAB93C0011511052105310509F4E4
:101170008DC06C157D058E059F050CF087C08A819A
:10118000882309F483C030952095109501951F4F51
:101190002F4F3F4F0CAB1DAB2EAB3FAB77C00115B4
:1011A00011052105310509F471C0882499245401E1
:1011B0008C189D08AE08BF08681579058A059B053F
:1011C0000CF064C08A81811161C0DDCFCCACDDAC94
:1011D000EEACFFACA7019601C701B6010E94F51560
:1011E0002B013C01C501B4010E949D1420E030E0B8
:1011F00040E850E40E94FC1420E030E040E85FE367
:101200000E94F5159B01AC01C301B2010E94611659
:101210009B01AC01C701B6010E94F4153B016C01B2
:10122000FE01E05CFF4FE080F180028113819701B5
:10123000A8010E940917181614F473018601C7014A
:10124000D8018CAF9DAFAEAFBFAF3AC00CA91DA9FE
:101250002EA93FA91C141D041E041F040CF468CF02
:1012600010161106120613060CF099CF002711274D
:1012700098010C191D092E093F0960177107820793
:1012800093070CF062CF2A8121115FCF8CA89DA813
:10129000AEA8BFA881149104A104B10409F096CFAF
:1012A00088AD99ADAAADBBAD8CAF9DAFAEAFBFAFB2
:1012B00081E01C141D041E041F040CF080E08A83CE
:1012C0003FEF831A930AA30AB30A8CAA9DAAAEAA77
:1012D000BFAA8CAC9DACAEACBFACC501B4010E9442
:1012E000DA166B017C01CB82DC82ED82FE82A501E5
:1012F000940160E074E284E799E40E946116688FCB
:10130000798F8A8F9B8F2A812111FFCE9058688F09
:10131000798F8A8F9B8FF9CECF92DF92EF92FF92D7
:10132000CF93DF93EC01688D798D8A8D9B8D9B0126
:10133000AC010E94FC146B017C0168A179A18AA117
:101340009BA19B01AC010E94F5159B01AC01C7015B
:10135000B6010E9461160E94D3166CAB7DAB8EABBA
:101360009FABCE01DF91CF91FF90EF90DF90CF90B8
:101370000C9433080895FC0101900020E9F731979F
:10138000AF01481B590BBC0185E392E00C94E602C7
:101390008F929F92AF92BF920F931F93CF93DF9341
:1013A000CDB7DEB7A1970FB6F894DEBF0FBECDBFA5
:1013B00019A2423008F44AE08E010F5D1F4F842EBF
:1013C000912CB12CA12CA50194010E948217E62F2B
:1013D000B901CA01EA30F4F4E05DD801EE938D0161
:1013E000232B242B252B79F790E080E0109719F020
:1013F000CD010E94BB09A1960FB6F894DEBF0FBEC7
:10140000CDBFDF91CF911F910F91BF90AF909F9073
:101410008F900895E95CE1CF4F925F926F927F9237
:101420008F929F92AF92BF92CF92DF92EF92FF92F4
:101430000F931F93CF937B016A0191E09093110268
:1014400098E6909333021092120210923402682FA1
:1014500082ED92E00E94CB0506EF1FEF019709F0A5
:10146000DEC080E00E948B04082F10E001151105FA
:1014700009F0D5C00E9442024B015C0180910B0231
:10148000811165C0CC2D81E080930B0280930A020C
:101490009FEF90930902109208029C0D909307020F
:1014A0008093E6018091E601806D8093E601809152
:1014B000E501813009F08AC01092E5010E944202E4
:1014C0004B015C018091E6018093BB0080910D028D
:1014D00090910E02A0910F02B0911002892B8A2BDD
:1014E0008B2BA1F00E94420240900D0250900E0200
:1014F00060900F0270901002681979098A099B099F
:10150000461657066806790608F442C08091BC006A
:1015100083FDD8CF85EC8093BC000E9442024B0132
:101520005C0180910B02813009F452C08091080265
:101530008C1710F4C0910802A7EEB1E0E3ECF1E0E3
:1015400080E08C1751F19D9191938F5FFACF80913C
:101550000D0290910E02A0910F02B0911002892B02
:101560008A2B8B2B09F48ACF0E94420240900D02F5
:1015700050900E0260900F02709010026819790965
:101580008A099B09461657066806790608F076CF41
:1015900080910C020E946A04C0E01092E301C093A3
:1015A000E4015701F12CE12C8091E301C81791F17E
:1015B000CE14DF04A1F182ED92E00E948B059FEF33
:1015C000E91AF90AF50181935F01EECF85EEA3CF09
:1015D00080910D0290910E02A0910F02B091100225
:1015E000892B8A2B8B2B09F49CCF0E9442024090BE
:1015F0000D0250900E0260900F0270901002681958
:1016000079098A099B09461657066806790608F083
:1016100088CFBECFCE14DF0411F005EF1FEFC80155
:10162000CF911F910F91FF90EF90DF90CF90BF90DF
:10163000AF909F908F907F906F905F904F900895A4
:101640000F931F93CF93DF93EC01888199810097CB
:1016500059F02A813B812617370730F081E0DF916E
:10166000CF911F910F9108958B016F5F7F4F0E9463
:101670000219009759F0998388831B830A832C8170
:101680003D81232B59F7FC011082E8CF80E0E7CFA2
:10169000CF93DF93EC0188819981009711F00E942C
:1016A0007918198218821D821C821B821A82DF918E
:1016B000CF910895CF93DF93EC0170E060E00E943A
:1016C000200B811105C0CE01DF91CF910C94480B06
:1016D0001D821C8264E671E088819981DF91CF913F
:1016E0000C94D3199F92AF92BF92CF92DF92EF9258
:1016F000FF920F931F93CF93DF93EC016B015A017D
:1017000079012417350720F48B2D5901E42EF82E8A
:10171000198218821B821A821D821C82CE010E94AD
:101720005A0BD60114960D911C91A016B10658F5CE
:10173000E016F10608F48701D601ED91FC911197AE
:10174000E00FF11F90801082ED90FC90EA0CFB1CE2
:10175000E114F10471F0F70101900020E9F73197ED
:101760005F01AE18BF08B501CE010E94200B8111A8
:1017700017C0CE010E94480BF60180819181080FAD
:10178000191FD8019C92CE01DF91CF911F910F912B
:10179000FF90EF90DF90CF90BF90AF909F90089513
:1017A000BD82AC82B701888199810E94D319E4CFB0
:1017B000FC0180819181009711F00C9479180895B3
:1017C0000C94791885ED8093BC0080910D02909166
:1017D0000E02A0910F02B09110020796A11DB11D3B
:1017E00023E0B695A795979587952A95D1F72091EF
:1017F000BC0024FD03C010920B02089540910D021D
:1018000050910E0260910F0270911002452B462BF1
:10181000472B69F30097A105B10541F02AE22A950B
:10182000F1F700C00197A109B109E1CF80910C0245
:101830000C946A044F925F926F927F928F929F9264
:10184000AF92BF92CF92DF92EF92FF92CF93DF934E
:10185000EC016A017B0120E030E0A901CB01B60177
:101860000E94961487FF04C0F7FAF094F7F8F094FA
:1018700088A099A0AAA0BBA0A7019601C501B401A8
:101880000E949614882309F44DC06CA97DA98EA9E5
:101890009FA90E949D142B013C01A7019601C5013F
:1018A000B4010E9461169B01AC01C301B2010E9408
:1018B000FC140E94D3166CAB7DAB8EAB9FABA70123
:1018C000960160E070E080E090E40E9461160E9462
:1018D000141726E53EE04DE25FE30E94FC1420E091
:1018E00034E244E759E40E94FC1468AF79AF8AAF50
:1018F0009BAFC8A2D9A2EAA2FBA2E881F981008429
:10190000F185E02DCE01DF91CF91FF90EF90DF9038
:10191000CF90BF90AF909F908F907F906F905F908F
:101920004F900994DF91CF91FF90EF90DF90CF908F
:10193000BF90AF909F908F907F906F905F904F90EF
:1019400008951F920F920FB60F9211242F933F9379
:101950008F939F93AF93BF938091BB019091BC01F4
:10196000A091BD01B091BE013091BA0123E0230FD7
:101970002D3758F50196A11DB11D2093BA01809312
:10198000BB019093BC01A093BD01B093BE018091B7
:10199000BF019091C001A091C101B091C201019617
:1019A000A11DB11D8093BF019093C001A093C101FF
:1019B000B093C201BF91AF919F918F913F912F91B1
:1019C0000F900FBE0F901F90189526E8230F0296D8
:1019D000A11DB11DD2CF1F920F920FB60F921124ED
:1019E0002F933F934F935F936F937F938F939F9327
:1019F000AF93BF93EF93FF9385E392E00E9496032A
:101A0000FF91EF91BF91AF919F918F917F916F91D6
:101A10005F914F913F912F910F900FBE0F901F90AC
:101A200018951F920F920FB60F9211242F938F9338
:101A30009F93EF93FF93E0914502F09146028081DE
:101A4000E0914B02F0914C0282FD1BC0908180918D
:101A50004E028F5F8F7320914F02821741F0E09109
:101A60004E02F0E0EB5CFD4F958F80934E02FF91AC
:101A7000EF919F918F912F910F900FBE0F901F901C
:101A800018958081F4CF1F920F920FB60F921124F8
:101A90002F933F934F935F936F937F938F939F9376
:101AA000AF93BF93EF93FF938091B900887F803607
:101AB00009F44AC0F0F5883209F4A7C018F580315E
:101AC00009F49BC0B8F4882309F4F9C0883009F4FC
:101AD00094C0FF91EF91BF91AF919F918F917F91B2
:101AE0006F915F914F913F912F910F900FBE0F908B
:101AF0001F901895883109F488C0803251F780937F
:101B0000090214C0803409F49DC040F48033B9F355
:101B10008833F9F68093090285ECB0C0803509F46A
:101B200085C0883509F496C0883499F60E94E20B86
:101B3000D0CF883909F48CC038F5883729F050F4B3
:101B4000883611F0803729F683E080930B021092DB
:101B5000A90157C0883809F47BC0803919F0803852
:101B600009F0B7CF8091A901803208F071C0E091EF
:101B7000A90181E08E0F8093A9018091BB00F0E064
:101B8000E757FE4F80833DC0803B39F0E0F4803A58
:101B900009F479C0883A09F09CCF84E080930B0265
:101BA0001092880110928701E091AC01F091AD0193
:101BB00009958091870181110FC081E08093870191
:101BC0001092670109C0803C09F4A6CF883C09F453
:101BD000A3CF883B09F07DCFE091880181E08E0F93
:101BE00080938801F0E0E959FE4F80818093BB002B
:101BF000909188018091870129C08091E6018093AE
:101C0000BB0085EC8093BC0064CF9091080280916A
:101C10000702981758F5E091080281E08E0F809333
:101C20000802F0E0E951FE4F8081E9CFE09108021F
:101C300081E08E0F809308028091BB00F0E0E951B3
:101C4000FE4F808390910802809107029817C8F296
:101C500085E8D8CFE091080281E08E0F80930802DA
:101C60008091BB00F0E0E951FE4F808380910A0231
:101C700081115CCF81E08093E50184EA8093BC0010
:101C800010920B0226CF85EC8093BC0010920B02C1
:101C90008091A901803230F4E091A901F0E0E7578A
:101CA000FE4F10826091A90170E0E091AA01F091CD
:101CB000AB0189E891E009951092A9010ACF109231
:101CC000090234CFCF92DF92EF92FF920F931F93CE
:101CD000CF93DF93EC018E2DE6E1F1E0F983E88309
:101CE0006F83188A198A1A8A1B8A1C8A1D8A1E8A7F
:101CF0001F8A188E198E1A8E1B8E1C8E1D8E1E8E9C
:101D00001F8E18A219A21AA21BA2C12CD12C90E8D6
:101D1000E92E9FE3F92ECCA2DDA2EEA2FFA21B8248
:101D20001C821D821E8261E070E07DA76CA79FEF80
:101D30009FA718A619A61AA61BA6488729870A874F
:101D40008B871EA61CAA1DAA1EAA1FAA18AE19AE12
:101D50001AAE1BAE1CAE1DAE1EAE1FAE8E01005CD9
:101D60001F4FF801C082D182E282F3821A821C8660
:101D70001D861E861F86CE010E942706B701A6017A
:101D8000CE010E941A0CA70196016C8D7D8D8E8D5F
:101D90009F8D0E949614882309F1CC8EDD8EEE8EE5
:101DA000FF8E80E094E2A4E7B9E4F8018083918398
:101DB000A283B3838CA99DA9AEA9BFA91816190641
:101DC0001A061B065CF4CE01DF91CF911F910F9193
:101DD000FF90EF90DF90CF900C948C09DF91CF9122
:101DE0001F910F91FF90EF90DF90CF900895EF92A9
:101DF0000F93E5E3F2E01382128288EE93E0A0E015
:101E0000B0E084839583A683B78326E331E03183F2
:101E1000208325EC30E03587248724EC30E03787B9
:101E2000268720EC30E0318B208B21EC30E0338BA7
:101E3000228B22EC30E0358B248B26EC30E0378B84
:101E4000268B118E128E138E148EE2EDF2E0138229
:101E5000128284839583A683B78388E491E091837B
:101E6000808385E0E82E04E025E044E061E087E33C
:101E700093E00E94620E9AE0E92E0CE02BE04DE028
:101E800064E083EF92E00E94620E1092F2020F91E2
:101E9000EF900895CF93DF93CDB7DEB7E4970FB6F9
:101EA000F894DEBF0FBECDBF789484B5826084BD48
:101EB00084B5816084BD85B5826085BD85B581604E
:101EC00085BD80916E00816080936E0010928100CC
:101ED0008091810082608093810080918100816087
:101EE0008093810080918000816080938000809148
:101EF000B10084608093B1008091B00081608093D4
:101F0000B00080917A00846080937A0080917A009A
:101F1000826080937A0080917A00816080937A0059
:101F200080917A00806880937A001092C100E091DD
:101F30004502F091460282E08083E0914102F091F7
:101F400042021082E0914302F09144028FEC8083C0
:101F500010924D02E0914902F0914A0286E080839E
:101F6000E0914702F0914802808180618083E09196
:101F70004702F0914802808188608083E0914702A7
:101F8000F0914802808180688083E0914702F0915F
:101F9000480280818F7D80831092E3011092E401DA
:101FA00010921202109234020E944C0484EE92E0CD
:101FB0009093AD018093AC0185EE92E09093AB01DC
:101FC0008093AA0119A6BE01675D7F4F8BE690E062
:101FD0000E94FA0581E08AA7BE01665D7F4F8AE113
:101FE00090E00E94FA0588E08BA7BE01655D7F4FF7
:101FF0008BE190E00E94FA0580E28CA7BE01645D4F
:102000007F4F89E190E00E94FA0561E08DE00E9437
:10201000F60104EF11E01DA61EA61FA618AA812C2A
:10202000912C5401412C512C320146E050E0BE016C
:102030006F5F7F4F83E490E00E940C0A811171C0B2
:1020400089819A81982789279827092E000CAA0B45
:10205000BB0B480E591E6A1E7B1E8B819C819827E4
:1020600089279827092E000CAA0BBB0B880E991EF6
:10207000AA1EBB1E8D819E81982789279827092E2D
:10208000000CAA0BBB0B2DA53EA54FA558A9280FE8
:10209000391F4A1F5B1F2DA73EA74FA758AB015002
:1020A000110909F0C2CF34EFC32EDD24D394E12C03
:1020B000F12CC301B201A70196010E94A417CA0125
:1020C000B9010E949D1460930801709309018093E7
:1020D0000A0190930B01C501B401A70196010E946A
:1020E000A417CA01B9010E949D1460930401709362
:1020F000050180930601909307016DA57EA58FA52C
:1021000098A9A70196010E94A417CA01B9010E94CB
:102110009D146093000170930101809302019093DC
:10212000030160E08DE00E94F60120E030E048EC21
:1021300052E460910F03709110038091110390910C
:1021400012030E949614882349F180E090E0A8ECE5
:10215000B2E480930F0390931003A0931103B09304
:10216000120380E090E4ACE1B6E4809333039093F3
:102170003403A0933503B0933603809127039091E5
:102180002803A0912903B0912A03181619061A06EC
:102190001B0624F483EF92E00E948C0940E050E09B
:1021A00068EC72E483EF92E00E941A0C20E030E0C9
:1021B0004AE754E4609153037091540380915503AE
:1021C000909156030E949614882329F180E090E0B4
:1021D000AAE7B4E48093530390935403A093550368
:1021E000B09356038093770390937803A093790379
:1021F000B0937A0380916B0390916C03A0916D036F
:10220000B0916E03181619061A061B0624F487E30C
:1022100093E00E948C0940E050E068EC72E487E3B0
:1022200093E00E941A0CE091F202EA3068F481E037
:102230008E0F8093F202F0E0EE0FFF1FE252FD4F8F
:1022400087E393E091838083E091F202EA3068F4BF
:1022500081E08E0F8093F202F0E0EE0FFF1FE2525A
:10226000FD4F83EF92E09183808388E6282E33240C
:10227000339485E392E00E947603181619060CF059
:10228000E7C21CA21BA21EA21DA218A61FA2CE015D
:1022900083960E945A0B0E9436030FA118A597FD42
:1022A0001CC08A309105C9F089831A820F5F1F4FC5
:1022B000B801CE0183960E94200B882361F32BA1E5
:1022C0003CA18FA198A5BE016F5F7F4F820F931F26
:1022D0000E94D31918A70FA3DECFABA0BCA0A114F6
:1022E000B10429F075010115110509F061C1EFA0D4
:1022F000F8A4E114F10409F4A7C2CBA0DCA06CE2BD
:1023000070E0C6010E94C8198C010C191D09892BA7
:1023100011F40FEF1FEFF601EE0DFF1DB0801082DC
:10232000CBA0DCA06CE270E0C6010E94DA19EC0CD4
:10233000FD1CD701BC92009709F486C20F3F10071D
:1023400009F482C22BA13CA17C01E21AF30A2FEF0F
:10235000E216F20609F478C20E151F0509F474C2DC
:10236000A8014F5F5F4F9701BE016D5D7F4FCE01AA
:102370004D960E94720B2FA138A5A7014F5F5F4FAA
:10238000BE016D5D7F4FCE0147960E94720B8D8D11
:102390009E8D009709F442C10E9451147B018F89E0
:1023A000988D009709F43EC10E9451148B0148ECAE
:1023B000469F9001479F300D1124C901B1010E9431
:1023C0006E17CB01770FAA0BBB0B8F87988BA98B4E
:1023D000BA8BC7018E32910514F08DE290E0833DF7
:1023E0005FEF950714F483ED9FEF9C01990F440B69
:1023F000550B2DA73EA74FA758AB2B8B3C8B4D8B76
:102400005E8BCE010F960E94AD000E9467020E9473
:10241000D802C090B601D090B701E090B801F0901A
:10242000B9019B01AC012C193D094E095F096901F5
:102430007A0130EDC31637E0D306E104F10408F465
:10244000FBC16093B6017093B7018093B80190937C
:10245000B9010E94D80269AB7AAB8BAB9CAB4EE062
:1024600050E0BE016F5F7F4F8BE390E00E940C0A4B
:10247000811123C06D857E85762767277627072EF5
:10248000000C880B990B0E949D1420910001309143
:10249000010140910201509103010E94F41520E0D6
:1024A00030E043E852E40E9461166093B2017093F9
:1024B000B3018093B4019093B50120E030E040EF88
:1024C00051E46091B2017091B3018091B401909197
:1024D000B5010E9461162091AE013091AF0140918B
:1024E000B0015091B1010E94F5156B017C014B01C7
:1024F0005C01C092AE01D092AF01E092B001F092C7
:10250000B101AC019B010E945417882309F48EC0CD
:1025100086E591E00E94BB0982E691E00E94BB093A
:10252000101611060CF016C120E030E0A9016091F0
:10253000AE017091AF018091B0019091B1010E9404
:10254000091718160CF419C1B80117FF04C0662743
:102550007727601B710B072E000C880B990B0E94CC
:102560009D144B015C01C090AE01D090AF01E09092
:10257000B001F090B10120E030E0A901C701B6013F
:102580000E940917181624F0F7FAF094F7F8F0945F
:10259000A7019601C501B4010E94F5156B017C01EC
:1025A00017FFFDC0F7FAF094F7F8F094F8C0760141
:1025B00067013FEFC31AD30AD7018C91082E000C94
:1025C000990B0E948D14892B91F7015011090A0D66
:1025D0001B1DF8018081082E000C990B0E948D14A0
:1025E000892B31F00E151F0518F001501109F1CF9C
:1025F0000F5F1F4FA8014E195F0958A74FA3AE14D4
:10260000BF0420F4B701C5010E94BF19EBA1FCA1D2
:102610008FA198A5E80FF91F108269CE60E070E0E5
:10262000CB01BCCE60E070E0CB01C0CE260137010B
:10263000E89477F82FEF3FEF4FE75FE7C301B20170
:102640000E94541781110DC02FEF3FEF4FE75FE756
:10265000C301B2010E94961418161CF48AE591E099
:1026600059CF2FEF3FEF4FE75FE4C701B6010E945C
:10267000091718161CF48EE591E04CCF2FEF3FEFB1
:102680004FE75FECC701B6010E94961487FDF3CFB8
:1026900020E030E0A901C701B6010E94961487FF2F
:1026A0000BC06DE285E392E00E94B803460157013A
:1026B000B7FAB094B7F8B0942AE037ED43EA5BE399
:1026C000C501B4010E94F5154B015C010E94DA16A8
:1026D0006B017C010E949B149B01AC01C501B401FC
:1026E0000E94F4154B015C014AE0C701B6010E944B
:1026F000C8096EE285E392E00E94B80320E030E072
:1027000040E251E4C501B4010E94FC144B015C019C
:102710000E94DA166B01F12CE12C4AE0C701B601E8
:102720000E94C809C701B6010E949B149B01AC011D
:10273000C501B4010E94F41520E030E040E251E40C
:102740000E94FC140E94DA1690E080E04AE00E94A9
:10275000C809E2CE6091AE017091AF018091B001E5
:102760009091B1010115110509F4EECE20E030E0A1
:10277000A9010E94961487FFE7CEB801110F880BBC
:10278000990B0E949D142091AE013091AF014091B0
:10279000B0015091B1010E94F4156B017C0120E061
:1027A00030E040E251E4C701B6010E940917181653
:1027B00014F520E030E048E453E4C701B6010E947C
:1027C000FC1420E030E044EB53E40E9461160E94C8
:1027D000D3166F87788B898B9A8B8DA59EA5AFA515
:1027E000B8A98B8B9C8BAD8BBE8BCE010F960E94B4
:1027F000AD000E9467020E94D80229A93AA94BA9FC
:102800005CA9621B730B840B950B0E949B149B01AC
:10281000AC0166E575E585E092E40E94F4150E943E
:10282000DA166B017C010E9442024B015C01C1146B
:10283000D104E104F10449F5CE0147960E94D80B7A
:10284000CE014D960E94D80BCE0183960E94D80BE4
:1028500080E090E0892B09F40CCD0E94820388234C
:1028600009F407CD0E94000004CD31E0C31AD1085D
:10287000E108F10848EE840E43E0941EA11CB11C4F
:10288000C114D104E104F10491F20E9442026819DA
:1028900079098A099B09683E73408105910528F7EB
:1028A000C6CF1F93FC0199278827BC01E89411919A
:1028B0001032E9F3193010F01E30C8F31B3251F01A
:1028C0001D3249F4689406C00E947814610F711D8E
:1028D000811D911D119110531A30B0F33EF4909563
:1028E0008095709561957F4F8F4F9F4F1F910895F1
:1028F000592F482F372F262F660F771F881F991FB4
:10290000660F771F881F991F620F731F841F951F03
:10291000660F771F881F991F089591110C946915F0
:10292000803219F089508550C8F708950E94D81454
:1029300008F481E00895E89409C097FB3EF490956F
:102940008095709561957F4F8F4F9F4F9923A9F088
:10295000F92F96E9BB279395F69587957795679517
:10296000B795F111F8CFFAF4BB0F11F460FF1BC05B
:102970006F5F7F4F8F4F9F4F16C0882311F096E9EE
:1029800011C0772321F09EE8872F762F05C066239C
:1029900071F096E8862F70E060E02AF09A95660F55
:1029A000771F881FDAF7880F9695879597F908950E
:1029B000990F0008550FAA0BE0E8FEEF1616170650
:1029C000E807F907C0F012161306E407F50798F0B8
:1029D000621B730B840B950B39F40A2661F0232BD1
:1029E000242B252B21F408950A2609F4A140A6954D
:1029F0008FEF811D811D08950E940F150C94831582
:102A00000E94751538F00E947C1520F0952311F076
:102A10000C946C150C94721511240C94B7150E942B
:102A2000941570F3959FC1F3950F50E0551F629F69
:102A3000F001729FBB27F00DB11D639FAA27F00D17
:102A4000B11DAA1F649F6627B00DA11D661F829F3E
:102A50002227B00DA11D621F739FB00DA11D621F23
:102A6000839FA00D611D221F749F3327A00D611D40
:102A7000231F849F600D211D822F762F6A2F112422
:102A80009F5750409AF0F1F088234AF0EE0FFF1F55
:102A9000BB1F661F771F881F91505040A9F79E3FAC
:102AA000510580F00C946C150C94B7155F3FE4F35E
:102AB000983ED4F3869577956795B795F795E79502
:102AC0009F5FC1F7FE2B880F911D9695879597F90B
:102AD000089599278827089597F99F6780E870E0FF
:102AE00060E008959FEF80EC089500240A94161684
:102AF000170618060906089500240A9412161306EC
:102B0000140605060895092E0394000C11F4882379
:102B100052F0BB0F40F4BF2B11F460FF04C06F5F95
:102B20007F4F8F4F9F4F089557FD9058440F551F6B
:102B300059F05F3F71F04795880F97FB991F61F03F
:102B40009F3F79F087950895121613061406551FB6
:102B5000F2CF4695F1DF08C0161617061806991F22
:102B6000F1CF86957105610508940895E894BB2717
:102B700066277727CB0197F908952F923F924F92BE
:102B80005F926F927F928F929F92AF92BF92CF92FD
:102B9000DF92EF92FF920F931F93CF93DF93CDB706
:102BA000DEB7CA1BDB0B0FB6F894DEBF0FBECDBF7E
:102BB00009942A88398848885F846E847D848C844F
:102BC0009B84AA84B984C884DF80EE80FD800C8158
:102BD0001B81AA81B981CE0FD11D0FB6F894DEBF3B
:102BE0000FBECDBFED0108955058BB27AA270E9404
:102BF0000C160C9483150E94751538F00E947C15F4
:102C000020F039F49F3F19F426F40C9472150EF459
:102C1000E095E7FB0C946C15E92F0E94941558F38E
:102C2000BA17620773078407950720F079F4A6F5B1
:102C30000C94B6150EF4E0950B2EBA2FA02D0B01B7
:102C4000B90190010C01CA01A0011124FF27591BF1
:102C500099F0593F50F4503E68F11A16F040A22FF7
:102C6000232F342F4427585FF3CF46953795279568
:102C7000A795F0405395C9F77EF41F16BA0B620B67
:102C8000730B840BBAF09150A1F0FF0FBB1F661FAE
:102C9000771F881FC2F70EC0BA0F621F731F841FF1
:102CA00048F4879577956795B795F7959E3F08F017
:102CB000B0CF9395880F08F09927EE0F97958795D9
:102CC00008950E9475160C9483150E947C1558F087
:102CD0000E94751540F029F45F3F29F00C946C15A3
:102CE00051110C94B7150C9472150E94941568F349
:102CF0009923B1F3552391F3951B550BBB27AA27B5
:102D000062177307840738F09F5F5F4F220F331FEE
:102D1000441FAA1FA9F335D00E2E3AF0E0E832D0B6
:102D200091505040E695001CCAF72BD0FE2F29D0B9
:102D3000660F771F881FBB1F261737074807AB078B
:102D4000B0E809F0BB0B802DBF01FF2793585F4F00
:102D50003AF09E3F510578F00C946C150C94B71521
:102D60005F3FE4F3983ED4F3869577956795B795E2
:102D7000F7959F5FC9F7880F911D9695879597F9ED
:102D80000895E1E0660F771F881FBB1F6217730766
:102D90008407BA0720F0621B730B840BBA0BEE1F7B
:102DA00088F7E09508950E94DA166894B1110C94A2
:102DB000B71508950E949C1588F09F5798F0B92F79
:102DC0009927B751B0F0E1F0660F771F881F991F60
:102DD0001AF0BA95C9F714C0B13091F00E94B61537
:102DE000B1E008950C94B615672F782F8827B85F47
:102DF00039F0B93FCCF3869577956795B395D9F7B8
:102E00003EF490958095709561957F4F8F4F9F4FC1
:102E100008950E94D81408F48FEF089519F416F459
:102E20000C9472150C9459170E949C15B8F39923B1
:102E3000C9F3B6F39F57550B87FF0E94671700240D
:102E4000A0E640EA900180585695979528F4805C5A
:102E5000660F771F881F20F026173707480730F4C2
:102E6000621B730B840B202931294A2BA6951794DA
:102E70000794202531254A2758F7660F771F881FAA
:102E800020F026173707480730F4620B730B840BCA
:102E9000200D311D411DA09581F7B901842F915856
:102EA000880F9695879508950E94D814880B990BE2
:102EB00008959F3F31F0915020F48795779567955D
:102EC000B795880F911D9695879597F9089591501C
:102ED0005040660F771F881FD2F7089597FB072E83
:102EE00016F4009407D077FD09D00E94C91707FC9B
:102EF00005D03EF4909581959F4F0895709561950A
:102F00007F4F0895A1E21A2EAA1BBB1BFD010DC025
:102F1000AA1FBB1FEE1FFF1FA217B307E407F50789
:102F200020F0A21BB30BE40BF50B661F771F881F65
:102F3000991F1A9469F760957095809590959B01FB
:102F4000AC01BD01CF010895052E97FB1EF400943E
:102F50000E94BB1757FD07D00E94821707FC03D0C1
:102F60004EF40C94BB1750954095309521953F4FEA
:102F70004F4F5F4F089590958095709561957F4F65
:102F80008F4F9F4F0895EE0FFF1F0590F491E02D96
:102F90000994AA1BBB1B51E107C0AA1FBB1FA617A0
:102FA000B70710F0A61BB70B881F991F5A95A9F7F2
:102FB00080959095BC01CD0108950F931F93CF93F9
:102FC000DF938230910510F482E090E0E0917D0380
:102FD000F0917E0330E020E0B0E0A0E0309799F47B
:102FE0002115310509F44AC0281B390B243031055D
:102FF000D8F58A819B816115710589F1FB01938365
:103000008283FE0111C040815181028113814817E2
:103010005907E0F04817590799F4109761F0129694
:103020000C93129713961C933296CF01DF91CF9198
:103030001F910F91089500937D0310937E03F4CFA9
:103040002115310551F04217530738F0A901DB0172
:103050009A01BD01DF01F801C1CFEF01F9CF9093D3
:103060007E0380937D03CDCFFE01E20FF31F81939A
:1030700091932250310939832883D7CF20917B0344
:1030800030917C03232B41F420910E0130910F01EC
:1030900030937C0320937B0320910C0130910D0130
:1030A0002115310541F42DB73EB7409110015091E3
:1030B0001101241B350BE0917B03F0917C03E21797
:1030C000F307A0F42E1B3F0B2817390778F0AC014B
:1030D0004E5F5F4F2417350748F04E0F5F1F509328
:1030E0007C0340937B03819391939FCFF0E0E0E0DA
:1030F0009CCFCF93DF930097E9F0FC0132971382C6
:103100001282A0917D03B0917E03ED0130E020E0BA
:103110001097A1F420813181820F931F20917B03AE
:1031200030917C032817390709F061C0F0937C03C4
:10313000E0937B03DF91CF910895EA01CE17DF077B
:10314000E8F54A815B819E0141155105B1F7E9011E
:10315000FB83EA8349915991C40FD51FEC17FD07F2
:1031600061F4808191810296840F951FE901998312
:103170008883828193819B838A83F0E0E0E01296CA
:103180008D919C9113970097B9F52D913C911197D2
:10319000CD010296820F931F20917B0330917C0317
:1031A0002817390739F6309751F510927E0310929F
:1031B0007D03B0937C03A0937B03BCCFD383C283F6
:1031C00040815181840F951FC817D90761F44E5F64
:1031D0005F4F88819981480F591F518340838A81AD
:1031E0009B81938382832115310509F0B0CFF09341
:1031F0007E03E0937D039ECFFD01DC01C0CF1382EF
:103200001282D7CFB0E0A0E0E8E0F9E10C94BF155E
:103210008C01009751F4CB010E94DD178C01C8018D
:10322000CDB7DEB7E0E10C94DB15FC01E60FF71F2C
:103230009C0122503109E217F30708F49DC0D9011F
:10324000CD91DC911197C617D70798F0C530D105FD
:1032500030F3CE0104978617970708F3C61BD70BE8
:103260002297C193D1936D937C93CF010E947918DB
:10327000D6CF5B01AC1ABD0A4C018C0E9D1EA091ED
:103280007D03B0917E03512C412CF12CE12C109741
:1032900031F580917B0390917C038815990509F0A5
:1032A0005CC04616570608F058C080910C019091FA
:1032B0000D01009741F48DB79EB7409110015091D8
:1032C0001101841B950BE817F90708F055C0F0931E
:1032D0007C03E0937B03F90171836083A0CF8D9120
:1032E0009C91119712966C90129713967C9013975D
:1032F000A815B90559F56C0142E0C40ED11CCA14D9
:10330000DB0420F1AC014A195B09DA01129615972A
:1033100080F06282738251834083D9016D937C93E4
:10332000E114F10471F0D7011396FC93EE93129718
:1033300076CF22968C0F9D1FF90191838083F30134
:10334000EFCFF0937E03E0937D0369CF48165906D3
:1033500008F42C017D01D3019ACFCB010E94DD1727
:103360007C01009749F0AE01B8010E94BF19C80165
:103370000E947918870153CF10E000E050CFFB0185
:10338000DC0102C001900D9241505040D8F70895E1
:10339000FC018191861721F08823D9F79927089598
:1033A0003197CF010895FB01DC0101900D920020BF
:1033B000E1F70895FC0181E090E00190061609F420
:0E33C000CF010020D1F701970895F894FFCFB8
:1033CE000000A6C20000904100808CC300007F0365
:1033DE0080000000000055062706BA09E00B3308EE
:1033EE00B507F3079F076D074C071807F706A106E9
:1033FE00720600000000B803E6021303050476030C
:10340E002203680300000000CB059E0524067B0501
:10341E00A6008B057C056E616E00696E66006F7688
:06342E0066000D0A00001B
:00000001FF
