:020000040000FA
:100000000C9474000C949C000C949C000C949C0028
:100010000C949C000C949C000C949C000C949C00F0
:100020000C949C000C949C000C949C000C949C00E0
:100030000C949C000C949C000C949C000C949C00D0
:100040000C94370A0C949C000C94A70A0C94810A17
:100050000C949C000C949C000C949C000C949C00B0
:100060000C94D90A0C949C00084AD73B3BCE016EF5
:1000700084BCBFFDC12F3D6C74319ABD56833DDAFF
:100080003D00C77F11BED9E4BB4C3E916BAAAABE0E
:10009000000000803F000000000800020100000393
:1000A0000407000000000000000000000000250020
:1000B00028002B0000000000240027002A00040470
:1000C0000404040404040202020202020303030300
:1000D00003030102040810204080010204081020DC
:1000E000010204081020F80B11241FBECFEFD8E046
:1000F000DEBFCDBF11E0A0E0B1E0E8E7F7E202C06B
:1001000005900D92A036B107D9F723E0A0E6B1E043
:1001100001C01D92A431B207E1F710E0C4E7D0E0BE
:1001200004C02197FE010E948F12C337D107C9F77F
:100130000E94220D0C94BA130C94000090E0FC0174
:10014000EE52FF4F249182549F4FFC0184918823EB
:1001500099F090E0880F991FFC01EC54FF4FA59196
:10016000B491FC01E655FF4F859194918FB7F894B7
:10017000EC91E22BEC938FBF089590E0FC01EA56DE
:10018000FF4F2491FC01EE52FF4F3491FC01E254E9
:10019000FF4FE491EE23C9F0222339F0233001F11F
:1001A000A8F4213019F1223029F1F0E0EE0FFF1F01
:1001B000E655FF4FA591B4918FB7F894EC9161117A
:1001C00026C030953E233C938FBF08952730A9F079
:1001D0002830C9F0243049F7809180008F7D03C01A
:1001E000809180008F7780938000DFCF84B58F77F8
:1001F00084BDDBCF84B58F7DFBCF8091B0008F773E
:100200008093B000D2CF8091B0008F7DF9CF3E2B8C
:10021000DACF3FB7F8948091CF019091D001A091AF
:10022000D101B091D20126B5A89B05C02F3F19F08E
:100230000196A11DB11D3FBFBA2FA92F982F882766
:10024000BC01CD01620F711D811D911D42E0660F41
:10025000771F881F991F4A95D1F708958F929F9213
:10026000AF92BF92CF92DF92EF92FF924B015C016F
:100270000E9409016B017C010E9409016C197D0932
:100280008E099F09683E734081059105A8F321E01E
:10029000821A9108A108B10888EEC80E83E0D81E22
:1002A000E11CF11C81149104A104B10429F7FF9011
:1002B000EF90DF90CF90BF90AF909F908F90089578
:1002C00008950895AF92BF92CF92DF92EF92FF927E
:1002D0000F931F93CF93DF936C017B018B01040F6E
:1002E000151FEB015E01AE18BF08C017D10759F00A
:1002F0006991D601ED91FC910190F081E02DC6014C
:100300000995892B79F7C501DF91CF911F910F9145
:10031000FF90EF90DF90CF90BF90AF900895FC01D9
:10032000538D448D252F30E0842F90E0821B930B5A
:10033000541710F0CF96089501970895FC01918D00
:10034000828D981761F0A28DAE0FBF2FB11D5D9603
:100350008C91928D9F5F9F73928F90E008958FEFA5
:100360009FEF0895FC01918D828D981731F0828D59
:10037000E80FF11D858D90E008958FEF9FEF0895B0
:10038000FC01918D228D892F90E0805C9F4F821B14
:1003900091098F739927089583E292E00E94C0012A
:1003A00021E0892B09F420E0822F089580E090E07D
:1003B000892B29F00E94CC0181110C940000089532
:1003C000FC01A48DA80FB92FB11DA35ABF4F2C91CA
:1003D000848D90E001968F739927848FA689B789C1
:1003E0002C93A089B1898C91837080648C93938DB8
:1003F000848D981306C00288F389E02D80818F7D5B
:1004000080830895EF92FF920F931F93CF93DF9312
:10041000EC0181E0888F9B8D8C8D98131AC0E88940
:10042000F989808185FF15C09FB7F894EE89FF890F
:100430006083E889F98980818370806480839FBFAD
:1004400081E090E0DF91CF911F910F91FF90EF90AD
:100450000895F62E0B8D10E00F5F1F4F0F731127BD
:10046000E02E8C8D8E110CC00FB607FCFACFE889F8
:10047000F989808185FFF5CFCE010E94E001F1CF9F
:10048000EB8DEC0FFD2FF11DE35AFF4FF0829FB76C
:10049000F8940B8FEA89FB8980818062CFCFCF935C
:1004A000DF93EC01888D8823B9F0AA89BB89E8899C
:1004B000F9898C9185FD03C0808186FD0DC00FB642
:1004C00007FCF7CF8C9185FFF2CF808185FFEDCFC0
:1004D000CE010E94E001E9CFDF91CF910895CF9343
:1004E000DF93FC012781222329F1EC0180850E9402
:1004F0009E0089850E949E008F81843011F0883093
:1005000099F48A850E949E008B850E949E008FA58B
:100510008F3F81F00E949E006EA581E068278FA525
:10052000DF91CF910C94BD00833011F0863079F7C4
:100530008A85EBCFDF91CF910895CF93DF93FC01B4
:1005400027812223A1F0EC010190F081E02D0284AB
:10055000F385E02D60E009958FA58F3F41F00E9463
:100560009E006EA58FA5DF91CF910C94BD00DF9109
:10057000CF910895DC01ED91FC9122853385477080
:10058000552766277727415051096109710947307E
:1005900051056105710560F4FA01EF52FD4F0C94AD
:1005A0008F12DB02DD02DF02E102E302E502E70275
:1005B00061E0F901099465E0FCCF64E0FACF66E000
:1005C000F8CF62E0F6CF6AE0F4CF68E0F2CF69E0FE
:1005D000F0CFCF93DF93EC01CB01BA0126E030E0FE
:1005E00040E050E00E947012623071058105910573
:1005F00089F16CF46115710581059105D1F06130C7
:10060000710581059105F9F0DF91CF91089564306E
:1006100071058105910561F124F165307105810550
:10062000910591F7E881F9810284F385E02D66E078
:1006300006C0E881F9810284F385E02D64E0CE01F3
:10064000DF91CF910994E881F9810284F385E02D4F
:1006500065E0F5CFE881F9810284F385E02D61E062
:10066000EECFE881F9810284F385E02D63E0E7CFE6
:10067000E881F9810284F385E02D62E0E0CFDC01BE
:10068000ED91FC910284F385E02D43705527662798
:100690007727423051056105710571F043305105EE
:1006A0006105710559F0413051056105710511F081
:1006B00065E0099466E0FDCF6AE0FBCF69E0F9CF21
:1006C000CF93DF93EC01CB01BA0123E030E040E0AF
:1006D00050E00E947012613071058105910599F01A
:1006E0006230710581059105A9F0672B682B692B94
:1006F000C1F4E881F9810284F385E02D64E0CE0144
:10070000DF91CF910994E881F9810284F385E02D8E
:1007100061E0F5CFE881F9810284F385E02D62E0A4
:10072000EECFDF91CF910895DC01ED91FC91028431
:10073000F385E02D43705527662777274230510512
:100740006105710571F0433051056105710559F07E
:10075000413051056105710511F062E0099463E0D3
:10076000FDCF61E0FBCF60E0F9CFCF93DF93EC01E9
:10077000E881F9810284F385E02D8A8160E08111AE
:1007800062E0CE010995E881F9810284F385E02DCC
:100790008A8161E0811163E0CE0109958CA59DA558
:1007A0008230910538F0880F991F880F991F05979F
:1007B0000197F1F7E881F9810284F385E02D8A81C0
:1007C00060E0811162E0CE01DF91CF910994CF9377
:1007D000DF93EC0120E030E0A901688D798D8A8DEE
:1007E0009B8D0E94701118162CF4E8A9F9A9DF91CD
:1007F000CF910994EAA9FBA9FACFCF92DF92EF92A9
:10080000FF920F931F93CF93DF93DC011796CC9148
:10081000C43039F0C83059F1C33019F0C63049F14D
:10082000C2E08C01085F1F4FF12CE12CC62ED12CA9
:10083000D1E0F8016481C6010E2C02C09595879520
:100840000A94E2F780FD6D270F5F1F4F80810E94A1
:10085000BD00BFEFEB1AFB0AEC1658F3DF91CF9106
:100860001F910F91FF90EF90DF90CF900895C4E01B
:10087000D8CFC3E0D6CFDC011796EC911797E930BB
:1008800008F038C0F0E0E95BFB4F0C948F12500485
:1008900056045C04620468047A046E047A047404E6
:1008A000ED91FC910684F785E02D0994ED91FC9182
:1008B0000088F189E02DF9CFED91FC910288F38950
:1008C000E02DF3CFED91FC910488F589E02DEDCF7B
:1008D000ED91FC910688F789E02DE7CFED91FC9131
:1008E000008CF18DE02DE1CFED91FC91028CF38D28
:1008F000E02DDBCF08954F925F926F927F928F929F
:100900009F92AF92BF92CF92DF92EF92FF920F939E
:100910001F93CF93DF93EC01CC88DD88EE88FF88AE
:1009200088899989AA89BB89C81AD90AEA0AFB0A5F
:10093000688D798D8A8D9B8D9B01AC010E947D1104
:100940004B015C0168A179A18AA19BA19B01AC012B
:100950000E940C0F9B01AC01C501B4010E94EF0F76
:100960000E946110C114D104E104F10409F0B6C081
:1009700062307105810591050CF0D0C01B821C828C
:100980001D821E82188E198E1A8E1B8E1CAA1DAAFD
:100990001EAA1FAAC12CD12C7601C701B601DF9176
:1009A000CF911F910F91FF90EF90DF90CF90BF906C
:1009B000AF909F908F907F906F905F904F90089531
:1009C0001016110612061306B4F46C157D058E057B
:1009D0009F051CF42A812111A1C09B01AC0188272D
:1009E0009927DC01821B930BA40BB50B8CAB9DAB41
:1009F000AEABBFAB93C0011511052105310509F45C
:100A00008DC06C157D058E059F050CF087C08A8111
:100A1000882309F483C030952095109501951F4FC8
:100A20002F4F3F4F0CAB1DAB2EAB3FAB77C001152B
:100A300011052105310509F471C088249924540158
:100A40008C189D08AE08BF08681579058A059B05B6
:100A50000CF064C08A81811161C0DDCFCCACDDAC0B
:100A6000EEACFFACA7019601C701B6010E940C0FC6
:100A70002B013C01C501B4010E94991020E030E037
:100A800040E850E40E947D1120E030E040E85FE360
:100A90000E940C0F9B01AC01C301B2010E94EF0F39
:100AA0009B01AC01C701B6010E940B0F3B016C0119
:100AB000FE01E05CFF4FE080F1800281138197012D
:100AC000A8010E947011181614F473018601C70161
:100AD000D8018CAF9DAFAEAFBFAF3AC00CA91DA976
:100AE0002EA93FA91C141D041E041F040CF468CF7A
:100AF00010161106120613060CF099CF00271127C5
:100B000098010C191D092E093F096017710782070A
:100B100093070CF062CF2A8121115FCF8CA89DA88A
:100B2000AEA8BFA881149104A104B10409F096CF26
:100B300088AD99ADAAADBBAD8CAF9DAFAEAFBFAF29
:100B400081E01C141D041E041F040CF080E08A8345
:100B50003FEF831A930AA30AB30A8CAA9DAAAEAAEE
:100B6000BFAA8CAC9DACAEACBFACC501B4010E94B9
:100B700068106B017C01CB82DC82ED82FE82A501D4
:100B8000940160E074E284E799E40E94EF0F688FBB
:100B9000798F8A8F9B8F2A812111FFCE9058688F81
:100BA000798F8A8F9B8FF9CECF92DF92EF92FF924F
:100BB000CF93DF93CCECD2E0688D798D8A8D9B8DBD
:100BC0009B01AC010E947D116B017C0168A179A1A0
:100BD0008AA19BA19B01AC010E940C0F9B01AC015F
:100BE000C701B6010E94EF0F0E9461106CAB7DAB94
:100BF0008EAB9FABCE01DF91CF91FF90EF90DF9056
:100C0000CF900C947B0408952091A101260F3327E7
:100C1000331F21323105ECF42091F901FC0190E001
:100C200080E0243069F082E00895A091A101219133
:100C3000AC014F575E4FA40FB52FB11D2C930196F9
:100C4000861798F38091A101680F6093A10180E05D
:100C5000089581E008951092F90181E08093F801F0
:100C60001092D30161E082E10E94BD0061E083E166
:100C70000E94BD00E9EBF0E080818E7F808380815F
:100C80008D7F808388E48093B80085E48093BC00E6
:100C90000895CF93DF9391E0909380018823B9F07A
:100CA000C091B800D091BA008091BC008A7B80933B
:100CB000BC0060E082E10E94BD0060E083E10E9430
:100CC000BD000E942B06D093BA00C093B800DF91FC
:100CD000CF9108958F929F92AF92BF92CF92DF9261
:100CE000EF92FF920F931F93CF93DF93D091220245
:100CF000D13208F0D7C0182FC09121020E940901FB
:100D00006B017C018091F90181116BC082E08093BD
:100D1000F9011093F8018FEF8093F7011092F6011B
:100D2000D093F501A1E0B2E0E5EDF1E080E0D81369
:100D300091C01092D4018091D401CC0FC82BC093E4
:100D4000D4018091D301813009F088C01092D30181
:100D50000E9409016B017C018091D4018093BB004A
:100D60008091FB019091FC01A091FD01B091FE01E9
:100D7000892B8A2B8B2BA1F00E9409010091FB018A
:100D80001091FC012091FD013091FE016C197D094B
:100D90008E099F09061717072807390708F442C06C
:100DA0008091BC0083FDD8CF85EC8093BC000E946D
:100DB00009016B017C018091F901823009F450C076
:100DC0008091F7018F3F09F46FC08091F701803265
:100DD00009F46CC08091F701803309F469C084E0A4
:100DE00026C08091FB019091FC01A091FD01B09182
:100DF000FE01892B8A2B8B2B09F484CF0E940901D9
:100E00008090FB019090FC01A090FD01B090FE014C
:100E10006C197D098E099F0986169706A806B906E2
:100E200008F070CF8091FA010E94490685E0109287
:100E30000002109222021092FF01DF91CF911F91C8
:100E40000F91FF90EF90DF90CF90BF90AF909F9069
:100E50008F9008959D9191938F5F69CF85EEA5CF77
:100E60008091FB019091FC01A091FD01B091FE01E8
:100E7000892B8A2B8B2B09F49ECF0E9409010091AC
:100E8000FB011091FC012091FD013091FE016C19D4
:100E90007D098E099F09061717072807390708F0EB
:100EA0008ACFC0CF81E0C3CF80E0C1CF82E0BFCF87
:100EB00083E0BDCF0895E091C9018091C801E81792
:100EC00030F4F0E0E05AFE4F808190E008958FEF1B
:100ED0009FEF08959091C9018091C8012FEF3FEFD6
:100EE000981748F4E92FF0E0E05AFE4F208130E0F7
:100EF0009F5F9093C901C90108958091C8019091A5
:100F0000C901891B990B0895CF92DF92EF92FF924E
:100F10000F931F93CF93DF937C01CB018A01209124
:100F2000FF01222389F0EB016B01C40ED51ECC1505
:100F3000DD0569F06991D701ED91FC910190F08197
:100F4000E02DC7010995F3CF642F0E940406C80164
:100F5000DF91CF911F910F91FF90EF90DF90CF9095
:100F60000895CF93DF931F92CDB7DEB769832091A9
:100F7000FF012223F9F020912202203258F021E0D3
:100F800030E0FC013383228390E080E00F90DF911A
:100F9000CF91089580910002E82FF0E0EF5FFD4FC0
:100FA000998190838F5F809300028093220281E079
:100FB00090E0ECCF61E0CE0101960E940406F7CFED
:100FC000682F80EC92E00C94B10790E080E00895E7
:100FD0004F925F926F927F928F929F92AF92BF9249
:100FE000CF92DF92EF92FF926B017C0120E030E024
:100FF000A9010E94EA0F87FF04C0F7FAF094F7F8FE
:10100000F0948090EC029090ED02A090EE02B090EF
:10101000EF02A7019601C501B4010E94EA0F8823DF
:1010200009F458C06091000370910103809102039C
:10103000909103030E9499102B013C01A701960196
:10104000C501B4010E94EF0F9B01AC01C301B201C5
:101050000E947D110E946110609300037093010350
:101060008093020390930303A701960160E070E070
:1010700080E090E40E94EF0F0E94F01126E53EE030
:101080004DE25FE30E947D1120E034E244E759E441
:101090000E947D11609304037093050380930603FF
:1010A00090930703C092EC02D092ED02E092EE0220
:1010B000F092EF028CEC92E0FF90EF90DF90CF90F7
:1010C000BF90AF909F908F907F906F905F904F9068
:1010D0000C947B04FF90EF90DF90CF90BF90AF9087
:1010E0009F908F907F906F905F904F900895FC013C
:1010F00001900020E9F73197AF01481B590BBC0163
:1011000083E292E00C9462018F929F92AF92BF9221
:101110000F931F93CF93DF93CDB7DEB7A1970FB691
:10112000F894DEBF0FBECDBF19A2423008F44AE0EA
:101130008E010F5D1F4F842E912CB12CA12CA50187
:1011400094010E944E12E62FB901CA01EA30F4F46C
:10115000E05DD801EE938D01232B242B252B79F70D
:1011600090E080E0109719F0CD010E947708A196D9
:101170000FB6F894DEBF0FBECDBFDF91CF911F91A8
:101180000F91BF90AF909F908F900895E95CE1CF51
:101190000C94311385ED8093BC008091FB019091FC
:1011A000FC01A091FD01B091FE010796A11DB11DAA
:1011B00023E0B695A795979587952A95D1F7209125
:1011C000BC0024FD03C01092F90108954091FB0179
:1011D0005091FC016091FD017091FE01452B462B61
:1011E000472B69F30097A105B10541F02AE22A9542
:1011F000F1F700C00197A109B109E1CF8091FA018F
:101200000C944906CF92DF92EF92FF920F931F93B7
:10121000CF93DF9381E08093FF0188E680932102E2
:1012200010920002109222028BE390E00E94E007ED
:1012300080E00E946A060E9409016B017C01809196
:10124000F901811165C081E08093F9018093F80173
:101250009FEF9093F7011092F60195E09093F501BE
:101260008093D4018091D401806D8093D4018091CA
:10127000D301813009F0D5C01092D3010E94090139
:101280006B017C018091D4018093BB008091FB01B4
:101290009091FC01A091FD01B091FE01892B8A2B58
:1012A0008B2BA1F00E9409010091FB011091FC0120
:1012B0002091FD013091FE016C197D098E099F0975
:1012C000061717072807390708F443C08091BC00A8
:1012D00083FDD8CF85EC8093BC000E9409016B018F
:1012E0007C018091F901813009F49DC08091F60163
:1012F000863008F0BAC08091F601A5EDB1E0E0E6D5
:10130000F1E090E0981751F12D9121939F5FFACF72
:101310008091FB019091FC01A091FD01B091FE0133
:10132000892B8A2B8B2B09F48ACF0E94090100910B
:10133000FB011091FC012091FD013091FE016C191F
:101340007D098E099F09061717072807390708F036
:1013500076CF8091FA010E94490680E01092C9017F
:101360008093C80180EC92E00E946A07182F80ECFD
:1013700092E00E946A07D12F20E0C22FC82BD92B00
:1013800080EC92E00E946A07182F80EC92E00E94A5
:101390006A0720E0312F8901082B192B80EC92E09D
:1013A0000E946A07F82E80EC92E00E946A0720E013
:1013B000822B9F29009FB001019F700D700D112499
:1013C000889F9001899F300D300D1124620F731F8B
:1013D000072E000C880B990B0E9499100E94F011A7
:1013E0006B017C01BE01DD0F880B990B0E949910E7
:1013F000A70196010E948B0F20E030E044E353E404
:101400000E947D112BED3FE049E450E40E94EF0F74
:10141000DF91CF911F910F91FF90EF90DF90CF90D0
:10142000089585EE58CF8091FB019091FC01A09129
:10143000FD01B091FE01892B8A2B8B2B09F451CF32
:101440000E9409010091FB011091FC012091FD0116
:101450003091FE016C197D098E099F090617170747
:101460002807390708F03DCF74CF86E046CF1F929A
:101470000F920FB60F9211242F933F938F939F9348
:10148000AF93BF938091CB019091CC01A091CD01FE
:10149000B091CE013091CA0123E0230F2D3758F5CA
:1014A0000196A11DB11D2093CA018093CB01909399
:1014B000CC01A093CD01B093CE018091CF0190914A
:1014C000D001A091D101B091D2010196A11DB11D11
:1014D0008093CF019093D001A093D101B093D2011A
:1014E000BF91AF919F918F913F912F910F900FBE20
:1014F0000F901F90189526E8230F0296A11DB11D8D
:10150000D2CF1F920F920FB60F9211242F933F93B9
:101510004F935F936F937F938F939F93AF93BF93FB
:10152000EF93FF9383E292E00E94E001FF91EF913D
:10153000BF91AF919F918F917F916F915F914F91EB
:101540003F912F910F900FBE0F901F9018951F92F3
:101550000F920FB60F9211242F938F939F93EF93B7
:10156000FF93E0913302F09134028081E0913902DF
:10157000F0913A0282FD1BC0908180913C028F5F06
:101580008F7320913D02821741F0E0913C02F0E020
:10159000ED5DFD4F958F80933C02FF91EF919F9100
:1015A0008F912F910F900FBE0F901F9018958081F3
:1015B000F4CF1F920F920FB60F9211242F933F93E7
:1015C0004F935F936F937F938F939F93AF93BF934B
:1015D000EF93FF938091B900887F803609F44AC069
:1015E000F0F5883209F4A7C018F5803109F49BC0E2
:1015F000B8F4882309F4F9C0883009F494C0FF9145
:10160000EF91BF91AF919F918F917F916F915F917A
:101610004F913F912F910F900FBE0F901F901895F3
:10162000883109F488C0803251F78093F70114C0E3
:10163000803409F49DC040F48033B9F38833F9F65F
:101640008093F70185ECB0C0803509F485C08835FA
:1016500009F496C0883499F60E94CA08D0CF883918
:1016600009F48CC038F5883729F050F4883611F029
:10167000803729F683E08093F9011092C30157C0A7
:10168000883809F47BC0803919F0803809F0B7CF69
:101690008091C301803208F071C0E091C30181E004
:1016A0008E0F8093C3018091BB00F0E0ED55FE4F9B
:1016B00080833DC0803B39F0E0F4803A09F479C082
:1016C000883A09F09CCF84E08093F9011092A2013E
:1016D0001092A101E091C601F091C7010995809196
:1016E000A10181110FC081E08093A10110928101BD
:1016F00009C0803C09F4A6CF883C09F4A3CF883BFD
:1017000009F07DCFE091A20181E08E0F8093A201CC
:10171000F0E0EF57FE4F80818093BB009091A201D3
:101720008091A10129C08091D4018093BB0085ECF8
:101730008093BC0064CF9091F6018091F5019817D9
:1017400058F5E091F60181E08E0F8093F601F0E00C
:10175000EB52FE4F8081E9CFE091F60181E08E0FE0
:101760008093F6018091BB00F0E0EB52FE4F808346
:101770009091F6018091F5019817C8F285E8D8CFCD
:10178000E091F60181E08E0F8093F6018091BB001D
:10179000F0E0EB52FE4F80838091F80181115CCF25
:1017A00081E08093D30184EA8093BC001092F90118
:1017B00026CF85EC8093BC001092F9018091C30183
:1017C000803230F4E091C301F0E0ED55FE4F10821D
:1017D0006091C30170E0E091C401F091C50183EA1A
:1017E00091E009951092C3010ACF1092F70134CF0E
:1017F000CF92DF92EF92FF92109226021092250272
:1018000088EE93E0A0E0B0E0809327029093280256
:10181000A0932902B0932A022AE031E030932402F7
:101820002093230225EC30E03093300220932F02E6
:1018300024EC30E0309332022093310220EC30E08F
:10184000309334022093330221EC30E0309336029F
:101850002093350222EC30E0309338022093370297
:1018600026EC30E030933A022093390210923C0289
:1018700010923D0210923E0210923F021092C3025B
:101880001092C2028093C4029093C502A093C60234
:10189000B093C7028CE191E09093C1028093C002A3
:1018A0008EE291E09093CD028093CC0281E0809310
:1018B000D3021092DC021092DD021092DE0210922E
:1018C000DF021092E0021092E1021092E202109206
:1018D000E3021092E4021092E5021092E6021092E6
:1018E000E7021092E8021092E9021092EA021092C6
:1018F000EB021092EC021092ED021092EE021092A6
:10190000EF02C12CD12C80E8E82E8FE3F82EC09294
:10191000F002D092F102E092F202F092F302109201
:10192000CF021092D0021092D1021092D20281E026
:1019300090E09093F9028093F8028FEF8093FB027E
:101940001092F4021092F5021092F6021092F70231
:1019500082E08093D40283E08093D50284E0809378
:10196000D60285E08093D7021092FA02109200030B
:1019700010920103109202031092030310920403C9
:1019800010920503109206031092070310920803A9
:101990001092090310920A0310920B03C0920C03D9
:1019A000D0920D03E0920E03F0920F031092CE023C
:1019B0001092D8021092D9021092DA021092DB0231
:1019C0008CEC92E00E946F02C701B6010E94E8070A
:1019D000A70196016091E8027091E9028091EA0204
:1019E0009091EB020E94EA0F882339F1C092E8023D
:1019F000D092E902E092EA02F092EB0280E094E2F7
:101A0000A4E7B9E480930C0390930D03A0930E0315
:101A1000B0930F038091000390910103A091020302
:101A2000B0910303181619061A061B0634F4FF902A
:101A3000EF90DF90CF900C94D405FF90EF90DF9063
:101A4000CF900895789484B5826084BD84B5816018
:101A500084BD85B5826085BD85B5816085BD809179
:101A60006E00816080936E001092810080918100F1
:101A700082608093810080918100816080938100E9
:101A8000809180008160809380008091B1008460AB
:101A90008093B1008091B00081608093B00080910C
:101AA0007A00846080937A0080917A0082608093CB
:101AB0007A0080917A00816080937A0080917A0028
:101AC000806880937A001092C100E0913302F09117
:101AD000340282E08083E0912F02F0913002108284
:101AE000E0913102F09132028FEC808310923B0240
:101AF000E0913702F091380286E08083E091350270
:101B0000F0913602808180618083E0913502F0910E
:101B10003602808188608083E0913502F091360240
:101B2000808180688083E0913502F0913602808167
:101B30008F7D80831092C9011092C801109200021B
:101B4000109222020E942B0680E691E09093C7013A
:101B50008093C60181E691E09093C5018093C40112
:101B6000C1E0C093FF0188E6809321028BE690E0FC
:101B70000E94E00790E080E00E94E00781E00E9480
:101B80006A06C093FF0110920002109222028CE1BB
:101B900090E00E94E00790E080E00E94E00781E092
:101BA0000E946A0668EE73E080E090E00E942E01D9
:101BB00084E00E949E0060E084E00E94BD0020E07E
:101BC00030E04AE754E46091E8027091E9028091C4
:101BD000EA029091EB020E94EA0F882319F180E05B
:101BE00090E0AAE7B4E48093E8029093E902A0931E
:101BF000EA02B093EB0280930C0390930D03A09341
:101C00000E03B0930F038091000390910103A09104
:101C10000203B0910303181619061A061B0614F4E2
:101C20000E94D40560E070E08AEF93E40E94E80728
:101C3000CAE0D0E00E94020964E670E080E090E033
:101C40000E942E012197B1F71092DC021092DD0262
:101C50001092DE021092DF021092E0021092E10276
:101C60001092E2021092E30210920003109201031C
:101C700010920203109203031092CF021092D0022E
:101C80001092D1021092D2021092E4021092E50258
:101C90001092E6021092E702C0E0D0E00E94020932
:101CA0006B017C018AE491E00E947708A70196010C
:101CB000C701B6010E9434128823D9F08DE491E067
:101CC0000E94770889E591E00E9477088CE591E011
:101CD0000E94770862E370E080E090E00E942E01AD
:101CE0002097E1F20E94CC018823C1F20E940000FB
:101CF000D5CF46015701E894B7F82FEF3FEF4FE7F4
:101D00005FE7C501B4010E94341281110DC02FEFAD
:101D10003FEF4FE75FE7C501B4010E94EA0F1816D5
:101D20001CF481E591E0CCCF2FEF3FEF4FE75FE46C
:101D3000C701B6010E94701118161CF485E591E0E8
:101D4000BFCF2FEF3FEF4FE75FECC701B6010E9417
:101D5000EA0F87FDF3CF20E030E0A901C701B6010B
:101D60000E94EA0F87FF09C06DE283E292E00E94C1
:101D70000202F7FAF094F7F8F0942AE037ED43EA1C
:101D80005BE3C701B6010E940C0F4B015C010E948E
:101D900068106B017C010E9497109B01AC01C5018A
:101DA000B4010E940B0F4B015C014AE0C701B60170
:101DB0000E9484086EE283E292E00E94020220E028
:101DC00030E040E251E4C501B4010E947D114B01B5
:101DD0005C010E9468106B01F12CE12C4AE0C70104
:101DE000B6010E948408C701B6010E9497109B01AA
:101DF000AC01C501B4010E940B0F20E030E040E2CD
:101E000051E40E947D110E94681090E080E04AE059
:101E10000E94840857CF5058BB27AA270E94230F3F
:101E20000C9436110E94281138F00E942F1120F0D6
:101E300039F49F3F19F426F40C94FE100EF4E0954B
:101E4000E7FB0C94F810E92F0E94471158F3BA17DA
:101E5000620773078407950720F079F4A6F50C94C0
:101E600069110EF4E0950B2EBA2FA02D0B01B901CC
:101E700090010C01CA01A0011124FF27591B99F000
:101E8000593F50F4503E68F11A16F040A22F232F0C
:101E9000342F4427585FF3CF469537952795A7955C
:101EA000F0405395C9F77EF41F16BA0B620B730B03
:101EB000840BBAF09150A1F0FF0FBB1F661F771F74
:101EC000881FC2F70EC0BA0F621F731F841F48F429
:101ED000879577956795B795F7959E3F08F0B0CFB2
:101EE0009395880F08F09927EE0F97958795089599
:101EF0000E94281160F080E891E009F49EEF0E94B2
:101F00002F1128F040E851E071F45EEF0CC00C9402
:101F1000FE100C946911E92FE0780E94471140F3FC
:101F2000092E052AB1F3261737074807590738F055
:101F30000E2E07F8E02569F0E025E0640AC0EF63A3
:101F400007F8009407FADB01B9019D01DC01CA0121
:101F5000AD01EF930E9406100E9436110E94BB0F44
:101F60005F91552339F02BED3FE049E450FD49ECFA
:101F70000C940C0F0895DF93DD27B92FBF7740E84D
:101F80005FE31616170648075B0718F4D92F0E945F
:101F900075119F938F937F936F930E943012E8E6A1
:101FA000F0E00E9401110E9436112F913F914F9154
:101FB0005F910E949011DD2351F09058A2EA2AED22
:101FC0003FE049EC5FE3D0785D270E94230FDF916B
:101FD0000C9436110E94D41008F481E008950E94F8
:101FE00003100C9436110E942F1158F00E942811F2
:101FF00040F029F45F3F29F00C94F81051110C9433
:102000006A110C94FE100E94471168F39923B1F3F2
:10201000552391F3951B550BBB27AA27621773070E
:10202000840738F09F5F5F4F220F331F441FAA1FA2
:10203000A9F335D00E2E3AF0E0E832D0915050405E
:10204000E695001CCAF72BD0FE2F29D0660F771F0C
:10205000881FBB1F261737074807AB07B0E809F0F2
:10206000BB0B802DBF01FF2793585F4F3AF09E3F77
:10207000510578F00C94F8100C946A115F3FE4F36A
:10208000983ED4F3869577956795B795F7959F5FBA
:10209000C9F7880F911D9695879597F90895E1E006
:1020A000660F771F881FBB1F621773078407BA0765
:1020B00020F0621B730B840BBA0BEE1F88F7E095C0
:1020C00008950E9468106894B1110C946A110895E3
:1020D0000E944F1188F09F5798F0B92F9927B75158
:1020E000B0F0E1F0660F771F881F991F1AF0BA95BC
:1020F000C9F714C0B13091F00E946911B1E00895A0
:102100000C946911672F782F8827B85F39F0B93F91
:10211000CCF3869577956795B395D9F73EF490956E
:102120008095709561957F4F8F4F9F4F0895E894EC
:1021300009C097FB3EF490958095709561957F4F0F
:102140008F4F9F4F9923A9F0F92F96E9BB279395BD
:10215000F695879577956795B795F111F8CFFAF4CD
:10216000BB0F11F460FF1BC06F5F7F4F8F4F9F4FFE
:1021700016C0882311F096E911C0772321F09EE85C
:10218000872F762F05C0662371F096E8862F70E0C2
:1021900060E02AF09A95660F771F881FDAF7880F9C
:1021A0009695879597F90895990F0008550FAA0BF2
:1021B000E0E8FEEF16161706E807F907C0F012165A
:1021C0001306E407F50798F0621B730B840B950B5D
:1021D00039F40A2661F0232B242B252B21F40895B2
:1021E0000A2609F4A140A6958FEF811D811D08954F
:1021F00097F99F6780E870E060E008959FEF80ECBA
:102200000895DF93CF931F930F93FF92EF92DF9286
:102210007B018C01689406C0DA2EEF010E949011B8
:10222000FE01E894A5912591359145915591A6F32C
:10223000EF010E94230FFE019701A801DA9469F7CC
:10224000DF90EF90FF900F911F91CF91DF91089554
:1022500000240A9416161706180609060895002485
:102260000A9412161306140605060895092E0394FF
:10227000000C11F4882352F0BB0F40F4BF2B11F473
:1022800060FF04C06F5F7F4F8F4F9F4F089557FDD2
:102290009058440F551F59F05F3F71F04795880FD4
:1022A00097FB991F61F09F3F79F08795089512166B
:1022B00013061406551FF2CF4695F1DF08C0161617
:1022C00017061806991FF1CF8695710561050894C8
:1022D0000895E894BB2766277727CB0197F90895DF
:1022E0000E94D41008F48FEF08959B01AC0160E0C8
:1022F00070E080E89FE30C94EF0F0E9490110C9423
:1023000036110E94281138F00E942F1120F09523D9
:1023100011F00C94F8100C94FE1011240C946A1116
:102320000E94471170F3959FC1F3950F50E0551F20
:10233000629FF001729FBB27F00DB11D639FAA271A
:10234000F00DB11DAA1F649F6627B00DA11D661F69
:10235000829F2227B00DA11D621F739FB00DA11D8A
:10236000621F839FA00D611D221F749F3327A00D44
:10237000611D231F849F600D211D822F762F6A2FE0
:1023800011249F5750409AF0F1F088234AF0EE0F45
:10239000FF1FBB1F661F771F881F91505040A9F772
:1023A0009E3F510580F00C94F8100C946A115F3F29
:1023B000E4F3983ED4F3869577956795B795F795AE
:1023C000E7959F5FC1F7FE2B880F911D9695879526
:1023D00097F9089519F416F40C94FE100C94391220
:1023E0000E944F11B8F39923C9F3B6F39F57550BC9
:1023F00087FF0E9447120024A0E640EA900180581F
:102400005695979528F4805C660F771F881F20F0FB
:1024100026173707480730F4621B730B840B2029FB
:1024200031294A2BA69517940794202531254A2750
:1024300058F7660F771F881F20F0261737074807C1
:1024400030F4620B730B840B200D311D411DA095E0
:1024500081F7B901842F9158880F96958795089533
:102460009B01AC010C947D110E94D410880B990B38
:1024700008959F3F31F0915020F4879577956795A7
:10248000B795880F911D9695879597F90895915066
:102490005040660F771F881FD2F70895A1E21A2EC9
:1024A000AA1BBB1BFD010DC0AA1FBB1FEE1FFF1FF8
:1024B000A217B307E407F50720F0A21BB30BE40B48
:1024C000F50B661F771F881F991F1A9469F760958F
:1024D0007095809590959B01AC01BD01CF01089549
:1024E000052E97FB1EF400940E94871257FD07D01B
:1024F0000E944E1207FC03D04EF40C9487125095A4
:102500004095309521953F4F4F4F5F4F08959095DF
:102510008095709561957F4F8F4F9F4F0895EE0F77
:10252000FF1F0590F491E02D09940F931F93CF9313
:10253000DF938230910510F482E090E0E091120385
:10254000F091130330E020E0B0E0A0E0309799F480
:102550002115310509F44AC0281B390B24303105F7
:10256000D8F58A819B816115710589F1FB019383FF
:102570008283FE0111C0408151810281138148177D
:102580005907E0F04817590799F4109761F012962F
:102590000C93129713961C933296CF01DF91CF9133
:1025A0001F910F9108950093120310931303F4CF1A
:1025B0002115310551F04217530738F0A901DB010D
:1025C0009A01BD01DF01F801C1CFEF01F9CF90936E
:1025D000130380931203CDCFFE01E20FF31F81930B
:1025E00091932250310939832883D7CF209110034A
:1025F00030911103232B41F420910201309103010A
:1026000030931103209310032091000130910101B8
:102610002115310541F42DB73EB740910401509189
:102620000501241B350BE0911003F0911103E21713
:10263000F307A0F42E1B3F0B2817390778F0AC01E5
:102640004E5F5F4F2417350748F04E0F5F1F5093C2
:10265000110340931003819391939FCFF0E0E0E04A
:102660009CCFCF93DF930097E9F0FC013297138260
:102670001282A0911203B0911303ED0130E020E02B
:102680001097A1F420813181820F931F20911003B4
:10269000309111032817390709F061C0F093110335
:1026A000E0931003DF91CF910895EA01CE17DF0781
:1026B000E8F54A815B819E0141155105B1F7E901B9
:1026C000FB83EA8349915991C40FD51FEC17FD078D
:1026D00061F4808191810296840F951FE9019983AD
:1026E0008883828193819B838A83F0E0E0E0129665
:1026F0008D919C9113970097B9F52D913C9111976D
:10270000CD010296820F931F209110033091110387
:102710002817390739F6309751F5109213031092A4
:102720001203B0931103A0931003BCCFD383C283D1
:1027300040815181840F951FC817D90761F44E5FFE
:102740005F4F88819981480F591F518340838A8147
:102750009B81938382832115310509F0B0CFF093DB
:102760001303E09312039ECFFD01DC01C0CF13825F
:102770001282D7CFF894FFCF00001403800000002E
:102780000000020262018F014F02C0019E01B201EE
:1027900000000000B1078407E5075A077D076A07B4
:1027A0005B07000000009D026F020306C8087B045F
:1027B000FD033B04E703B503940360033F03E90211
:1027C000BA02302C006E616E00696E66006F76662C
:0827D000002C30000D0A00008E
:107E0000112484B714BE81FFF0D085E080938100F7
:107E100082E08093C00088E18093C10086E0809377
:107E2000C20080E18093C4008EE0C9D0259A86E02C
:107E300020E33CEF91E0309385002093840096BBD3
:107E4000B09BFECF1D9AA8958150A9F7CC24DD24C4
:107E500088248394B5E0AB2EA1E19A2EF3E0BF2EE7
:107E6000A2D0813461F49FD0082FAFD0023811F036
:107E7000013811F484E001C083E08DD089C08234E0
:107E800011F484E103C0853419F485E0A6D080C0E4
:107E9000853579F488D0E82EFF2485D0082F10E0AE
:107EA000102F00270E291F29000F111F8ED06801E7
:107EB0006FC0863521F484E090D080E0DECF843638
:107EC00009F040C070D06FD0082F6DD080E0C81688
:107ED00080E7D80618F4F601B7BEE895C0E0D1E017
:107EE00062D089930C17E1F7F0E0CF16F0E7DF06D8
:107EF00018F0F601B7BEE89568D007B600FCFDCFD4
:107F0000A601A0E0B1E02C9130E011968C91119780
:107F100090E0982F8827822B932B1296FA010C0160
:107F200087BEE89511244E5F5F4FF1E0A038BF0790
:107F300051F7F601A7BEE89507B600FCFDCF97BE46
:107F4000E89526C08437B1F42ED02DD0F82E2BD052
:107F50003CD0F601EF2C8F010F5F1F4F84911BD097
:107F6000EA94F801C1F70894C11CD11CFA94CF0C13
:107F7000D11C0EC0853739F428D08EE10CD085E9AC
:107F80000AD08FE07ACF813511F488E018D01DD067
:107F900080E101D065CF982F8091C00085FFFCCF94
:107FA0009093C60008958091C00087FFFCCF809118
:107FB000C00084FD01C0A8958091C6000895E0E648
:107FC000F0E098E1908380830895EDDF803219F02E
:107FD00088E0F5DFFFCF84E1DECF1F93182FE3DFCA
:107FE0001150E9F7F2DF1F91089580E0E8DFEE27F6
:047FF000FF270994CA
:027FFE00040479
:00000001FF
