:020000040000FA
:100000000C945D000C9485000C9485000C94850084
:100010000C9485000C9485000C9485000C9485004C
:100020000C9485000C9485000C9485000C9485003C
:100030000C9485000C9485000C9485000C9485002C
:100040000C94E7060C9485000C9485000C948500B4
:100050000C9485000C9485000C9485000C9485000C
:100060000C9485000C94850000000008000201003B
:100070000003040700000000000000000000000072
:10008000250028002B0000000000240027002A0083
:10009000040404040404040402020202020203032E
:1000A0000303030301020408102040800102040836
:1000B0001020010204081020F50811241FBECFEF04
:1000C000D8E0DEBFCDBF11E0A0E0B1E0EEE2FAE1A2
:1000D00002C005900D92A632B107D9F721E0A6E241
:1000E000B1E001C01D92A03DB207E1F710E0CDE5FF
:1000F000D0E004C02197FE010E94C80BCC35D10787
:10010000C9F70E94C6070C94150D0C94000090E0EE
:10011000FC01EC55FF4F249180579F4FFC018491C7
:10012000882399F090E0880F991FFC01EA57FF4F50
:10013000A591B491FC01E458FF4F859194918FB73C
:10014000F894EC91E22BEC938FBF0895CF92DF925D
:10015000EF92FF921F93CF93DF9380E010E0909196
:10016000CB01191708F079C0E12FF0E0EE0FFF1F67
:10017000E954FE4FC081D181CC88DD88EE88FF88AC
:10018000488959896A897B89C416D506E606F70627
:1001900049F08B819C81AD81BE81892B8A2B8B2B71
:1001A00019F481E01F5FDBCF3FB7F8948091B30172
:1001B0009091B401A091B501B091B60126B5A89B6C
:1001C00005C02F3F19F00196A11DB11D3FBFBA2FE9
:1001D000A92F982F88276C017D01C20ED11CE11C2C
:1001E000F11C42E0CC0CDD1CEE1CFF1C4A95D1F743
:1001F00088A599A5AAA5BBA5B701A601481B590BBF
:100200006A0B7B0B8B819C81AD81BE81481759079E
:100210006A077B0730F288899989AA89BB892A8174
:100220002223B9F00196A11DB11D888B998BAA8B51
:10023000BB8B488959896A897B89E881F981048463
:10024000F585E02DCE010995C8A6D9A6EAA6FBA69C
:10025000A8CF0197A109B109E8CFDF91CF911F91F4
:10026000FF90EF90DF90CF9008952F923F924F92A2
:100270005F926F927F928F929F92AF92BF92CF9236
:10028000DF92EF92FF920F931F93CF93DF9300D0F3
:1002900000D01F92CDB7DEB75C019090CB017C01FE
:1002A00027EB31E03D832C8300E01A821B82212C56
:1002B00010E09016D1F1D7016D917D918D919D91B6
:1002C0007D01EC81FD81C190D190FD83EC83D6014D
:1002D00050964D905D906D907C9053976419750980
:1002E0008609970997FF07C090958095709561954D
:1002F0007F4F8F4F9F4F0E942C0AF601248D358D22
:10030000468D578D0E948209762E872E6C012A8198
:100310003B81422D512F0E94DC0A181624F47A8268
:100320008B822C2C1D2D0F5FC4CF20E030E0A90163
:100330006A817B81822D912F0E94DC0A18160CF0B5
:10034000C5C019828091CB01F981F81708F0BEC0B1
:100350002F2F30E0F901EE0FFF1FEE0FFF1FEA0D08
:10036000FB1D4080518062807380220F331F3D83CC
:100370002C83F901E954FE4FE080F180F701808978
:100380009189A289B389A3019201281B390B4A0BD9
:100390005B0BCA01B9010E942C0A2A813B81422DC4
:1003A000512F0E948209362E872E982E092FF70191
:1003B00084899589A689B789481659066A067B06F5
:1003C00061F0448A558A668A778A0190F081E02D2F
:1003D0000084F185E02DC7010995EC81FD81E95488
:1003E000FE4F208131813D832C83D90158962D9178
:1003F0003D914D915C915B97632D782D892D902FC8
:100400000E947D098823E9F1EC81FD81448C558CA3
:10041000668C778C73016201F7FAF094F7F8F09428
:10042000A7019601632D782D892D902F0E947D09BB
:1004300087FD10C0A3019201632D782D892D902F87
:100440000E94DC0A73016201181624F0C32CD82C18
:10045000E92CF02E20E030E0A901C701B6010E948E
:100460007D09811112C0AC81BD8113961D921D9230
:100470001D921C921697EC81FD81C08ED18EE28E6A
:10048000F38EF981FF5FF9835DCFA701960160E0EC
:1004900074E284E799E40E9482099F770E94FB0935
:1004A000EC81FD81638374838583968301E020E082
:1004B00030E0A901C701B6010E94DC0A18160CF051
:1004C00000E0AC81BD8112960C93D5CF0F900F90B8
:1004D0000F900F900F90DF91CF911F910F91FF9090
:1004E000EF90DF90CF90BF90AF909F908F907F90D4
:1004F0006F905F904F903F902F90089590E0FC0197
:10050000E859FF4F2491FC01EC55FF4F3491FC0159
:10051000E057FF4FE491EE23C9F0222339F0233056
:1005200001F1A8F4213019F1223029F1F0E0EE0FA9
:10053000FF1FE458FF4FA591B4918FB7F894EC9149
:10054000611126C030953E233C938FBF089527301C
:10055000A9F02830C9F0243049F7809180008F7DC0
:1005600003C0809180008F7780938000DFCF84B5B7
:100570008F7784BDDBCF84B58F7DFBCF8091B000BA
:100580008F778093B000D2CF8091B0008F7DF9CF6C
:100590003E2BDACFCF93DF93FC012781222329F171
:1005A000EC0180850E94870089850E9487008F81E9
:1005B000843011F0883099F48A850E9487008B85F9
:1005C0000E9487008FA58F3F81F00E9487006EA553
:1005D00081E068278FA5DF91CF910C947E02833054
:1005E00011F0863079F78A85EBCFDF91CF910895AE
:1005F000CF93DF93FC0127812223A1F0EC0101902E
:10060000F081E02D0284F385E02D60E009958FA54F
:100610008F3F41F00E9487006EA58FA5DF91CF919B
:100620000C947E02DF91CF910895DC01ED91FC9155
:100630002285338547705527662777274150510912
:1006400061097109473051056105710560F4FA01CE
:10065000E45DFC4F0C94C80B360338033A033C03AB
:100660003E034003420361E0F901099465E0FCCFD9
:1006700064E0FACF66E0F8CF62E0F6CF6AE0F4CF4C
:1006800068E0F2CF69E0F0CFCF93DF93EC01CB01CC
:10069000BA0126E030E040E050E00E94A90B623051
:1006A00071058105910589F16CF46115710581056C
:1006B0009105D1F06130710581059105F9F0DF9167
:1006C000CF910895643071058105910561F124F1A0
:1006D000653071058105910591F7E881F981028402
:1006E000F385E02D66E006C0E881F9810284F38598
:1006F000E02D64E0CE01DF91CF910994E881F9818A
:100700000284F385E02D65E0F5CFE881F98102846C
:10071000F385E02D61E0EECFE881F9810284F38575
:10072000E02D63E0E7CFE881F9810284F385E02DD5
:1007300062E0E0CFDC01ED91FC910284F385E02DD5
:1007400043705527662777274230510561057105AB
:1007500071F0433051056105710559F04130510583
:100760006105710511F065E0099466E0FDCF6AE06E
:10077000FBCF69E0F9CFCF93DF93EC01CB01BA0156
:1007800023E030E040E050E00E94A90B61307105A9
:100790008105910599F06230710581059105A9F0F7
:1007A000672B682B692BC1F4E881F9810284F385FA
:1007B000E02D64E0CE01DF91CF910994E881F981C9
:1007C0000284F385E02D61E0F5CFE881F9810284B0
:1007D000F385E02D62E0EECFDF91CF910895DC014B
:1007E000ED91FC910284F385E02D43705527662737
:1007F0007727423051056105710571F0433051058D
:100800006105710559F0413051056105710511F01F
:1008100062E0099463E0FDCF61E0FBCF60E0F9CFD7
:10082000CF93DF93EC01E881F9810284F385E02D19
:100830008A8160E0811162E0CE010995E881F98149
:100840000284F385E02D8A8161E0811163E0CE01AD
:1008500009958CA59DA58230910538F0880F991FC8
:10086000880F991F05970197F1F7E881F9810284B4
:10087000F385E02D8A8160E0811162E0CE01DF9195
:10088000CF910994CF93DF93EC0120E030E0A901F0
:10089000688D798D8A8D9B8D0E94DC0A18162CF448
:1008A000E8A9F9A9DF91CF910994EAA9FBA9FACFA8
:1008B000CF92DF92EF92FF920F931F93CF93DF932C
:1008C000DC011796CC91C43039F0C83059F1C330EF
:1008D00019F0C63049F1C2E08C01085F1F4FF12CBE
:1008E000E12CC62ED12CD1E0F8016481C6010E2C7A
:1008F00002C0959587950A94E2F780FD6D270F5FFA
:100900001F4F80810E947E02BFEFEB1AFB0AEC169C
:1009100058F3DF91CF911F910F91FF90EF90DF90EF
:10092000CF900895C4E0D8CFC3E0D6CFDC011796AE
:10093000EC911797E93008F038C0F0E0EE55FB4F26
:100940000C94C80BAB04B104B704BD04C304D504B4
:10095000C904D504CF04ED91FC910684F785E02D00
:100960000994ED91FC910088F189E02DF9CFED918A
:10097000FC910288F389E02DF3CFED91FC9104887E
:10098000F589E02DEDCFED91FC910688F789E02DFA
:10099000E7CFED91FC91008CF18DE02DE1CFED9151
:1009A000FC91028CF38DE02DDBCF08954F925F9286
:1009B0006F927F928F929F92AF92BF92CF92DF926F
:1009C000EF92FF920F931F93CF93DF93EC01CC88AC
:1009D000DD88EE88FF8888899989AA89BB89C81A29
:1009E000D90AEA0AFB0A688D798D8A8D9B8D9B0155
:1009F000AC010E94E10A4B015C0168A179A18AA1C6
:100A00009BA19B01AC010E9411099B01AC01C50196
:100A1000B4010E9482090E94F409C114D104E104C6
:100A2000F10409F0B6C062307105810591050CF042
:100A3000D0C01B821C821D821E82188E198E1A8EB7
:100A40001B8E1CAA1DAA1EAA1FAAC12CD12C76017E
:100A5000C701B601DF91CF911F910F91FF90EF90E9
:100A6000DF90CF90BF90AF909F908F907F906F90CE
:100A70005F904F9008951016110612061306B4F4F5
:100A80006C157D058E059F051CF42A812111A1C0DE
:100A90009B01AC0188279927DC01821B930BA40BD7
:100AA000B50B8CAB9DABAEABBFAB93C001151105C5
:100AB0002105310509F48DC06C157D058E059F0556
:100AC0000CF087C08A81882309F483C03095209573
:100AD000109501951F4F2F4F3F4F0CAB1DAB2EAB09
:100AE0003FAB77C0011511052105310509F471C02F
:100AF0008824992454018C189D08AE08BF086815F5
:100B000079058A059B050CF064C08A81811161C05A
:100B1000DDCFCCACDDACEEACFFACA7019601C701DC
:100B2000B6010E9411092B013C01C501B4010E94CC
:100B30002C0A20E030E040E850E40E94E10A20E086
:100B400030E040E85FE30E9411099B01AC01C30162
:100B5000B2010E9482099B01AC01C701B6010E944B
:100B600010093B016C01FE01E05CFF4FE080F18069
:100B7000028113819701A8010E94DC0A181614F45F
:100B800073018601C701D8018CAF9DAFAEAFBFAF77
:100B90003AC00CA91DA92EA93FA91C141D041E04AE
:100BA0001F040CF468CF10161106120613060CF081
:100BB00099CF0027112798010C191D092E093F090B
:100BC00060177107820793070CF062CF2A81211109
:100BD0005FCF8CA89DA8AEA8BFA881149104A104E2
:100BE000B10409F096CF88AD99ADAAADBBAD8CAF7D
:100BF0009DAFAEAFBFAF81E01C141D041E041F04E7
:100C00000CF080E08A833FEF831A930AA30AB30AA9
:100C10008CAA9DAAAEAABFAA8CAC9DACAEACBFAC50
:100C2000C501B4010E94FB096B017C01CB82DC820F
:100C3000ED82FE82A501940160E074E284E799E40C
:100C40000E948209688F798F8A8F9B8F2A81211158
:100C5000FFCE9058688F798F8A8F9B8FF9CECF9275
:100C6000DF92EF92FF92CF93DF93EC01688D798D45
:100C70008A8D9B8D9B01AC010E94E10A6B017C0176
:100C800068A179A18AA19BA19B01AC010E941109D5
:100C90009B01AC01C701B6010E9482090E94F409C0
:100CA0006CAB7DAB8EAB9FABCE01DF91CF91FF9054
:100CB000EF90DF90CF900C94D60408954F925F92FE
:100CC0006F927F928F929F92AF92BF92CF92DF925C
:100CD000EF92FF92CF93DF93EC016A017B0120E05A
:100CE00030E0A901CB01B6010E947D0987FF04C055
:100CF000F7FAF094F7F8F09488A099A0AAA0BBA006
:100D0000A7019601C501B4010E947D09882309F459
:100D10004DC06CA97DA98EA99FA90E942C0A2B0108
:100D20003C01A7019601C501B4010E9482099B0103
:100D3000AC01C301B2010E94E10A0E94F4096CAB4C
:100D40007DAB8EAB9FABA701960160E070E080E0C9
:100D500090E40E9482090E94540B26E53EE04DE299
:100D60005FE30E94E10A20E034E244E759E40E9494
:100D7000E10A68AF79AF8AAF9BAFC8A2D9A2EAA255
:100D8000FBA2E881F9810084F185E02DCE01DF919D
:100D9000CF91FF90EF90DF90CF90BF90AF909F905A
:100DA0008F907F906F905F904F900994DF91CF91DB
:100DB000FF90EF90DF90CF90BF90AF909F908F907B
:100DC0007F906F905F904F9008950C948C0C1F92C1
:100DD0000F920FB60F9211242F933F938F939F93EF
:100DE000AF93BF938091AF019091B001A091B101F9
:100DF000B091B2013091AE0123E0230F2D3758F5A9
:100E00000196A11DB11D2093AE018093AF01909377
:100E1000B001A093B101B093B2018091B301909160
:100E2000B401A091B501B091B6010196A11DB11D0B
:100E30008093B3019093B401A093B501B093B60130
:100E4000BF91AF919F918F913F912F910F900FBEC6
:100E50000F901F90189526E8230F0296A11DB11D33
:100E6000D2CFCF92DF92EF92FF920F931F93CF9347
:100E7000DF93EC018E2DEAE0F1E0F983E8836F83E4
:100E8000188A198A1A8A1B8A1C8A1D8A1E8A1F8A36
:100E9000188E198E1A8E1B8E1C8E1D8E1E8E1F8E06
:100EA00018A219A21AA21BA2C12CD12C90E8E92EDB
:100EB0009FE3F92ECCA2DDA2EEA2FFA21B821C8230
:100EC0001D821E8261E070E07DA76CA79FEF9FA747
:100ED00018A619A61AA61BA6488729870A878B87F2
:100EE0001EA61CAA1DAA1EAA1FAA18AE19AE1AAECB
:100EF0001BAE1CAE1DAE1EAE1FAE8E01005C1F4FA2
:100F0000F801C082D182E282F3821A821C861D8699
:100F10001E861F86CE010E94CA02B701A601CE011D
:100F20000E945E06A70196016C8D7D8D8E8D9F8D32
:100F30000E947D09882309F1CC8EDD8EEE8EFF8E16
:100F400080E094E2A4E7B9E4F80180839183A2836E
:100F5000B3838CA99DA9AEA9BFA9181619061A06B4
:100F60001B065CF4CE01DF91CF911F910F91FF9092
:100F7000EF90DF90CF900C942F06DF91CF911F91CF
:100F80000F91FF90EF90DF90CF900895CF93DF9374
:100F9000CDB7DEB728970FB6F894DEBF0FBECDBF32
:100FA000789484B5826084BD84B5816084BD85B544
:100FB000826085BD85B5816085BD80916E00816050
:100FC00080936E00109281008091810082608093F6
:100FD00081008091810081608093810080918000F8
:100FE0008160809380008091B10084608093B10023
:100FF0008091B00081608093B00080917A0084601D
:1010000080937A0080917A00826080937A00809148
:101010007A00816080937A0080917A008068809362
:101020007A001092C10020E030E048E452E4609180
:1010300086017091870180918801909189010E94B9
:101040007D09882349F180E090E0A8E4B2E4809330
:10105000860190938701A0938801B093890180E075
:1010600090E4ACE9B6E48093AA019093AB01A0931D
:10107000AC01B093AD0180919E0190919F01A09130
:10108000A001B091A101181619061A061B0624F436
:101090008AE691E00E942F0640E050E068E472E4A6
:1010A0008AE691E00E945E0620E030E046E153E4EB
:1010B00060914201709143018091440190914501FA
:1010C0000E947D09882349F180E090E0A6E1B3E425
:1010D0008093420190934301A0934401B093450152
:1010E00085E595E5A0EDB5E48093660190936701F1
:1010F000A0936801B093690180915A0190915B01BE
:10110000A0915C01B0915D01181619061A061B0624
:1011100024F486E291E00E942F0640E050E068EC63
:1011200072E486E291E00E945E06E091CB01EA3033
:1011300068F481E08E0F8093CB01F0E0EE0FFF1F8B
:10114000E954FE4F86E291E091838083E091CB01E8
:10115000EA3068F481E08E0F8093CB01F0E0EE0F6F
:10116000FF1FE954FE4F8AE691E09183808386E475
:10117000C82ED12CE12CF12C9CE0892E9EEF992ECB
:10118000AA24AA94BA2C2AEB422E55245A94652CF0
:10119000752C00E010E084EF91E0A0E0B0E08983DE
:1011A0009A83AB83BC83CD82DE82EF82F886CE0148
:1011B00001960E9435010E94A6008111FCCF898210
:1011C0009A82AB82BC824D825E826F827886CE012B
:1011D00001960E9435010E94A6008111FCCF0115E5
:1011E0001105C9F20E940000D6CFEF920F9385E05F
:1011F000E82E04E025E044E061E086E291E00E9410
:1012000031079AE0E92E0CE02BE04DE064E08AE63D
:1012100091E00E9431071092CB010F91EF90089559
:101220005058BB27AA270E9428090C94A20A0E94A2
:10123000940A38F00E949B0A20F039F49F3F19F479
:1012400026F40C94910A0EF4E095E7FB0C948B0ABB
:10125000E92F0E94B30A58F3BA176207730784078D
:10126000950720F079F4A6F50C94D50A0EF4E095D4
:101270000B2EBA2FA02D0B01B90190010C01CA0150
:10128000A0011124FF27591B99F0593F50F4503EFB
:1012900068F11A16F040A22F232F342F4427585FED
:1012A000F3CF469537952795A795F0405395C9F705
:1012B0007EF41F16BA0B620B730B840BBAF09150BD
:1012C000A1F0FF0FBB1F661F771F881FC2F70EC05C
:1012D000BA0F621F731F841F48F48795779567952F
:1012E000B795F7959E3F08F0B0CF9395880F08F01B
:1012F0009927EE0F9795879508950E94670A08F43D
:1013000081E008950E9496090C94A20A0E949B0A0B
:1013100058F00E94940A40F029F45F3F29F00C94A1
:101320008B0A51110C94D60A0C94910A0E94B30AAC
:1013300068F39923B1F3552391F3951B550BBB2704
:10134000AA2762177307840738F09F5F5F4F220F49
:10135000331F441FAA1FA9F335D00E2E3AF0E0E840
:1013600032D091505040E695001CCAF72BD0FE2F8A
:1013700029D0660F771F881FBB1F2617370748071E
:10138000AB07B0E809F0BB0B802DBF01FF279358D6
:101390005F4F3AF09E3F510578F00C948B0A0C9405
:1013A000D60A5F3FE4F3983ED4F386957795679528
:1013B000B795F7959F5FC9F7880F911D969587950B
:1013C00097F90895E1E0660F771F881FBB1F62172A
:1013D00073078407BA0720F0621B730B840BBA0BE8
:1013E000EE1F88F7E09508950E94FB096894B111FB
:1013F0000C94D60A08950E94BB0A88F09F5798F073
:10140000B92F9927B751B0F0E1F0660F771F881F09
:10141000991F1AF0BA95C9F714C0B13091F00E9423
:10142000D50AB1E008950C94D50A672F782F882744
:10143000B85F39F0B93FCCF3869577956795B3954A
:10144000D9F73EF490958095709561957F4F8F4FB9
:101450009F4F0895E89409C097FB3EF490958095BE
:10146000709561957F4F8F4F9F4F9923A9F0F92F6A
:1014700096E9BB279395F695879577956795B795E8
:10148000F111F8CFFAF4BB0F11F460FF1BC06F5FCE
:101490007F4F8F4F9F4F16C0882311F096E911C0E0
:1014A000772321F09EE8872F762F05C0662371F001
:1014B00096E8862F70E060E02AF09A95660F771F15
:1014C000881FDAF7880F9695879597F90895990FF1
:1014D0000008550FAA0BE0E8FEEF16161706E807FE
:1014E000F907C0F012161306E407F50798F0621B1F
:1014F000730B840B950B39F40A2661F0232B242BF4
:10150000252B21F408950A2609F4A140A6958FEF12
:10151000811D811D089597F99F6780E870E060E064
:1015200008959FEF80EC089500240A94161617067C
:1015300018060906089500240A94121613061406C4
:1015400005060895092E0394000C11F4882352F027
:10155000BB0F40F4BF2B11F460FF04C06F5F7F4FDF
:101560008F4F9F4F089557FD9058440F551F59F0C6
:101570005F3F71F04795880F97FB991F61F09F3F80
:1015800079F087950895121613061406551FF2CFA9
:101590004695F1DF08C0161617061806991FF1CFF9
:1015A00086957105610508940895E894BB27662720
:1015B0007727CB0197F908950E94670A08F48FEF07
:1015C00008950E94F40A0C94A20A0E94940A38F02A
:1015D0000E949B0A20F0952311F00C948B0A0C9426
:1015E000910A11240C94D60A0E94B30A70F3959FB5
:1015F000C1F3950F50E0551F629FF001729FBB270A
:10160000F00DB11D639FAA27F00DB11DAA1F649FA5
:101610006627B00DA11D661F829F2227B00DA11D58
:10162000621F739FB00DA11D621F839FA00D611DDE
:10163000221F749F3327A00D611D231F849F600DFF
:10164000211D822F762F6A2F11249F5750409AF028
:10165000F1F088234AF0EE0FFF1FBB1F661F771FB4
:10166000881F91505040A9F79E3F510580F00C947F
:101670008B0A0C94D60A5F3FE4F3983ED4F3869528
:1016800077956795B795F795E7959F5FC1F7FE2B1F
:10169000880F911D9695879597F9089519F416F47A
:1016A0000C94910A0C94940B0E94BB0AB8F39923F2
:1016B000C9F3B6F39F57550B87FF0E94A20B002476
:1016C000A0E640EA900180585695979528F4805CF2
:1016D000660F771F881F20F026173707480730F45A
:1016E000621B730B840B202931294A2BA695179472
:1016F0000794202531254A2758F7660F771F881F42
:1017000020F026173707480730F4620B730B840B61
:10171000200D311D411DA09581F7B901842F9158ED
:10172000880F9695879508959F3F31F0915020F44A
:10173000879577956795B795880F911D96958795AD
:1017400097F9089591505040660F771F881FD2F780
:101750000895052E97FB1EF400940E94C00B57FDC0
:1017600007D00E94CE0B07FC03D04EF40C94C00BA4
:1017700050954095309521953F4F4F4F5F4F0895BD
:1017800090958095709561957F4F8F4F9F4F0895ED
:10179000EE0FFF1F0590F491E02D0994A1E21A2E9F
:1017A000AA1BBB1BFD010DC0AA1FBB1FEE1FFF1F05
:1017B000A217B307E407F50720F0A21BB30BE40B55
:1017C000F50B661F771F881F991F1A9469F760959C
:1017D0007095809590959B01AC01BD01CF01089556
:1017E0000F931F93CF93DF938230910510F482E023
:1017F00090E0E091CE01F091CF0130E020E0B0E048
:10180000A0E0309799F42115310509F44AC0281B4E
:10181000390B24303105D8F58A819B81611571051A
:1018200089F1FB0193838283FE0111C040815181C4
:101830000281138148175907E0F04817590799F4B6
:10184000109761F012960C93129713961C93329690
:10185000CF01DF91CF911F910F9108950093CE0199
:101860001093CF01F4CF2115310551F042175307E2
:1018700038F0A901DB019A01BD01DF01F801C1CFF8
:10188000EF01F9CF9093CF018093CE01CDCFFE0130
:10189000E20FF31F819391932250310939832883FA
:1018A000D7CF2091CC013091CD01232B41F4209151
:1018B0000201309103013093CD012093CC0120919E
:1018C0000001309101012115310541F42DB73EB7DA
:1018D0004091040150910501241B350BE091CC018E
:1018E000F091CD01E217F307A0F42E1B3F0B281750
:1018F000390778F0AC014E5F5F4F2417350748F089
:101900004E0F5F1F5093CD014093CC018193919373
:101910009FCFF0E0E0E09CCFCF93DF930097E9F01A
:10192000FC01329713821282A091CE01B091CF01B7
:10193000ED0130E020E01097A1F420813181820F89
:10194000931F2091CC013091CD012817390709F060
:1019500061C0F093CD01E093CC01DF91CF91089568
:10196000EA01CE17DF07E8F54A815B819E01411548
:101970005105B1F7E901FB83EA8349915991C40FFD
:10198000D51FEC17FD0761F4808191810296840FC9
:10199000951FE90199838883828193819B838A8340
:1019A000F0E0E0E012968D919C9113970097B9F5C5
:1019B0002D913C911197CD010296820F931F20919A
:1019C000CC013091CD012817390739F6309751F500
:1019D0001092CF011092CE01B093CD01A093CC0113
:1019E000BCCFD383C28340815181840F951FC81718
:1019F000D90761F44E5F5F4F88819981480F591F65
:101A0000518340838A819B81938382832115310591
:101A100009F0B0CFF093CF01E093CE019ECFFD014E
:101A2000DC01C0CF13821282D7CFF894FFCF000021
:101A3000D001800000000000F802CA025D06E50641
:101A4000D6045804960442041004EF03BB039A031F
:041A50004403150333
:107E0000112484B714BE81FFF0D085E080938100F7
:107E100082E08093C00088E18093C10086E0809377
:107E2000C20080E18093C4008EE0C9D0259A86E02C
:107E300020E33CEF91E0309385002093840096BBD3
:107E4000B09BFECF1D9AA8958150A9F7CC24DD24C4
:107E500088248394B5E0AB2EA1E19A2EF3E0BF2EE7
:107E6000A2D0813461F49FD0082FAFD0023811F036
:107E7000013811F484E001C083E08DD089C08234E0
:107E800011F484E103C0853419F485E0A6D080C0E4
:107E9000853579F488D0E82EFF2485D0082F10E0AE
:107EA000102F00270E291F29000F111F8ED06801E7
:107EB0006FC0863521F484E090D080E0DECF843638
:107EC00009F040C070D06FD0082F6DD080E0C81688
:107ED00080E7D80618F4F601B7BEE895C0E0D1E017
:107EE00062D089930C17E1F7F0E0CF16F0E7DF06D8
:107EF00018F0F601B7BEE89568D007B600FCFDCFD4
:107F0000A601A0E0B1E02C9130E011968C91119780
:107F100090E0982F8827822B932B1296FA010C0160
:107F200087BEE89511244E5F5F4FF1E0A038BF0790
:107F300051F7F601A7BEE89507B600FCFDCF97BE46
:107F4000E89526C08437B1F42ED02DD0F82E2BD052
:107F50003CD0F601EF2C8F010F5F1F4F84911BD097
:107F6000EA94F801C1F70894C11CD11CFA94CF0C13
:107F7000D11C0EC0853739F428D08EE10CD085E9AC
:107F80000AD08FE07ACF813511F488E018D01DD067
:107F900080E101D065CF982F8091C00085FFFCCF94
:107FA0009093C60008958091C00087FFFCCF809118
:107FB000C00084FD01C0A8958091C6000895E0E648
:107FC000F0E098E1908380830895EDDF803219F02E
:107FD00088E0F5DFFFCF84E1DECF1F93182FE3DFCA
:107FE0001150E9F7F2DF1F91089580E0E8DFEE27F6
:047FF000FF270994CA
:027FFE00040479
:00000001FF
