:100000000C9479000C94A1000C94A1000C94A10014
:100010000C94A1000C94A1000C94A1000C94A100DC
:100020000C94A1000C94A1000C94A1000C94A100CC
:100030000C94A1000C94A1000C94A1000C94A100BC
:100040000C94580A0C94A1000C94C80A0C94A20AAF
:100050000C94A1000C94A1000C94A1000C94A1009C
:100060000C94FA0A0C94A100084AD73B3BCE016ECF
:1000700084BCBFFDC12F3D6C74319ABD56833DDAFF
:100080003D00C77F11BED9E4BB4C3E916BAAAABE0E
:10009000000000803F00000000002300260029002F
:1000A00000000000240027002A00000000002500B6
:1000B00028002B00040404040404040402020202C5
:1000C000020203030303030301020408102040801B
:1000D000010204081020010204081020000000089A
:1000E00000020100000304070000000000000000FF
:1000F000B00C11241FBECFEFD8E0DEBFCDBF11E0A2
:10010000A0E0B1E0EEE6FDE202C005900D92AA3457
:10011000B107D9F723E0AAE4B1E001C01D92A437EA
:10012000B207E1F710E0C9E7D0E004C02197FE0173
:100130000E946815C837D107C9F70E94F40C0C94C7
:10014000B5160C9400008091CD019091CE01891BD1
:10015000990B0895833081F028F4813099F0823032
:10016000A9F008958730A9F08830C9F08430B1F43F
:10017000809180008F7D03C0809180008F77809375
:100180008000089584B58F7784BD089584B58F7DF0
:10019000FBCF8091B0008F778093B000089580915D
:1001A000B0008F7DF9CF1F93CF93DF93282F30E0DE
:1001B000F901E452FF4F8491F901E853FF4FD491C4
:1001C000F901EC54FF4FC491CC23A9F0162F8111F3
:1001D0000E94AA00EC2FF0E0EE0FFF1FE655FF4F44
:1001E000A591B4918FB7F894EC91111108C0D095F6
:1001F000DE23DC938FBFDF91CF911F910895DE2B1B
:10020000F8CFCF93DF9390E0FC01E853FF4F2491A8
:100210008C549F4FFC0184918823D1F090E0880F8B
:10022000991FFC01E056FF4FA591B491FC01E655E2
:10023000FF4FC591D491623071F49FB7F8943C910F
:10024000822F809583238C93E8812E2B28839FBF58
:10025000DF91CF9108958FB7F894EC912E2B2C93CA
:100260008FBFF6CF3FB7F8948091C9019091CA0132
:10027000A091CB01B091CC0126B5A89B05C02F3F22
:1002800019F00196A11DB11D3FBFBA2FA92F982FBC
:100290008827BC01CD01620F711D811D911D42E0B7
:1002A000660F771F881F991F4A95D1F708958F927F
:1002B0009F92AF92BF92CF92DF92EF92FF926B012B
:1002C0007C010E9432014B015C01C114D104E104A4
:1002D000F104B9F00E943201681979098A099B0971
:1002E000683E73408105910580F321E0C21AD10870
:1002F000E108F10888EE880E83E0981EA11CB11C6D
:10030000E4CFFF90EF90DF90CF90BF90AF909F90A1
:100310008F90089508950895AF92BF92CF92DF9283
:10032000EF92FF920F931F93CF93DF936C017B01AA
:100330008B01040F151FEB015E01AE18BF08C0173B
:10034000D10759F06991D601ED91FC910190F081AE
:10035000E02DC6010995892B79F7C501DF91CF9171
:100360001F910F91FF90EF90DF90CF90BF90AF90D3
:100370000895FC01538D448D252F30E0842F90E0AB
:10038000821B930B541710F0CF9608950197089590
:10039000FC01918D828D981761F0A28DAE0FBF2F59
:1003A000B11D5D968C91928D9F5F9F73928F90E0AF
:1003B00008958FEF9FEF0895FC01918D828D98171E
:1003C00031F0828DE80FF11D858D90E008958FEF5B
:1003D0009FEF0895FC01918D228D892F90E0805C24
:1003E0009F4F821B91098F73992708958FE392E0A5
:1003F0000E94EA0121E0892B09F420E0822F089570
:1004000080E090E0892B29F00E94F60181110C9484
:1004100000000895FC01A48DA80FB92FB11DA35AA7
:10042000BF4F2C91848D90E001968F739927848F14
:10043000A689B7892C93A089B1898C918370806437
:100440008C93938D848D981306C00288F389E02DD8
:1004500080818F7D80830895EF92FF920F931F9389
:10046000CF93DF93EC0181E0888F9B8D8C8D981367
:100470001AC0E889F989808185FF15C09FB7F89473
:10048000EE89FF896083E889F989808183708064BF
:1004900080839FBF81E090E0DF91CF911F910F910A
:1004A000FF90EF900895F62E0B8D10E00F5F1F4F19
:1004B0000F731127E02E8C8D8E110CC00FB607FC28
:1004C000FACFE889F989808185FFF5CFCE010E94B6
:1004D0000A02F1CFEB8DEC0FFD2FF11DE35AFF4F18
:1004E000F0829FB7F8940B8FEA89FB898081806244
:1004F000CFCFCF93DF93EC01888D8823B9F0AA8901
:10050000BB89E889F9898C9185FD03C0808186FDCE
:100510000DC00FB607FCF7CF8C9185FFF2CF80811D
:1005200085FFEDCFCE010E940A02E9CFDF91CF9186
:100530000895CF93DF93FC012781222359F1EC0129
:1005400061E080850E94010161E089850E940101CE
:100550008F81843011F08830B1F461E08A850E9487
:10056000010161E08B850E9401018FA58F3F91F011
:1005700061E00E9401016EA581E068278FA5DF91EF
:10058000CF910C94D300833011F0863071F761E085
:100590008A85E9CFDF91CF910895CF93DF93FC0156
:1005A00027812223A9F0EC010190F081E02D028443
:1005B000F385E02D60E009958FA58F3F49F061E05C
:1005C0000E9401016EA58FA5DF91CF910C94D300FD
:1005D000DF91CF910895DC01ED91FC912285338567
:1005E00047705527662777274150510961097109DE
:1005F000473051056105710560F4FA01EE5FFC4F6B
:100600000C9468150C030E03100312031403160355
:10061000180361E0F901099465E0FCCF64E0FACFCA
:1006200066E0F8CF62E0F6CF6AE0F4CF68E0F2CFA0
:1006300069E0F0CFCF93DF93EC01CB01BA0126E064
:1006400030E040E050E00E944915623071058105BC
:10065000910589F16CF46115710581059105D1F061
:100660006130710581059105F9F0DF91CF91089511
:10067000643071058105910561F124F165307105E2
:100680008105910591F7E881F9810284F385E02DD8
:1006900066E006C0E881F9810284F385E02D64E01C
:1006A000CE01DF91CF910994E881F9810284F3852D
:1006B000E02D65E0F5CFE881F9810284F385E02D36
:1006C00061E0EECFE881F9810284F385E02D63E0FB
:1006D000E7CFE881F9810284F385E02D62E0E0CF85
:1006E000DC01ED91FC910284F385E02D43705527E8
:1006F00066277727423051056105710571F0433057
:1007000051056105710559F04130510561057105CB
:1007100011F065E0099466E0FDCF6AE0FBCF69E087
:10072000F9CFCF93DF93EC01CB01BA0123E030E0A6
:1007300040E050E00E944915613071058105910546
:1007400099F06230710581059105A9F0672B682B3E
:10075000692BC1F4E881F9810284F385E02D64E01E
:10076000CE01DF91CF910994E881F9810284F3856C
:10077000E02D61E0F5CFE881F9810284F385E02D79
:1007800062E0EECFDF91CF910895DC01ED91FC9115
:100790000284F385E02D4370552766277727423082
:1007A00051056105710571F0433051056105710511
:1007B00059F0413051056105710511F062E009946D
:1007C00063E0FDCF61E0FBCF60E0F9CFCF93DF9333
:1007D000EC01E881F9810284F385E02D8A8160E0F3
:1007E000811162E0CE010995E881F9810284F385E7
:1007F000E02D8A8161E0811163E0CE0109958CA52D
:100800009DA58230910538F0880F991F880F991F98
:1008100005970197F1F7E881F9810284F385E02DCE
:100820008A8160E0811162E0CE01DF91CF9109946D
:10083000CF93DF93EC0120E030E0A901688D798D42
:100840008A8D9B8D0E94701418162CF4E8A9F9A9C2
:10085000DF91CF910994EAA9FBA9FACFCF92DF9259
:10086000EF92FF920F931F93CF93DF93DC011796C4
:10087000CC91C43039F0C83059F1C33019F0C630CA
:1008800049F1C2E08C01085F1F4FF12CE12CC62E0C
:10089000D12CD1E0F8016481C6010E2C02C09595DF
:1008A00087950A94E2F780FD6D270F5F1F4F8081C7
:1008B0000E94D300BFEFEB1AFB0AEC1658F3DF914E
:1008C000CF911F910F91FF90EF90DF90CF900895FF
:1008D000C4E0D8CFC3E0D6CFDC011796EC911797D0
:1008E000E93008F038C0F0E0E858FB4F0C94681588
:1008F000810487048D0493049904AB049F04AB0422
:10090000A504ED91FC910684F785E02D0994ED9105
:10091000FC910088F189E02DF9CFED91FC910288DE
:10092000F389E02DF3CFED91FC910488F589E02D5A
:10093000EDCFED91FC910688F789E02DE7CFED91A1
:10094000FC91008CF18DE02DE1CFED91FC91028CBA
:10095000F38DE02DDBCF08954F925F926F927F92DF
:100960008F929F92AF92BF92CF92DF92EF92FF92BF
:100970000F931F93CF93DF93EC01CC88DD88EE8833
:10098000FF8888899989AA89BB89C81AD90AEA0A7D
:10099000FB0A688D798D8A8D9B8D9B01AC010E942D
:1009A0007D144B015C0168A179A18AA19BA19B01E7
:1009B000AC010E940C129B01AC01C501B4010E9464
:1009C000EF120E946113C114D104E104F10409F093
:1009D000B6C062307105810591050CF0D0C01B8254
:1009E0001C821D821E82188E198E1A8E1B8E1CAAC6
:1009F0001DAA1EAA1FAAC12CD12C7601C701B601BF
:100A0000DF91CF911F910F91FF90EF90DF90CF90EA
:100A1000BF90AF909F908F907F906F905F904F901E
:100A200008951016110612061306B4F46C157D0510
:100A30008E059F051CF42A812111A1C09B01AC01E8
:100A400088279927DC01821B930BA40BB50B8CAB79
:100A50009DABAEABBFAB93C00115110521053105B0
:100A600009F48DC06C157D058E059F050CF087C0BF
:100A70008A81882309F483C03095209510950195CB
:100A80001F4F2F4F3F4F0CAB1DAB2EAB3FAB77C073
:100A9000011511052105310509F471C08824992437
:100AA00054018C189D08AE08BF08681579058A05A1
:100AB0009B050CF064C08A81811161C0DDCFCCAC94
:100AC000DDACEEACFFACA7019601C701B6010E94F8
:100AD0000C122B013C01C501B4010E94991320E0C6
:100AE00030E040E850E40E947D1420E030E040E82F
:100AF0005FE30E940C129B01AC01C301B2010E9492
:100B0000EF129B01AC01C701B6010E940B123B0121
:100B10006C01FE01E05CFF4FE080F18002811381F7
:100B20009701A8010E947014181614F4730186012D
:100B3000C701D8018CAF9DAFAEAFBFAF3AC00CA913
:100B40001DA92EA93FA91C141D041E041F040CF48A
:100B500068CF10161106120613060CF099CF002765
:100B6000112798010C191D092E093F0960177107FB
:100B7000820793070CF062CF2A8121115FCF8CA8E6
:100B80009DA8AEA8BFA881149104A104B10409F0E6
:100B900096CF88AD99ADAAADBBAD8CAF9DAFAEAFD2
:100BA000BFAF81E01C141D041E041F040CF080E084
:100BB0008A833FEF831A930AA30AB30A8CAA9DAAD9
:100BC000AEAABFAA8CAC9DACAEACBFACC501B401A3
:100BD0000E9468136B017C01CB82DC82ED82FE8275
:100BE000A501940160E074E284E799E40E94EF12A9
:100BF000688F798F8A8F9B8F2A812111FFCE905821
:100C0000688F798F8A8F9B8FF9CECF92DF92EF9288
:100C1000FF92CF93DF93EC01688D798D8A8D9B8D48
:100C20009B01AC010E947D146B017C0168A179A13C
:100C30008AA19BA19B01AC010E940C129B01AC01FB
:100C4000C701B6010E94EF120E9461136CAB7DAB2D
:100C50008EAB9FABCE01DF91CF91FF90EF90DF90F5
:100C6000CF900C94AC04CF92DF92EF92FF92CF938F
:100C7000DF93EC018B819C81AD81BE81892B8A2B16
:100C80008B2B99F10E9432016B017C0188A599A5FB
:100C9000AAA5BBA5B701A601481B590B6A0B7B0B84
:100CA0008B819C81AD81BE81481759076A077B07FC
:100CB000E0F088899989AA89BB892A812223B1F128
:100CC0000196A11DB11D888B998BAA8BBB8B48897E
:100CD00059896A897B89CE010E946C04C8A6D9A66D
:100CE000EAA6FBA6CE010E94AC0420E030E0A901F8
:100CF000688D798D8A8D9B8D0E94EA1281111AC0B0
:100D000081E0CC88DD88EE88FF88488959896A8926
:100D10007B89C416D506E606F70609F480E0DF9164
:100D2000CF91FF90EF90DF90CF9008950197A109A8
:100D3000B109C9CF81E0F3CF089520916B01260F4F
:100D40003327331F21323105ECF420911502FC01C9
:100D500090E080E0243069F082E00895A0916B017A
:100D60002191AC01455B5E4FA40FB52FB11D2C93B3
:100D70000196861798F380916B01680F60936B0161
:100D800080E0089581E008951092150281E080933B
:100D900014021092EF0161E082E10E94D30061E051
:100DA00083E10E94D300E9EBF0E080818E7F8083B5
:100DB00080818D7F808388E48093B80085E4809370
:100DC000BC000895CF93DF9391E090934A0188236C
:100DD000B9F0C091B800D091BA008091BC008A7B74
:100DE0008093BC0060E082E10E94D30060E083E178
:100DF0000E94D3000E94C406D093BA00C093B800EA
:100E0000DF91CF9108958F929F92AF92BF92CF9230
:100E1000DF92EF92FF920F931F93CF93DF93D091C6
:100E20003E02D13208F0D7C0182FC0913D020E9477
:100E300032016B017C018091150281116BC082E04F
:100E400080931502109314028FEF80931302109277
:100E50001202D0931102ADE1B2E0E1EFF1E080E0E7
:100E6000D81391C01092F0018091F001CC0FC82BE3
:100E7000C093F0018091EF01813009F088C0109299
:100E8000EF010E9432016B017C018091F00180939F
:100E9000BB008091170290911802A0911902B091A5
:100EA0001A02892B8A2B8B2BA1F00E943201009110
:100EB0001702109118022091190230911A026C1930
:100EC0007D098E099F09061717072807390708F4B7
:100ED00042C08091BC0083FDD8CF85EC8093BC00DC
:100EE0000E9432016B017C0180911502823009F46D
:100EF00050C0809113028F3F09F46FC0809113029C
:100F0000803209F46CC080911302803309F469C007
:100F100084E026C08091170290911802A0911902D6
:100F2000B0911A02892B8A2B8B2B09F484CF0E9453
:100F300032018090170290901802A0901902B09090
:100F40001A026C197D098E099F0986169706A80654
:100F5000B90608F070CF809116020E94E20685E083
:100F600010921C0210923E0210921B02DF91CF9150
:100F70001F910F91FF90EF90DF90CF90BF90AF90B7
:100F80009F908F9008959D9191938F5F69CF85EE8B
:100F9000A5CF8091170290911802A0911902B091EB
:100FA0001A02892B8A2B8B2B09F49ECF0E943201C7
:100FB00000911702109118022091190230911A0223
:100FC0006C197D098E099F0906171707280739072D
:100FD00008F08ACFC0CF81E0C3CF80E0C1CF82E0EC
:100FE000BFCF83E0BDCF0895E091CE018091CD01C8
:100FF000E81730F4F0E0E153FE4F808190E008956F
:101000008FEF9FEF08959091CE018091CD012FEF4A
:101010003FEF981748F4E92FF0E0E153FE4F2081AD
:1010200030E09F5F9093CE01C9010895CF92DF9287
:10103000EF92FF920F931F93CF93DF937C01CB012D
:101040008A0120911B02222389F0EB016B01C40E5F
:10105000D51ECC15DD0569F06991D701ED91FC91A4
:101060000190F081E02DC7010995F3CF642F0E9414
:101070009D06C801DF91CF911F910F91FF90EF90D6
:10108000DF90CF900895CF93DF931F92CDB7DEB757
:10109000698320911B022223F9F020913E02203225
:1010A00058F021E030E0FC013383228390E080E0BF
:1010B0000F90DF91CF91089580911C02E82FF0E00E
:1010C000E35EFD4F998190838F5F80931C02809334
:1010D0003E0281E090E0ECCF61E0CE0101960E94FB
:1010E0009D06F7CFCF93C62F91E090931B0298E611
:1010F00090933D0210921C0210923E02682F8CEDDC
:1011000092E00E9443086C2F8CED92E00E9443080D
:1011100081E00E94030790E0CF91089590E080E085
:1011200008954F925F926F927F928F929F92AF92AB
:10113000BF92DF92EF92FF920F931F93CF93DF93B3
:10114000D62E072F7A0191E090931B0298E6909398
:101150003D0210921C0210923E02682F8CED92E02C
:101160000E94430880E00E940307182F8FEF9FEF33
:1011700011119FC00E9432014B015C018091150248
:10118000811164C0CE2D81E08093150280931402FA
:101190009FEF90931302109212029E0D90931102F2
:1011A0008093F0018091F001806D8093F001809137
:1011B000EF01813009F08DC01092EF010E943201E1
:1011C0004B015C018091F0018093BB00809117027C
:1011D00090911802A0911902B0911A02892B8A2BC2
:1011E0008B2BA1F00E943201409017025090180200
:1011F0006090190270901A02681979098A099B098E
:10120000461657066806790608F441C08091BC006E
:1012100083FDD8CF85EC8093BC000E9432014B0146
:101220005C0180911502813009F455C08091120251
:101230008C1710F4C0911202A1EFB1E0EFECF1E0D5
:101240001C1749F18D9181931F5FFACF809117028E
:1012500090911802A0911902B0911A02892B8A2B41
:101260008B2B09F48BCF0E943201409017025090D3
:1012700018026090190270901A02681979098A0997
:101280009B09461657066806790608F077CF8091C5
:1012900016020E94E2061092CE011093CD01CD2DD0
:1012A000D02FEC0EFD1E8091CE01181336C090E0B9
:1012B00080E0DF91CF911F910F91FF90EF90DF9031
:1012C000BF90AF909F908F907F906F905F904F9066
:1012D000089585EEA0CF8091170290911802A091F9
:1012E0001902B0911A02892B8A2B8B2B09F499CF02
:1012F0000E9432014090170250901802609019022B
:1013000070901A02681979098A099B0946165706CE
:101310006806790608F085CFBACF8CED92E00E947E
:1013200003088993CE15DF0509F0BDCFC0CF4F92DA
:101330005F926F927F928F929F92AF92BF92CF9265
:10134000DF92EF92FF92CF93DF93EC016A017B0172
:1013500020E030E0A901CB01B6010E94EA1287FF2C
:1013600004C0F7FAF094F7F8F09488A099A0AAA026
:10137000BBA0A7019601C501B4010E94EA1288230F
:1013800009F44DC06CA97DA98EA99FA90E9499134B
:101390002B013C01A7019601C501B4010E94EF1287
:1013A0009B01AC01C301B2010E947D140E94611334
:1013B0006CAB7DAB8EAB9FABA701960160E070E09C
:1013C00080E090E40E94EF120E94F01426E53EE0D7
:1013D0004DE25FE30E947D1420E034E244E759E4EB
:1013E0000E947D1468AF79AF8AAF9BAFC8A2D9A223
:1013F000EAA2FBA2E881F9810084F185E02DCE010B
:10140000DF91CF91FF90EF90DF90CF90BF90AF90A2
:101410009F908F907F906F905F904F900994DF9195
:10142000CF91FF90EF90DF90CF90BF90AF909F90C3
:101430008F907F906F905F904F9008950C942C1632
:1014400085ED8093BC008091170290911802A091C5
:101450001902B0911A020796A11DB11D23E0B6959D
:10146000A795979587952A95D1F72091BC0024FDE3
:1014700003C010921502089540911702509118026E
:101480006091190270911A02452B462B472B69F384
:101490000097A105B10541F02AE22A95F1F700C0B5
:1014A0000197A109B109E1CF809116020C94E206DF
:1014B0001F920F920FB60F9211242F933F938F9389
:1014C0009F93AF93BF938091C5019091C601A09166
:1014D000C701B091C8013091C40123E0230F2D371B
:1014E00058F50196A11DB11D2093C4018093C5013B
:1014F0009093C601A093C701B093C8018091C90120
:101500009091CA01A091CB01B091CC010196A11D8F
:10151000B11D8093C9019093CA01A093CB01B093F0
:10152000CC01BF91AF919F918F913F912F910F90DF
:101530000FBE0F901F90189526E8230F0296A11D4D
:10154000B11DD2CF1F920F920FB60F9211242F937D
:101550003F934F935F936F937F938F939F93AF933B
:10156000BF93EF93FF938FE392E00E940A02FF91F3
:10157000EF91BF91AF919F918F917F916F915F910B
:101580004F913F912F910F900FBE0F901F90189584
:101590001F920F920FB60F9211242F938F939F9348
:1015A000EF93FF93E0914F02F09150028081E09120
:1015B0005502F091560282FD1BC090818091580225
:1015C0008F5F8F7320915902821741F0E09158028A
:1015D000F0E0E15CFD4F958F80935802FF91EF9111
:1015E0009F918F912F910F900FBE0F901F90189584
:1015F0008081F4CF1F920F920FB60F9211242F9378
:101600003F934F935F936F937F938F939F93AF938A
:10161000BF93EF93FF938091B900887F803609F4E0
:101620004AC0F0F5883209F4A7C018F5803109F4F2
:101630009BC0B8F4882309F4F9C0883009F494C039
:10164000FF91EF91BF91AF919F918F917F916F919A
:101650005F914F913F912F910F900FBE0F901F9070
:101660001895883109F488C0803251F780931302AD
:1016700014C0803409F49DC040F48033B9F388333A
:10168000F9F68093130285ECB0C0803509F485C06B
:10169000883509F496C0883499F60E94200AD0CF84
:1016A000883909F48CC038F5883729F050F4883629
:1016B00011F0803729F683E08093150210928D0196
:1016C00057C0883809F47BC0803919F0803809F098
:1016D000B7CF80918D01803208F071C0E0918D010B
:1016E00081E08E0F80938D018091BB00F0E0E35983
:1016F000FE4F80833DC0803B39F0E0F4803A09F42E
:1017000079C0883A09F09CCF84E08093150210924A
:101710006C0110926B01E0919001F091910109959B
:1017200080916B0181110FC081E080936B01109259
:101730004B0109C0803C09F4A6CF883C09F4A3CF33
:10174000883B09F07DCFE0916C0181E08E0F8093A2
:101750006C01F0E0E55BFE4F80818093BB009091CF
:101760006C0180916B0129C08091F0018093BB00D6
:1017700085EC8093BC0064CF90911202809111029D
:10178000981758F5E091120281E08E0F80931202B3
:10179000F0E0EF50FE4F8081E9CFE091120281E04E
:1017A0008E0F809312028091BB00F0E0EF50FE4F4D
:1017B000808390911202809111029817C8F285E8F7
:1017C000D8CFE091120281E08E0F809312028091B7
:1017D000BB00F0E0EF50FE4F808380911402811136
:1017E0005CCF81E08093EF0184EA8093BC0010928B
:1017F000150226CF85EC8093BC00109215028091D3
:101800008D01803230F4E0918D01F0E0E359FE4F1C
:10181000108260918D0170E0E0918E01F0918F0156
:101820008DE691E0099510928D010ACF1092130276
:1018300034CFCF92DF92EF92FF920F931F93CF930B
:10184000DF93EC018AE091E09983888381E08F83C4
:10185000188A198A1A8A1B8A1C8A1D8A1E8A1F8A5C
:10186000188E198E1A8E1B8E1C8E1D8E1E8E1F8E2C
:1018700018A219A21AA21BA2C12CD12C80E8E82E12
:101880008FE3F82ECCA2DDA2EEA2FFA21B821C8267
:101890001D821E8281E090E09DA78CA78FEF8FA70D
:1018A00018A619A61AA61BA66887498784E08A8706
:1018B00085E08B871EA61CAA1DAA1EAA1FAA18AE09
:1018C00019AE1AAE1BAE1CAE1DAE1EAE1FAE8E0103
:1018D000005C1F4FF801C082D182E282F3821A823B
:1018E0001C861D861E861F86CE010E949902B701A6
:1018F000A601CE010E949709A70196016C8D7D8DEE
:101900008E8D9F8D0E94EA12882309F1CC8EDD8E88
:10191000EE8EFF8E80E094E2A4E7B9E4F8018083C4
:101920009183A283B3838CA99DA9AEA9BFA91816E0
:1019300019061A061B065CF4CE01DF91CF911F91A8
:101940000F91FF90EF90DF90CF900C940506DF9100
:10195000CF911F910F91FF90EF90DF90CF9008955E
:10196000EFE3F2E01382128288EE93E0A0E0B0E0B1
:1019700084839583A683B7832AE231E03183208371
:1019800025EC30E03587248724EC30E03787268744
:1019900020EC30E0318B208B21EC30E0338B228B3C
:1019A00022EC30E0358B248B26EC30E0378B268B15
:1019B000118E128E138E148EECEDF2E013821282D1
:1019C00084839583A683B7838CE391E0918380839E
:1019D00044E065E08CE293E00E94190C46E067E089
:1019E00088EE92E00C94190CCF93DF93CDB7DEB75D
:1019F000A2970FB6F894DEBF0FBECDBF789484B522
:101A0000826084BD84B5816084BD85B5826085BDFA
:101A100085B5816085BD80916E00816080936E0088
:101A2000109281008091810082608093810080917A
:101A3000810081608093810080918000816080932B
:101A400080008091B10084608093B1008091B000EB
:101A500081608093B00080917A00846080937A00E6
:101A600080917A00826080937A0080917A00816010
:101A700080937A0080917A00806880937A00109237
:101A8000C100E0914F02F091500282E08083E0912A
:101A90004B02F0914C021082E0914D02F0914E0207
:101AA0008FEC808310925702E0915302F091540220
:101AB00086E08083E0915102F09152028081806142
:101AC0008083E0915102F09152028081886080838E
:101AD000E0915102F0915202808180688083E09110
:101AE0005102F091520280818F7D80831092CE014D
:101AF0001092CD0110921C0210923E020E94C40668
:101B00008AE891E090939101809390018BE891E0B5
:101B100090938F0180938E0160E08BE690E00E94AD
:101B2000720861E08AE190E00E94720868E08BE14F
:101B300090E00E94720864E089E190E00E947208DF
:101B400008EE13E01F86188A198A1A8A812C912CB4
:101B50005401412C512C320146E050E0BE016F5F30
:101B60007F4F83E490E00E94910889819A819827B1
:101B700089279827092E000CAA0BBB0B480E591E6B
:101B80006A1E7B1E8B819C81982789279827092EA6
:101B9000000CAA0BBB0B880E991EAA1EBB1E8D81C2
:101BA0009E81982789279827092E000CAA0BBB0B2A
:101BB0002F85388949895A89280F391F4A1F5B1F89
:101BC0002F87388B498B5A8B62E070E080E090E081
:101BD0000E9457010150110909F0BECF28EEC22E14
:101BE00023E0D22EE12CF12CC301B201A701960112
:101BF0000E944915CA01B9010E94991360939A0184
:101C000070939B0180939C0190939D01C501B40149
:101C1000A70196010E944915CA01B9010E949913B2
:101C20006093960170939701809398019093990126
:101C30006F85788989899A89A70196010E9449153B
:101C4000CA01B9010E9499136093920170939301A4
:101C5000809394019093950120E030E04AEF54E4A2
:101C6000609148037091490380914A0390914B031E
:101C70000E94EA12882349F180E090E0AAEFB4E4E0
:101C80008093480390934903A0934A03B0934B0376
:101C900080E090E0AAEFB3E480936C0390936D032F
:101CA000A0936E03B0936F038091600390916103E2
:101CB000A0916203B0916303181619061A061B0659
:101CC00024F48CE293E00E94050640E050E06AE7CD
:101CD00074E48CE293E00E94970920E030E04AEF40
:101CE00054E4609104037091050380910603909180
:101CF00007030E94EA12882349F180E090E0AAEFEE
:101D0000B4E48093040390930503A0930603B09377
:101D1000070380E090E0AAEFB3E480932803909358
:101D20002903A0932A03B0932B0380911C03909165
:101D30001D03A0911E03B0911F03181619061A0661
:101D40001B0624F488EE92E00E94050640E050E075
:101D50006AE774E488EE92E00E94970961E088E007
:101D60000E94010161E089E00E94010162E082E0DD
:101D70000E94010160E088E00E94D30060E089E0F9
:101D80000E94D30090E0292E90E0392E60E082E09E
:101D90000E94D300EEEDF0E08491EAECF0E01491C3
:101DA000E6EBF0E00491002301F181110E94AA000A
:101DB000E02FF0E0EE0FFF1FEA56FF4FA591B49120
:101DC0008C91182391F061E088E00E94D30061E0DB
:101DD00089E00E94D30021143104C1F20E94F6016F
:101DE0008823A1F20E940000D1CF8FB7F8942091F0
:101DF000C5013091C6014091C7015091C8012B8F98
:101E00003C8F4D8F5E8F8FBF4EE050E0BE016F5F05
:101E10007F4F8BE390E00E94910889809A809824FC
:101E2000892498249092BF018092BE010B811C816D
:101E30001027012710271093C1010093C001AD8026
:101E4000BE80BA24AB24BA24B092C301A092C201CE
:101E500069857A85762767277627072E000C880BF9
:101E6000990B0E94991320919A0130919B01409106
:101E70009C0150919D010E940B1220E030E043E84C
:101E800052E40E94EF126F87788B898B9A8B609354
:101E9000BA017093BB018093BC019093BD016B8527
:101EA0007C85762767277627072E000C880B990BF1
:101EB0000E949913209196013091970140919801C9
:101EC000509199010E940B1220E030E043E852E467
:101ED0000E94EF126B8B7C8B8D8B9E8B6093B2017B
:101EE0007093B3018093B4019093B5016D857E85A5
:101EF000762767277627072E000C880B990B0E9400
:101F00009913209192013091930140919401509145
:101F100095010E940B1220E030E043E852E40E9459
:101F2000EF122B013C014092AA015092AB0160924A
:101F3000AC017092AD01B5010B2C000C880B990B14
:101F40000E9499136B017C01B801012E000C880BD3
:101F5000990B0E949913A70196010E948B126F8B17
:101F6000788F898F9A8F009FB001019F700D700D3F
:101F70001124AA9CC001AB9C900D900D1124680FF8
:101F8000791F072E000C880B990B0E9499130E9451
:101F9000F0146B017C016627772768197909072EF1
:101FA000000C880B990B0E949913A70196010E94BF
:101FB0008B126B017C0120E030E048E453E46B8934
:101FC0007C898D899E890E94EF122091AE0130910B
:101FD000AF014091B0015091B1010E940C126F8F7E
:101FE00078A389A39AA320E030E048E453E46F8506
:101FF000788989899A890E94EF122091B6013091DF
:10200000B7014091B8015091B9010E940C1228E427
:1020100031EE4AE75FE30E947D144B015C0120E052
:1020200030E044E353E46F89788D898D9A8D0E9466
:102030007D142BED3FE049E450E40E94EF1220E0D4
:1020400037ED43EA5CE30E947D149B01AC01C501BE
:10205000B4010E940C124B015C018092B601909277
:10206000B701A092B801B092B90120E030E044E39A
:1020700053E4C701B6010E947D142BED3FE049E413
:1020800050E40E94EF1220E037ED43EA5CE30E9447
:102090007D146B017C0128E431EE4AE75FE36F8D2C
:1020A00078A189A19AA10E947D149B01AC01C7016E
:1020B000B6010E940C126093AE017093AF01809341
:1020C000B0019093B10120E030E048E453E4C30153
:1020D000B2010E94EF122091A6013091A701409118
:1020E000A8015091A9010E940C126B017C0120E013
:1020F00030E044EB53E40E94701487FD11C020E0EF
:1021000030E044EB53E4C701B6010E940B12609328
:10211000A6017093A7018093A8019093A90111C013
:1021200020E030E0A901C701B6010E94EA1287FD54
:1021300025C0C092A601D092A701E092A801F0921A
:10214000A90120E030E0A9016F85788989899A8901
:102150000E9470141816DCF420E030E040E450E4F3
:102160006F85788989899A890E94EA1287FD1BC048
:1021700060E088E00E94D30060E046C020E030E0EC
:1021800044EB53E4C701B6010E940C12C0CF20E01B
:1021900030E040E450EC6F85788989899A890E9403
:1021A000701418162CF720E030E0A9016B897C89A7
:1021B0008D899E890E94701418160CF0F5C020E0DD
:1021C00030E040E450E46B897C898D899E890E94CF
:1021D000EA1287FFCDCF20E030E0A901C301B201B0
:1021E0000E94701418160CF0EDC020E030E040E4BE
:1021F00050E4C301B2010E94EA1287FFB9CF61E047
:1022000088E00E94D30061E089E00E94D300C09082
:10221000A201D090A301E090A401F090A50124EECA
:1022200038E34EE850E4C501B4010E947D140E94D9
:102230006113DC01CB018C199D09AE09BF09813204
:1022400033E09307A105B1050CF4C8C08054964053
:10225000A109B109C80ED91EEA1EFB1E80914003D8
:1022600090914103A0914203B0914303C816D9064F
:10227000EA06FB0661F0C0924003D0924103E0926F
:102280004203F09243038CE293E00E94AC04C092BC
:10229000A201D092A301E092A401F092A501809046
:1022A0009E0190909F01A090A001B090A10124EE0A
:1022B00038E34EE850E46091A6017091A701809147
:1022C000A8019091A9010E947D140E9461136B01E5
:1022D0007C01C818D908EA08FB0851E2C51653E08A
:1022E000D506E104F1040CF486C080E4C81A86E047
:1022F000D80AE108F108C80CD91CEA1CFB1C809123
:10230000FC029091FD02A091FE02B091FF02C8165E
:10231000D906EA06FB0661F0C092FC02D092FD02EB
:10232000E092FE02F092FF0288EE92E00E94AC047E
:10233000C0929E01D0929F01E092A001F092A10173
:102340008CE293E00E94330688EE92E00E9433060E
:102350002FB7F8948091C5019091C601A091C70153
:10236000B091C8012FBFEB8DFC8D8E1B9F0BBC0164
:10237000990F880B990B0E9499136B017C0120E047
:1023800030E040EA50E40E94EA1287FF24CDA70122
:10239000960160E070E080EA90E40E940B120E94D7
:1023A00068130E94570117CD20E030E040E450EC64
:1023B0006B897C898D899E890E94701418160CF097
:1023C000D7CE09CF20E030E040E450ECC301B201A9
:1023D0000E94701418160CF0CBCE11CF803E4CEF3B
:1023E00094074FEFA407B4070CF034CF805C994FEB
:1023F000AF4FBF4F2FCF90EEC9169CEFD9069FEF7E
:10240000E906F9060CF077CFA0E4CA0EA6E0DA1EC2
:10241000E11CF11C70CF5058BB27AA270E94231241
:102420000C9436140E94281438F00E942F1420F0C7
:1024300039F49F3F19F426F40C94FE130EF4E09542
:10244000E7FB0C94F813E92F0E94471458F3BA17CE
:10245000620773078407950720F079F4A6F50C94BA
:1024600069140EF4E0950B2EBA2FA02D0B01B901C3
:1024700090010C01CA01A0011124FF27591B99F0FA
:10248000593F50F4503E68F11A16F040A22F232F06
:10249000342F4427585FF3CF469537952795A79556
:1024A000F0405395C9F77EF41F16BA0B620B730BFD
:1024B000840BBAF09150A1F0FF0FBB1F661F771F6E
:1024C000881FC2F70EC0BA0F621F731F841F48F423
:1024D000879577956795B795F7959E3F08F0B0CFAC
:1024E0009395880F08F09927EE0F97958795089593
:1024F0000E94281460F080E891E009F49EEF0E94A9
:102500002F1428F040E851E071F45EEF0CC00C94F9
:10251000FE130C946914E92FE0780E94471440F3ED
:10252000092E052AB1F3261737074807590738F04F
:102530000E2E07F8E02569F0E025E0640AC0EF639D
:1025400007F8009407FADB01B9019D01DC01CA011B
:10255000AD01EF930E9406130E9436140E94BB1235
:102560005F91552339F02BED3FE049E450FD49ECF4
:102570000C940C120895DF93DD27B92FBF7740E844
:102580005FE31616170648075B0718F4D92F0E9459
:1025900075149F938F937F936F930E943015E8E695
:1025A000F0E00E9401140E9436142F913F914F9148
:1025B0005F910E949014DD2351F09058A2EA2AED19
:1025C0003FE049EC5FE3D0785D270E942312DF9162
:1025D0000C9436140E94D41308F481E008950E94EC
:1025E00003130C9436140E942F1458F00E942814E0
:1025F00040F029F45F3F29F00C94F81351110C942A
:102600006A140C94FE130E94471468F39923B1F3E3
:10261000552391F3951B550BBB27AA276217730708
:10262000840738F09F5F5F4F220F331F441FAA1F9C
:10263000A9F335D00E2E3AF0E0E832D09150504058
:10264000E695001CCAF72BD0FE2F29D0660F771F06
:10265000881FBB1F261737074807AB07B0E809F0EC
:10266000BB0B802DBF01FF2793585F4F3AF09E3F71
:10267000510578F00C94F8130C946A145F3FE4F35E
:10268000983ED4F3869577956795B795F7959F5FB4
:10269000C9F7880F911D9695879597F90895E1E000
:1026A000660F771F881FBB1F621773078407BA075F
:1026B00020F0621B730B840BBA0BEE1F88F7E095BA
:1026C00008950E9468136894B1110C946A140895D7
:1026D0000E944F1488F09F5798F0B92F9927B7514F
:1026E000B0F0E1F0660F771F881F991F1AF0BA95B6
:1026F000C9F714C0B13091F00E946914B1E0089597
:102700000C946914672F782F8827B85F39F0B93F88
:10271000CCF3869577956795B395D9F73EF4909568
:102720008095709561957F4F8F4F9F4F0895E894E6
:1027300009C097FB3EF490958095709561957F4F09
:102740008F4F9F4F9923A9F0F92F96E9BB279395B7
:10275000F695879577956795B795F111F8CFFAF4C7
:10276000BB0F11F460FF1BC06F5F7F4F8F4F9F4FF8
:1027700016C0882311F096E911C0772321F09EE856
:10278000872F762F05C0662371F096E8862F70E0BC
:1027900060E02AF09A95660F771F881FDAF7880F96
:1027A0009695879597F90895990F0008550FAA0BEC
:1027B000E0E8FEEF16161706E807F907C0F0121654
:1027C0001306E407F50798F0621B730B840B950B57
:1027D00039F40A2661F0232B242B252B21F40895AC
:1027E0000A2609F4A140A6958FEF811D811D089549
:1027F00097F99F6780E870E060E008959FEF80ECB4
:102800000895DF93CF931F930F93FF92EF92DF9280
:102810007B018C01689406C0DA2EEF010E949014AF
:10282000FE01E894A5912591359145915591A6F326
:10283000EF010E942312FE019701A801DA9469F7C3
:10284000DF90EF90FF900F911F91CF91DF9108954E
:1028500000240A941616170618060906089500247F
:102860000A9412161306140605060895092E0394F9
:10287000000C11F4882352F0BB0F40F4BF2B11F46D
:1028800060FF04C06F5F7F4F8F4F9F4F089557FDCC
:102890009058440F551F59F05F3F71F04795880FCE
:1028A00097FB991F61F09F3F79F087950895121665
:1028B00013061406551FF2CF4695F1DF08C0161611
:1028C00017061806991FF1CF8695710561050894C2
:1028D0000895E894BB2766277727CB0197F90895D9
:1028E0000E94D41308F48FEF08959B01AC0160E0BF
:1028F00070E080E89FE30C94EF120E9490140C9417
:1029000036140E94281438F00E942F1420F09523CA
:1029100011F00C94F8130C94FE1311240C946A1407
:102920000E94471470F3959FC1F3950F50E0551F17
:10293000629FF001729FBB27F00DB11D639FAA2714
:10294000F00DB11DAA1F649F6627B00DA11D661F63
:10295000829F2227B00DA11D621F739FB00DA11D84
:10296000621F839FA00D611D221F749F3327A00D3E
:10297000611D231F849F600D211D822F762F6A2FDA
:1029800011249F5750409AF0F1F088234AF0EE0F3F
:10299000FF1FBB1F661F771F881F91505040A9F76C
:1029A0009E3F510580F00C94F8130C946A145F3F1D
:1029B000E4F3983ED4F3869577956795B795F795A8
:1029C000E7959F5FC1F7FE2B880F911D9695879520
:1029D00097F9089519F416F40C94FE130C94341519
:1029E0000E944F14B8F39923C9F3B6F39F57550BC0
:1029F00087FF0E9442150024A0E640EA900180581B
:102A00005695979528F4805C660F771F881F20F0F5
:102A100026173707480730F4621B730B840B2029F5
:102A200031294A2BA69517940794202531254A274A
:102A300058F7660F771F881F20F0261737074807BB
:102A400030F4620B730B840B200D311D411DA095DA
:102A500081F7B901842F9158880F9695879508952D
:102A60009B01AC010C947D149F3F31F0915020F4F8
:102A7000879577956795B795880F911D969587955A
:102A800097F9089591505040660F771F881FD2F72D
:102A90000895052E97FB1EF400940E94601557FDC3
:102AA00007D00E946E1507FC03D04EF40C946015FD
:102AB00050954095309521953F4F4F4F5F4F08956A
:102AC00090958095709561957F4F8F4F9F4F08959A
:102AD000EE0FFF1F0590F491E02D0994A1E21A2E4C
:102AE000AA1BBB1BFD010DC0AA1FBB1FEE1FFF1FB2
:102AF000A217B307E407F50720F0A21BB30BE40B02
:102B0000F50B661F771F881F991F1A9469F7609548
:102B10007095809590959B01AC01BD01CF01089502
:102B20000F931F93CF93DF938230910510F482E0CF
:102B300090E0E0917203F091730330E020E0B0E0A8
:102B4000A0E0309799F42115310509F44AC0281BFB
:102B5000390B24303105D8F58A819B8161157105C7
:102B600089F1FB0193838283FE0111C04081518171
:102B70000281138148175907E0F04817590799F463
:102B8000109761F012960C93129713961C9332963D
:102B9000CF01DF91CF911F910F91089500937203A0
:102BA00010937303F4CF2115310551F042175307E9
:102BB00038F0A901DB019A01BD01DF01F801C1CFA5
:102BC000EF01F9CF9093730380937203CDCFFE0191
:102BD000E20FF31F819391932250310939832883A7
:102BE000D7CF2091700330917103232B41F42091B2
:102BF00002013091030130937103209370032091FF
:102C00000001309101012115310541F42DB73EB786
:102C10004091040150910501241B350BE091700394
:102C2000F0917103E217F307A0F42E1B3F0B281756
:102C3000390778F0AC014E5F5F4F2417350748F035
:102C40004E0F5F1F509371034093700381939193D4
:102C50009FCFF0E0E0E09CCFCF93DF930097E9F0C7
:102C6000FC01329713821282A0917203B091730318
:102C7000ED0130E020E01097A1F420813181820F36
:102C8000931F20917003309171032817390709F0C1
:102C900061C0F0937103E0937003DF91CF910895C9
:102CA000EA01CE17DF07E8F54A815B819E014115F5
:102CB0005105B1F7E901FB83EA8349915991C40FAA
:102CC000D51FEC17FD0761F4808191810296840F76
:102CD000951FE90199838883828193819B838A83ED
:102CE000F0E0E0E012968D919C9113970097B9F572
:102CF0002D913C911197CD010296820F931F209147
:102D00007003309171032817390739F6309751F560
:102D10001092730310927203B0937103A093700327
:102D2000BCCFD383C28340815181840F951FC817C4
:102D3000D90761F44E5F5F4F88819981480F591F11
:102D4000518340838A819B8193838283211531053E
:102D500009F0B0CFF0937303E09372039ECFFD01AF
:0E2D6000DC01C0CF13821282D7CFF894FFCFD0
:102D6E0000007403800000000000CD0299029C0652
:102D7E001E0AAC042E046C041804E603C50391036A
:102D8E0070031A03EB02000000002C028C01B90143
:102D9E007902EA01C801DC010000000043081608B0
:0A2DAE008E08F307A3000308F407E2
:00000001FF
