:100000000C946F000C9497000C9497000C9497003C
:100010000C9497000C9497000C9497000C94970004
:100020000C9497000C9497000C9497000C949700F4
:100030000C9497000C9497000C9497000C949700E4
:100040000C947F060C9497000C94EF060C94C90650
:100050000C9497000C9497000C9497000C949700C4
:100060000C9421070C949700084AD73B3BCE016EB5
:1000700084BCBFFDC12F3D6C74319ABD56833DDAFF
:100080003D00C77F11BED9E4BB4C3E916BAAAABE0E
:10009000000000803F0000000000250028002B0029
:1000A000040404040404040402020202020203031E
:1000B0000303030301020408102040800102040826
:1000C00010200102040810200000000800020100B6
:1000D0000003040700000000000000004008112495
:1000E0001FBECFEFD8E0DEBFCDBF11E0A0E0B1E092
:1000F000E4E8FEE102C005900D92A836B107D9F7F9
:1001000022E0A8E6B1E001C01D92A23FB207E1F7EC
:1001100010E0CFE6D0E004C02197FE010E943A0F24
:10012000CE36D107C9F70E9479080C94400F0C9481
:10013000000090914802809147022FEF3FEF9817FF
:1001400048F4E92FF0E0E95DFD4F208130E09F5F4A
:1001500090934802C9010895909148028091470206
:100160002FEF3FEF981748F4E92FF0E0E95DFD4FDE
:10017000208130E09F5F90934802C901089590E08C
:10018000FC01E853FF4F2491FC01EC54FF4F3491E4
:10019000FC01E056FF4FE491EE23C9F0222339F031
:1001A000233001F1A8F4213019F1223029F1F0E0D7
:1001B000EE0FFF1FEA56FF4FA591B4918FB7F89449
:1001C000EC91611126C030953E233C938FBF08957A
:1001D0002730A9F02830C9F0243049F780918000F9
:1001E0008F7D03C0809180008F7780938000DFCF68
:1001F00084B58F7784BDDBCF84B58F7DFBCF8091B5
:10020000B0008F778093B000D2CF8091B0008F7D07
:10021000F9CF3E2BDACF3FB7F8948091D30190917C
:10022000D401A091D501B091D60126B5A89B05C0F7
:100230002F3F19F00196A11DB11D3FBFBA2FA92F65
:10024000982F8827BC01CD01620F711D811D911D62
:1002500042E0660F771F881F991F4A95D1F70895CE
:100260008F929F92AF92BF92CF92DF92EF92FF92C6
:100270004B015C010E940B016B017C010E940B0190
:100280006C197D098E099F09683E734081059105AF
:10029000A8F321E0821A9108A108B10888EEC80EDF
:1002A00083E0D81EE11CF11C81149104A104B10467
:1002B00029F7FF90EF90DF90CF90BF90AF909F9085
:1002C0008F90089508950895AF92BF92CF92DF92D4
:1002D000EF92FF920F931F93CF93DF936C017B01FB
:1002E0008B01040F151FEB015E01AE18BF08C0178C
:1002F000D10759F06991D601ED91FC910190F081FF
:10030000E02DC6010995892B79F7C501DF91CF91C1
:100310001F910F91FF90EF90DF90CF90BF90AF9023
:100320000895FC01538D448D252F30E0842F90E0FB
:10033000821B930B541710F0CF96089501970895E0
:10034000FC01918D828D981761F0A28DAE0FBF2FA9
:10035000B11D5D968C91928D9F5F9F73928F90E0FF
:1003600008958FEF9FEF0895FC01918D828D98176E
:1003700031F0828DE80FF11D858D90E008958FEFAB
:100380009FEF0895FC01918D228D892F90E0805C74
:100390009F4F821B91098F739927089589E492E0FA
:1003A0000E94C20121E0892B09F420E0822F0895E8
:1003B00080E090E0892B29F00E94CE0181110C94FD
:1003C00000000895FC01A48DA80FB92FB11DA35AF8
:1003D000BF4F2C91848D90E001968F739927848F65
:1003E000A689B7892C93A089B1898C918370806488
:1003F0008C93938D848D981306C00288F389E02D29
:1004000080818F7D80830895EF92FF920F931F93D9
:10041000CF93DF93EC0181E0888F9B8D8C8D9813B7
:100420001AC0E889F989808185FF15C09FB7F894C3
:10043000EE89FF896083E889F9898081837080640F
:1004400080839FBF81E090E0DF91CF911F910F915A
:10045000FF90EF900895F62E0B8D10E00F5F1F4F69
:100460000F731127E02E8C8D8E110CC00FB607FC78
:10047000FACFE889F989808185FFF5CFCE010E9406
:10048000E201F1CFEB8DEC0FFD2FF11DE35AFF4F91
:10049000F0829FB7F8940B8FEA89FB898081806294
:1004A000CFCFCF93DF93EC01888D8823B9F0AA8951
:1004B000BB89E889F9898C9185FD03C0808186FD1F
:1004C0000DC00FB607FCF7CF8C9185FFF2CF80816E
:1004D00085FFEDCFCE010E94E201E9CFDF91CF9100
:1004E000089520918901260F3327331F21323105CA
:1004F000ECF420912102FC0190E080E0243069F0CE
:1005000082E00895A09189012191AC0147595E4F85
:10051000A40FB52FB11D2C930196861798F38091E7
:100520008901680F6093890180E0089581E0089552
:100530001092210281E08093200210921B0261E060
:1005400082E10E94BF0061E083E10E94BF00E9EB0D
:10055000F0E080818E7F808380818D7F808388E43E
:100560008093B80085E48093BC000895CF93DF9317
:1005700091E0909368018823B9F0C091B800D091C0
:10058000BA008091BC008A7B8093BC0060E082E16D
:100590000E94BF0060E083E10E94BF000E949802B9
:1005A000D093BA00C093B800DF91CF9108958F9295
:1005B0009F92AF92BF92CF92DF92EF92FF920F93F2
:1005C0001F93CF93DF93D82FC62F142F613208F0DB
:1005D0009CC00E940B016B017C0180912102811162
:1005E0006FC081E080932102109320029FEF9093CF
:1005F0001F0210921E029C0F90931D0280931C02FA
:1006000080911C02DD0FD82BD0931C0280911B021D
:10061000813009F07CC010921B020E940B016B011B
:100620007C0180911C028093BB00809123029091F9
:100630002402A0912502B0912602892B8A2B8B2BB4
:10064000A1F00E940B01009123021091240220913D
:100650002502309126026C197D098E099F09061723
:1006600017072807390708F44CC08091BC0083FDA8
:10067000D8CF85EC8093BC000E940B016B017C01FC
:1006800080912102813009F444C080911E028C17B0
:1006900010F4C0911E02EBEFF1E0A7E2B2E080E0BF
:1006A0008C1359C08C2FDF91CF911F910F91FF9028
:1006B000EF90DF90CF90BF90AF909F908F90089574
:1006C0008091230290912402A0912502B0912602EC
:1006D000892B8A2B8B2B09F480CF0E940B018090F1
:1006E000230290902402A0902502B09026026C195B
:1006F0007D098E099F0986169706A806B90608F097
:100700006CCF809122020E94B602C0E0CBCF85EE72
:10071000B1CF8091230290912402A0912502B09143
:100720002602892B8A2B8B2B09F4AACF0E940B015E
:10073000009123021091240220912502309126027B
:100740006C197D098E099F090617170728073907B5
:1007500008F096CFD6CF91919D938F5FA1CF8F92C6
:100760009F92AF92BF92CF92DF92EF92FF920F9340
:100770001F93CF93DF93D091FA01D13208F0D7C005
:10078000182FC091F9010E940B016B017C0180912F
:10079000210281116BC082E080932102109320021C
:1007A0008FEF80931F0210921E02D0931D02A9EDBD
:1007B000B1E0EBEFF1E080E0D81391C010921C02A1
:1007C00080911C02CC0FC82BC0931C0280911B028D
:1007D000813009F088C010921B020E940B016B014E
:1007E0007C0180911C028093BB0080912302909138
:1007F0002402A0912502B0912602892B8A2B8B2BF3
:10080000A1F00E940B01009123021091240220917B
:100810002502309126026C197D098E099F09061761
:1008200017072807390708F442C08091BC0083FDF0
:10083000D8CF85EC8093BC000E940B016B017C013A
:1008400080912102823009F450C080911F028F3FB5
:1008500009F46FC080911F02803209F46CC080914E
:100860001F02803309F469C084E026C0809123020E
:1008700090912402A0912502B0912602892B8A2B07
:100880008B2B09F484CF0E940B018090230290905F
:100890002402A0902502B09026026C197D098E09D1
:1008A0009F0986169706A806B90608F070CF8091B2
:1008B00022020E94B60285E01092D8011092FA013D
:1008C0001092D701DF91CF911F910F91FF90EF9080
:1008D000DF90CF90BF90AF909F908F9008959D91A3
:1008E00091938F5F69CF85EEA5CF80912302909180
:1008F0002402A0912502B0912602892B8A2B8B2BF2
:1009000009F49ECF0E940B01009123021091240252
:1009100020912502309126026C197D098E099F09CC
:10092000061717072807390708F08ACFC0CF81E0DC
:10093000C3CF80E0C1CF82E0BFCF83E0BDCF0895B9
:10094000E091480280914702E81730F4F0E0E95D59
:10095000FD4F808190E008958FEF9FEF0895809183
:10096000470290914802891B990B0895CF92DF921C
:10097000EF92FF920F931F93CF93DF937C01CB01F4
:100980008A012091D701222389F0EB016B01C40E6B
:10099000D51ECC15DD0569F06991D701ED91FC916B
:1009A0000190F081E02DC7010995F3CF642F0E94DB
:1009B0007102C801DF91CF911F910F91FF90EF90CD
:1009C000DF90CF900895CF93DF931F92CDB7DEB71E
:1009D00069832091D7012223F9F02091FA01203276
:1009E00058F021E030E0FC013383228390E080E086
:1009F0000F90DF91CF9108958091D801E82FF0E01A
:100A0000E752FE4F998190838F5F8093D801809346
:100A1000FA0181E090E0ECCF61E0CE0101960E9406
:100A20007102F7CF682F86EE92E00C94E30490E019
:100A300080E00895FC0101900020E9F73197AF01B3
:100A4000481B590BBC0189E492E00C9464018F921D
:100A50009F92AF92BF920F931F93CF93DF93CDB727
:100A6000DEB7A1970FB6F894DEBF0FBECDBF19A2B7
:100A7000423008F44AE08E010F5D1F4F842E912C06
:100A8000B12CA12CA50194010E94280CE62FB901DC
:100A9000CA01EA30F4F4E05DD801EE938D01232B16
:100AA000242B252B79F790E080E0109719F0CD01E9
:100AB0000E941A05A1960FB6F894DEBF0FBECDBFF7
:100AC000DF91CF911F910F91BF90AF909F908F902A
:100AD0000895E95CE1CF4F925F926F927F928F927F
:100AE0009F92AF92BF92CF92DF92EF92FF920F93BD
:100AF0001F93CF936B017C01742EAC019B010E946C
:100B0000350F882399F084E291E0CF911F910F91E6
:100B1000FF90EF90DF90CF90BF90AF909F908F901D
:100B20007F906F905F904F900C941A05460157018B
:100B3000E894B7F82FEF3FEF4FE75FE7C501B40147
:100B40000E94350F81110DC02FEF3FEF4FE75FE798
:100B5000C501B4010E94380D18161CF488E291E01A
:100B6000D4CF2FEF3FEF4FE75FE4C701B6010E94FC
:100B7000B70E18161CF48CE291E0C7CF2FEF3FEFB1
:100B80004FE75FECC701B6010E94380D87FDF3CF38
:100B900020E030E0A901C701B6010E94380D10E045
:100BA00000E087FF0AC06DE289E492E00E9404023F
:100BB0008C01F7FAF094F7F8F094C0E060E070E090
:100BC00080E09FE37C1641F020E030E040E251E419
:100BD0000E943D0DCF5FF6CFA70196010E945A0CEF
:100BE0002B013C010E94AF0D4B015C014AE00E94C9
:100BF00027057C01E00EF11ECC23C1F1C501B40133
:100C00000E94DE0D9B01AC01C301B2010E94590C90
:100C10004B015C016EE289E492E00E940402E80E5E
:100C2000F91EC15018F120E030E040E251E4C50166
:100C3000B4010E94C40E2B013C010E94AF0D4B0178
:100C4000B12CA12C4AE0C501B4010E942705E80E91
:100C5000F91EC501B4010E94DE0D9B01AC01C30168
:100C6000B2010E94590C4B015C01DBCFC701CF914F
:100C70001F910F91FF90EF90DF90CF90BF90AF90BA
:100C80009F908F907F906F905F904F90089585ED2B
:100C90008093BC008091230290912402A0912502B0
:100CA000B09126020796A11DB11D23E0B695A79528
:100CB000979587952A95D1F72091BC0024FD03C014
:100CC00010922102089540912302509124026091D4
:100CD000250270912602452B462B472B69F300977E
:100CE000A105B10541F02AE22A95F1F700C001976C
:100CF000A109B109E1CF809122020C94B6021F92A2
:100D00000F920FB60F9211242F933F938F939F93BF
:100D1000AF93BF938091CF019091D001A091D10169
:100D2000B091D2013091CE0123E0230F2D3758F539
:100D30000196A11DB11D2093CE018093CF01909308
:100D4000D001A093D101B093D2018091D3019091B1
:100D5000D401A091D501B091D6010196A11DB11D7C
:100D60008093D3019093D401A093D501B093D60181
:100D7000BF91AF919F918F913F912F910F900FBE97
:100D80000F901F90189526E8230F0296A11DB11D04
:100D9000D2CF1F920F920FB60F9211242F933F9331
:100DA0004F935F936F937F938F939F93AF93BF9373
:100DB000EF93FF9389E492E00E94E201FF91EF91AB
:100DC000BF91AF919F918F917F916F915F914F9163
:100DD0003F912F910F900FBE0F901F9018951F926B
:100DE0000F920FB60F9211242F938F939F93EF932F
:100DF000FF93E0915902F0915A028081E0915F02E5
:100E0000F091600282FD1BC09081809162028F5F31
:100E10008F7320916302821741F0E0916202F0E04B
:100E2000E75BFD4F958F80936202FF91EF919F9159
:100E30008F912F910F900FBE0F901F90189580816A
:100E4000F4CF1F920F920FB60F9211242F933F935E
:100E50004F935F936F937F938F939F93AF93BF93C2
:100E6000EF93FF938091B900887F803609F44AC0E0
:100E7000F0F5883209F4A7C018F5803109F49BC059
:100E8000B8F4882309F4F9C0883009F494C0FF91BC
:100E9000EF91BF91AF919F918F917F916F915F91F2
:100EA0004F913F912F910F900FBE0F901F9018956B
:100EB000883109F488C0803251F780931F0214C032
:100EC000803409F49DC040F48033B9F38833F9F6D7
:100ED00080931F0285ECB0C0803509F485C0883549
:100EE00009F496C0883499F60E944706D0CF883915
:100EF00009F48CC038F5883729F050F4883611F0A1
:100F0000803729F683E0809321021092AB0157C00D
:100F1000883809F47BC0803919F0803809F0B7CFE0
:100F20008091AB01803208F071C0E091AB0181E0AB
:100F30008E0F8093AB018091BB00F0E0E557FE4F30
:100F400080833DC0803B39F0E0F4803A09F479C0F9
:100F5000883A09F09CCF84E08093210210928A01A4
:100F600010928901E091AE01F091AF010995809155
:100F7000890181110FC081E080938901109269017C
:100F800009C0803C09F4A6CF883C09F4A3CF883B74
:100F900009F07DCFE0918A0181E08E0F80938A0174
:100FA000F0E0E759FE4F80818093BB0090918A0169
:100FB0008091890129C080911C028093BB0085EC3F
:100FC0008093BC0064CF90911E0280911D029817FF
:100FD00058F5E0911E0281E08E0F80931E02F0E032
:100FE000E550FE4F8081E9CFE0911E0281E08E0F37
:100FF00080931E028091BB00F0E0E550FE4F80839D
:1010000090911E0280911D029817C8F285E8D8CFF2
:10101000E0911E0281E08E0F80931E028091BB0042
:10102000F0E0E550FE4F80838091200281115CCF7B
:1010300081E080931B0284EA8093BC00109221021D
:1010400026CF85EC8093BC00109221028091AB01E9
:10105000803230F4E091AB01F0E0E557FE4F1082B2
:101060006091AB0170E0E091AC01F091AD018BE8D3
:1010700091E009951092AB010ACF10921F0234CF74
:10108000E9E4F2E01382128288EE93E0A0E0B0E09F
:1010900084839583A683B78324E031E03183208362
:1010A00025EC30E03587248724EC30E0378726872D
:1010B00020EC30E0318B208B21EC30E0338B228B25
:1010C00022EC30E0358B248B26EC30E0378B268BFE
:1010D000118E128E138E148EE6EEF2E013821282BF
:1010E00084839583A683B78386E191E0918380838F
:1010F0000895CF93DF93CDB7DEB764970FB6F8941A
:10110000DEBF0FBECDBF789484B5826084BD84B548
:10111000816084BD85B5826085BD85B5816085BDF2
:1011200080916E00816080936E00109281008091AA
:101130008100826080938100809181008160809332
:101140008100809180008160809380008091B10057
:1011500084608093B1008091B00081608093B00082
:1011600080917A00846080937A0080917A00826016
:1011700080937A0080917A00816080937A008091D8
:101180007A00806880937A001092C1001092480221
:10119000109247021092D8011092FA010E94980210
:1011A00082E691E09093AF018093AE0183E691E0F7
:1011B0009093AD018093AC0181E08093D70188E6E4
:1011C0008093F9018BE690E00E94120590E080E0A8
:1011D0000E94120581E00E94AF03E0915902F09154
:1011E0005A0282E08083E0915502F091560210820B
:1011F000E0915702F09158028FEC808310926102C7
:10120000E0915D02F0915E0286E08083E0915B02F6
:10121000F0915C02808180618083E0915B02F091BB
:101220005C02808188608083E0915B02F0915C02C7
:10123000808180688083E0915B02F0915C02808114
:101240008F7D808380E391E00E941A058FE391E017
:101250000E941A0568EE73E080E090E00E94300181
:1012600094E6292E312C29E8422E512C612C712C28
:1012700021E02093D70138E63093F9011092D8018C
:101280001092FA018BE390E00E94120580E00E9428
:10129000AF0341E066E088E60E94D7021092480260
:1012A000809347020E94AC0089830E94AC00A98110
:1012B000AE831D822D813E81282B392B3A832983D1
:1012C0003093CD012093CC010E94AC00182F0E94D6
:1012D000AC0018871F820F811885082B192B1093DB
:1012E000CB010093CA010E94AC00F82E0E94AC0012
:1012F000FA86198629853A85282B392B3093C9011E
:101300002093C801032E000C440B550B295031408B
:1013100041095109A4EBB0E00E941D0CA301920108
:101320000E94FE0B2A55310941095109662777278A
:10133000621B730B072E000C880B990B0E94E00DAB
:101340006B017C01012E000C220B330BA9019801CB
:101350002950314041095109A4EBB0E00E941D0C15
:10136000A30192010E94FE0B2A553109410951093E
:1013700066277727621B730B072E000C880B990BCF
:101380000E94E00D4B015C01A70196010E94D90C5F
:101390002BED3FE049E450E40E945A0C21EE3EE27E
:1013A00045E652E40E94C40E2091C4013091C5016B
:1013B0004091C6015091C7010E945A0C6B877C87EF
:1013C0008D879E876093C4017093C5018093C60189
:1013D0009093C70189819A819C01990F440B550B09
:1013E0002950314041095109A4EBB0E00E941D0C85
:1013F000A30192010E94FE0B2A55310941095109AE
:1014000066277727621B730B072E000C880B990B3E
:101410000E94E00D69837A838B839C83A7019601E8
:101420000E94D90C2BED3FE049E450E40E945A0C95
:1014300021EE3EE245E652E40E94C40E2091BC013A
:101440003091BD014091BE015091BF010E945A0CE4
:101450006B017C01C092BC01D092BD01E092BE0143
:10146000F092BF0129813A814B815C81C501B401B1
:101470000E94D90C2BED3FE049E450E40E945A0C45
:1014800021EE3EE245E652E40E94C40E2091B401F2
:101490003091B5014091B6015091B7010E945A0CAC
:1014A0004B015C018092B4019092B501A092B6010B
:1014B000B092B7016AE070E080E090E00E943001F5
:1014C00091E0291A310809F0D3CE20E030E048EC51
:1014D00052E46B857C858D859E850E943D0D6093D1
:1014E000C4017093C5018093C6019093C70120E0A9
:1014F00030E048EC52E4C701B6010E943D0D609314
:10150000BC017093BD018093BE019093BF0120E0A8
:1015100030E048EC52E4C501B4010E943D0D6093F7
:10152000B4017093B5018093B6019093B70182E442
:1015300091E00E941A058FE391E00E941A0589E864
:10154000482E512C612C712C00E010E0A1E0A093FA
:10155000D701B8E6B093F9011092D8011092FA01C0
:101560008BE390E00E94120580E00E94AF0341E00F
:101570006EE088E60E94D7021092480280934702EC
:101580000E94AC00F82E0E94AC00F88A1F86AF843F
:10159000B888A82AB92AB092CD01A092CC010E94A5
:1015A000AC00F82E0E94AC00FA8A198AE988FA8801
:1015B000E82AF92AF092CB01E092CA010E94AC001D
:1015C000D82E0E94AC00DC8A1B8A2B893C89282BF0
:1015D000392B3093C9012093C801032E000C440B12
:1015E000550B2950314041095109A4EBB0E00E944C
:1015F0001D0CA30192010E94FE0B2A5531094109DD
:10160000510966277727621B730B072E000C880B86
:10161000990B0E94E00D69837A838B839C839701E9
:10162000FF0C440B550B2950314041095109A4EBE3
:10163000B0E00E941D0CA30192010E94FE0B2A55EE
:1016400031094109510966277727621B730B072E61
:10165000000C880B990B0E94E00D6B017C01298125
:101660003A814B815C810E94D90C2BED3FE049E42B
:1016700050E40E945A0C21EE3EE245E652E40E94FC
:10168000C40E2091C4013091C5014091C601509112
:10169000C7010E94590C6093C0017093C1018093EF
:1016A000C2019093C3019501BB0C440B550B29500B
:1016B000314041095109A4EBB0E00E941D0CA30187
:1016C00092010E94FE0B2A553109410951096627F2
:1016D0007727621B730B072E000C880B990B0E9457
:1016E000E00D4B015C0129813A814B815C810E94B4
:1016F000D90C2BED3FE049E450E40E945A0C21EE56
:101700003EE245E652E40E94C40E2091BC013091B5
:10171000BD014091BE015091BF010E94590C6093E0
:10172000B8017093B9018093BA019093BB01A501F0
:101730009401C701B6010E94D90C2BED3FE049E4AA
:1017400050E40E945A0C21EE3EE245E652E40E942B
:10175000C40E2091B4013091B5014091B601509171
:10176000B7010E94590C6093B0017093B10180934E
:10177000B2019093B30187E591E00E941A05609150
:10178000C0017091C1018091C2019091C30142E0FA
:101790000E946B058BE591E00E941A056091B801EB
:1017A0007091B9018091BA019091BB0142E00E9411
:1017B0006B0581E691E00E941A056091B00170917D
:1017C000B1018091B2019091B30142E00E946B059A
:1017D0008FE391E00E941A0562E370E080E090E000
:1017E0000E9430010115110509F4B0CE0E94CE010E
:1017F000882309F4ABCE0E940000A8CE052E97FBEB
:101800001EF400940E94150C57FD07D00E94280C6E
:1018100007FC03D04EF40C94150C50954095309570
:1018200021953F4F4F4F5F4F08959095809570954C
:1018300061957F4F8F4F9F4F08950E944A0CA59F3F
:10184000900DB49F900DA49F800D911D11240895BB
:10185000A1E21A2EAA1BBB1BFD010DC0AA1FBB1FB4
:10186000EE1FFF1FA217B307E407F50720F0A21B26
:10187000B30BE40BF50B661F771F881F991F1A9493
:1018800069F760957095809590959B01AC01BD01BD
:10189000CF010895A29FB001B39FC001A39F700D17
:1018A000811D1124911DB29F700D811D1124911D68
:1018B00008955058BB27AA270E94710C0C947D0EE6
:1018C0000E946F0E38F00E94760E20F039F49F3F90
:1018D00019F426F40C94450E0EF4E095E7FB0C94F5
:1018E0003F0EE92F0E948E0E58F3BA176207730756
:1018F0008407950720F079F4A6F50C94B00E0EF449
:10190000E0950B2EBA2FA02D0B01B90190010C010F
:10191000CA01A0011124FF27591B99F0593F50F427
:10192000503E68F11A16F040A22F232F342F44277F
:10193000585FF3CF469537952795A795F040539577
:10194000C9F77EF41F16BA0B620B730B840BBAF047
:101950009150A1F0FF0FBB1F661F771F881FC2F7B2
:101960000EC0BA0F621F731F841F48F487957795C6
:101970006795B795F7959E3F08F0B0CF9395880F80
:1019800008F09927EE0F9795879508950E946F0E9E
:1019900060F080E891E009F49EEF0E94760E28F056
:1019A00040E851E071F45EEF0CC00C94450E0C94CD
:1019B000B00EE92FE0780E948E0E40F3092E052A22
:1019C000B1F3261737074807590738F00E2E07F8E6
:1019D000E02569F0E025E0640AC0EF6307F80094B1
:1019E00007FADB01B9019D01DC01CA01AD01EF93EA
:1019F0000E94540D0E947D0E0E94090D5F91552397
:101A000039F02BED3FE049E450FD49EC0C945A0CC1
:101A10000895DF93DD27B92FBF7740E85FE31616FF
:101A2000170648075B0718F4D92F0E94BC0E9F9336
:101A30008F937F936F930E94310FE8E6F0E00E944E
:101A4000480E0E947D0E2F913F914F915F910E9411
:101A5000D70EDD2351F09058A2EA2AED3FE049EC81
:101A60005FE3D0785D270E94710CDF910C947D0EAE
:101A70000E941B0E08F481E008950E94510D0C9401
:101A80007D0E0E94760E58F00E946F0E40F029F4F1
:101A90005F3F29F00C943F0E51110C94B10E0C9441
:101AA000450E0E948E0E68F39923B1F3552391F3EE
:101AB000951B550BBB27AA2762177307840738F0BD
:101AC0009F5F5F4F220F331F441FAA1FA9F335D01A
:101AD0000E2E3AF0E0E832D091505040E695001CCE
:101AE000CAF72BD0FE2F29D0660F771F881FBB1F88
:101AF000261737074807AB07B0E809F0BB0B802D66
:101B0000BF01FF2793585F4F3AF09E3F510578F091
:101B10000C943F0E0C94B10E5F3FE4F3983ED4F367
:101B2000869577956795B795F7959F5FC9F7880F65
:101B3000911D9695879597F90895E1E0660F771FB7
:101B4000881FBB1F621773078407BA0720F0621B48
:101B5000730B840BBA0BEE1F88F7E09508950E9473
:101B6000960E88F09F5798F0B92F9927B751B0F08B
:101B7000E1F0660F771F881F991F1AF0BA95C9F711
:101B800014C0B13091F00E94B00EB1E008950C94F1
:101B9000B00E672F782F8827B85F39F0B93FCCF3A4
:101BA000869577956795B395D9F73EF4909580958E
:101BB000709561957F4F8F4F9F4F0895E89409C0AE
:101BC00097FB3EF490958095709561957F4F8F4F70
:101BD0009F4F9923A9F0F92F96E9BB279395F69586
:101BE000879577956795B795F111F8CFFAF4BB0F04
:101BF00011F460FF1BC06F5F7F4F8F4F9F4F16C068
:101C0000882311F096E911C0772321F09EE8872FF1
:101C1000762F05C0662371F096E8862F70E060E0AD
:101C20002AF09A95660F771F881FDAF7880F969526
:101C3000879597F90895990F0008550FAA0BE0E8CA
:101C4000FEEF16161706E807F907C0F0121613067E
:101C5000E407F50798F0621B730B840B950B39F4BE
:101C60000A2661F0232B242B252B21F408950A2624
:101C700009F4A140A6958FEF811D811D089597F964
:101C80009F6780E870E060E008959FEF80EC089522
:101C9000DF93CF931F930F93FF92EF92DF927B011D
:101CA0008C01689406C0DA2EEF010E94D70EFE0167
:101CB000E894A5912591359145915591A6F3EF01B1
:101CC0000E94710CFE019701A801DA9469F7DF9078
:101CD000EF90FF900F911F91CF91DF910895002415
:101CE0000A941616170618060906089500240A9481
:101CF00012161306140605060895092E0394000C07
:101D000011F4882352F0BB0F40F4BF2B11F460FF95
:101D100004C06F5F7F4F8F4F9F4F089557FD9058BE
:101D2000440F551F59F05F3F71F04795880F97FB9F
:101D3000991F61F09F3F79F0879508951216130659
:101D40001406551FF2CF4695F1DF08C01616170688
:101D50001806991FF1CF86957105610508940895BD
:101D6000E894BB2766277727CB0197F908950E944F
:101D70001B0E08F48FEF08959B01AC0160E070E04A
:101D800080E89FE30C943D0D0E94D70E0C947D0ECD
:101D90000E946F0E38F00E94760E20F0952311F00D
:101DA0000C943F0E0C94450E11240C94B10E0E941D
:101DB0008E0E70F3959FC1F3950F50E0551F629FF3
:101DC000F001729FBB27F00DB11D639FAA27F00D94
:101DD000B11DAA1F649F6627B00DA11D661F829FBB
:101DE0002227B00DA11D621F739FB00DA11D621FA0
:101DF000839FA00D611D221F749F3327A00D611DBD
:101E0000231F849F600D211D822F762F6A2F11249E
:101E10009F5750409AF0F1F088234AF0EE0FFF1FD1
:101E2000BB1F661F771F881F91505040A9F79E3F28
:101E3000510580F00C943F0E0C94B10E5F3FE4F31B
:101E4000983ED4F3869577956795B795F795E7957E
:101E50009F5FC1F7FE2B880F911D9695879597F987
:101E600008959B01AC010C94C40E0E941B0E880BBC
:101E7000990B0895EE0FFF1F0590F491E02D099442
:041E8000F894FFCF04
:101E8400000000000402640191015102C201A0019A
:101E9400B40100000000E304B60417059F04AF0476
:101EA4009900A0046E616E00696E66006F7666002C
:101EB40043616C6962726174696E672E2E2E000D27
:101EC4000A0043616C6962726174696F6E20636FAA
:101ED4006D706C65746500583D20002C20593D20C0
:081EE400002C205A3D200000F3
:00000001FF
