:020000040000FA
:100000000C9470000C9498000C9498000C94980038
:100010000C9498000C9498000C9498000C94980000
:100020000C9498000C9498000C9498000C949800F0
:100030000C9498000C9498000C9498000C949800E0
:100040000C94CC100C9498000C943C110C94161148
:100050000C9498000C9498000C9498000C949800C0
:100060000C946E110C949800084AD73B3BCE016E5D
:1000700084BCBFFDC12F3D6C74319ABD56833DDAFF
:100080003D00C77F11BED9E4BB4C3E916BAAAABE0E
:10009000000000803F0000000000250028002B0029
:1000A000040404040404040402020202020203031E
:1000B0000303030301020408102040800102040826
:1000C00010200102040810200000000800020100B6
:1000D0000003040700000000000000008D128915D5
:1000E00011241FBECFEFD8E0DEBFCDBF11E0A0E0EE
:1000F000B1E0E0E2F4E302C005900D92A43CB10748
:10010000D9F723E0A4ECB1E001C01D92A239B207F7
:10011000E1F710E0CFE6D0E004C02197FE010E9495
:10012000C918CE36D107C9F70E94E2120C94031AFF
:100130000C9400000895089590E0FC01E853FF4FEF
:100140002491FC01EC54FF4F3491FC01E056FF4F29
:10015000E491EE23C9F0222339F0233001F1A8F411
:10016000213019F1223029F1F0E0EE0FFF1FEA569D
:10017000FF4FA591B4918FB7F894EC91611126C00F
:1001800030953E233C938FBF08952730A9F0283047
:10019000C9F0243049F7809180008F7D03C08091A1
:1001A00080008F7780938000DFCF84B58F7784BD08
:1001B000DBCF84B58F7DFBCF8091B0008F778093AC
:1001C000B000D2CF8091B0008F7DF9CF3E2BDACF37
:1001D0008230910538F0880F991F880F991F059775
:1001E0000197F1F708953FB7F89480911902909123
:1001F0001A02A0911B02B0911C0226B5A89B05C053
:100200002F3F19F00196A11DB11D3FBFBA2FA92F95
:10021000982F8827BC01CD01620F711D811D911D92
:1002200042E0660F771F881F991F4A95D1F70895FE
:100230008F929F92AF92BF92CF92DF92EF92FF92F6
:100240004B015C010E94F3006B017C010E94F300F2
:100250006C197D098E099F09683E734081059105DF
:10026000A8F321E0821A9108A108B10888EEC80E0F
:1002700083E0D81EE11CF11C81149104A104B10497
:1002800029F7FF90EF90DF90CF90BF90AF909F90B5
:100290008F900895AF92BF92CF92DF92EF92FF922C
:1002A0000F931F93CF93DF936C017B018B01040F9E
:1002B000151FEB015E01AE18BF08C017D10759F03A
:1002C0006991D601ED91FC910190F081E02DC6017C
:1002D0000995892B79F7C501DF91CF911F910F9176
:1002E000FF90EF90DF90CF90BF90AF900895FC010A
:1002F000538D448D252F30E0842F90E0821B930B8B
:10030000541710F0CF96089501970895FC01918D30
:10031000828D981761F0A28DAE0FBF2FB11D5D9633
:100320008C91928D9F5F9F73928F90E008958FEFD5
:100330009FEF0895FC01918D828D981731F0828D89
:10034000E80FF11D858D90E008958FEF9FEF0895E0
:10035000FC01918D228D892F90E0805C9F4F821B44
:1003600091098F739927089583E992E00E94A8016B
:1003700021E0892B09F420E0822F089580E090E0AD
:10038000892B29F00E94B40181110C94000008957A
:10039000FC01A48DA80FB92FB11DA35ABF4F2C91FA
:1003A000848D90E001968F739927848FA689B789F1
:1003B0002C93A089B1898C91837080648C93938DE8
:1003C000848D981306C00288F389E02D80818F7D8B
:1003D00080830895EF92FF920F931F93CF93DF9343
:1003E000EC0181E0888F9B8D8C8D98131AC0E88971
:1003F000F989808185FF15C09FB7F894EE89FF8940
:100400006083E889F98980818370806480839FBFDD
:1004100081E090E0DF91CF911F910F91FF90EF90DD
:100420000895F62E0B8D10E00F5F1F4F0F731127ED
:10043000E02E8C8D8E110CC00FB607FCFACFE88928
:10044000F989808185FFF5CFCE010E94C801F1CFE7
:10045000EB8DEC0FFD2FF11DE35AFF4FF0829FB79C
:10046000F8940B8FEA89FB8980818062CFCFCF938C
:10047000DF93EC01888D8823B9F0AA89BB89E889CC
:10048000F9898C9185FD03C0808186FD0DC00FB672
:1004900007FCF7CF8C9185FFF2CF808185FFEDCFF0
:1004A000CE010E94C801E9CFDF91CF910895089550
:1004B000FC0183858F3F19F061E00C949C00089546
:1004C000FC0180819181892B39F0A281B3819C91BB
:1004D00011968C919CBD8DBD83858F3F19F060E096
:1004E0000C949C000895AF92BF92CF92DF92EF924E
:1004F000FF920F931F93CF93DF93EC018881998133
:10050000892B89F06EBD0DB407FEFDCFBEB48B2DD7
:10051000DF91CF911F910F91FF90EF90DF90CF90DF
:10052000BF90AF9008958885998511E0892B09F0D7
:1005300010E8AA24A394862F812309F0A12C062F6A
:100540002C813D814E815F8160E271EA87E090E01D
:100550000E94A718F22EB02EE12CC22ED12CFF2023
:1005600019F0C6010E94E8008A85877F09F042C021
:100570008D858F3F89F0902F912381E009F480E0F1
:100580008A1551F0EF85F8898F89992369F1908157
:10059000892B8083AA24A394E989FA898081998D83
:1005A000892B8083FF2019F0C6010E94E8008E8508
:1005B0008F3F39F0EB89FC898081988D892309F080
:1005C000E12AE989FA899081898D80958923808340
:1005D0008E858F3F09F0BE2C88859985892BB9F5CA
:1005E000110F1111BCCF93CF908180958923808307
:1005F000A12CD2CFE989FA898081998D892B8083BA
:10060000FF2019F0C6010E94E8008D858F3F49F058
:10061000EF85F8898F89902F9123A9F09081892BFC
:100620008083E989FA899081898D809589238083E7
:100630008E858F3F69F2EB89FC898081988D8923B3
:1006400039F2E12AC5CF908180958923E9CF1695AB
:10065000C8CF8F929F92AF92BF92CF92DF92EF92CC
:10066000FF920F931F93CF93DF937C014B016A019D
:10067000B22EA32E0E946002E401C80CD91CCC1536
:10068000DD0569F4CB2DDA2D0C0F1D1FC017D10726
:1006900059F06FEFC7010E9473028993F7CF6991F8
:1006A000C7010E947302EBCFC7010E94580281E08C
:1006B000DF91CF911F910F91FF90EF90DF90CF903E
:1006C000BF90AF909F908F9008958F929F92AF921E
:1006D000BF92CF92DF92EF92FF920F931F93CF932F
:1006E000DF937C01B62EA72E6A0149010E946002A9
:1006F000E401080D191DC017D10761F4CB2DDA2DC7
:10070000CC0EDD1ECC15DD0551F06991C7010E94AC
:100710007302F8CF6991C7010E947302ECCFC70141
:100720000E94580281E0DF91CF911F910F91FF90BD
:10073000EF90DF90CF90BF90AF909F908F900895F3
:10074000089508952091E501260F3327331F2132A4
:100750003105ECF420918D02FC0190E080E0243022
:1007600069F082E00895A091E5012191AC014B531D
:100770005E4FA40FB52FB11D2C930196861798F3E9
:100780008091E501680F6093E50180E0089581E0C4
:10079000089510928D0281E080936C02109267029E
:1007A00061E082E10E949C0061E083E10E949C0084
:1007B000E9EBF0E080818E7F808380818D7F808374
:1007C00088E48093B80085E48093BC00089510927B
:1007D00022021092210210922402109246020E94DC
:1007E000C9038AE990E09093200280931F028BE96D
:1007F00090E090931E0280931D020895CF93DF93A3
:1008000091E09093C4018823B9F0C091B800D091D1
:10081000BA008091BC008A7B8093BC0060E082E1DA
:100820000E949C0060E083E10E949C000E94C9033A
:10083000D093BA00C093B800DF91CF9108958F9202
:100840009F92AF92BF92CF92DF92EF92FF920F935F
:100850001F93CF93DF93D82FC62F142F613208F048
:100860009CC00E94F3006B017C0180918D0281117C
:100870006FC081E080938D0210936C029FEF909384
:100880006B0210926A029C0F909369028093680237
:1008900080916802DD0FD82BD093680280916702A7
:1008A000813009F07CC0109267020E94F3006B0156
:1008B0007C01809168028093BB0080918F029091AF
:1008C0009002A0919102B0919202892B8A2B8B2BDE
:1008D000A1F00E94F30000918F02109190022091EC
:1008E0009102309192026C197D098E099F090617B9
:1008F00017072807390708F44CC08091BC0083FD16
:10090000D8CF85EC8093BC000E94F3006B017C0182
:1009100080918D02813009F444C080916A028C1765
:1009200010F4C0916A02E7E4F2E0ADE6B2E080E0E4
:100930008C1359C08C2FDF91CF911F910F91FF9095
:10094000EF90DF90CF90BF90AF909F908F900895E1
:1009500080918F0290919002A0919102B0919202A9
:10096000892B8A2B8B2B09F480CF0E94F300809077
:100970008F0290909002A0909102B09092026C1918
:100980007D098E099F0986169706A806B90608F004
:100990006CCF80918E020E94FE03C0E0CBCF85EE2B
:1009A000B1CF80918F0290919002A0919102B0916D
:1009B0009202892B8A2B8B2B09F4AACF0E94F30079
:1009C00000918F0210919002209191023091920239
:1009D0006C197D098E099F09061717072807390723
:1009E00008F096CFD6CF91919D938F5FA1CF8F9234
:1009F0009F92AF92BF92CF92DF92EF92FF920F93AE
:100A00001F93CF93DF93D0914602D13208F0D7C025
:100A1000182FC09145020E94F3006B017C01809168
:100A20008D0281116BC082E080938D0210936C0265
:100A30008FEF80936B0210926A02D0936902A5E255
:100A4000B2E0E7E4F2E080E0D81391C010926802CF
:100A500080916802CC0FC82BC09368028091670216
:100A6000813009F088C0109267020E94F3006B0188
:100A70007C01809168028093BB0080918F029091ED
:100A80009002A0919102B0919202892B8A2B8B2B1C
:100A9000A1F00E94F30000918F021091900220912A
:100AA0009102309192026C197D098E099F090617F7
:100AB00017072807390708F442C08091BC0083FD5E
:100AC000D8CF85EC8093BC000E94F3006B017C01C1
:100AD00080918D02823009F450C080916B028F3F6B
:100AE00009F46FC080916B02803209F46CC0809170
:100AF0006B02803309F469C084E026C080918F02C4
:100B000090919002A0919102B0919202892B8A2B30
:100B10008B2B09F484CF0E94F30080908F02909079
:100B20009002A0909102B09092026C197D098E09FA
:100B30009F0986169706A806B90608F070CF80911F
:100B40008E020E94FE0385E010922402109246025B
:100B500010922302DF91CF911F910F91FF90EF90A0
:100B6000DF90CF90BF90AF909F908F9008959D9110
:100B700091938F5F69CF85EEA5CF80918F02909181
:100B80009002A0919102B0919202892B8A2B8B2B1B
:100B900009F49ECF0E94F30000918F021091900201
:100BA00020919102309192026C197D098E099F0962
:100BB000061717072807390708F08ACFC0CF81E04A
:100BC000C3CF80E0C1CF82E0BFCF83E0BDCF1F9312
:100BD000CF93DF93EA01122FDC0111968D919C9146
:100BE000DC01ED91FC910280F381E02D0995C8179D
:100BF000D90729F4812F0E94F70491E0811190E038
:100C0000892FDF91CF911F910895AF92BF92CF921C
:100C1000DF92EF92FF920F931F93CF93DF9300D059
:100C2000CDB7DEB7DC01211103C018962C911897BF
:100C3000253008F043C01F964D935D936D937C93D0
:100C4000529790E080E0E22EF12C8E159F05B4F4CF
:100C50001A962C911A9721110AC0FD01E80FF91F6D
:100C60004387452F562F672F77270196EECFF70141
:100C7000E81BF90BEA0FFB1F4287F3CF6D018BE0F6
:100C8000C80ED11C16969C91169717968C911797A3
:100C900099838A83AD90BC901197A114B10409F493
:100CA00041C019960C9110E098012E0D3F1DD50101
:100CB00014968D919C918217930710F480E016C0D2
:100CC000F50181819281208131E0309323022093CC
:100CD000450210922402109246020115110599F462
:100CE00021E0A701B601C5010E94E7050F900F9012
:100CF000DF91CF911F910F91FF90EF90DF90CF90F8
:100D0000BF90AF900895DC01ED91FC910280F381DA
:100D1000E02DA801BE016F5F7F4F099508171907E5
:100D200069F6DECF1296ED91FC911397309731F270
:100D300014962D913C91159719960C9110E0233043
:100D4000310571F48E7F89839A830F5F1F4F9E0157
:100D50002F5F3F4FA701B601CF010E946503C6CFA9
:100D60002115310519F49F779983F1CF2230310590
:100D700011F49068F9CF2130310549F79F779064DD
:100D8000F3CFCF93DF93EC018B818823A1F088818F
:100D900091E09093230280934502109224021092D6
:100DA000460281E00E94F70491E0811190E0892FD2
:100DB000DF91CF9108950E94E70381E08B83CE01FC
:100DC0000E94C106982F8111E2CFF1CF0895E091E2
:100DD000220280912102E81730F4F0E0E359FD4F40
:100DE000808190E008958FEF9FEF08959091220207
:100DF000809121022FEF3FEF981748F4E92FF0E0A0
:100E0000E359FD4F208130E09F5F90932202C9019A
:100E100008958091210290912202891B990B0895D7
:100E2000CF92DF92EF92FF920F931F93CF93DF93B6
:100E30007C01CB018A0120912302222389F0EB015E
:100E40006B01C40ED51ECC15DD0569F06991D70183
:100E5000ED91FC910190F081E02DC7010995F3CF50
:100E6000642F0E94A203C801DF91CF911F910F91BF
:100E7000FF90EF90DF90CF900895CF93DF931F9274
:100E8000CDB7DEB76983209123022223F9F02091A8
:100E90004602203258F021E030E0FC013383228307
:100EA00090E080E00F90DF91CF910895809124022F
:100EB000E82FF0E0EB5DFD4F998190838F5F809389
:100EC00024028093460281E090E0ECCF61E0CE0105
:100ED00001960E94A203F7CFCF93C62F91E0909383
:100EE00023029EE190934502109224021092460242
:100EF000682F80E393E00E943D076C2F80E393E02E
:100F00000E943D0781E0CF910C94F70490E080E0CF
:100F100008953F924F925F926F927F928F929F922D
:100F2000AF92BF92CF92DF92EF92FF920F931F93F7
:100F3000CF93DF9300D0CDB7DEB7FC014B01042F78
:100F40009681878199838A83C080D180C114D1041E
:100F500009F479C0418550E0D60114968D919C9199
:100F600084179507B0F4312C832D0F900F90DF91EB
:100F7000CF911F910F91FF90EF90DF90CF90BF9096
:100F8000AF909F908F907F906F905F904F903F9029
:100F90000895F601808191E09093230280934502A9
:100FA000109224021092460220E0BE016F5F7F4F34
:100FB000C6010E94E705382E8823A9F210E0B12C63
:100FC000A12CA016B10680F6D60114968D919C91A5
:100FD0007801EA18FB088E159F0508F47C0141E0B2
:100FE000C8018E199F09A816B90608F440E06E2DB5
:100FF000613208F060E2F60180810E941F041092C5
:101000002202809321028E151F0409F0ACCF340117
:101010006A0C7B1C2301C201861997098E159F0556
:1010200078F4D60111968D919C91DC01ED91FC91A3
:101030000284F385E02D0995F20181932F01EBCF16
:10104000AE0CBF1CBECFA281B381109709F48BCF29
:101050002481358110E0418550E02330310571F461
:10106000816089839A834F5F5F4F9401BE016F5FF8
:101070007F4FCD010E942903382E76CF21153105EF
:1010800019F490689983F1CF2230310511F49F77DC
:10109000F9CF2130310549F7906CF4CFCF93DF932E
:1010A000EC01BC01655F7F4F48850E94890788235A
:1010B00001F1488550E030E020E060E070E0CB01D5
:1010C00024173507CCF4982F872F762F6627EA85CB
:1010D000E1110AC0FA01E21BF30BEC0FFD1FE285E0
:1010E0006E2B2F5F3F4FECCFFE01E20FF31FE38526
:1010F000F7CF6FEF7FEFCB01DF91CF9108958F9204
:101100009F92AF92BF92CF92DF92EF92FF920F9396
:101110001F93CF93DF93EC014A015B018881998192
:101120000E944E082A8101E010E002C0000F111F4A
:101130002A95E2F701501109012E000C220B330B06
:10114000AB81680179010A2E04C0CC0CDD1CEE1CB9
:10115000FF1C0A94D2F7C094D094E094F094C62275
:10116000D722E822F922E881F981B901A8014821B2
:1011700059216A217B2104C0440F551F661F771F28
:10118000AA95D2F74C295D296E297F292085CF01A8
:10119000DF91CF911F910F91FF90EF90DF90CF9053
:1011A000BF90AF909F908F900C9405060F931F9364
:1011B000CF93DF93EC01888199810E944E08AB01A7
:1011C000BC012A8181E090E002C0880F991F2A9516
:1011D000E2F70197092E000CAA0BBB0B2B8104C070
:1011E00076956795579547952A95D2F78C019D017D
:1011F0000423152326233723C901B801DF91CF919A
:101200001F910F910895AF92BF92CF92DF92EF920C
:10121000FF920F931F93CF93DF93CDB7DEB7E8977D
:101220000FB6F894DEBF0FBECDBF8C01FC01868DDA
:10123000978D1BA21CA21DA21EA29D8B8C8B1F8AA8
:101240001E8AFF24F394FD8E8BE390E09B8F8A8FA0
:101250001E8E8EE08C8F4EE0BE01695D7F4FCE0109
:1012600044960E9489078FA198A5982789279827D7
:10127000F80195A784A789A59AA598278927982773
:1012800097A786A78BA59CA598278927982791AB18
:1012900080AB6DA57EA576276727762773AB62ABFB
:1012A0008FA598A998278927982795AB84AB89A9FA
:1012B0009AA998278927982797AB86AB8BA99CA9D1
:1012C00098278927982791AF80AF072E000C880BAD
:1012D000990B0E944D1720E030E04AEA53E40E9447
:1012E000A31628EB3EE142E152E40E94C015F8014A
:1012F0006283738384839583868D978D188A198A78
:101300001A8A1B8A9A8389831C821B82FA868CE143
:1013100090E098878F831B86F986CE0101965C0149
:101320009EAB8DAB82E08FAB83E088AFCE01C596DC
:101330000E94D608C12CD12CE12CE5E4FE2E6330AE
:101340007105E1F06230710599F06130710509F4C1
:10135000D6C0C12CD12CF0E8EF2EFFE3FF2E672B77
:1013600069F4C12CD12C50E8E52E56E4F52E06C0C8
:10137000C12CD12C70E8E72E75E4F72EF80164A596
:1013800075A5072E000C880B990B0E944D17A7011D
:1013900096010E94A316F801668377838087918760
:1013A00066A577A5072E000C880B990B0E944D1798
:1013B000A70196010E94A316F801628773878487AC
:1013C000958760A971A9072E000C880B990B0E94C4
:1013D0004D17A70196010E94A316F801668777872B
:1013E000808B918B868D978D188A198A1A8A1B8A11
:1013F0009A8389831C821B8281E08A872BE130E0FB
:1014000038872F831B868987BEAAADAA82E08FAB5F
:1014100083E088AFCE01C5960E94D608C12CD12C9E
:1014200033E0E32E33E4F32E6115710519F1C12C7D
:10143000D12C23E8E22E22E4F22E61307105D1F0A6
:1014400093E3C92EDC2C93E0E92E92E4F92E62306E
:10145000710581F0C12CD12C40E8E42E4FE3F42E2D
:101460006330710539F483E3C82EDC2C83E8E82E61
:1014700081E4F82EF80164A975A9072E000C880BE9
:10148000990B0E944D17A70196010E94A316F8011F
:10149000628B738B848B958B66A977A9072E000CC2
:1014A000880B990B0E944D17A70196010E94A31665
:1014B000F801668B778B808F918F60AD71AD072EB1
:1014C000000C880B990B0E944D17A70196010E94F2
:1014D000A316F801628F738F848F958FE8960FB6ED
:1014E000F894DEBF0FBECDBFDF91CF911F910F915A
:1014F000FF90EF90DF90CF90BF90AF900895C12CF8
:10150000D12CE12C66E4F62E39CFFC0101900020AD
:10151000E9F73197AF01481B590BBC0183E992E011
:101520000C944A018F929F92AF92BF920F931F9398
:10153000CF93DF93CDB7DEB7A1970FB6F894DEBF98
:101540000FBECDBF19A2423008F44AE08E010F5DF4
:101550001F4F842E912CB12CA12CA50194010E9427
:10156000A718E62FB901CA01EA30F4F4E05DD8010A
:10157000EE938D01232B242B252B79F790E080E02F
:10158000109719F0CD010E94850AA1960FB6F89424
:10159000DEBF0FBECDBFDF91CF911F910F91BF90E6
:1015A000AF909F908F900895E95CE1CF4F925F924A
:1015B0006F927F928F929F92AF92BF92CF92DF9263
:1015C000EF92FF920F931F93CF936B017C01742EC8
:1015D000AC019B010E94A218882399F080E791E05A
:1015E000CF911F910F91FF90EF90DF90CF90BF9020
:1015F000AF909F908F907F906F905F904F900C94E2
:10160000850A46015701E894B7F82FEF3FEF4FE7FF
:101610005FE7C501B4010E94A21881110DC02FEF30
:101620003FEF4FE75FE7C501B4010E949E16181611
:101630001CF484E791E0D4CF2FEF3FEF4FE75FE456
:10164000C701B6010E94241818161CF488E791E01F
:10165000C7CF2FEF3FEF4FE75FECC701B6010E9406
:101660009E1687FDF3CF20E030E0A901C701B60147
:101670000E949E1610E000E087FF0AC06DE283E939
:1016800092E00E94EA018C01F7FAF094F7F8F094E6
:10169000C0E060E070E080E09FE37C1641F020E075
:1016A00030E040E251E40E94A316CF5FF6CFA701DD
:1016B00096010E94C0152B013C010E941C174B0192
:1016C0005C014AE00E94920A7C01E00EF11ECC23EC
:1016D000C1F1C501B4010E944B179B01AC01C301CC
:1016E000B2010E94BF154B015C016EE283E992E0FA
:1016F0000E94EA01E80EF91EC15018F120E030E026
:1017000040E251E4C501B4010E9431182B013C01B3
:101710000E941C174B01B12CA12C4AE0C501B40159
:101720000E94920AE80EF91EC501B4010E944B17EF
:101730009B01AC01C301B2010E94BF154B015C01CA
:10174000DBCFC701CF911F910F91FF90EF90DF90FA
:10175000CF90BF90AF909F908F907F906F905F9051
:101760004F9008950C946B190C946B190C946B1991
:101770000C946B199F92AF92BF92CF92DF92EF922F
:10178000FF920F931F93CF93DF93CDB7DEB7AA9746
:101790000FB6F894DEBF0FBECDBF8C01DC0197966B
:1017A0005C934E939697CA01019699969C938E935B
:1017B00098974E5F5F4F9B965C934E939A975E9679
:1017C0002D913C911BA21CA21DA21EA23D8B2C8B15
:1017D0001F8A1E8A81E08D8F4BE650E05B8F4A8F17
:1017E0001E8E8C8F188A198A1A8A1B8A3A8329833B
:1017F0001C821B828A8728E630E038872F831B866D
:1018000089875E01B4E1AB0EB11CB8A6AFA289A76F
:1018100087E08AA741E050E060E070E0CE01879663
:101820000E947F08CE0187960E94D608613071051C
:101830008105910539F461E070E080E090E00E945C
:101840001801F0CF64E670E080E090E00E9418019B
:1018500020E047E050E060E070E0FE0131966F016B
:10186000CF010E94050664E670E080E090E00E94EF
:101870001801D8015E968D919C91188A198A1A8A4E
:101880001B8A9A8389831C821B82FF24F394FA8625
:1018900089E190E098878F831B86F98620E040E0FD
:1018A00050E0BA01C6010E940506F801868D978DA9
:1018B000188A198A1A8A1B8A9A8389831C821B8236
:1018C000FA868AE190E098878F831B86F986DD8A05
:1018D000CC8A83E0E82EEE8A1F8A40E050E0BA010D
:1018E000C5010E947F08D8015E968D919C91188A4F
:1018F000198A1A8A1B8A9A8389831C821B82FA8618
:101900008BE190E098878F831B86F986DD8ACC8AED
:1019100092E0992E9E8AEF8A41E050E060E070E00C
:10192000C5010E947F08F801868D978D188A198A53
:101930001A8A1B8A9A8389831C821B82FA868CE10D
:1019400090E098878F831B86F986DD8ACC8A9E8AF1
:10195000EF8A40E050E0BA01C5010E947F08D8013B
:101960005E968D919C91188A198A1A8A1B8A9A838D
:1019700089831C821B82FA868BE690E098878F838E
:101980001B86F98620E041E050E060E070E0C6018F
:101990000E94050664E670E080E090E00E94180175
:1019A000F80180A191A1009739F0DC01ED91FC9143
:1019B0000280F381E02D0995F80182A193A100979F
:1019C00039F0DC01ED91FC910280F381E02D099565
:1019D000F80184A195A1009739F0DC01ED91FC910B
:1019E0000280F381E02D099586E090E00E94CF18F7
:1019F000FC018EE291E09183808380E596E0938301
:101A0000828315830483D8019196FC93EE9390977B
:101A100086E090E00E94CF18FC0180E291E0918383
:101A2000808381E596E09383828315830483D801C4
:101A30009396FC93EE93929786E090E00E94CF18E5
:101A4000FC0182E191E09183808382E596E09383BB
:101A5000828315830483D8019596FC93EE93949723
:101A600081E0AA960FB6F894DEBF0FBECDBFDF911E
:101A7000CF911F910F91FF90EF90DF90CF90BF908B
:101A8000AF909F9008950F931F93CF93DF938C0196
:101A9000EB0188E2FB0111928A95E9F74BE050E0F7
:101AA0006CE771E0CE010E94F4191B8681E090E0A2
:101AB000A0E0B0E08C879D87AE87BF87F80184895E
:101AC0009589A689B789888B998BAA8BBB8B82E075
:101AD00090E0A0E0B0E08C8B9D8BAE8BBF8B1CA206
:101AE0001DA21EA21FA280E090E0A8E4B4E4888FAB
:101AF000998FAA8FBB8F80E090E0A8E4B4EC8C8F24
:101B00009D8FAE8FBF8F8DEC9CECACE4BEE388A3C1
:101B100099A3AAA3BBA3DF91CF911F910F91089521
:101B2000AF92BF92CF92DF92EF92FF920F931F93EB
:101B3000CF93DF938C01EB0184E2FB0111928A9534
:101B4000E9F781E0809323028EE1809345021092B1
:101B500024021092460263E080E393E00E943D0776
:101B600080E00E94F70441E066E08EE10E941F04DD
:101B7000109222028093210280E393E00E94F606F5
:101B8000A82E80E393E00E94F606B82E80E393E04F
:101B90000E94F606E82E80E393E00E94F606F82EF7
:101BA00080E393E00E94F606C82E80E393E00E9453
:101BB000F606D82E60E07A2D6B29072E000C880BD4
:101BC000990B0E944D17F801648375838683978370
:101BD00060E07C2D6D29072E000C880B990B0E946C
:101BE0004D17F801608771878287938760E07E2DAB
:101BF0006F29072E000C880B990B0E944D17F801D6
:101C00006487758786879787108A118A128A138A54
:101C100084E290E0A0E0B0E088839983AA83BB834C
:101C200084899589A689B7898C839D83AE83BF8378
:101C300082E090E0A0E0B0E088879987AA87BB8720
:101C4000188A198A1A8A1B8AC0900401D09005014B
:101C5000E0900601F0900701A7019601648175816B
:101C6000868197810E94A31620E030E048EC52E480
:101C70000E9431186C8B7D8B8E8B9F8BA7019601F8
:101C8000F80160857185828593850E94A31620E006
:101C900030E048EC52E40E943118688F798F8A8FC7
:101CA0009B8F2091000130910101409102015091E0
:101CB0000301F80164857585868597850E94A316C2
:101CC00020E030E048EC52E40E9431186C8F7D8FA8
:101CD0008E8F9F8F81E0DF91CF911F910F91FF90A9
:101CE000EF90DF90CF90BF90AF9008950F931F9328
:101CF000CF93DF938C01EB01DC0114968D919C91C5
:101D00000E940309D8011496ED91FC918FB7F894C5
:101D100040911502509116026091170270911802BD
:101D20008FBF9E012C5F3F4F80E2D9011D928A95A3
:101D3000E9F784E290E0A0E0B0E088839983AA8389
:101D4000BB8382A593A5B0E0A0E08C839D83AE8386
:101D5000BF838DE090E0A0E0B0E088879987AA87F4
:101D6000BB87488B598B6A8B7B8B82819381A48143
:101D7000B5818C8B9D8BAE8BBF8B81E0DF91CF913A
:101D80001F910F9108950F931F93CF93DF938C01B1
:101D9000EB0188E2FB0111928A95E9F74BE050E0F4
:101DA00064E871E0CE010E94F4191B8681E090E0A6
:101DB000A0E0B0E08C879D87AE87BF87F801828165
:101DC0009381092E000CAA0BBB0B888B998BAA8BD5
:101DD000BB8B8DE090E0A0E0B0E08C8B9D8BAE8B58
:101DE000BF8B1CA21DA21EA21FA280E090E0A0E259
:101DF000B2EC8C8F9D8FAE8FBF8F80E090E0A2ED14
:101E0000B2E4888F998FAA8FBB8F84E09DEAA0E40B
:101E1000BBE388A399A3AAA3BBA3DF91CF911F9192
:101E20000F910895CF92DF92EF92FF920F931F933D
:101E3000CF93DF938C01EB01DC0114968D919C9183
:101E40000E940309F801048115818FB7F894C090AE
:101E50001502D0901602E0901702F09018028FBF82
:101E6000FE01349680E2DF011D928A95E9F741E098
:101E700050E060E070E0488359836A837B83F80117
:101E800086A197A1B0E0A0E08C839D83AE83BF8341
:101E9000488759876A877B87C88AD98AEA8AFB8AF2
:101EA0002AE038EE4CE151E46681778180859185A6
:101EB0000E9431186C8B7D8B8E8B9F8B2AE038EEC5
:101EC0004CE151E4D8011A966D917D918D919C91D0
:101ED0001D970E943118688F798F8A8F9B8F2AE017
:101EE00038EE4CE151E4F801668577858089918967
:101EF0000E9431186C8F7D8F8E8F9F8F81E0DF91D4
:101F0000CF911F910F91FF90EF90DF90CF900895A8
:101F10000F931F93CF93DF938C01EB0188E2FB01BA
:101F200011928A95E9F74BE050E06EE871E0CE013E
:101F30000E94F4191B8641E050E060E070E04C879D
:101F40005D876E877F87F80182819381092E000C5F
:101F5000AA0BBB0B888B998BAA8BBB8B4C8B5D8B95
:101F60006E8B7F8B1CA21DA21EA21FA28AE098EE80
:101F7000ACE1B3EC8C8F9D8FAE8FBF8F8AE098EE73
:101F8000ACE1B3E4888F998FAA8FBB8F83E29BED7E
:101F9000A9E7BDE388A399A3AAA3BBA3DF91CF912F
:101FA0001F910F9108950F931F93CF93DF938C018F
:101FB000EB01DC0114968D919C910E940309F801BC
:101FC000048115818FB7F894409115025091160243
:101FD00060911702709118028FBFFE01349680E263
:101FE000DF011D928A95E9F781E090E0A0E0B0E082
:101FF00088839983AA83BB83F80180A591A5B0E06B
:10200000A0E08C839D83AE83BF8384E090E0A0E05A
:10201000B0E088879987AA87BB87488B598B6A8BE2
:102020007B8B25E33AEF4EE85CE362897389848910
:1020300095890E9431186C8B7D8B8E8B9F8B25E34D
:102040003AEF4EE85CE3D80156966D917D918D9103
:102050009C9159970E943118688F798F8A8F9B8F36
:1020600025E33AEF4EE85CE3F801628D738D848DD1
:10207000958D0E9431186C8F7D8F8E8F9F8F81E0A0
:10208000DF91CF911F910F9108950F931F93CF93DD
:10209000DF938C01EB0188E2FB0111928A95E9F74D
:1020A0004BE050E068E971E0CE010E94F4191B8614
:1020B00081E090E0A0E0B0E08C879D87AE87BF878D
:1020C000F80182819381092E000CAA0BBB0B888B2F
:1020D000998BAA8BBB8B84E090E0A0E0B0E08C8B66
:1020E0009D8BAE8BBF8B1CA21DA21EA21FA287EDD3
:1020F00093EAABE0B2EC8C8F9D8FAE8FBF8F87EDF4
:1021000093EAABE0B2E4888F998FAA8FBB8F8AE9FC
:102110009BEAABE0B9E388A399A3AAA3BBA3DF9191
:10212000CF911F910F91089585ED8093BC00809110
:102130008F0290919002A0919102B0919202079625
:10214000A11DB11D23E0B695A795979587952A9572
:10215000D1F72091BC0024FD03C010928D02089598
:1021600040918F0250919002609191027091920281
:10217000452B462B472B69F30097A105B10541F08C
:102180002AE22A95F1F700C00197A109B109E1CF30
:1021900080918E020C94FE031F920F920FB60F9245
:1021A00011242F933F938F939F93AF93BF9380916D
:1021B000150290911602A0911702B0911802309169
:1021C000140223E0230F2D3758F50196A11DB11DF0
:1021D000209314028093150290931602A093170285
:1021E000B09318028091190290911A02A0911B02DB
:1021F000B0911C020196A11DB11D8093190290930C
:102200001A02A0931B02B0931C02BF91AF919F9141
:102210008F913F912F910F900FBE0F901F901895A7
:1022200026E8230F0296A11DB11DD2CF1F920F9257
:102230000FB60F9211242F933F934F935F936F9399
:102240007F938F939F93AF93BF93EF93FF9383E914
:1022500092E00E94C801FF91EF91BF91AF919F91D1
:102260008F917F916F915F914F913F912F910F903F
:102270000FBE0F901F9018951F920F920FB60F92DE
:1022800011242F938F939F93EF93FF93E091A302D9
:10229000F091A4028081E091A902F091AA0282FD4E
:1022A0001BC090818091AC028F5F8F732091AD0233
:1022B000821741F0E091AC02F0E0ED56FD4F958FB2
:1022C0008093AC02FF91EF919F918F912F910F908E
:1022D0000FBE0F901F9018958081F4CF1F920F9220
:1022E0000FB60F9211242F933F934F935F936F93E9
:1022F0007F938F939F93AF93BF93EF93FF938091BF
:10230000B900887F803609F44AC0F0F5883209F4B4
:10231000A7C018F5803109F49BC0B8F4882309F4EC
:10232000F9C0883009F494C0FF91EF91BF91AF914B
:102330009F918F917F916F915F914F913F912F91DD
:102340000F900FBE0F901F901895883109F488C028
:10235000803251F780936B0214C0803409F49DC021
:1023600040F48033B9F38833F9F680936B0285EC3F
:10237000B0C0803509F485C0883509F496C088342A
:1023800099F60E949410D0CF883909F48CC038F5A2
:10239000883729F050F4883611F0803729F683E029
:1023A00080938D021092070257C0883809F47BC0D1
:1023B000803919F0803809F0B7CF80910702803258
:1023C00008F071C0E091070281E08E0F8093070250
:1023D0008091BB00F0E0E951FE4F80833DC0803B1F
:1023E00039F0E0F4803A09F479C0883A09F09CCFDA
:1023F00084E080938D021092E6011092E501E09155
:102400001F02F091200209958091E50181110FC012
:1024100081E08093E5011092C50109C0803C09F478
:10242000A6CF883C09F4A3CF883B09F07DCFE0918B
:10243000E60181E08E0F8093E601F0E0EB53FE4F62
:1024400080818093BB009091E6018091E50129C0D5
:10245000809168028093BB0085EC8093BC0064CFC0
:1024600090916A0280916902981758F5E0916A028A
:1024700081E08E0F80936A02F0E0E95BFD4F80817E
:10248000E9CFE0916A0281E08E0F80936A02809129
:10249000BB00F0E0E95BFD4F808390916A02809180
:1024A00069029817C8F285E8D8CFE0916A0281E006
:1024B0008E0F80936A028091BB00F0E0E95BFD4FD4
:1024C000808380916C0281115CCF81E080936702F0
:1024D00084EA8093BC0010928D0226CF85EC809315
:1024E000BC0010928D0280910702803230F4E0919E
:1024F0000702F0E0E951FE4F10826091070270E0A0
:10250000E0911D02F0911E0287EE91E00995109274
:1025100007020ACF10926B0234CFE3E9F2E0138294
:10252000128288EE93E0A0E0B0E084839583A683D6
:10253000B7832CE331E03183208325EC30E035870D
:10254000248724EC30E03787268720EC30E0318B7D
:10255000208B21EC30E0338B228B22EC30E0358B6A
:10256000248B26EC30E0378B268B118E128E138E47
:10257000148EE0E3F3E01382128284839583A683B2
:10258000B7838EE491E091838083E4E5F3E08EE607
:1025900091E091838083178E168E11A210A213A250
:1025A00012A215A214A2ECE3F3E080E691E091837D
:1025B000808389E390E3A0E0B0E0848B958BA68BC9
:1025C000B78B0895CF93DF93CDB7DEB7C854D10949
:1025D0000FB6F894DEBF0FBECDBF789484B582608D
:1025E00084BD84B5816084BD85B5826085BD85B5B7
:1025F000816085BD80916E00816080936E00109235
:1026000081008091810082608093810080918100AF
:102610008160809381008091800081608093800040
:102620008091B10084608093B1008091B00081609E
:102630008093B00080917A00846080937A008091CA
:102640007A00826080937A0080917A008160809322
:102650007A0080917A00806880937A001092C1009D
:10266000E091A302F091A40282E08083E0919F02B6
:10267000F091A0021082E091A102F091A2028FECF1
:1026800080831092AB02E091A702F091A80286E04D
:102690008083E091A502F091A60280818061808311
:1026A000E091A502F091A602808188608083E0918C
:1026B000A502F091A602808180688083E091A50246
:1026C000F091A60280818F7D80838091720390912A
:1026D0007303009711F00E946B1986E090E00E944E
:1026E000CF18FC0188E6808380E393E092838183A6
:1026F000138280E290E095838483F0937303E093E8
:10270000720315E0FF24F394C0907203D09073031A
:102710000E94E703D6011396FC92C6010E94C106EF
:10272000811117C06AE070E080E090E00E9418011B
:10273000115051F782EA91E00E94850A8EEB91E0F8
:102740000E94850A6AE070E080E090E00E94180133
:10275000F9CF8091720390917303188A198A1A8AAB
:102760001B8A9A8389831C821B82FA8685E790E004
:1027700098878F831B86F9868E010F5F1F4FC801D4
:102780000E944E08683671058105910599F640E072
:1027900050E0BA0184E593E00E94BA0B882351F21D
:1027A0008091720390917303188A198A1A8A1B8A7E
:1027B0009A8389831C821B82FA868CE190E0988739
:1027C0008F831B86F9861EA30DA392E0D92EDFA26C
:1027D00023E0E22EE8A640E050E0BA01CE01859663
:1027E0000E947F088091720390917303188A198A5E
:1027F0001A8A1B8A9A8389831C821B82FA868BE140
:1028000090E098878F831B86F9861EA30DA3DFA215
:10281000E8A640E050E0BA01CE0185960E947F080C
:102820008091720390917303188A198A1A8A1B8AFD
:102830009A8389831C821B82FA868AE190E09887BA
:102840008F831B86F9861EA30DA3EFA218A644E072
:1028500050E060E070E0CE0185960E947F080E9403
:10286000E70360E082E00E946C0760E281E00E9482
:102870006C0780E290E090933F0380933E0380E0FA
:1028800090E8A9E8B4E48093040190930501A09333
:102890000601B093070180E090E0A5E7B4E48093DF
:1028A000000190930101A0930201B093030168EE2F
:1028B00073E080E090E00E94180134E6232E312C72
:1028C000C12CD12C7601812C912C5401412C512CFE
:1028D00032018091760390917703DC01ED91FC91B8
:1028E0000680F781E02DBE016B5D7F4F0995B80131
:1028F0008CE393E00E94900DC301B2010E944D173A
:1029000029AD3AAD4BAD5CAD0E94C0150E941517C4
:102910002B013C01C501B4010E944D1721962CAD3D
:102920003DAD4EAD5FAD21970E94C0150E941517B9
:102930004B015C01C701B6010E944D1725962CADD5
:102940003DAD4EAD5FAD25970E94C0150E94151795
:102950006B017C016AE070E080E090E00E94180169
:10296000B1E02B1A310809F0B4CFC301B2010E94C3
:102970004D1720E030E048EC52E40E94A31660932B
:102980001002709311028093120290931302C501FA
:10299000B4010E944D1720E030E048EC52E40E9460
:1029A000A31660930C0270930D0280930E02909315
:1029B0000F02C701B6010E944D1720E030E048EC3D
:1029C00052E40E94A3166093080270930902809358
:1029D0000A0290930B0280E0282E80E0382E80912E
:1029E000760390917703DC01ED91FC910680F781ED
:1029F000E02DBE016B5D7F4F0995B8018CE393E03C
:102A00000E94900D209108023091090240910A0223
:102A100050910B0225966CAD7DAD8EAD9FAD259787
:102A20000E94BF154B015C0120910C0230910D02F8
:102A300040910E0250910F0221966CAD7DAD8EAD8E
:102A40009FAD21970E94BF15A50194010E943F16DA
:102A50006B017C0120911002309111024091120211
:102A60005091130269AD7AAD8BAD9CAD0E94BF153C
:102A7000A50194010E943F162B013C012D893E893E
:102A80004F89588D698D7A8D8B8D9C8D0E943F1654
:102A90004B015C0121EE3EE245E652E4C701B6017E
:102AA0000E94311842E00E94D60A81EC91E00E9417
:102AB000850A21EE3EE245E652E4C301B2010E94DE
:102AC000311842E00E94D60A81EC91E00E94850A0A
:102AD00021EE3EE245E652E4C501B4010E94311800
:102AE00042E00E94D60A8EEB91E00E94850A64E6DD
:102AF00070E080E090E00E9418012114310409F494
:102B00006ECF0E94B401882309F469CF0E940000AF
:102B100066CF8EE691E090935503809354038091A5
:102B2000740390917503009739F0DC01ED91FC91ED
:102B30000280F381E02D09958091760390917703CF
:102B4000009739F0DC01ED91FC910280F381E02DDA
:102B500009958091780390917903009739F0DC0111
:102B6000ED91FC910280F381E02D09958091720333
:102B700090917303009711F00C946B1908955058BD
:102B8000BB27AA270E94D7150C94EA170E94DC17CE
:102B900038F00E94E31720F039F49F3F19F426F42F
:102BA0000C94B2170EF4E095E7FB0C94AC17E92FE8
:102BB0000E94FB1758F3BA1762077307840795073B
:102BC00020F079F4A6F50C941D180EF4E0950B2E68
:102BD000BA2FA02D0B01B90190010C01CA01A0016F
:102BE0001124FF27591B99F0593F50F4503E68F1CA
:102BF0001A16F040A22F232F342F4427585FF3CF0B
:102C0000469537952795A795F0405395C9F77EF4DB
:102C10001F16BA0B620B730B840BBAF09150A1F024
:102C2000FF0FBB1F661F771F881FC2F70EC0BA0FAA
:102C3000621F731F841F48F4879577956795B79532
:102C4000F7959E3F08F0B0CF9395880F08F099272D
:102C5000EE0F9795879508950E94DC1760F080E845
:102C600091E009F49EEF0E94E31728F040E851E05C
:102C700071F45EEF0CC00C94B2170C941D18E92F80
:102C8000E0780E94FB1740F3092E052AB1F32617BE
:102C900037074807590738F00E2E07F8E02569F086
:102CA000E025E0640AC0EF6307F8009407FADB014F
:102CB000B9019D01DC01CA01AD01EF930E94BA1672
:102CC0000E94EA170E946F165F91552339F02BED91
:102CD0003FE049E450FD49EC0C94C0150895DF93A2
:102CE000DD27B92FBF7740E85FE3161617064807C0
:102CF0005B0718F4D92F0E9429189F938F937F9315
:102D00006F930E949E18E8E6F0E00E94B5170E94BB
:102D1000EA172F913F914F915F910E944418DD2354
:102D200051F09058A2EA2AED3FE049EC5FE3D078F9
:102D30005D270E94D715DF910C94EA170E9488172F
:102D400008F481E008950E94B7160C94EA170E94D7
:102D5000E31758F00E94DC1740F029F45F3F29F098
:102D60000C94AC1751110C941E180C94B2170E94BD
:102D7000FB1768F39923B1F3552391F3951B550B7A
:102D8000BB27AA2762177307840738F09F5F5F4F3E
:102D9000220F331F441FAA1FA9F335D00E2E3AF07D
:102DA000E0E832D091505040E695001CCAF72BD095
:102DB000FE2F29D0660F771F881FBB1F26173707E6
:102DC0004807AB07B0E809F0BB0B802DBF01FF2718
:102DD00093585F4F3AF09E3F510578F00C94AC1732
:102DE0000C941E185F3FE4F3983ED4F386957795D4
:102DF0006795B795F7959F5FC9F7880F911D9695D1
:102E0000879597F90895E1E0660F771F881FBB1F2C
:102E1000621773078407BA0720F0621B730B840BD9
:102E2000BA0BEE1F88F7E09508950E941C1768946E
:102E3000B1110C941E1808950E94031888F09F5732
:102E400098F0B92F9927B751B0F0E1F0660F771FCE
:102E5000881F991F1AF0BA95C9F714C0B13091F0C4
:102E60000E941D18B1E008950C941D18672F782F4B
:102E70008827B85F39F0B93FCCF386957795679589
:102E8000B395D9F73EF490958095709561957F4FF5
:102E90008F4F9F4F0895E89409C097FB3EF490959B
:102EA0008095709561957F4F8F4F9F4F9923A9F023
:102EB000F92F96E9BB279395F695879577956795B2
:102EC000B795F111F8CFFAF4BB0F11F460FF1BC0F6
:102ED0006F5F7F4F8F4F9F4F16C0882311F096E989
:102EE00011C0772321F09EE8872F762F05C0662337
:102EF00071F096E8862F70E060E02AF09A95660FF0
:102F0000771F881FDAF7880F9695879597F90895A8
:102F1000990F0008550FAA0BE0E8FEEF16161706EA
:102F2000E807F907C0F012161306E407F50798F052
:102F3000621B730B840B950B39F40A2661F0232B6B
:102F4000242B252B21F408950A2609F4A140A695E7
:102F50008FEF811D811D089597F99F6780E870E0CC
:102F600060E008959FEF80EC0895DF93CF931F9367
:102F70000F93FF92EF92DF927B018C01689406C061
:102F8000DA2EEF010E944418FE01E894A5912591E4
:102F9000359145915591A6F3EF010E94D715FE0199
:102FA0009701A801DA9469F7DF90EF90FF900F91F5
:102FB0001F91CF91DF91089500240A9416161706E9
:102FC00018060906089500240A941216130614061A
:102FD00005060895092E0394000C11F4882352F07D
:102FE000BB0F40F4BF2B11F460FF04C06F5F7F4F35
:102FF0008F4F9F4F089557FD9058440F551F59F01C
:103000005F3F71F04795880F97FB991F61F09F3FD5
:1030100079F087950895121613061406551FF2CFFE
:103020004695F1DF08C0161617061806991FF1CF4E
:1030300086957105610508940895E894BB27662775
:103040007727CB0197F908950E94881708F48FEF2E
:1030500008959B01AC0160E070E080E89FE30C9470
:10306000A3160E9444180C94EA170E94DC1738F04B
:103070000E94E31720F0952311F00C94AC170C94E8
:10308000B21711240C941E180E94FB1770F3959F21
:10309000C1F3950F50E0551F629FF001729FBB274F
:1030A000F00DB11D639FAA27F00DB11DAA1F649FEB
:1030B0006627B00DA11D661F829F2227B00DA11D9E
:1030C000621F739FB00DA11D621F839FA00D611D24
:1030D000221F749F3327A00D611D231F849F600D45
:1030E000211D822F762F6A2F11249F5750409AF06E
:1030F000F1F088234AF0EE0FFF1FBB1F661F771FFA
:10310000881F91505040A9F79E3F510580F00C94C4
:10311000AC170C941E185F3FE4F3983ED4F38695E9
:1031200077956795B795F795E7959F5FC1F7FE2B64
:10313000880F911D9695879597F908959B01AC018D
:103140000C9431180E948817880B990B0895A1E2FE
:103150001A2EAA1BBB1BFD010DC0AA1FBB1FEE1F11
:10316000FF1FA217B307E407F50720F0A21BB30B5C
:10317000E40BF50B661F771F881F991F1A9469F7D8
:1031800060957095809590959B01AC01BD01CF0134
:103190000895EE0FFF1F0590F491E02D09940F9311
:1031A0001F93CF93DF938230910510F482E090E07B
:1031B000E0919003F091910330E020E0B0E0A0E0D6
:1031C000309799F42115310509F44AC0281B390BB1
:1031D00024303105D8F58A819B816115710589F10B
:1031E000FB0193838283FE0111C0408151810281E2
:1031F000138148175907E0F04817590799F41097B9
:1032000061F012960C93129713961C933296CF018D
:10321000DF91CF911F910F91089500939003109328
:103220009103F4CF2115310551F04217530738F0BF
:10323000A901DB019A01BD01DF01F801C1CFEF0156
:10324000F9CF9093910380939003CDCFFE01E20FCD
:10325000F31F819391932250310939832883D7CF6B
:1032600020918E0330918F03232B41F420910A018A
:1032700030910B0130938F0320938E03209108012E
:10328000309109012115310541F42DB73EB7409128
:103290000C0150910D01241B350BE0918E03F09130
:1032A0008F03E217F307A0F42E1B3F0B28173907F3
:1032B00078F0AC014E5F5F4F2417350748F04E0F92
:1032C0005F1F50938F0340938E03819391939FCF01
:1032D000F0E0E0E09CCFCF93DF930097E9F0FC01B2
:1032E000329713821282A0919003B0919103ED0165
:1032F00030E020E01097A1F420813181820F931FEC
:1033000020918E0330918F032817390709F061C08F
:10331000F0938F03E0938E03DF91CF910895EA013C
:10332000CE17DF07E8F54A815B819E014115510503
:10333000B1F7E901FB83EA8349915991C40FD51F85
:10334000EC17FD0761F4808191810296840F951F2F
:10335000E90199838883828193819B838A83F0E04A
:10336000E0E012968D919C9113970097B9F52D91FD
:103370003C911197CD010296820F931F20918E03ED
:1033800030918F032817390739F6309751F510928D
:10339000910310929003B0938F03A0938E03BCCF40
:1033A000D383C28340815181840F951FC817D907E9
:1033B00061F44E5F5F4F88819981480F591F518397
:1033C00040838A819B81938382832115310509F093
:1033D000B0CFF0939103E09390039ECFFD01DC0109
:1033E000C0CF13821282D7CFFB01DC014150504085
:1033F00048F001900D920020C9F701C01D92415084
:103400005040E0F7089510E0CFE6D0E004C0FE01A0
:103410000E94C9182196C037D107C9F7F894FFCF89
:103420000000754400808944000092038000000081
:103430000000A003B60BA103D30F4510000000004D
:10344000A003B20BA103120F880F00000000A0031D
:10345000B80BA103760EC30E00000000EA014A017A
:1034600077013702A80186019A01000000003D079C
:1034700010078607E6060907F606E70600000000C3
:103480005702B40BA103900D430D00000000BA0BCE
:103490006E616E00696E66006F766600484D43355A
:1034A000383833004D5055363035305F54004D506C
:1034B00055363035305F41004D5055363035305F30
:1034C00047004661696C656420746F2066696E64AC
:1034D000204D5055363035302063686970000D0A34
:0434E000002C0000BC
:107E0000112484B714BE81FFF0D085E080938100F7
:107E100082E08093C00088E18093C10086E0809377
:107E2000C20080E18093C4008EE0C9D0259A86E02C
:107E300020E33CEF91E0309385002093840096BBD3
:107E4000B09BFECF1D9AA8958150A9F7CC24DD24C4
:107E500088248394B5E0AB2EA1E19A2EF3E0BF2EE7
:107E6000A2D0813461F49FD0082FAFD0023811F036
:107E7000013811F484E001C083E08DD089C08234E0
:107E800011F484E103C0853419F485E0A6D080C0E4
:107E9000853579F488D0E82EFF2485D0082F10E0AE
:107EA000102F00270E291F29000F111F8ED06801E7
:107EB0006FC0863521F484E090D080E0DECF843638
:107EC00009F040C070D06FD0082F6DD080E0C81688
:107ED00080E7D80618F4F601B7BEE895C0E0D1E017
:107EE00062D089930C17E1F7F0E0CF16F0E7DF06D8
:107EF00018F0F601B7BEE89568D007B600FCFDCFD4
:107F0000A601A0E0B1E02C9130E011968C91119780
:107F100090E0982F8827822B932B1296FA010C0160
:107F200087BEE89511244E5F5F4FF1E0A038BF0790
:107F300051F7F601A7BEE89507B600FCFDCF97BE46
:107F4000E89526C08437B1F42ED02DD0F82E2BD052
:107F50003CD0F601EF2C8F010F5F1F4F84911BD097
:107F6000EA94F801C1F70894C11CD11CFA94CF0C13
:107F7000D11C0EC0853739F428D08EE10CD085E9AC
:107F80000AD08FE07ACF813511F488E018D01DD067
:107F900080E101D065CF982F8091C00085FFFCCF94
:107FA0009093C60008958091C00087FFFCCF809118
:107FB000C00084FD01C0A8958091C6000895E0E648
:107FC000F0E098E1908380830895EDDF803219F02E
:107FD00088E0F5DFFFCF84E1DECF1F93182FE3DFCA
:107FE0001150E9F7F2DF1F91089580E0E8DFEE27F6
:047FF000FF270994CA
:027FFE00040479
:00000001FF
