:020000040000FA
:100000000C941A020C9442020C9442020C94420288
:100010000C9442020C9442020C9442020C94420250
:100020000C9492100C9442020C9442020C944202E2
:100030000C9442020C9442020C9442020C94420230
:100040000C94D10E0C9442020C94410F0C941B0F93
:100050000C9442020C9442020C9442020C94420210
:100060000C94730F0C944202084AD73B3BCE016EAE
:1000700084BCBFFDC12F3D6C74319ABD56833DDAFF
:100080003D00C77F11BED9E4BB4C3E916BAAAABE0E
:10009000000000803F002A2A2A2A2A2A2A2A2A2AFD
:1000A0002A2A2A2A2A2A2A2A2A2A2A2A2A2A2A2AB0
:1000B0002A2A2A2A2A2A2A2A2A2A2A2A2A2A2A2AA0
:1000C0002A2A2A2A2A2A2A2A2A2A2A2A2A2A2A2A90
:1000D0002A2A2A2A2A2A2A2A2A2A2A2A2A2A2A2A80
:1000E0002A2A2A2A2A2A2A2A2A2A2A2A2A2A2A2A70
:1000F0002A2A2A2A2A2A2A2A005468616E6B730047
:100100002068747470733A2F2F6769746875622E53
:10011000636F6D2F41726475696E6F2D4952726500
:100120006D6F74652F41726475696E6F2D495272DF
:10013000656D6F746523636F6E76657274696E6743
:100140002D796F75722D32782D70726F6772616DB7
:100150002D746F2D7468652D34782D7665727369F2
:100160006F6E004120677569646520686F77207441
:100170006F20636F6E7665727420796F75722032AE
:100180002E302070726F6772616D20697320686510
:1001900072653A002068747470733A2F2F6769741F
:1001A0006875622E636F6D2F41726475696E6F2D75
:1001B000495272656D6F74652F41726475696E6F17
:1001C0002D495272656D6F7465236578616D706C31
:1001D00065732D666F722D746869732D6C69627218
:1001E00061727900546865206578616D706C657323
:1001F0002061726520646F63756D656E746564203F
:10020000686572653A005374617274207769746826
:10021000207468652053696D706C6552656365690B
:10022000766572206F722053696D706C6553656ED0
:10023000646572206578616D706C652E004F722068
:10024000646F776E677261646520796F7572206C78
:1002500069627261727920746F2076657273696F5A
:100260006E20322E362E302E0020617661696C6150
:10027000626C65206174202246696C65203E2045D1
:1002800078616D706C6573203E204578616D706C8F
:1002900065732066726F6D20437573746F6D204CAB
:1002A0006962726172696573202F20495272656DAF
:1002B0006F7465222E00506C6561736520757365DF
:1002C000206F6E65206F6620746865206E657720EC
:1002D000636F6465206578616D706C65732066720C
:1002E0006F6D20746865206C6962726172792C0090
:1002F000546869732076657273696F6E2069732024
:100300006E6F206C6F6E67657220737570706F72A0
:1003100074656421004974207365656D732C2074C5
:1003200068617420796F7520617265207573696EDC
:10033000672061206F6C642076657273696F6E2030
:10034000322E3020636F6465202F206578616D70D8
:100350006C652E005468616E6B20796F7520666F36
:1003600072207573696E67207468652049527265E2
:100370006D6F7465206C69627261727921002A2A3E
:100380002A2A2A2A2A2A2A2A2A2A2A2A2A2A2A2ACD
:100390002A2A2A2A2A2A2A2A2A2A2A2A2A2A2A2ABD
:1003A0002A2A2A2A2A2A2A2A2A2A2A2A2A2A2A2AAD
:1003B0002A2A2A2A2A2A2A2A2A2A2A2A2A2A2A2A9D
:1003C0002A2A2A2A2A2A2A2A2A2A2A2A2A2A2A2A8D
:1003D0002A2A2A2A2A2A2A2A2A2A2A2A2A2A2A2A7D
:1003E0000000000000240027002A00000000002573
:1003F0000028002B00000000080002010000030498
:1004000007000000000000000004040404040404C9
:1004100004020202020202030303030303010204B3
:100420000810204080010204081020010204081076
:100430002000641111241FBECFEFD8E0DEBFCDBF76
:1004400027E0AAEDB3E001C01D92A130B207E1F7A9
:1004500013E0A0E0B1E0E6EFFEE302C005900D92EC
:10046000AA3DB107D9F712E0CAE1D2E004C0219752
:10047000FE010E944E1EC931D107C9F70E94FA122F
:100480000C94791F0C9400000F931F93CF93DF936C
:100490004091C2048091B00610E0481708F063C094
:1004A000142F11700091C10401114EC0E091B306E8
:1004B000F091B406E40FF11DE585F0E02CEE3FEF7E
:1004C000112311F024E130E0C091BF04D091C004A9
:1004D0002C0F3D1FC90163E470E00E94071EE61760
:1004E000F70760F0C90168E270E00E94071E6F5FC5
:1004F0007F4F81E090E06E177F0710F52C0F3D1FB6
:10050000C90163E470E00E94071EE617F70750F088
:10051000C90168E270E00E94071E6F5F7F4F6E178F
:100520007F0760F42C0F3D1FC90163E470E00E9457
:10053000071EE617F707E8F41FEF15C082E090E00A
:100540009093BE048093BD040F5F0093C10480911B
:10055000BD049091BE040817190628F01092C1043A
:100560004F5F4093C204812FDF91CF911F910F9174
:100570000895C90168E270E00E94071E6F5F7F4F17
:100580006E177F07C8F283E090E0DACFCF93DF9356
:10059000482FE091B306F091B40670969B012C5E53
:1005A0003F4FC90163E470E00E94071EEB01C901DF
:1005B00068E270E00E94071E6F5F7F4F80E090E06E
:1005C000DC01208130E0880F991FAA1FBB1F3296E3
:1005D0002C173D0720F06217730708F08160415027
:1005E00081F780938D0690938E06A0938F06B0932B
:1005F000900681E0DF91CF91089590E0FC01EB50EF
:10060000FC4F2491FC01E35EFB4F3491FC01E75F5A
:10061000FB4FE491EE23C9F0222339F0233001F19E
:10062000A8F4213019F1223029F1F0E0EE0FFF1F7C
:10063000E551FC4FA591B4918FB7F894EC916111FD
:1006400026C030953E233C938FBF08952730A9F0F4
:100650002830C9F0243049F7809180008F7D03C095
:10066000809180008F7780938000DFCF84B58F7773
:1006700084BDDBCF84B58F7DFBCF8091B0008F77B9
:100680008093B000D2CF8091B0008F7DF9CF3E2B08
:10069000DACFCF93DF9390E0FC01E35EFB4F249130
:1006A000875F9B4FFC0184918823D1F090E0880FF5
:1006B000991FFC01EF51FC4FA591B491FC01E5514C
:1006C000FC4FC591D49161110EC09FB7F8948C91E5
:1006D000E22FE0958E238C932881E223E8839FBF4D
:1006E000DF91CF9108958FB7F894EC91E22BEC93C2
:1006F0008FBFF6CF3FB7F8948091690490916A0458
:10070000A0916B04B0916C0426B5A89B05C02F3F47
:1007100019F00196A11DB11D3FBFBA2FA92F982F27
:100720008827BC01CD01620F711D811D911D42E022
:10073000660F771F881F991F4A95D1F708958F92EA
:100740009F92AF92BF92CF92DF92EF92FF924B01B6
:100750005C010E947A036B017C010E947A036C1990
:100760007D098E099F09683E734081059105A8F3B4
:1007700021E0821A9108A108B10888EEC80E83E032
:10078000D81EE11CF11C81149104A104B10429F7C5
:10079000FF90EF90DF90CF90BF90AF909F908F90A1
:1007A000089508950895AF92BF92CF92DF92EF928D
:1007B000FF920F931F93CF93DF936C017B018B010B
:1007C000040F151FEB015E01AE18BF08C017D1075B
:1007D00059F06991D601ED91FC910190F081E02DE5
:1007E000C6010995892B79F7C501DF91CF911F913A
:1007F0000F91FF90EF90DF90CF90BF90AF90089552
:10080000FC01538D448D252F30E0842F90E0821B16
:10081000930B541710F0CF96089501970895FC019B
:10082000918D828D981761F0A28DAE0FBF2FB11DF3
:100830005D968C91928D9F5F9F73928F90E008954B
:100840008FEF9FEF0895FC01918D828D981731F005
:10085000828DE80FF11D858D90E008958FEF9FEF59
:100860000895FC01918D228D892F90E0805C9F4F2F
:10087000821B91098F739927089583EC94E00E945D
:10088000310421E0892B09F420E0822F089580E0D3
:1008900090E0892B29F00E943D0481110C94000006
:1008A0000895FC01A48DA80FB92FB11DA35ABF4F05
:1008B0002C91848D90E001968F739927848FA6895F
:1008C000B7892C93A089B1898C91837080648C93B3
:1008D000938D848D981306C00288F389E02D808162
:1008E0008F7D80830895EF92FF920F931F93CF9394
:1008F000DF93EC0181E0888F9B8D8C8D98131AC05B
:10090000E889F989808185FF15C09FB7F894EE8941
:10091000FF896083E889F98980818370806480839E
:100920009FBF81E090E0DF91CF911F910F91FF90E9
:10093000EF900895F62E0B8D10E00F5F1F4F0F7391
:100940001127E02E8C8D8E110CC00FB607FCFACF4C
:10095000E889F989808185FFF5CFCE010E94510495
:10096000F1CFEB8DEC0FFD2FF11DE35AFF4FF0821D
:100970009FB7F8940B8FEA89FB8980818062CFCF83
:10098000CF93DF93EC01888D8823B9F0AA89BB89C6
:10099000E889F9898C9185FD03C0808186FD0DC0B1
:1009A0000FB607FCF7CF8C9185FFF2CF808185FFD2
:1009B000EDCFCE010E945104E9CFDF91CF91089590
:1009C000CF93DF93FC012781222359F1EC0161E0F1
:1009D00080850E94490361E089850E9449038F81D7
:1009E000843011F08830B1F461E08A850E944903B7
:1009F00061E08B850E9449038FA58F3F91F061E0F4
:100A00000E9449036EA581E068278FA5DF91CF91F1
:100A10000C94FD02833011F0863071F761E08A8515
:100A2000E9CFDF91CF910895CF93DF93FC01278128
:100A30002223A9F0EC010190F081E02D0284F385DE
:100A4000E02D60E009958FA58F3F49F061E00E949D
:100A500049036EA58FA5DF91CF910C94FD02DF9124
:100A6000CF910895DC01ED91FC912285338547708B
:100A70005527662777274150510961097109473089
:100A800051056105710560F4FA01E75BFA4F0C94BA
:100A90004E1E53055505570559055B055D055F0558
:100AA00061E0F901099465E0FCCF64E0FACF66E00B
:100AB000F8CF62E0F6CF6AE0F4CF68E0F2CF69E009
:100AC000F0CFCF93DF93EC01CB01BA0126E030E009
:100AD00040E050E00E942F1E6230710581059105B3
:100AE00089F16CF46115710581059105D1F06130D2
:100AF000710581059105F9F0DF91CF91089564307A
:100B000071058105910561F124F16530710581055B
:100B1000910591F7E881F9810284F385E02D66E083
:100B200006C0E881F9810284F385E02D64E0CE01FE
:100B3000DF91CF910994E881F9810284F385E02D5A
:100B400065E0F5CFE881F9810284F385E02D61E06D
:100B5000EECFE881F9810284F385E02D63E0E7CFF1
:100B6000E881F9810284F385E02D62E0E0CFDC01C9
:100B7000ED91FC910284F385E02D437055276627A3
:100B80007727423051056105710571F043305105F9
:100B90006105710559F0413051056105710511F08C
:100BA00065E0099466E0FDCF6AE0FBCF69E0F9CF2C
:100BB000CF93DF93EC01CB01BA0123E030E040E0BA
:100BC00050E00E942F1E613071058105910599F05A
:100BD0006230710581059105A9F0672B682B692B9F
:100BE000C1F4E881F9810284F385E02D64E0CE014F
:100BF000DF91CF910994E881F9810284F385E02D9A
:100C000061E0F5CFE881F9810284F385E02D62E0AF
:100C1000EECFDF91CF910895DC01ED91FC9102843C
:100C2000F385E02D4370552766277727423051051D
:100C30006105710571F0433051056105710559F089
:100C4000413051056105710511F062E0099463E0DE
:100C5000FDCF61E0FBCF60E0F9CFCF93DF93EC01F4
:100C6000E881F9810284F385E02D8A8160E08111B9
:100C700062E0CE010995E881F9810284F385E02DD7
:100C80008A8161E0811163E0CE0109958CA59DA563
:100C90008230910538F0880F991F880F991F0597AA
:100CA0000197F1F7E881F9810284F385E02D8A81CB
:100CB00060E0811162E0CE01DF91CF910994CF9382
:100CC000DF93EC0120E030E0A901688D798D8A8DF9
:100CD0009B8D0E94961D18162CF4E8A9F9A9DF91A6
:100CE000CF910994EAA9FBA9FACFCF92DF92EF92B4
:100CF000FF920F931F93CF93DF93DC011796CC9154
:100D0000C43039F0C83059F1C33019F0C63049F158
:100D1000C2E08C01085F1F4FF12CE12CC62ED12CB4
:100D2000D1E0F8016481C6010E2C02C0959587952B
:100D30000A94E2F780FD6D270F5F1F4F80810E94AC
:100D4000FD02BFEFEB1AFB0AEC1658F3DF91CF91CF
:100D50001F910F91FF90EF90DF90CF900895C4E026
:100D6000D8CFC3E0D6CFDC011796EC911797E930C6
:100D700008F038C0F0E0E154F94F0C944E1EC8065C
:100D8000CE06D406DA06E006F206E606F206EC0621
:100D9000ED91FC910684F785E02D0994ED91FC918D
:100DA0000088F189E02DF9CFED91FC910288F3895B
:100DB000E02DF3CFED91FC910488F589E02DEDCF86
:100DC000ED91FC910688F789E02DE7CFED91FC913C
:100DD000008CF18DE02DE1CFED91FC91028CF38D33
:100DE000E02DDBCF0895CF92DF92EF92FF928091BA
:100DF000440690914506A0914606B0914706892B7E
:100E00008A2B8B2B31F480E0FF90EF90DF90CF9016
:100E100008950E947A036B017C018091690690918C
:100E20006A06A0916B06B0916C06B701A601481B3B
:100E3000590B6A0B7B0B8091440690914506A0915B
:100E40004606B0914706481759076A077B07D8F24C
:100E50008091510690915206A0915306B09154068C
:100E600020914306222309F10196A11DB11D809313
:100E7000510690935206A0935306B09354064091A6
:100E8000510650915206609153067091540681E4C8
:100E900096E00E94B306C0926906D0926A06E0927C
:100EA0006B06F0926C0681E0AFCF0197A109B10902
:100EB000DECF4F925F926F927F928F929F92AF920E
:100EC000BF92CF92DF92EF92FF920F931F93CF9337
:100ED000DF93EC01CC88DD88EE88FF8888899989CA
:100EE000AA89BB89C81AD90AEA0AFB0A688D798DD2
:100EF0008A8D9B8D9B01AC010E94DE1A4B015C0127
:100F000068A179A18AA19BA19B01AC010E94E91B68
:100F10009B01AC01C501B4010E94C71C0E94391D90
:100F2000C114D104E104F10409F0B6C062307105C6
:100F3000810591050CF0D0C01B821C821D821E828F
:100F4000188E198E1A8E1B8E1CAA1DAA1EAA1FAAE5
:100F5000C12CD12C7601C701B601DF91CF911F9131
:100F60000F91FF90EF90DF90CF90BF90AF909F9048
:100F70008F907F906F905F904F900895101611069C
:100F800012061306B4F46C157D058E059F051CF43E
:100F90002A812111A1C09B01AC0188279927DC017E
:100FA000821B930BA40BB50B8CAB9DABAEABBFAB55
:100FB00093C0011511052105310509F48DC06C158B
:100FC0007D058E059F050CF087C08A81882309F472
:100FD00083C030952095109501951F4F2F4F3F4F9F
:100FE0000CAB1DAB2EAB3FAB77C001151105210536
:100FF000310509F471C08824992454018C189D0886
:10100000AE08BF08681579058A059B050CF064C019
:101010008A81811161C0DDCFCCACDDACEEACFFAC20
:10102000A7019601C701B6010E94E91B2B013C01F3
:10103000C501B4010E947F1A20E030E040E850E48E
:101040000E94DE1A20E030E040E85FE30E94E91BE6
:101050009B01AC01C301B2010E94C71C9B01AC0102
:10106000C701B6010E94E81B3B016C01FE01E05C78
:10107000FF4FE080F180028113819701A8010E9457
:10108000961D181614F473018601C701D8018CAFA0
:101090009DAFAEAFBFAF3AC00CA91DA92EA93FA905
:1010A0001C141D041E041F040CF468CF1016110636
:1010B000120613060CF099CF0027112798010C197E
:1010C0001D092E093F0960177107820793070CF06D
:1010D00062CF2A8121115FCF8CA89DA8AEA8BFA89E
:1010E00081149104A104B10409F096CF88AD99ADA3
:1010F000AAADBBAD8CAF9DAFAEAFBFAF81E01C144E
:101100001D041E041F040CF080E08A833FEF831A45
:10111000930AA30AB30A8CAA9DAAAEAABFAA8CAC52
:101120009DACAEACBFACC501B4010E94401D6B01CB
:101130007C01CB82DC82ED82FE82A501940160E01D
:1011400074E284E799E40E94C71C688F798F8A8FC4
:101150009B8F2A812111FFCE9058688F798F8A8FBB
:101160009B8FF9CECF92DF92EF92FF92CF93DF93D6
:10117000C1E4D6E0688D798D8A8D9B8D9B01AC0191
:101180000E94DE1A6B017C0168A179A18AA19BA152
:101190009B01AC010E94E91B9B01AC01C701B60198
:1011A0000E94C71C0E94391D6CAB7DAB8EAB9FAB00
:1011B000CE01DF91CF91FF90EF90DF90CF900C9414
:1011C0005907089520911D04260F3327331F21321C
:1011D0003105ECF420919304FC0190E080E0243090
:1011E00069F082E00895A0911D042191AC01435063
:1011F0005C4FA40FB52FB11D2C930196861798F361
:1012000080911D04680F60931D0480E0089581E0C3
:1012100008951092930481E08093920410926D04DB
:1012200061E082E10E94FD0261E083E10E94FD0233
:10123000E9EBF0E080818E7F808380818D7F8083E9
:1012400088E48093B80085E48093BC000895CF9330
:10125000DF9391E09093FC038823B9F0C091B8002C
:10126000D091BA008091BC008A7B8093BC0060E082
:1012700082E10E94FD0260E083E10E94FD020E9483
:101280000909D093BA00C093B800DF91CF910895B7
:101290008F929F92AF92BF92CF92DF92EF92FF9286
:1012A0000F931F93CF93DF93D091BC04D13208F0FA
:1012B000D7C0182FC091BB040E947A036B017C0138
:1012C0008091930481116BC082E08093930410930A
:1012D00092048FEF8093910410929004D0938F0426
:1012E000ABE9B4E0EFE6F4E080E0D81391C01092EF
:1012F0006E0480916E04CC0FC82BC0936E04809155
:101300006D04813009F088C010926D040E947A0348
:101310006B017C0180916E048093BB0080919504E9
:1013200090919604A0919704B0919804892B8A2BF0
:101330008B2BA1F00E947A030091950410919604E2
:1013400020919704309198046C197D098E099F09AA
:10135000061717072807390708F442C08091BC0018
:1013600083FDD8CF85EC8093BC000E947A036B018B
:101370007C0180919304823009F450C080919104E3
:101380008F3F09F46FC080919104803209F46CC0E2
:1013900080919104803309F469C084E026C0809173
:1013A000950490919604A0919704B0919804892B8C
:1013B0008A2B8B2B09F484CF0E947A0380909504AA
:1013C00090909604A0909704B09098046C197D09B1
:1013D0008E099F0986169706A806B90608F070CFF1
:1013E000809194040E94270985E010929A0410923B
:1013F000BC0410929904DF91CF911F910F91FF903F
:10140000EF90DF90CF90BF90AF909F908F90089516
:101410009D9191938F5F69CF85EEA5CF80919504C3
:1014200090919604A0919704B0919804892B8A2BEF
:101430008B2B09F49ECF0E947A03009195041091A2
:10144000960420919704309198046C197D098E09B7
:101450009F09061717072807390708F08ACFC0CF5A
:1014600081E0C3CF80E0C1CF82E0BFCF83E0BDCFBA
:101470000895E091450480914404E81730F4F0E0C9
:10148000E452FC4F808190E008958FEF9FEF089524
:1014900090914504809144042FEF3FEF981748F452
:1014A000E92FF0E0E452FC4F208130E09F5F909301
:1014B0004504C90108958091440490914504891B15
:1014C000990B0895CF92DF92EF92FF920F931F93A3
:1014D000CF93DF937C01CB018A01209199042223D1
:1014E00089F0EB016B01C40ED51ECC15DD0569F04A
:1014F0006991D701ED91FC910190F081E02DC70138
:101500000995F3CF642F0E94E208C801DF91CF91C3
:101510001F910F91FF90EF90DF90CF900895CF93A0
:10152000DF931F92CDB7DEB7698320919904222300
:10153000F9F02091BC04203258F021E030E0FC01A9
:101540003383228390E080E00F90DF91CF91089564
:1015500080919A04E82FF0E0E556FB4F9981908343
:101560008F5F80939A048093BC0481E090E0ECCF7D
:1015700061E0CE0101960E94E208F7CF90E080E0A2
:101580000895FC0101900020E9F73197AF01481B55
:10159000590BBC0183EC94E00C94D3038F929F927F
:1015A000AF92BF920F931F93CF93DF93CDB7DEB768
:1015B000A1970FB6F894DEBF0FBECDBF19A242307F
:1015C00008F44AE08E010F5D1F4F842E912CB12C40
:1015D000A12CA50194010E94AC1BE62FB901CA0100
:1015E000EA30F4F4E05DD801EE938D01232B242B37
:1015F000252B79F790E080E0109719F0CD010E943B
:10160000C10AA1960FB6F894DEBF0FBECDBFDF9121
:10161000CF911F910F91BF90AF909F908F900895A1
:10162000E95CE1CF0C94C10A8BE691E00C94C10A0D
:101630000F931F93CF93DF938C01D0E0C0E0F801AC
:10164000EC0FFD1F6491662341F083EC94E00E944F
:101650007304892B11F02196F2CF0E94140B8C0F8A
:101660009D1FDF91CF911F910F910895CF93DF932D
:10167000D0E0C0E0009719F00E94C10AEC010E947E
:10168000140B8C0F9D1FDF91CF9108954F925F92A5
:101690006F927F92BF92CF92DF92EF92FF920F9361
:1016A0001F93CF93DF937C01B62E80910001882396
:1016B00069F18EE691E00E94120B8CE793E0B11085
:1016C00002C08DE893E00E94120B8CE791E00E942B
:1016D000120B27010F2C000C660877084AE0C301A3
:1016E000B20177FE0DC06DE283EC94E00E947304BA
:1016F00066277727CB0164197509860997094AE09F
:101700000E94CE0A81E891E00E94360B10E000E0D2
:1017100094E0C92ED12C0E151F05A4F58091DA0393
:101720009091DB03BB2061F10196B6010E941B1E64
:101730009093DB038093DA03C091DA03D091DB034B
:1017400083E0CC0FDD1F8A95E1F7C95FDE4F68812A
:101750008DE00E94FD026A818CE00E94FD026C8196
:101760008BE00E94FD026E818AE00E94FD026AE029
:1017700070E080E090E00E949F030F5F1F4FCBCF8F
:101780000396D3CF2FB7F8948091650490916604A7
:10179000A0916704B09168042FBF4091500450910C
:1017A00051046091520470915304841B950BA60B55
:1017B000B70B8B3F9105A105B105E8F060E08DE026
:1017C0000E94FD0260E08CE00E94FD0260E08BE080
:1017D0000E94FD0260E08AE0DF91CF911F910F919E
:1017E000FF90EF90DF90CF90BF907F906F905F90D1
:1017F0004F900C94FD02DF91CF911F910F91FF90BC
:10180000EF90DF90CF90BF907F906F905F904F9060
:1018100008954F925F926F927F928F929F92AF92B4
:10182000BF92CF92DF92EF92FF920F931F93CF93CD
:101830006B017C01742EAC019B010E94ED1D88237D
:1018400099F088E891E0CF911F910F91FF90EF9070
:10185000DF90CF90BF90AF909F908F907F906F90D0
:101860005F904F900C94C10A46015701E894B7F875
:101870002FEF3FEF4FE75FE7C501B4010E94ED1D79
:1018800081110DC02FEF3FEF4FE75FE7C501B401B6
:101890000E94781A18161CF48CE891E0D4CF2FEF30
:1018A0003FEF4FE75FE4C701B6010E94961D18168F
:1018B0001CF480E991E0C7CF2FEF3FEF4FE75FECDB
:1018C000C701B6010E94781A87FDF3CF20E030E00F
:1018D000A901C701B6010E94781A10E000E087FF55
:1018E0000AC06DE283EC94E00E9473048C01F7FA65
:1018F000F094F7F8F094C0E060E070E080E09FE3DF
:101900007C1641F020E030E040E251E40E94C71C28
:10191000CF5FF6CFA70196010E94E91B2B013C0186
:101920000E94401D4B015C014AE00E94CE0A7C01EE
:10193000E00EF11ECC23C1F1C501B4010E947D1A55
:101940009B01AC01C301B2010E94E81B4B015C0189
:101950006EE283EC94E00E947304E80EF91EC1501D
:1019600018F120E030E040E251E4C501B4010E94EA
:10197000DE1A2B013C010E94401D4B01B12CA12C11
:101980004AE0C501B4010E94CE0AE80EF91EC50165
:10199000B4010E947D1A9B01AC01C301B2010E94F7
:1019A000E81B4B015C01DBCFC701CF911F910F9169
:1019B000FF90EF90DF90CF90BF90AF909F908F906F
:1019C0007F906F905F904F9008950C94F01E85ED7E
:1019D0008093BC008091950490919604A091970407
:1019E000B09198040796A11DB11D23E0B695A79567
:1019F000979587952A95D1F72091BC0024FD03C0C7
:101A0000109293040895409195045091960460912A
:101A1000970470919804452B462B472B69F3009748
:101A2000A105B10541F02AE22A95F1F700C001971E
:101A3000A109B109E1CF809194040C942709CF92B8
:101A4000DF92EF92FF920F931F93CF93DF9381E08A
:101A50008093990488E68093BB0410929A041092B4
:101A6000BC046BE380E695E00E948F0A80E00E9450
:101A700048090E947A036B017C01809193048111D3
:101A800065C081E080939304809392049FEF9093CC
:101A900091041092900495E090938F0480936E04CB
:101AA00080916E04806D80936E0480916D0481300E
:101AB00009F0D5C010926D040E947A036B017C017D
:101AC00080916E048093BB00809195049091960460
:101AD000A0919704B0919804892B8A2B8B2BA1F0AD
:101AE0000E947A0300919504109196042091970426
:101AF000309198046C197D098E099F090617170704
:101B00002807390708F443C08091BC0083FDD8CF73
:101B100085EC8093BC000E947A036B017C0180916C
:101B20009304813009F49DC080919004863008F0C0
:101B3000BAC080919004AFE6B4E0ECEDF3E090E041
:101B4000981751F12D9121939F5FFACF80919504C1
:101B500090919604A0919704B0919804892B8A2BB8
:101B60008B2B09F48ACF0E947A030091950410917F
:101B7000960420919704309198046C197D098E0980
:101B80009F09061717072807390708F076CF8091B5
:101B900094040E94270980E0109245048093440435
:101BA00080E695E00E94480A182F80E695E00E94A2
:101BB000480AD12F20E0C22FC82BD92B80E695E010
:101BC0000E94480A182F80E695E00E94480A20E00B
:101BD000312F8901082B192B80E695E00E94480AD5
:101BE000F82E80E695E00E94480A20E0822B9F298B
:101BF000009FB001019F700D700D1124889F90010E
:101C0000899F300D300D1124620F731F072E000CB9
:101C1000880B990B0E947F1A0E94A91D6B017C0101
:101C2000BE01DD0F880B990B0E947F1AA701960158
:101C30000E94681C20E030E044E353E40E94DE1A76
:101C40002BED3FE049E450E40E94C71CDF91CF91A7
:101C50001F910F91FF90EF90DF90CF90089585EE48
:101C600058CF8091950490919604A0919704B091DB
:101C70009804892B8A2B8B2B09F451CF0E947A036D
:101C80000091950410919604209197043091980446
:101C90006C197D098E099F09061717072807390750
:101CA00008F03DCF74CF86E046CF8F929F92AF92DF
:101CB000BF92CF92DF92EF92FF921F93CF93DF9369
:101CC00080910001882321F084E991E00E94360B85
:101CD0000E941F0D4B015C01209146043091470486
:101CE00040914804509149040E94E81B6B017C011B
:101CF00080910001882319F182EB91E00E94120B80
:101D000042E0C501B4010E94090C82EC91E00E94FE
:101D1000120B6091460470914704809148049091A1
:101D2000490442E00E94090C81ED91E00E94120BEF
:101D300042E0C701B6010E94090C0E94140B20E08A
:101D400030E0A901C701B6010E94961D20E030E0F5
:101D500040E251E418160CF5C701B6010E94DE1AE4
:101D60000E94391DEB0111E020E030E0A901C7011C
:101D7000B6010E94961D18160CF010E0612FCE01DE
:101D8000DF91CF911F91FF90EF90DF90CF90BF90A8
:101D9000AF909F908F900C94460BC701B60190585E
:101DA000DDCF1F920F920FB60F9211242F933F9306
:101DB0008F939F93AF93BF93809165049091660436
:101DC000A0916704B09168043091640423E0230F6C
:101DD0002D3758F50196A11DB11D20936404809301
:101DE000650490936604A0936704B093680480919F
:101DF000690490916A04A0916B04B0916C040196FF
:101E0000A11DB11D8093690490936A04A0936B0493
:101E1000B0936C04BF91AF919F918F913F912F919F
:101E20000F900FBE0F901F90189526E8230F029673
:101E3000A11DB11DD2CF1F920F920FB60F92112488
:101E40002F933F934F935F936F937F938F939F93C2
:101E5000AF93BF93EF93FF9383EC94E00E94510400
:101E6000FF91EF91BF91AF919F918F917F916F9172
:101E70005F914F913F912F910F900FBE0F901F9048
:101E800018951F920F920FB60F9211242F938F93D4
:101E90009F93EF93FF93E091D304F091D40480815A
:101EA000E091D904F091DA0482FD1BC09081809109
:101EB000DC048F5F8F732091DD04821741F0E09185
:101EC000DC04F0E0ED53FB4F958F8093DC04FF9131
:101ED000EF919F918F912F910F900FBE0F901F90B8
:101EE00018958081F4CF1F920F920FB60F92112494
:101EF0002F933F934F935F936F937F938F939F9312
:101F0000AF93BF93EF93FF938091B900887F8036A2
:101F100009F44AC0F0F5883209F4A7C018F58031F9
:101F200009F49BC0B8F4882309F4F9C0883009F497
:101F300094C0FF91EF91BF91AF919F918F917F914D
:101F40006F915F914F913F912F910F900FBE0F9026
:101F50001F901895883109F488C0803251F780931A
:101F6000910414C0803409F49DC040F48033B9F367
:101F70008833F9F68093910485ECB0C0803509F47C
:101F800085C0883509F496C0883499F60E94E70C1C
:101F9000D0CF883909F48CC038F5883729F050F44F
:101FA000883611F0803729F683E0809393041092ED
:101FB0003F0457C0883809F47BC0803919F0803855
:101FC00009F0B7CF80913F04803208F071C0E091F2
:101FD0003F0481E08E0F80933F048091BB00F0E0CE
:101FE000E15EFB4F80833DC0803B39F0E0F4803AF6
:101FF00009F479C0883A09F09CCF84E08093930477
:1020000010921E0410921D04E0914204F0914304CA
:10201000099580911D0481110FC081E080931D04FA
:102020001092FD0309C0803C09F4A6CF883C09F456
:10203000A3CF883B09F07DCFE0911E0481E08E0F95
:1020400080931E04F0E0E350FC4F80818093BB003E
:1020500090911E0480911D0429C080916E0480938C
:10206000BB0085EC8093BC0064CF9091900480917C
:102070008F04981758F5E091900481E08E0F8093BB
:102080009004F0E0E159FB4F8081E9CFE0919004AA
:1020900081E08E0F809390048091BB00F0E0E159C5
:1020A000FB4F80839091900480918F049817C8F221
:1020B00085E8D8CFE091900481E08E0F8093900462
:1020C0008091BB00F0E0E159FB4F80838091920446
:1020D00081115CCF81E080936D0484EA8093BC0021
:1020E0001092930426CF85EC8093BC001092930449
:1020F00080913F04803230F4E0913F04F0E0E15EF3
:10210000FB4F108260913F0470E0E0914004F09139
:1021100041048FE194E0099510923F040ACF109298
:10212000910434CF1F920F920FB60F9211242F9368
:102130003F934F935F936F937F938F939F93AF934F
:10214000BF93CF93EF93FF93E0916E05F0916F05EE
:10215000C08180917005C8238091710590917205AE
:10216000019649F0809171059091720501969093C6
:1021700072058093710580916C0581111DC0C1119C
:1021800076C08091710590917205813A910578F041
:102190001092750580917105909172059093780564
:1021A0008093770581E08093760580936C0510928B
:1021B0007205109271055BC080916C05813099F4B5
:1021C000CC2309F454C08091710590917205E0917F
:1021D000760591E09E0F90937605F0E0E459FA4F72
:1021E000858782E0E2CF80916C05823009F05DC086
:1021F000C11120C0E0917605E83C70F081E0809349
:10220000750583E080936C05E0917305F09174058A
:10221000309769F20995CBCF809171059091720545
:1022200091E09E0F90937605F0E0E459FA4F858790
:1022300081E0BBCF8091710590917205813A910543
:10224000B0F080917705909178059093EF06809398
:10225000EE06809176058093ED0683E080936C0511
:10226000E0917305F0917405309709F0099580911C
:10227000C10680FF08C08091C006C1111DC061E089
:1022800081111DC02D9AFF91EF91CF91BF91AF9118
:102290009F918F917F916F915F914F913F912F917E
:1022A0000F900FBE0F901F90189580916C05833092
:1022B000F1F6C111DCCF7BCF882321F060E00E94D2
:1022C000FD02E1CF2D98DFCF8F929F92AF92BF9208
:1022D000CF92DF92EF92FF921092C6041092C50443
:1022E00088EE93E0A0E0B0E08093C7049093C80428
:1022F000A093C904B093CA042BE231E03093C40424
:102300002093C30425EC30E03093D0042093CF0415
:1023100024EC30E03093D2042093D10420EC30E060
:102320003093D4042093D30421EC30E03093D604CE
:102330002093D50422EC30E03093D8042093D704C6
:1023400026EC30E03093DA042093D9041092DC04B8
:102350001092DD041092DE041092DF0410926305E7
:10236000109262058093640590936505A0936605BD
:10237000B09367058DE391E09093610580936005CC
:102380002CE635E03093F1062093F00610926D05AF
:1023900081E08093700549E250E050936F054093CF
:1023A0006E0550981092C0063093B4062093B30681
:1023B00097E090936D0590E8909370055798109270
:1023C000C0062FE431E0309342062093410680930B
:1023D000480610925106109252061092530610921F
:1023E00054061092550610925606109257061092F7
:1023F00058061092590610925A0610925B061092D7
:102400005C0610925D0610925E0610925F061092B6
:102410006006109261061092620610926306109296
:102420006406C12CD12C80E8E82E8FE3F82EC092F0
:102430006506D0926606E0926706F09268061092F2
:10244000440610924506109246061092470681E017
:1024500090E090936E0680936D068FEF80937006E8
:102460001092690610926A0610926B0610926C0622
:1024700094E09093490685E080934A0690934B063A
:1024800080934C0610926F06109275061092760695
:1024900010927706109278061092790610927A06BA
:1024A00010927B0610927C0610927D0610927E069A
:1024B00010927F0610928006C0928106D09282060A
:1024C000E0928306F09284061092430610924D0625
:1024D00010924E0610924F061092500681E496E03C
:1024E0000E94E0048090610690906206A0906306CE
:1024F000B0906406A7019601C501B4010E94781A44
:10250000882381F160917506709176068091770637
:10251000909178060E947F1AA50194010E94DE1A0C
:102520000E94391D60937506709376068093770636
:102530009093780686E896E6A9E6B9E48093790652
:1025400090937A06A0937B06B0937C06C0926106B6
:10255000D0926206E0926306F092640681E496E00F
:102560000E94590720E030E040E85FE360915D069B
:1025700070915E0680915F06909160060E94781AC5
:10258000882379F180E090E0A0E8BFE380935D06C6
:1025900090935E06A0935F06B093600680E094E29D
:1025A000A4E7B9E48093810690938206A093830602
:1025B000B09384068091750690917606A091770677
:1025C000B0917806181619061A061B0654F4FF90E7
:1025D000EF90DF90CF90BF90AF909F908F900C9432
:1025E000B208FF90EF90DF90CF90BF90AF909F9098
:1025F0008F900895789484B5826084BD84B581609D
:1026000084BD85B5826085BD85B5816085BD8091BD
:102610006E00816080936E00109281008091810035
:10262000826080938100809181008160809381002D
:10263000809180008160809380008091B1008460EF
:102640008093B1008091B00081608093B000809150
:102650007A00846080937A0080917A00826080930F
:102660007A0080917A00816080937A0080917A006C
:10267000806880937A001092C100E091D304F091B9
:10268000D40482E08083E091CF04F091D0041082E2
:10269000E091D104F091D2048FEC80831092DB049E
:1026A000E091D704F091D80486E08083E091D504CE
:1026B000F091D604808180618083E091D504F0910F
:1026C000D604808188608083E091D504F091D6049F
:1026D000808180688083E091D504F091D604808168
:1026E0008F7D808386EE91E00E94360B61E08DE065
:1026F0000E94490361E08CE00E94490361E08BE0A5
:102700000E94490361E08AE00E94490361E086E09B
:102710000E94490361E086E00E94FD0220E030E073
:102720004AE754E460915D0670915E0680915F0611
:10273000909160060E94781A882319F180E090E059
:10274000AAE7B4E480935D0690935E06A0935F06CB
:10275000B09360068093810690938206A0938306CF
:10276000B09384068091750690917606A0917706C5
:10277000B0917806181619061A061B0614F40E9462
:10278000B20820E030E048E452E4609159067091CC
:102790005A0680915B0690915C060E94781A882305
:1027A000E9F180905D0690905E06A0905F06B09083
:1027B000600675016401F7FAF094F7F8F09420E0F0
:1027C00030E048E452ECC501B4010E94781A87FD5C
:1027D0000CC020E030E048E452E4C501B4010E949E
:1027E000781A87FF6FC17501640120E030E0A9010C
:1027F000C701B6010E94781A81116AC1109244067D
:10280000109245061092460610924706C09259064D
:10281000D0925A06E0925B06F0925C061092450454
:102820001092440410929A041092BC040E94090968
:1028300081ED93E0909343048093420482ED93E012
:10284000909341048093400481E08093990488E64A
:102850008093BB046BE680E695E00E948F0A60E0FF
:1028600080E695E00E948F0A81E00E94480964E6B4
:1028700070E080E090E00E949F030E941F0D609333
:1028800046047093470480934804909349048091D0
:102890000001882389F084E092E00E94120B60918D
:1028A000460470914704809148049091490442E0A5
:1028B0000E94090C0E94140B82E08093B000809368
:1028C000B10084E68093B3008093B4001092B2000C
:1028D00080916C05833011F410926C0584E0809334
:1028E000700080E292E00E94360B84E392E00E9446
:1028F000360B84E492E00E94360B8FE492E00E9453
:10290000360B84E692E00E94360B80E792E00E944C
:10291000360B8EE792E00E94360B8CE892E00E9424
:10292000360B8BE992E00E94360B86EB92E00E9418
:10293000360B83ED92E00E94360B89EE92E00E9406
:10294000360BB4E0AB2EB12CC4E12C2E312CCC24B0
:10295000CA94DC2C760115E0812E912C80914A04DA
:10296000811145C08EE793E00E94180B84E593E047
:102970000E94180B85E193E00E94180B80EF92E013
:102980000E94180B86EB92E00E94180B89E692E0F9
:102990000E94180B8DE392E00E94180B0E94140B0A
:1029A00086E092E00E94180B0E94140B84EE91E0E6
:1029B0000E94180B84E991E00E94180B83E691E0D5
:1029C0000E94180B80E091E00E94180B0E94140BEB
:1029D00089EF90E00E94180B86E990E00E94180BA6
:1029E0000E94140B0E94140B81E080934A04809192
:1029F0006C05833009F03BC1E0916004F091610403
:102A00008091770590917805DF018D939D93CAE7BA
:102A1000D5E09F0120573E4F899190E08D939D9383
:102A20002A173B07C9F7209176052093620480910D
:102A30007505882321F01092750510927605809116
:102A400075058093630410925804109259041092F3
:102A50005A0410925B0480E88093AF0682819381D0
:102A6000865891098C35910570F4243009F051C0D5
:102A7000848195818197489730F486819781089762
:102A8000089708F480C0809162048A3108F470C10C
:102A9000E0916004F0916104208131812A30310598
:102AA00008F045C110925C04C0925804D0925904B9
:102AB000E0925A04F0925B0481E08093AF0688E1D3
:102AC00090E070C0C12CD12C08E4E02E02E4F02E7E
:102AD000A701960160E074E284E799E40E94C71CB4
:102AE0009F770E94401D6093440670934506809333
:102AF000460690934706C1E020E030E0A901C701F7
:102B0000B6010E94961D18160CF0C0E0C093430653
:102B10007DCE243409F0B7CF848195818254910908
:102B20008F9708F0B0CF40E956E060E372E080E2B2
:102B30000E94C602882309F4A6CFE0916004F091B8
:102B40006104EA57FF4F808191810897089708F048
:102B50009ACF80918D0690918E06A0918F06B091AC
:102B600090068093580490935904A0935A04B0930C
:102B70005B0480E280935C0488E090E090935504CD
:102B8000809354040FC010925C04C0925804D092F9
:102B90005904E0925A04F0925B0481E88093AF06F6
:102BA00088E090E090938606809385062FB7F8948E
:102BB0008091650490916604A0916704B0916804C7
:102BC0002FBF8093500490935104A0935204B0936C
:102BD00053048091580490915904A0915A04B091E3
:102BE0005B0480934C0490934D04A0934E04B093E7
:102BF0004F0481E080934B0480910001882389F089
:102C00008FEF92E00E94120B60915804709159046A
:102C100080915A0490915B0440E10E94CE0A0E9488
:102C2000140B8091580490915904A0915A04B091CA
:102C30005B04873C28E392072FEFA207B10509F454
:102C4000CBC308F08CC38F3E20E192072FEFA20781
:102C5000B10509F4B7C3873E9841AF4FB10509F4F8
:102C600095C380916C05833011F410926C058091AE
:102C70004B04882309F4CAC32FB7F89480916504E4
:102C800090916604A0916704B09168042FBF4091B1
:102C90005004509151046091520470915304841B6C
:102CA000950BA60BB70B8A3F9105A105B10508F05E
:102CB000ADC380914C0490914D04A0914E04B0910D
:102CC0004F04873E28E192072FEFA207B10509F4D0
:102CD000A0C308F08BC38F3E9041AF4FB10509F4FC
:102CE00092C383EC94E00E9431041816190694F400
:102CF00083EC94E00E940F04863309F4A0C30CF027
:102D000090C3843309F49BC30CF09CC361E082330D
:102D100009F490C380E090E0892B09F41FCE0E9453
:102D20003D04882309F41ACE0E94000017CE2281A8
:102D30003381245231092A313105D0F443E050E087
:102D400060E0412C512C320190E04817590708F0FF
:102D500052C024813581285031092830310540F492
:102D6000268137812231310580F120323105C0F1D1
:102D700081E08093C20489E793E09093C00480933C
:102D8000BF041092C1040E944402813009F09EC029
:102D9000412C512C3201C0E09091B0068091C204C8
:102DA000891708F03FC00E944402D82F0E944402B5
:102DB000D1112EC0813009F089C0440C551C661C0D
:102DC000771C689440F8CF5FE7CF2930310580F257
:102DD0002131310568F6440C551C661C771C06C071
:102DE000440C551C661C771C689440F86F5F4E5F5E
:102DF0005F4F3496AACF60935C044092580450927F
:102E0000590460925A0470925B0488E190E0B6CE57
:102E1000D13009F05BC0811159C0440C551C661CAF
:102E2000771CD1CF8C2F90E09093AE068093AD06A7
:102E300040928D0650928E0660928F067092900698
:102E4000842D8F7390E090938A0680938906920177
:102E500046E0369527954A95E1F72F713327309351
:102E6000880620938706920122273071232B31F4A4
:102E7000805C9F4F90938A068093890680E853FC7C
:102E800088E88093AF0681E190E090938606809376
:102E900085068091B1069091B2068F3C994028F446
:102EA0008091AF0681608093AF06C0935C0440922E
:102EB00058045092590460925A0470925B0481E164
:102EC00090E0909355048093540470CEE091B30643
:102ED000F091B406868588528D3108F041C087850F
:102EE0008C508B30E8F583E08093C2048CEB91E04A
:102EF0009093C0048093BF041092C1040E944402C6
:102F0000813071F50E94440281112AC0412C512C5C
:102F10003201C0E09091B0068091C204891708F098
:102F20006CC00E944402182FC330B1F00E944402CA
:102F3000D82FC33021F40E944402D81311C011309D
:102F400009F051C0D1110CC0440C551C661C771CF3
:102F5000689440F8CF5FDECF0E944402181731F327
:102F6000809162048C3309F0ABC0E0916004F09171
:102F7000610482819381865891098D35910508F00D
:102F80009FC084819581CE978C9708F099C04CE2C0
:102F900056E064EF71E08CE10E94C602882309F4D8
:102FA0008FC0E0916004F0916104EA58FF4F808186
:102FB00091810797089708F083C080918D069091C2
:102FC0008E06A0918F06B09190068093580490933E
:102FD0005904A0935A04B0935B048CE180935C0481
:102FE00086E090E0CBCD1111BBCFD13009F0B8CF46
:102FF000440C551C661C771CADCF8C2F90E0909331
:10300000AE068093AD0640928D0650928E06609279
:103010008F0670929006242D30E0852D90E0C3320B
:10302000B0F540E84093AF0630938A0620938906B6
:10303000909388068093870660FE03C088E880939B
:10304000AF06C53128F08091AF0680618093AF064E
:1030500082E190E090938606809385068091B10688
:103060009091B20683379A4028F48091AF06816030
:103070008093AF06C0935C04409258045092590468
:1030800060925A0470925B0482E190E01ACF40E9AA
:103090004093AF0630938A06209389069093880662
:1030A00080938706C3019F7390938C0680938B0651
:1030B00077FE03C088E98093AF0683E190E0CACF32
:1030C00040916204E0916004F091610482819381F7
:1030D000423289F49C01285031092730310558F4D7
:1030E000DF01AE5BBF4F2D913C9128503109273055
:1030F000310508F45BC08D5791098735910508F4B7
:1031000067C0E0916004F0916104828193818354EF
:1031100091098F9780F480916204843009F08FC008
:10312000848195818197489730F4868197810897AB
:10313000089708F4B0C08091B006823209F0BDC093
:10314000E0916004F0916104828193810497059776
:1031500008F0B3C0848195810B970A9708F0ADC041
:103160004CE157E064E071E08FE00E94C6028823E2
:1031700009F4A3C080918D0690918E06A0918F06D0
:10318000B09190068093580490935904A0935A04E8
:10319000B0935B048FE080935C04B0925504A092DE
:1031A0005404B0928606A092850600CD10925C046D
:1031B000C0925804D0925904E0925A04F0925B04F1
:1031C00081E08093AF069092860680928506EECCD1
:1031D000443208F496CF84819581CE978C9708F07D
:1031E00090CF4AE256E06EE072E080E10E94C602B3
:1031F000882309F486CFE0916004F0916104EA5BD2
:10320000FF4F808191810897079708F07ACF8091CE
:103210008D0690918E06A0918F06B09190068093B6
:10322000580490935904A0935A04B0935B0480E12E
:1032300080935C049092550480925404C4CF8434EB
:1032400008F479CF84819581825491098F9708F091
:1032500072CF40E956E060E372E080E20E94C6026D
:10326000882309F468CF80918D0690918E06A091F5
:103270008F06B09190068093580490935904A093C0
:103280005A04B0935B0480E280935C04309255044E
:10329000209254040DC010925C04C0925804D09245
:1032A0005904E0925A04F0925B0481E08093AF06E7
:1032B000309286062092850679CCD0916204D63071
:1032C00008F4CFCCE0916004F0916104329625ECD3
:1032D0003DE94CE151E8C3E01AE0848195816191B8
:1032E0007191189F3001199F700C1124DB0103E0CC
:1032F000AA0FBB1F0A95E1F700E06A167B0678F07B
:10330000169FD001179FB00D112463E0880F991FFD
:103310006A95E1F702E0A817B90708F001E063E950
:1033200071E080E091E00E949C1B9B01AC01202792
:10333000CF5FDC13D2CF20935804309359044093CD
:103340005A0450935B0480E280935C04109255040D
:1033500010925404109286061092850627CC853B65
:103360002AE492072FEFA207B105F9F0853A9A45B2
:10337000AF4FB10509F075CC0E94F30680910001B2
:10338000882309F46ECC86E393E00CC061E084E608
:1033900090E00E94460B80910001882309F461CCE3
:1033A00084E193E00E94360B5CCC60E084E690E020
:1033B0000E94460B80910001882309F452CC8EE1D3
:1033C00093E0F0CF0E94F30680910001882309F476
:1033D00048CC8AE293E0E6CF0E94550E809100012E
:1033E000882309F43ECC83E493E0DCCF853B2AE4D8
:1033F00092072FEFA207B10591F0853A9A45AF4F9A
:10340000B10509F06ECC0E94F3066BCC10924B0410
:1034100068CC61E082E390E00E94460B62CC60E001
:10342000F9CF843609F450C0843779F0883309F035
:1034300071CC60E084E690E00E94460B6BCC0E9469
:10344000F30668CC0E94550E65CC85E593E00E949A
:10345000360B8EE693E00E94360B61E084E690E046
:103460000E94460B68EE73E080E090E00E949F03AC
:103470008FE793E00E94360B60E084E690E00E94C4
:10348000460B68EE73E080E090E00E949F0382E9C3
:1034900093E00E94360B0E94F30668EE73E080E032
:1034A00090E00E949F0383EA93E00E94360B0E9403
:1034B000F30668EE73E080E090E00E949F0385EBE6
:1034C00093E00E94360B26CC8091000191E0892781
:1034D000809300018CEC93E00E94120B809100011C
:1034E000882319F08FED91E0ECCF82EE91E0E9CFE7
:1034F0000E94BA1A08F481E00895E89409C097FB85
:103500003EF490958095709561957F4F8F4F9F4FBA
:103510009923A9F0F92F96E9BB279395F6958795FE
:1035200077956795B795F111F8CFFAF4BB0F11F4C1
:1035300060FF1BC06F5F7F4F8F4F9F4F16C0882368
:1035400011F096E911C0772321F09EE8872F762F9E
:1035500005C0662371F096E8862F70E060E02AF0DF
:103560009A95660F771F881FDAF7880F96958795CB
:1035700097F90895990F0008550FAA0BE0E8FEEFA0
:1035800016161706E807F907C0F012161306E40727
:10359000F50798F0621B730B840B950B39F40A2620
:1035A00061F0232B242B252B21F408950A2609F4FE
:1035B000A140A6958FEF811D811D08950E94F11AEB
:1035C0000C94621B0E94541B38F00E945B1B20F07D
:1035D000952311F00C944B1B0C94511B11240C944B
:1035E000961B0E94731B70F3959FC1F3950F50E0DB
:1035F000551F629FF001729FBB27F00DB11D639FA5
:10360000AA27F00DB11DAA1F649F6627B00DA11D4A
:10361000661F829F2227B00DA11D621F739FB00DF0
:10362000A11D621F839FA00D611D221F749F332760
:10363000A00D611D231F849F600D211D822F762FF9
:103640006A2F11249F5750409AF0F1F088234AF0D6
:10365000EE0FFF1FBB1F661F771F881F9150504042
:10366000A9F79E3F510580F00C944B1B0C94961BC0
:103670005F3FE4F3983ED4F3869577956795B795C9
:10368000F795E7959F5FC1F7FE2B880F911D9695E3
:10369000879597F9089597F99F6780E870E060E053
:1036A00008959FEF80EC089500240A9416161706DB
:1036B00018060906089500240A9412161306140623
:1036C00005060895092E0394000C11F4882352F086
:1036D000BB0F40F4BF2B11F460FF04C06F5F7F4F3E
:1036E0008F4F9F4F089557FD9058440F551F59F025
:1036F0005F3F71F04795880F97FB991F61F09F3FDF
:1037000079F087950895121613061406551FF2CF07
:103710004695F1DF08C0161617061806991FF1CF57
:1037200086957105610508940895E894BB2766277E
:103730007727CB0197F90895DB018F939F930E9420
:10374000CE1BBF91AF91A29F800D911DA39F900DA5
:10375000B29F900D11240895A1E21A2EAA1BBB1B43
:10376000FD010DC0AA1FBB1FEE1FFF1FA217B3074D
:10377000E407F50720F0A21BB30BE40BF50B661F63
:10378000771F881F991F1A9469F760957095809527
:1037900090959B01AC01BD01CF0108950E94D91BFA
:1037A000A59F900DB49F900DA49F800D911D112495
:1037B0000895A29FB001B39FC001A39F700D811D0A
:1037C0001124911DB29F700D811D1124911D08952A
:1037D0005058BB27AA270E94001C0C94621B0E9411
:1037E000541B38F00E945B1B20F039F49F3F19F402
:1037F00026F40C94511B0EF4E095E7FB0C944B1B44
:10380000E92F0E94731B58F3BA17620773078407E6
:10381000950720F079F4A6F50C94951B0EF4E0952D
:103820000B2EBA2FA02D0B01B90190010C01CA017A
:10383000A0011124FF27591B99F0593F50F4503E25
:1038400068F11A16F040A22F232F342F4427585F17
:10385000F3CF469537952795A795F0405395C9F72F
:103860007EF41F16BA0B620B730B840BBAF09150E7
:10387000A1F0FF0FBB1F661F771F881FC2F70EC086
:10388000BA0F621F731F841F48F487957795679559
:10389000B795F7959E3F08F0B0CF9395880F08F045
:1038A0009927EE0F9795879508950E94541B60F015
:1038B00080E891E009F49EEF0E945B1B28F040E84D
:1038C00051E071F45EEF0CC00C94511B0C94951BED
:1038D000E92FE0780E94731B40F3092E052AB1F30B
:1038E000261737074807590738F00E2E07F8E02546
:1038F00069F0E025E0640AC0EF6307F8009407FA76
:10390000DB01B9019D01DC01CA01AD01EF930E9409
:10391000DE1C0E94621B0E94981C5F91552339F0A7
:103920002BED3FE049E450FD49EC0C94E91B089570
:10393000DF93DD27B92FBF7740E85FE31616170640
:1039400048075B0718F4D92F0E949B1D9F938F9304
:103950007F936F930E94E91DE8E6F0E00E946F1DDF
:103960000E94621B2F913F914F915F910E94F11A2B
:10397000DD2351F09058A2EA2AED3FE049EC5FE3E5
:10398000D0785D270E94001CDF910C94621B0E947E
:10399000DB1C0C94621B0E945B1B58F00E94541BA2
:1039A00040F029F45F3F29F00C944B1B51110C940B
:1039B000961B0C94511B0E94731B68F39923B1F35F
:1039C000552391F3951B550BBB27AA276217730745
:1039D000840738F09F5F5F4F220F331F441FAA1FD9
:1039E000A9F335D00E2E3AF0E0E832D09150504095
:1039F000E695001CCAF72BD0FE2F29D0660F771F43
:103A0000881FBB1F261737074807AB07B0E809F028
:103A1000BB0B802DBF01FF2793585F4F3AF09E3FAD
:103A2000510578F00C944B1B0C94961B5F3FE4F30C
:103A3000983ED4F3869577956795B795F7959F5FF0
:103A4000C9F7880F911D9695879597F90895E1E03C
:103A5000660F771F881FBB1F621773078407BA079B
:103A600020F0621B730B840BBA0BEE1F88F7E095F6
:103A700008950E94401D6894B1110C94961B0895FE
:103A80000E947B1B88F09F5798F0B92F9927B75158
:103A9000B0F0E1F0660F771F881F991F1AF0BA95F2
:103AA000C9F714C0B13091F00E94951BB1E00895A0
:103AB0000C94951B672F782F8827B85F39F0B93F92
:103AC000CCF3869577956795B395D9F73EF49095A5
:103AD0008095709561957F4F8F4F9F4F0895DF932D
:103AE000CF931F930F93FF92EF92DF927B018C0194
:103AF000689406C0DA2EEF010E94F11AFE01E894E4
:103B0000A5912591359145915591A6F3EF010E941C
:103B1000001CFE019701A801DA9469F7DF90EF908D
:103B2000FF900F911F91CF91DF9108950E94BA1AD3
:103B300008F48FEF08959B01AC0160E070E080E82D
:103B40009FE30C94C71C19F416F40C94511B0C94AD
:103B5000F21D0E947B1BB8F39923C9F3B6F39F575C
:103B6000550B87FF0E94001E0024A0E640EA90014A
:103B700080585695979528F4805C660F771F881FAC
:103B800020F026173707480730F4621B730B840BAD
:103B9000202931294A2BA6951794079420253125F1
:103BA0004A2758F7660F771F881F20F02617370718
:103BB000480730F4620B730B840B200D311D411D3F
:103BC000A09581F7B901842F9158880F9695879514
:103BD00008959B01AC010C94DE1A0E94BA1A880B5E
:103BE000990B08959F3F31F0915020F48795779578
:103BF0006795B795880F911D9695879597F90895C4
:103C000091505040660F771F881FD2F70895AA1B66
:103C1000BB1B51E107C0AA1FBB1FA617B70710F0B7
:103C2000A61BB70B881F991F5A95A9F780959095E9
:103C3000BC01CD01089597FB072E16F4009407D020
:103C400077FD09D00E94071E07FC05D03EF4909531
:103C500081959F4F0895709561957F4F0895052E2A
:103C600097FB1EF400940E94461E57FD07D00E9449
:103C7000AC1B07FC03D04EF40C94461E50954095A7
:103C8000309521953F4F4F4F5F4F08959095809508
:103C9000709561957F4F8F4F9F4F0895EE0FFF1FD7
:103CA0000590F491E02D09940F931F93CF93DF9328
:103CB0008230910510F482E090E0E091FF06F091EF
:103CC000000730E020E0B0E0A0E0309799F4211543
:103CD000310509F44AC0281B390B24303105D8F5C9
:103CE0008A819B816115710589F1FB019383828330
:103CF000FE0111C04081518102811381481759078B
:103D0000E0F04817590799F4109761F012960C9358
:103D1000129713961C933296CF01DF91CF911F918A
:103D20000F9108950093FF0610930007F4CF21151B
:103D3000310551F04217530738F0A901DB019A0110
:103D4000BD01DF01F801C1CFEF01F9CF909300076A
:103D50008093FF06CDCFFE01E20FF31F8193919375
:103D60002250310939832883D7CF2091FD06309125
:103D7000FE06232B41F4209103013091040130937E
:103D8000FE062093FD0620910101309102012115CC
:103D9000310541F42DB73EB7409105015091060120
:103DA000241B350BE091FD06F091FE06E217F307A8
:103DB000A0F42E1B3F0B2817390778F0AC014E5F9B
:103DC0005F4F2417350748F04E0F5F1F5093FE06D4
:103DD0004093FD06819391939FCFF0E0E0E09CCF6C
:103DE000CF93DF930097E9F0FC01329713821282A0
:103DF000A091FF06B0910007ED0130E020E01097A0
:103E0000A1F420813181820F931F2091FD06309112
:103E1000FE062817390709F061C0F093FE06E0930B
:103E2000FD06DF91CF910895EA01CE17DF07E8F58F
:103E30004A815B819E0141155105B1F7E901FB8380
:103E4000EA8349915991C40FD51FEC17FD0761F41E
:103E5000808191810296840F951FE901998388835F
:103E6000828193819B838A83F0E0E0E012968D91BA
:103E70009C9113970097B9F52D913C911197CD0125
:103E80000296820F931F2091FD063091FE0628179F
:103E9000390739F6309751F5109200071092FF0656
:103EA000B093FE06A093FD06BCCFD383C2834081AE
:103EB0005181840F951FC817D90761F44E5F5F4F7A
:103EC00088819981480F591F518340838A819B8142
:103ED000938382832115310509F0B0CFF093000759
:103EE000E093FF069ECFFD01DC01C0CF138212825A
:103EF000D7CFF894FFCF0100000107800001000038
:103F000000000000000000010000000000000000B0
:103F1000000100000000000000000001000000009F
:103F2000007304D3030004C00431040F042304000D
:103F30000000008F0A620ABE0A380A5B0A480A3982
:103F40000A000000001405E004E108E50C590775BB
:103F500006B3065F062D060C06D805B705610532C7
:103F6000050D0A004D6F76696E672070697463688D
:103F700020002062792000207374657073006E61E8
:103F80006E00696E66006F766600526573657474C4
:103F9000696E6720746F20686F6D6520706F73693C
:103FA00074696F6E2E2E2E0043757272656E7420CA
:103FB00070697463683A200020486F6D65206F66F1
:103FC000667365743A200020446966666572656EA2
:103FD00063653A20004F4E004F46460042696E6FBF
:103FE00063756C617220436F6E74726F6C205374D2
:103FF000617274696E672E2E2E00486F6D65206F9A
:1040000066667365742063616C696272617465646D
:1040100020746F3A200049522052656365697665C5
:104020007220456E61626C65640053657475702022
:10403000436F6D706C65746521000A436F6E747216
:104040006F6C733A0049522052656D6F7465206F32
:10405000722053657269616C3A0032202D204D6FD9
:1040600076652055700038202D204D6F76652044F0
:104070006F776E0034202D204D6F7665204C65667D
:10408000740036202D204D6F766520526967687464
:104090000035202D20526573657420746F20486FA1
:1040A0006D6520506F736974696F6E000A416464B6
:1040B0006974696F6E616C2053657269616C20432D
:1040C0006F6D6D616E64733A0074202D2052756EB1
:1040D00020546573742053657175656E6365006463
:1040E000202D20546F67676C6520446562756720DA
:1040F0004D6F646500495220436F646520526563CB
:1041000065697665643A203078004D6F76696E6730
:10411000205570004D6F76696E6720446F776E0092
:104120004D6F76696E67204C656674004D6F7669D9
:104130006E672052696768740052657365747469AC
:104140006E6720746F20486F6D650052756E6E69E2
:104150006E6720746573742073657175656E636531
:104160002E2E2E0054657374696E67207069746317
:10417000682075700054657374696E672070697487
:10418000636820646F776E0054657374696E67208E
:10419000796177206C6566740054657374696E6725
:1041A00020796177207269676874005465737420A0
:1041B00073657175656E636520636F6D706C657492
:1041C00065004465627567206D6F64653A20000084
:107E0000112484B714BE81FFF0D085E080938100F7
:107E100082E08093C00088E18093C10086E0809377
:107E2000C20080E18093C4008EE0C9D0259A86E02C
:107E300020E33CEF91E0309385002093840096BBD3
:107E4000B09BFECF1D9AA8958150A9F7CC24DD24C4
:107E500088248394B5E0AB2EA1E19A2EF3E0BF2EE7
:107E6000A2D0813461F49FD0082FAFD0023811F036
:107E7000013811F484E001C083E08DD089C08234E0
:107E800011F484E103C0853419F485E0A6D080C0E4
:107E9000853579F488D0E82EFF2485D0082F10E0AE
:107EA000102F00270E291F29000F111F8ED06801E7
:107EB0006FC0863521F484E090D080E0DECF843638
:107EC00009F040C070D06FD0082F6DD080E0C81688
:107ED00080E7D80618F4F601B7BEE895C0E0D1E017
:107EE00062D089930C17E1F7F0E0CF16F0E7DF06D8
:107EF00018F0F601B7BEE89568D007B600FCFDCFD4
:107F0000A601A0E0B1E02C9130E011968C91119780
:107F100090E0982F8827822B932B1296FA010C0160
:107F200087BEE89511244E5F5F4FF1E0A038BF0790
:107F300051F7F601A7BEE89507B600FCFDCF97BE46
:107F4000E89526C08437B1F42ED02DD0F82E2BD052
:107F50003CD0F601EF2C8F010F5F1F4F84911BD097
:107F6000EA94F801C1F70894C11CD11CFA94CF0C13
:107F7000D11C0EC0853739F428D08EE10CD085E9AC
:107F80000AD08FE07ACF813511F488E018D01DD067
:107F900080E101D065CF982F8091C00085FFFCCF94
:107FA0009093C60008958091C00087FFFCCF809118
:107FB000C00084FD01C0A8958091C6000895E0E648
:107FC000F0E098E1908380830895EDDF803219F02E
:107FD00088E0F5DFFFCF84E1DECF1F93182FE3DFCA
:107FE0001150E9F7F2DF1F91089580E0E8DFEE27F6
:047FF000FF270994CA
:027FFE00040479
:00000001FF
