:020000040000FA
:100000000C945D000C9485000C9485000C94850084
:100010000C9485000C9485000C9485000C9485004C
:100020000C9485000C9485000C9485000C9485003C
:100030000C9485000C9485000C9485000C9485002C
:100040000C94500C0C9485000C94C00C0C949A0CDD
:100050000C9485000C9485000C9485000C9485000C
:100060000C94F20C0C9485000000000800020100C2
:100070000003040700000000000000000000000072
:10008000250028002B0000000000240027002A0083
:10009000040404040404040402020202020203032E
:1000A0000303030301020408102040800102040836
:1000B0001020010204081020A60E11241FBECFEF4D
:1000C000D8E0DEBFCDBF23E0A8E5B1E001C01D92BE
:1000D000A137B207E1F711E0A0E0B1E0E0E3F1E31E
:1000E00002C005900D92A835B107D9F710E0CDE513
:1000F000D0E004C02197FE010E945216CC35D107F2
:10010000C9F70E94F90E0C9496180C94000090E028
:10011000FC01EC55FF4F249180579F4FFC018491C7
:10012000882399F090E0880F991FFC01EA57FF4F50
:10013000A591B491FC01E458FF4F859194918FB73C
:10014000F894EC91E22BEC938FBF08958091D60147
:100150009091D501891B990B08952F923F924F9250
:100160005F926F927F928F929F92AF92BF92CF9247
:10017000DF92EF92FF920F931F93CF93DF9300D004
:1001800000D01F92CDB7DEB75C019090E4027C01F5
:1001900020ED32E03D832C8300E01A821B82212C6B
:1001A00010E09016D1F1D7016D917D918D919D91C7
:1001B0007D01EC81FD81C190D190FD83EC83D6015E
:1001C00050964D905D906D907C9053976419750991
:1001D0008609970997FF07C090958095709561955E
:1001E0007F4F8F4F9F4F0E945313F601248D358D03
:1001F000468D578D0E941715762E872E6C012A8109
:100200003B81422D512F0E94BF15181624F47A828B
:100210008B822C2C1D2D0F5FC4CF20E030E0A90174
:100220006A817B81822D912F0E94BF1518160CF0D8
:10023000C5C019828091E402F981F81708F0BEC0A8
:100240002F2F30E0F901EE0FFF1FEE0FFF1FEA0D19
:10025000FB1D4080518062807380220F331F3D83DD
:100260002C83F901E053FD4FE080F180F701808994
:100270009189A289B389A3019201281B390B4A0BEA
:100280005B0BCA01B9010E9453132A813B81422DA5
:10029000512F0E941715362E872E982E092FF70101
:1002A00084899589A689B789481659066A067B0606
:1002B00061F0448A558A668A778A0190F081E02D40
:1002C0000084F185E02DC7010995EC81FD81E053A3
:1002D000FD4F208131813D832C83D90158962D918A
:1002E0003D914D915C915B97632D782D892D902FD9
:1002F0000E944C138823E9F1EC81FD81448C558CDC
:10030000668C778C73016201F7FAF094F7F8F09439
:10031000A7019601632D782D892D902F0E944C13F3
:1003200087FD10C0A3019201632D782D892D902F98
:100330000E94BF1573016201181624F0C32CD82C3B
:10034000E92CF02E20E030E0A901C701B6010E949F
:100350004C13811112C0AC81BD8113961D921D9268
:100360001D921C921697EC81FD81C08ED18EE28E7B
:10037000F38EF981FF5FF9835DCFA701960160E0FD
:1003800074E284E799E40E9417159F770E94901504
:10039000EC81FD81638374838583968301E020E093
:1003A00030E0A901C701B6010E94BF1518160CF074
:1003B00000E0AC81BD8112960C93D5CF0F900F90C9
:1003C0000F900F900F90DF91CF911F910F91FF90A1
:1003D000EF90DF90CF90BF90AF909F908F907F90E5
:1003E0006F905F904F903F902F90089590E0FC01A8
:1003F000E859FF4F2491FC01EC55FF4F3491FC016B
:10040000E057FF4FE491EE23C9F0222339F0233067
:1004100001F1A8F4213019F1223029F1F0E0EE0FBA
:10042000FF1FE458FF4FA591B4918FB7F894EC915A
:10043000611126C030953E233C938FBF089527302D
:10044000A9F02830C9F0243049F7809180008F7DD1
:1004500003C0809180008F7780938000DFCF84B5C8
:100460008F7784BDDBCF84B58F7DFBCF8091B000CB
:100470008F778093B000D2CF8091B0008F7DF9CF7D
:100480003E2BDACF3FB7F8948091B1019091B20141
:10049000A091B301B091B40126B5A89B05C02F3F30
:1004A00019F00196A11DB11D3FBFBA2FA92F982F9A
:1004B0008827BC01CD01620F711D811D911D42E095
:1004C000660F771F881F991F4A95D1F70895CF921D
:1004D000DF92EF92FF921F93CF93DF9380E010E0C3
:1004E0009091E402191708F059C0E12FF0E0EE0FE7
:1004F000FF1FE053FD4FC081D181CC88DD88EE889D
:10050000FF88488959896A897B89C416D506E60619
:10051000F70649F08B819C81AD81BE81892B8A2BA6
:100520008B2B19F481E01F5FDBCF0E9442026B012D
:100530007C0188A599A5AAA5BBA5B701A601481B62
:10054000590B6A0B7B0B8B819C81AD81BE81481757
:1005500059076A077B0730F388899989AA89BB897B
:100560002A812223B9F00196A11DB11D888B998B98
:10057000AA8BBB8B488959896A897B89E881F98173
:100580000484F585E02DCE010995C8A6D9A6EAA672
:10059000FBA6C8CF0197A109B109E8CF81119ECF71
:1005A000DF91CF911F91FF90EF90DF90CF90089552
:1005B0002FB7F8946091AD017091AE018091AF01B9
:1005C0009091B0012FBF089508950895AF92BF9202
:1005D000CF92DF92EF92FF920F931F93CF93DF930F
:1005E0006C017B018B01040F151FEB015E01AE183E
:1005F000BF08C017D10759F06991D601ED91FC9160
:100600000190F081E02DC6010995892B79F7C5018C
:10061000DF91CF911F910F91FF90EF90DF90CF90DE
:10062000BF90AF900895FC01538D448D252F30E08D
:10063000842F90E0821B930B541710F0CF960895EF
:1006400001970895FC01918D828D981761F0A28D1C
:10065000AE0FBF2FB11D5D968C91928D9F5F9F73E2
:10066000928F90E008958FEF9FEF08950F931F935F
:100670000E94D80260932F0270933002809331025F
:100680009093320287E292E00E94220397FF1DC0FE
:100690000E94D80200912F02109130022091310265
:1006A00030913202601B710B820B930B00912B0275
:1006B00010912C0220912D0230912E0260177107AB
:1006C00082079307F8F28FEF9FEF1F910F91089524
:1006D000FC01918D828D981731F0828DE80FF11D0C
:1006E000858D90E008958FEF9FEF0895FC01918D27
:1006F000228D892F90E0805C9F4F821B91098F7320
:100700009927089587E292E00E94760321E0892BE1
:1007100009F420E0822F089580E090E0892B29F0F1
:100720000E94820381110C9400000895FC01A48DA5
:10073000A80FB92FB11DA35ABF4F2C91848D90E003
:1007400001968F739927848FA689B7892C93A089E6
:10075000B1898C91837080648C93938D848D981370
:1007600006C00288F389E02D80818F7D8083089503
:10077000EF92FF920F931F93CF93DF93EC0181E0F1
:10078000888F9B8D8C8D98131AC0E889F989808198
:1007900085FF15C09FB7F894EE89FF896083E889CB
:1007A000F98980818370806480839FBF81E090E0BD
:1007B000DF91CF911F910F91FF90EF900895F62E4A
:1007C0000B8D10E00F5F1F4F0F731127E02E8C8DE4
:1007D0008E110CC00FB607FCFACFE889F989808129
:1007E00085FFF5CFCE010E949603F1CFEB8DEC0F84
:1007F000FD2FF11DE35AFF4FF0829FB7F8940B8F46
:10080000EA89FB8980818062CFCFCF93DF93EC01AF
:10081000888D8823B9F0AA89BB89E889F9898C91E8
:1008200085FD03C0808186FD0DC00FB607FCF7CFA4
:100830008C9185FFF2CF808185FFEDCFCE010E94A4
:100840009603E9CFDF91CF91089520917901260F8A
:100850003327331F21323105ECF42091FD01FC01D7
:1008600090E080E0243069F082E00895A091790161
:100870002191AC01475A5E4FA40FB52FB11D2C93A7
:100880000196861798F380917901680F609379013A
:1008900080E0089581E008951092FD0181E0809349
:1008A000FC011092D70161E082E10E94F60161E053
:1008B00083E10E94F601E9EBF0E080818E7F808386
:1008C00080818D7F808388E48093B80085E4809365
:1008D000BC000895CF93DF9391E090935801882353
:1008E000B9F0C091B800D091BA008091BC008A7B69
:1008F0008093BC0060E082E10E94F60160E083E149
:100900000E94F6010E944C04D093BA00C093B80034
:10091000DF91CF9108958F929F92AF92BF92CF9225
:10092000DF92EF92FF920F931F93CF93DF93D091BB
:100930002602D13208F0D7C0182FC09125020E949C
:1009400042026B017C018091FD0181116BC082E04C
:100950008093FD011093FC018FEF8093FB011092B7
:10096000FA01D093F901A5E0B2E0E9EDF1E080E011
:10097000D81391C01092D8018091D801CC0FC82B08
:10098000C093D8018091D701813009F088C01092BE
:10099000D7010E9442026B017C018091D8018093B3
:1009A000BB008091FF0190910002A0910102B091E3
:1009B0000202892B8A2B8B2BA1F00E94420200910C
:1009C000FF011091000220910102309102026C1986
:1009D0007D098E099F09061717072807390708F4AC
:1009E00042C08091BC0083FDD8CF85EC8093BC00D1
:1009F0000E9442026B017C018091FD01823009F46A
:100A000050C08091FB018F3F09F46FC08091FB01C2
:100A1000803209F46CC08091FB01803309F469C015
:100A200084E026C08091FF0190910002A091010214
:100A3000B0910202892B8A2B8B2B09F484CF0E9460
:100A400042028090FF0190900002A0900102B090BD
:100A500002026C197D098E099F0986169706A80661
:100A6000B90608F070CF8091FE010E946A0485E00B
:100A7000109204021092260210920302DF91CF918D
:100A80001F910F91FF90EF90DF90CF90BF90AF90AC
:100A90009F908F9008959D9191938F5F69CF85EE80
:100AA000A5CF8091FF0190910002A0910102B09129
:100AB0000202892B8A2B8B2B09F49ECF0E944202C3
:100AC0000091FF0110910002209101023091020279
:100AD0006C197D098E099F09061717072807390722
:100AE00008F08ACFC0CF81E0C3CF80E0C1CF82E0E1
:100AF000BFCF83E0BDCF0895E091D5018091D601AD
:100B0000E81730F4F0E0EB54FE4F808190E0089558
:100B10008FEF9FEF08959091D5018091D6012FEF2F
:100B20003FEF981748F4E92FF0E0EB54FE4F208197
:100B300030E09F5F9093D501C9010895CF92DF9275
:100B4000EF92FF920F931F93CF93DF937C01CB0122
:100B50008A0120910302222389F0EB016B01C40E6C
:100B6000D51ECC15DD0569F06991D701ED91FC9199
:100B70000190F081E02DC7010995F3CF642F0E9409
:100B80002504C801DF91CF911F910F91FF90EF9045
:100B9000DF90CF900895CF93DF931F92CDB7DEB74C
:100BA0006983209103022223F9F02091260220324A
:100BB00058F021E030E0FC013383228390E080E0B4
:100BC0000F90DF91CF91089580910402E82FF0E01B
:100BD000EB5FFD4F998190838F5F80930402809338
:100BE000260281E090E0ECCF61E0CE0101960E9408
:100BF0002504F7CFCF93DF93EB0191E090930302AD
:100C000098E6909325021092040210922602682F13
:100C100084EC92E00E94CB05019781F441E050E022
:100C2000BE0184EC92E00E949E05019751F481E0A0
:100C30000E948B0490E0DF91CF9108958CEE9FEF9E
:100C4000FACF8BEE9FEFF7CF90E080E00895CF933F
:100C5000DF93FC012781222329F1EC0180850E948A
:100C6000870089850E9487008F81843011F0883049
:100C700099F48A850E9487008B850E9487008FA542
:100C80008F3F81F00E9487006EA581E068278FA5C5
:100C9000DF91CF910C94F601833011F0863079F713
:100CA0008A85EBCFDF91CF910895CF93DF93FC013D
:100CB00027812223A1F0EC010190F081E02D028434
:100CC000F385E02D60E009958FA58F3F41F00E94EC
:100CD00087006EA58FA5DF91CF910C94F601DF916F
:100CE000CF910895DC01ED91FC9122853385477009
:100CF0005527662777274150510961097109473007
:100D000051056105710560F4FA01E757F94F0C943C
:100D1000521693069506970699069B069D069F0612
:100D200061E0F901099465E0FCCF64E0FACF66E088
:100D3000F8CF62E0F6CF6AE0F4CF68E0F2CF69E086
:100D4000F0CFCF93DF93EC01CB01BA0126E030E086
:100D500040E050E00E943316623071058105910534
:100D600089F16CF46115710581059105D1F061304F
:100D7000710581059105F9F0DF91CF9108956430F7
:100D800071058105910561F124F1653071058105D9
:100D9000910591F7E881F9810284F385E02D66E001
:100DA00006C0E881F9810284F385E02D64E0CE017C
:100DB000DF91CF910994E881F9810284F385E02DD8
:100DC00065E0F5CFE881F9810284F385E02D61E0EB
:100DD000EECFE881F9810284F385E02D63E0E7CF6F
:100DE000E881F9810284F385E02D62E0E0CFDC0147
:100DF000ED91FC910284F385E02D43705527662721
:100E00007727423051056105710571F04330510576
:100E10006105710559F0413051056105710511F009
:100E200065E0099466E0FDCF6AE0FBCF69E0F9CFA9
:100E3000CF93DF93EC01CB01BA0123E030E040E037
:100E400050E00E943316613071058105910599F0DB
:100E50006230710581059105A9F0672B682B692B1C
:100E6000C1F4E881F9810284F385E02D64E0CE01CC
:100E7000DF91CF910994E881F9810284F385E02D17
:100E800061E0F5CFE881F9810284F385E02D62E02D
:100E9000EECFDF91CF910895DC01ED91FC910284BA
:100EA000F385E02D4370552766277727423051059B
:100EB0006105710571F0433051056105710559F007
:100EC000413051056105710511F062E0099463E05C
:100ED000FDCF61E0FBCF60E0F9CFCF93DF93EC0172
:100EE000E881F9810284F385E02D8A8160E0811137
:100EF00062E0CE010995E881F9810284F385E02D55
:100F00008A8161E0811163E0CE0109958CA59DA5E0
:100F10008230910538F0880F991F880F991F059727
:100F20000197F1F7E881F9810284F385E02D8A8148
:100F300060E0811162E0CE01DF91CF910994CF93FF
:100F4000DF93EC0120E030E0A901688D798D8A8D76
:100F50009B8D0E94BF1518162CF4E8A9F9A9DF9102
:100F6000CF910994EAA9FBA9FACFCF92DF92EF9231
:100F7000FF920F931F93CF93DF93DC011796CC91D1
:100F8000C43039F0C83059F1C33019F0C63049F1D6
:100F9000C2E08C01085F1F4FF12CE12CC62ED12C32
:100FA000D1E0F8016481C6010E2C02C095958795A9
:100FB0000A94E2F780FD6D270F5F1F4F80810E942A
:100FC000F601BFEFEB1AFB0AEC1658F3DF91CF9155
:100FD0001F910F91FF90EF90DF90CF900895C4E0A4
:100FE000D8CFC3E0D6CFDC011796EC911797E93044
:100FF00008F038C0F0E0E150F84F0C9452160808A1
:101000000E0814081A0820083208260832082C088E
:10101000ED91FC910684F785E02D0994ED91FC910A
:101020000088F189E02DF9CFED91FC910288F389D8
:10103000E02DF3CFED91FC910488F589E02DEDCF03
:10104000ED91FC910688F789E02DE7CFED91FC91B9
:10105000008CF18DE02DE1CFED91FC91028CF38DB0
:10106000E02DDBCF08954F925F926F927F928F9227
:101070009F92AF92BF92CF92DF92EF92FF920F9327
:101080001F93CF93DF93EC01CC88DD88EE88FF8837
:1010900088899989AA89BB89C81AD90AEA0AFB0AE8
:1010A000688D798D8A8D9B8D9B01AC010E94B21356
:1010B0004B015C0168A179A18AA19BA19B01AC01B4
:1010C0000E94AB149B01AC01C501B4010E9417152D
:1010D0000E948915C114D104E104F10409F0B6C0DD
:1010E00062307105810591050CF0D0C01B821C8215
:1010F0001D821E82188E198E1A8E1B8E1CAA1DAA86
:101100001EAA1FAAC12CD12C7601C701B601DF91FE
:10111000CF911F910F91FF90EF90DF90CF90BF90F4
:10112000AF909F908F907F906F905F904F900895B9
:101130001016110612061306B4F46C157D058E0503
:101140009F051CF42A812111A1C09B01AC018827B5
:101150009927DC01821B930BA40BB50B8CAB9DABC9
:10116000AEABBFAB93C0011511052105310509F4E4
:101170008DC06C157D058E059F050CF087C08A819A
:10118000882309F483C030952095109501951F4F51
:101190002F4F3F4F0CAB1DAB2EAB3FAB77C00115B4
:1011A00011052105310509F471C0882499245401E1
:1011B0008C189D08AE08BF08681579058A059B053F
:1011C0000CF064C08A81811161C0DDCFCCACDDAC94
:1011D000EEACFFACA7019601C701B6010E94AB14AB
:1011E0002B013C01C501B4010E94531320E030E003
:1011F00040E850E40E94B21320E030E040E85FE3B2
:101200000E94AB149B01AC01C301B2010E941715EF
:101210009B01AC01C701B6010E94AA143B016C01FD
:10122000FE01E05CFF4FE080F180028113819701B5
:10123000A8010E94BF15181614F473018601C70196
:10124000D8018CAF9DAFAEAFBFAF3AC00CA91DA9FE
:101250002EA93FA91C141D041E041F040CF468CF02
:1012600010161106120613060CF099CF002711274D
:1012700098010C191D092E093F0960177107820793
:1012800093070CF062CF2A8121115FCF8CA89DA813
:10129000AEA8BFA881149104A104B10409F096CFAF
:1012A00088AD99ADAAADBBAD8CAF9DAFAEAFBFAFB2
:1012B00081E01C141D041E041F040CF080E08A83CE
:1012C0003FEF831A930AA30AB30A8CAA9DAAAEAA77
:1012D000BFAA8CAC9DACAEACBFACC501B4010E9442
:1012E00090156B017C01CB82DC82ED82FE82A50130
:1012F000940160E074E284E799E40E941715688F16
:10130000798F8A8F9B8F2A812111FFCE9058688F09
:10131000798F8A8F9B8FF9CECF92DF92EF92FF92D7
:10132000CF93DF93EC01688D798D8A8D9B8D9B0126
:10133000AC010E94B2136B017C0168A179A18AA162
:101340009BA19B01AC010E94AB149B01AC01C701A6
:10135000B6010E9417150E9489156CAB7DAB8EAB50
:101360009FABCE01DF91CF91FF90EF90DF90CF90B8
:101370000C94330808954F925F926F927F928F92F0
:101380009F92AF92BF92CF92DF92EF92FF920F9314
:101390001F93CF937B016A0191E09093030298E63B
:1013A000909325021092040210922602682F84EC7A
:1013B00092E00E94CB0506EF1FEF019709F0DEC017
:1013C00080E00E948B04082F10E00115110509F040
:1013D000D5C00E9442024B015C018091FD01811148
:1013E00065C0CC2D81E08093FD018093FC019FEFCF
:1013F0009093FB011092FA019C0D9093F901809358
:10140000D8018091D801806D8093D8018091D70157
:10141000813009F08AC01092D7010E9442024B012C
:101420005C018091D8018093BB008091FF01909175
:101430000002A0910102B0910202892B8A2B8B2B12
:10144000A1F00E9442024090FF0150900002609083
:10145000010270900202681979098A099B094616EF
:1014600057066806790608F442C08091BC0083FDE7
:10147000D8CF85EC8093BC000E9442024B015C01F6
:101480008091FD01813009F452C08091FA018C17DE
:1014900010F4C091FA01A9EDB1E0E5EBF1E080E0D4
:1014A0008C1751F19D9191938F5FFACF8091FF013D
:1014B00090910002A0910102B0910202892B8A2B27
:1014C0008B2B09F48ACF0E9442024090FF0150907A
:1014D00000026090010270900202681979098A097D
:1014E0009B09461657066806790608F076CF809164
:1014F000FE010E946A04C0E01092D501C093D6019B
:101500005701F12CE12C8091D501C81791F1CE142F
:10151000DF04A1F184EC92E00E948B059FEFE91AB1
:10152000F90AF50181935F01EECF85EEA3CF80919B
:10153000FF0190910002A0910102B0910202892B5B
:101540008A2B8B2B09F49CCF0E9442024090FF0112
:1015500050900002609001027090020268197909AF
:101560008A099B09461657066806790608F088CF4F
:10157000BECFCE14DF0411F005EF1FEFC801CF91ED
:101580001F910F91FF90EF90DF90CF90BF90AF90A1
:101590009F908F907F906F905F904F9008950F93E2
:1015A0001F93CF93DF93EC0188819981009759F0C5
:1015B0002A813B812617370730F081E0DF91CF91F8
:1015C0001F910F9108958B016F5F7F4F0E94B3179A
:1015D000009759F0998388831B830A832C813D816E
:1015E000232B59F7FC011082E8CF80E0E7CFCF939F
:1015F000DF93EC0188819981009711F00E942A17EE
:10160000198218821D821C821B821A82DF91CF915F
:101610000895CF93DF93EC0170E060E00E94CF0A61
:10162000811105C0CE01DF91CF910C94F70A1D8284
:101630001C8266E571E088819981DF91CF910C94DD
:1016400084189F92AF92BF92CF92DF92EF92FF9257
:101650000F931F93CF93DF93EC016B015A01790134
:101660002417350720F48B2D5901E42EF82E19820A
:1016700018821B821A821D821C82CE010E94090BD5
:10168000D60114960D911C91A016B10658F5E016DE
:10169000F10608F48701D601ED91FC911197E00F56
:1016A000F11F90801082ED90FC90EA0CFB1CE1147D
:1016B000F10471F0F70101900020E9F731975F0123
:1016C000AE18BF08B501CE010E94CF0A811117C024
:1016D000CE010E94F70AF60180819181080F191F3F
:1016E000D8019C92CE01DF91CF911F910F91FF9075
:1016F000EF90DF90CF90BF90AF909F900895BD8204
:10170000AC82B701888199810E948418E4CFFC01E2
:1017100080819181009711F00C942A1708950C9400
:101720002A1785ED8093BC008091FF019091000203
:10173000A0910102B09102020796A11DB11D23E004
:10174000B695A795979587952A95D1F72091BC00D6
:1017500024FD03C01092FD0108954091FF015091B6
:1017600000026091010270910202452B462B472B2B
:1017700069F30097A105B10541F02AE22A95F1F736
:1017800000C00197A109B109E1CF8091FE010C943D
:101790006A044F925F926F927F928F929F92AF9264
:1017A000BF92CF92DF92EF92FF92CF93DF93EC0143
:1017B0006A017B0120E030E0A901CB01B6010E9463
:1017C0004C1387FF04C0F7FAF094F7F8F09488A060
:1017D00099A0AAA0BBA0A7019601C501B4010E94CF
:1017E0004C13882309F44DC06CA97DA98EA99FA92B
:1017F0000E9453132B013C01A7019601C501B401BE
:101800000E9417159B01AC01C301B2010E94B213E3
:101810000E9489156CAB7DAB8EAB9FABA701960187
:1018200060E070E080E090E40E9417150E94CA1505
:1018300026E53EE04DE25FE30E94B21320E034E291
:1018400044E759E40E94B21368AF79AF8AAF9BAF07
:10185000C8A2D9A2EAA2FBA2E881F9810084F1859D
:10186000E02DCE01DF91CF91FF90EF90DF90CF90F0
:10187000BF90AF909F908F907F906F905F904F90B0
:101880000994DF91CF91FF90EF90DF90CF90BF90C0
:10189000AF909F908F907F906F905F904F90089542
:1018A0001F920F920FB60F9211242F933F938F9395
:1018B0009F93AF93BF938091AD019091AE01A091A2
:1018C000AF01B091B0013091AC0123E0230F2D376F
:1018D00058F50196A11DB11D2093AC018093AD0177
:1018E0009093AE01A093AF01B093B0018091B1018C
:1018F0009091B201A091B301B091B4010196A11DE4
:10190000B11D8093B1019093B201A093B301B09344
:10191000B401BF91AF919F918F913F912F910F9003
:101920000FBE0F901F90189526E8230F0296A11D59
:10193000B11DD2CF1F920F920FB60F9211242F9389
:101940003F934F935F936F937F938F939F93AF9347
:10195000BF93EF93FF9387E292E00E949603FF917B
:10196000EF91BF91AF919F918F917F916F915F9117
:101970004F913F912F910F900FBE0F901F90189590
:101980001F920F920FB60F9211242F938F939F9354
:10199000EF93FF93E0913702F09138028081E0915C
:1019A0003D02F0913E0282FD1BC090818091400279
:1019B0008F5F8F7320914102821741F0E0914002C6
:1019C000F0E0E95DFD4F958F80934002FF91EF912C
:1019D0009F918F912F910F900FBE0F901F90189590
:1019E0008081F4CF1F920F920FB60F9211242F9384
:1019F0003F934F935F936F937F938F939F93AF9397
:101A0000BF93EF93FF938091B900887F803609F4EC
:101A10004AC0F0F5883209F4A7C018F5803109F4FE
:101A20009BC0B8F4882309F4F9C0883009F494C045
:101A3000FF91EF91BF91AF919F918F917F916F91A6
:101A40005F914F913F912F910F900FBE0F901F907C
:101A50001895883109F488C0803251F78093FB01D2
:101A600014C0803409F49DC040F48033B9F3883346
:101A7000F9F68093FB0185ECB0C0803509F485C090
:101A8000883509F496C0883499F60E94910BD0CF1E
:101A9000883909F48CC038F5883729F050F4883635
:101AA00011F0803729F683E08093FD0110929B01AD
:101AB00057C0883809F47BC0803919F0803809F0A4
:101AC000B7CF80919B01803208F071C0E0919B01FB
:101AD00081E08E0F80939B018091BB00F0E0E55880
:101AE000FE4F80833DC0803B39F0E0F4803A09F43A
:101AF00079C0883A09F09CCF84E08093FD01109270
:101B00007A0110927901E0919E01F0919F0109956F
:101B10008091790181110FC081E080937901109249
:101B2000590109C0803C09F4A6CF883C09F4A3CF31
:101B3000883B09F07DCFE0917A0181E08E0F8093A0
:101B40007A01F0E0E75AFE4F80818093BB009091CC
:101B50007A018091790129C08091D8018093BB00DE
:101B600085EC8093BC0064CF9091FA018091F901DB
:101B7000981758F5E091FA0181E08E0F8093FA01F1
:101B8000F0E0E752FE4F8081E9CFE091FA0181E079
:101B90008E0F8093FA018091BB00F0E0E752FE4F78
:101BA00080839091FA018091F9019817C8F285E835
:101BB000D8CFE091FA0181E08E0F8093FA018091F5
:101BC000BB00F0E0E752FE4F80838091FC01811161
:101BD0005CCF81E08093D70184EA8093BC001092AF
:101BE000FD0126CF85EC8093BC001092FD01809111
:101BF0009B01803230F4E0919B01F0E0E558FE4F0C
:101C0000108260919B0170E0E0919C01F0919D0138
:101C10008BE791E0099510929B010ACF1092FB018E
:101C200034CFCF92DF92EF92FF920F931F93CF9317
:101C3000DF93EC018E2DE6E1F1E0F983E8836F8319
:101C4000188A198A1A8A1B8A1C8A1D8A1E8A1F8A68
:101C5000188E198E1A8E1B8E1C8E1D8E1E8E1F8E38
:101C600018A219A21AA21BA2C12CD12C90E8E92E0D
:101C70009FE3F92ECCA2DDA2EEA2FFA21B821C8262
:101C80001D821E8261E070E07DA76CA79FEF9FA779
:101C900018A619A61AA61BA6488729870A878B8724
:101CA0001EA61CAA1DAA1EAA1FAA18AE19AE1AAEFD
:101CB0001BAE1CAE1DAE1EAE1FAE8E01005C1F4FD4
:101CC000F801C082D182E282F3821A821C861D86CC
:101CD0001E861F86CE010E942706B701A601CE01EF
:101CE0000E94C90BA70196016C8D7D8D8E8D9F8DF5
:101CF0000E944C13882309F1CC8EDD8EEE8EFF8E70
:101D000080E094E2A4E7B9E4F80180839183A283A0
:101D1000B3838CA99DA9AEA9BFA9181619061A06E6
:101D20001B065CF4CE01DF91CF911F910F91FF90C4
:101D3000EF90DF90CF900C948C09DF91CF911F91A1
:101D40000F91FF90EF90DF90CF900895EF920F9357
:101D5000E7E2F2E01382128288EE93E0A0E0B0E0C6
:101D600084839583A683B78326E331E03183208380
:101D700025EC30E03587248724EC30E03787268750
:101D800020EC30E0318B208B21EC30E0338B228B48
:101D900022EC30E0358B248B26EC30E0378B268B21
:101DA000118E128E138E148EE4ECF2E013821282E6
:101DB00084839583A683B78388E491E091838083AD
:101DC00085E0E82E04E025E044E061E089E293E06C
:101DD0000E94110E9AE0E92E0CE02BE04DE064E049
:101DE00085EE92E00E94110E1092E4020F91EF90A6
:101DF0000895CF93DF93CDB7DEB7E0970FB6F89491
:101E0000DEBF0FBECDBF789484B5826084BD84B53B
:101E1000816084BD85B5826085BD85B5816085BDE5
:101E200080916E00816080936E001092810080919D
:101E30008100826080938100809181008160809325
:101E40008100809180008160809380008091B1004A
:101E500084608093B1008091B00081608093B00075
:101E600080917A00846080937A0080917A00826009
:101E700080937A0080917A00816080937A008091CB
:101E80007A00806880937A001092C100E091370256
:101E9000F091380282E08083E0913302F0913402C5
:101EA0001082E0913502F09136028FEC808310921F
:101EB0003F02E0913B02F0913C0286E08083E0919A
:101EC0003902F0913A02808180618083E091390289
:101ED000F0913A02808188608083E0913902F0912C
:101EE0003A02808180688083E0913902F0913A0261
:101EF00080818F7D80831092D5011092D60110923F
:101F00000402109226020E944C0484EE92E0909308
:101F10009F0180939E0185EE92E090939D018093B6
:101F20009C0119A6BE01675D7F4F8BE690E00E9481
:101F3000FA0581E08AA7BE01665D7F4F8AE190E0E5
:101F40000E94FA0588E08BA7BE01655D7F4F8BE19B
:101F500090E00E94FA0580E28CA7BE01645D7F4F8D
:101F600089E190E00E94FA0561E08DE00E94F601AF
:101F700004EF11E01DA61EA61FA618AA812C912C05
:101F80005401412C512C320146E050E0BE016F5FFC
:101F90007F4F83E490E00E94BB09811171C0898169
:101FA0009A81982789279827092E000CAA0BBB0B2A
:101FB000480E591E6A1E7B1E8B819C81982789279B
:101FC0009827092E000CAA0BBB0B880E991EAA1E7F
:101FD000BB1E8D819E81982789279827092E000C8A
:101FE000AA0BBB0B2DA53EA54FA558A9280F391F3D
:101FF0004A1F5B1F2DA73EA74FA758AB01501109E1
:1020000009F0C2CF44EFC42EDD24D394E12CF12C8F
:10201000C301B201A70196010E943316CA01B9019A
:102020000E945313609308017093090180930A0181
:1020300090930B01C501B401A70196010E943316CC
:10204000CA01B9010E945313609304017093050102
:1020500080930601909307016DA57EA58FA598A991
:10206000A70196010E943316CA01B9010E945313B9
:10207000609300017093010180930201909303012A
:1020800060E08DE00E94F60120E030E048EC52E490
:102090006091010370910203809103039091040306
:1020A0000E944C13882349F180E090E0A8ECB2E450
:1020B0008093010390930203A0930303B09304035E
:1020C00080E090E4ACE1B6E480932503909326038E
:1020D000A0932703B09328038091190390911A03CA
:1020E000A0911B03B0911C03181619061A061B06B3
:1020F00024F485EE92E00E948C0940E050E068EC08
:1021000072E485EE92E00E94C90B20E030E04AE7DD
:1021100054E4609145037091460380914703909188
:1021200048030E944C13882329F180E090E0AAE73D
:10213000B4E48093450390934603A0934703B09380
:1021400048038093690390936A03A0936B03B09351
:102150006C0380915D0390915E03A0915F03B09149
:102160006003181619061A061B0624F489E293E088
:102170000E948C0940E050E068EC72E489E293E050
:102180000E94C90BE091E402EA3068F481E08E0F0E
:102190008093E402F0E0EE0FFF1FE053FD4F89E271
:1021A00093E091838083E091E402EA3068F481E077
:1021B0008E0F8093E402F0E0EE0FFF1FE053FD4F1F
:1021C00085EE92E09183808398E6292E3324339420
:1021D00000E010E087E292E00E94760318161906EC
:1021E0000CF0AAC11CA21BA21EA21DA218A61FA20F
:1021F000CE0183960E94090B0E943603EFA0F8A43B
:1022000097FD1DC08A309105D1F089831A823FEF76
:10221000E31AF30AB701CE0183960E94CF0A8823FE
:1022200059F32BA13CA18FA198A5BE016F5F7F4FF1
:10223000820F931F0E948418F8A6EFA2DDCFABA0F7
:10224000BCA0A114B10429F06501E114F10409F066
:1022500080C1CFA0D8A4C114D10409F469C1ABA036
:10226000BCA06CE270E0C5010E9479187C01EA18FC
:10227000FB08892B19F4EE24EA94FE2CF501EC0DF1
:10228000FD1D90801082ABA0BCA06CE270E0C50187
:102290000E948B18CA0CDB1CF6019082009709F48F
:1022A00047C13FEFE316F30609F442C12BA13CA15D
:1022B0006C01C21AD30A4FEFC416D40609F438C110
:1022C000EC14FD0409F434C1A7014F5F5F4F960180
:1022D000BE016D5D7F4FCE014D960E94210B2FA157
:1022E00038A5A6014F5F5F4FBE016D5D7F4FCE01E8
:1022F00047960E94210B8D8D9E8D009709F462C137
:102300000E9407137B018F89988D009709F45EC1A5
:102310000E940713762E672E58EC569F9001579F08
:10232000300D1124C901B1010E941F16CB01770F96
:10233000AA0BBB0B8F87988BA98BBA8BC7018E32E8
:10234000910514F08DE290E0833DEFEF9E0714F4C9
:1023500083ED9FEF4C01990FAA08BB088B8A9C8ADA
:10236000AD8ABE8ACE010F960E94AD000E94670220
:102370000E94D802C090A801D090A901E090AA01C3
:10238000F090AB019B01AC012C193D094E095F098E
:1023900069017A0130EDC31637E0D306E104F10498
:1023A00008F4BEC06093A8017093A9018093AA01AC
:1023B0009093AB010E94D8026DA77EA78FA798AB20
:1023C0004EE050E0BE016F5F7F4F8BE390E00E94D4
:1023D000BB09811123C06D857E8576276727762707
:1023E000072E000C880B990B0E94531320910001BB
:1023F0003091010140910201509103010E94AA1401
:1024000020E030E043E852E40E9417156093A401F5
:102410007093A5018093A6019093A70120E030E07E
:1024200040EF51E46091A4017091A5018091A60153
:102430009091A7010E9417152091A0013091A10150
:102440004091A2015091A3010E94AB146B017C0149
:10245000C092A001D092A101E092A201F092A3014A
:10246000672D762D77FF03C0719561957109072E51
:10247000000C880B990B0E9453132B013C0120E0A8
:1024800030E0A901C701B6010E94BF15181624F05B
:10249000F7FAF094F7F8F094A7019601C301B2019E
:1024A0000E94AA1420E030E048E453E40E94B213F2
:1024B00020E030E044EB53E40E9417150E94891598
:1024C0006F87788B898B9A8B8B8A9C8AAD8ABE8A20
:1024D000CE010F960E94AD000E9467020E94D802B2
:1024E0002DA53EA54FA558A9621B730B840B950B18
:1024F0000E9451139B01AC0166E575E585E092E40D
:102500000E94AA140E9490156B017C010E94420255
:102510004B015C01C114D104E104F10409F06BC06A
:10252000CE0147960E94870BCE014D960E94870BE5
:10253000CE0183960E94870B0115110509F44ACE3E
:102540000E948203882309F443CE0E94000040CEFB
:10255000640146014FEF841A940AF6018081082E27
:10256000000C990B0E944313892B91F7F1E0EF1AAD
:10257000F108EA0CFB1CF7018081082E000C990B76
:102580000E944313892B39F0EC14FD0420F0F1E094
:10259000EF1AF108F0CF2FEFE21AF20AA7014C1957
:1025A0005D0958A74FA3AC14BD0420F4B601C501C2
:1025B0000E947018EBA1FCA18FA198A5E80FF91F4C
:1025C000108247CE60E070E0CB019CCE60E070E00E
:1025D000CB01A0CE31E0C31AD108E108F10848EEE2
:1025E000840E43E0941EA11CB11CC114D104E1046B
:1025F000F10409F48FCF0E944202681979098A090F
:102600009B09683E73408105910520F783CF1F9396
:10261000FC0199278827BC01E89411911032E9F355
:10262000193010F01E30C8F31B3251F01D3249F43E
:10263000689406C00E942E13610F711D811D911DAB
:10264000119110531A30B0F33EF490958095709527
:1026500061957F4F8F4F9F4F1F910895592F482F9E
:10266000372F262F660F771F881F991F660F771F3A
:10267000881F991F620F731F841F951F660F771F96
:10268000881F991F089591110C941F14803219F01E
:1026900089508550C8F708950E948E1308F481E090
:1026A0000895E89409C097FB3EF490958095709545
:1026B00061957F4F8F4F9F4F9923A9F0F92F96E98E
:1026C000BB279395F695879577956795B795F11103
:1026D000F8CFFAF4BB0F11F460FF1BC06F5F7F4FA0
:1026E0008F4F9F4F16C0882311F096E911C07723B2
:1026F00021F09EE8872F762F05C0662371F096E8BB
:10270000862F70E060E02AF09A95660F771F881F89
:10271000DAF7880F9695879597F90895990F00082D
:10272000550FAA0BE0E8FEEF16161706E807F907A3
:10273000C0F012161306E407F50798F0621B730B3E
:10274000840B950B39F40A2661F0232B242B252BBF
:1027500021F408950A2609F4A140A6958FEF811D62
:10276000811D08950E94C5130C9439140E942B14E6
:1027700038F00E94321420F0952311F00C942214AA
:102780000C94281411240C946D140E944A1470F3B4
:10279000959FC1F3950F50E0551F629FF001729F06
:1027A000BB27F00DB11D639FAA27F00DB11DAA1F15
:1027B000649F6627B00DA11D661F829F2227B00D62
:1027C000A11D621F739FB00DA11D621F839FA00DED
:1027D000611D221F749F3327A00D611D231F849F3D
:1027E000600D211D822F762F6A2F11249F57504094
:1027F0009AF0F1F088234AF0EE0FFF1FBB1F661F0F
:10280000771F881F91505040A9F79E3F510580F0D7
:102810000C9422140C946D145F3FE4F3983ED4F3AF
:10282000869577956795B795F795E7959F5FC1F77B
:10283000FE2B880F911D9695879597F908959927F6
:102840008827089597F99F6780E870E060E0089511
:102850009FEF80EC089500240A94161617061806B8
:102860000906089500240A94121613061406050694
:102870000895092E0394000C11F4882352F0BB0F25
:1028800040F4BF2B11F460FF04C06F5F7F4F8F4F88
:102890009F4F089557FD9058440F551F59F05F3FC3
:1028A00071F04795880F97FB991F61F09F3F79F072
:1028B00087950895121613061406551FF2CF4695F4
:1028C000F1DF08C0161617061806991FF1CF869576
:1028D0007105610508940895E894BB27662777275A
:1028E000CB0197F908952F923F924F925F926F928A
:1028F0007F928F929F92AF92BF92CF92DF92EF9290
:10290000FF920F931F93CF93DF93CDB7DEB7CA1B10
:10291000DB0B0FB6F894DEBF0FBECDBF09942A883B
:10292000398848885F846E847D848C849B84AA84E3
:10293000B984C884DF80EE80FD800C811B81AA8170
:10294000B981CE0FD11D0FB6F894DEBF0FBECDBF3B
:10295000ED0108955058BB27AA270E94C2140C9479
:1029600039140E942B1438F00E94321420F039F4EC
:102970009F3F19F426F40C9428140EF4E095E7FB1D
:102980000C942214E92F0E944A1458F3BA176207D4
:1029900073078407950720F079F4A6F50C946C145E
:1029A0000EF4E0950B2EBA2FA02D0B01B90190016A
:1029B0000C01CA01A0011124FF27591B99F0593FAE
:1029C00050F4503E68F11A16F040A22F232F342FF6
:1029D0004427585FF3CF469537952795A795F04044
:1029E0005395C9F77EF41F16BA0B620B730B840B59
:1029F000BAF09150A1F0FF0FBB1F661F771F881F11
:102A0000C2F70EC0BA0F621F731F841F48F4879568
:102A100077956795B795F7959E3F08F0B0CF93955A
:102A2000880F08F09927EE0F9795879508950E94D3
:102A30002B150C9439140E94321458F00E942B1458
:102A400040F029F45F3F29F00C94221451110C94AA
:102A50006D140C9428140E944A1468F39923B1F35E
:102A6000552391F3951B550BBB27AA2762177307B4
:102A7000840738F09F5F5F4F220F331F441FAA1F48
:102A8000A9F335D00E2E3AF0E0E832D09150504004
:102A9000E695001CCAF72BD0FE2F29D0660F771FB2
:102AA000881FBB1F261737074807AB07B0E809F098
:102AB000BB0B802DBF01FF2793585F4F3AF09E3F1D
:102AC000510578F00C9422140C946D145F3FE4F3DC
:102AD000983ED4F3869577956795B795F7959F5F60
:102AE000C9F7880F911D9695879597F90895E1E0AC
:102AF000660F771F881FBB1F621773078407BA070B
:102B000020F0621B730B840BBA0BEE1F88F7E09565
:102B100008950E9490156894B1110C946D14089555
:102B20000E94521488F09F5798F0B92F9927B751F7
:102B3000B0F0E1F0660F771F881F991F1AF0BA9561
:102B4000C9F714C0B13091F00E946C14B1E008953F
:102B50000C946C14672F782F8827B85F39F0B93F31
:102B6000CCF3869577956795B395D9F73EF4909514
:102B70008095709561957F4F8F4F9F4F08950E946C
:102B80008E1308F48FEF089519F416F40C9428149A
:102B90000C940A160E945214B8F39923C9F3B6F3A1
:102BA0009F57550B87FF0E9418160024A0E640EAA5
:102BB000900180585695979528F4805C660F771F92
:102BC000881F20F026173707480730F4621B730B65
:102BD000840B202931294A2BA69517940794202588
:102BE00031254A2758F7660F771F881F20F02617D0
:102BF0003707480730F4620B730B840B200D311D2F
:102C0000411DA09581F7B901842F9158880F9695A1
:102C1000879508959F3F31F0915020F487957795DF
:102C20006795B795880F911D9695879597F90895A3
:102C300091505040660F771F881FD2F7089597FB79
:102C4000072E16F4009407D077FD09D00E9458167D
:102C500007FC05D03EF4909581959F4F089570959F
:102C600061957F4F0895052E97FB1EF400940E94F6
:102C70004A1657FD07D00E946C1607FC03D04EF48D
:102C80000C944A1650954095309521953F4F4F4FE3
:102C90005F4F089590958095709561957F4F8F4F08
:102CA0009F4F0895EE0FFF1F0590F491E02D0994BA
:102CB000AA1BBB1B51E107C0AA1FBB1FA617B70762
:102CC00010F0A61BB70B881F991F5A95A9F780957E
:102CD0009095BC01CD010895A1E21A2EAA1BBB1B41
:102CE000FD010DC0AA1FBB1FEE1FFF1FA217B307D8
:102CF000E407F50720F0A21BB30BE40BF50B661FEE
:102D0000771F881F991F1A9469F7609570958095B1
:102D100090959B01AC01BD01CF0108950F931F93C6
:102D2000CF93DF938230910510F482E090E0E09140
:102D30006F03F091700330E020E0B0E0A0E0309746
:102D400099F42115310509F44AC0281B390B2430A8
:102D50003105D8F58A819B816115710589F1FB01E7
:102D600093838283FE0111C04081518102811381CE
:102D700048175907E0F04817590799F4109761F080
:102D800012960C93129713961C933296CF01DF91F3
:102D9000CF911F910F91089500936F0310937003CB
:102DA000F4CF2115310551F04217530738F0A9012E
:102DB000DB019A01BD01DF01F801C1CFEF01F9CFBD
:102DC0009093700380936F03CDCFFE01E20FF31F4A
:102DD000819391932250310939832883D7CF209151
:102DE0006D0330916E03232B41F420910E0130913D
:102DF0000F0130936E0320936D0320910C013091ED
:102E00000D012115310541F42DB73EB74091100158
:102E100050911101241B350BE0916D03F0916E036D
:102E2000E217F307A0F42E1B3F0B2817390778F0A1
:102E3000AC014E5F5F4F2417350748F04E0F5F1F00
:102E400050936E0340936D03819391939FCFF0E075
:102E5000E0E09CCFCF93DF930097E9F0FC0132973D
:102E600013821282A0916F03B0917003ED0130E0E4
:102E700020E01097A1F420813181820F931F2091CF
:102E80006D0330916E032817390709F061C0F09384
:102E90006E03E0936D03DF91CF910895EA01CE17A1
:102EA000DF07E8F54A815B819E0141155105B1F7C5
:102EB000E901FB83EA8349915991C40FD51FEC17AF
:102EC000FD0761F4808191810296840F951FE901CD
:102ED00099838883828193819B838A83F0E0E0E0F9
:102EE00012968D919C9113970097B9F52D913C9175
:102EF0001197CD010296820F931F20916D0330919F
:102F00006E032817390739F6309751F51092700380
:102F100010926F03B0936E03A0936D03BCCFD38365
:102F2000C28340815181840F951FC817D90761F46E
:102F30004E5F5F4F88819981480F591F51834083AD
:102F40008A819B81938382832115310509F0B0CF5B
:102F5000F0937003E0936F039ECFFD01DC01C0CFBF
:102F600013821282D7CFB0E0A0E0E9EBF7E10C9436
:102F700075148C01009751F4CB010E948E168C01C0
:102F8000C801CDB7DEB7E0E10C949114FC01E60F67
:102F9000F71F9C0122503109E217F30708F49DC086
:102FA000D901CD91DC911197C617D70798F0C5309C
:102FB000D10530F3CE0104978617970708F3C61B97
:102FC000D70B2297C193D1936D937C93CF010E942D
:102FD0002A17D6CF5B01AC1ABD0A4C018C0E9D1E80
:102FE000A0916F03B0917003512C412CF12CE12C76
:102FF000109731F580916D0390916E0388159905B6
:1030000009F05CC04616570608F058C080910C01C4
:1030100090910D01009741F48DB79EB7409110013A
:1030200050911101841B950BE817F90708F055C062
:10303000F0936E03E0936D03F90171836083A0CF79
:103040008D919C91119712966C90129713967C908B
:103050001397A815B90559F56C0142E0C40ED11CAF
:10306000CA14DB0420F1AC014A195B09DA0112969B
:10307000159780F06282738251834083D9016D93EA
:103080007C93E114F10471F0D7011396FC93EE9355
:10309000129776CF22968C0F9D1FF9019183808322
:1030A000F301EFCFF0937003E0936F0369CF4816FD
:1030B000590608F42C017D01D3019ACFCB010E945F
:1030C0008E167C01009749F0AE01B8010E9470187D
:1030D000C8010E942A17870153CF10E000E050CFAB
:1030E000FB01DC0102C001900D9241505040D8F725
:1030F0000895FC018191861721F08823D9F799273B
:1031000008953197CF010895FB01DC0101900D92E4
:103110000020E1F70895FC0181E090E0019006169F
:1031200009F4CF010020D1F701970895F894FFCF5B
:103130000000A6C20000904100808CC30000710313
:1031400080000000000055062706BA098F0B3308DF
:10315000B507F3079F076D074C071807F706A10689
:10316000720600000000B803E602130305047603AC
:103170002203680300000000CB059E0524067B05A2
:08318000A6008B057C05000090
:107E0000112484B714BE81FFF0D085E080938100F7
:107E100082E08093C00088E18093C10086E0809377
:107E2000C20080E18093C4008EE0C9D0259A86E02C
:107E300020E33CEF91E0309385002093840096BBD3
:107E4000B09BFECF1D9AA8958150A9F7CC24DD24C4
:107E500088248394B5E0AB2EA1E19A2EF3E0BF2EE7
:107E6000A2D0813461F49FD0082FAFD0023811F036
:107E7000013811F484E001C083E08DD089C08234E0
:107E800011F484E103C0853419F485E0A6D080C0E4
:107E9000853579F488D0E82EFF2485D0082F10E0AE
:107EA000102F00270E291F29000F111F8ED06801E7
:107EB0006FC0863521F484E090D080E0DECF843638
:107EC00009F040C070D06FD0082F6DD080E0C81688
:107ED00080E7D80618F4F601B7BEE895C0E0D1E017
:107EE00062D089930C17E1F7F0E0CF16F0E7DF06D8
:107EF00018F0F601B7BEE89568D007B600FCFDCFD4
:107F0000A601A0E0B1E02C9130E011968C91119780
:107F100090E0982F8827822B932B1296FA010C0160
:107F200087BEE89511244E5F5F4FF1E0A038BF0790
:107F300051F7F601A7BEE89507B600FCFDCF97BE46
:107F4000E89526C08437B1F42ED02DD0F82E2BD052
:107F50003CD0F601EF2C8F010F5F1F4F84911BD097
:107F6000EA94F801C1F70894C11CD11CFA94CF0C13
:107F7000D11C0EC0853739F428D08EE10CD085E9AC
:107F80000AD08FE07ACF813511F488E018D01DD067
:107F900080E101D065CF982F8091C00085FFFCCF94
:107FA0009093C60008958091C00087FFFCCF809118
:107FB000C00084FD01C0A8958091C6000895E0E648
:107FC000F0E098E1908380830895EDDF803219F02E
:107FD00088E0F5DFFFCF84E1DECF1F93182FE3DFCA
:107FE0001150E9F7F2DF1F91089580E0E8DFEE27F6
:047FF000FF270994CA
:027FFE00040479
:00000001FF
