:020000040000FA
:100000000C9462000C948A000C948A000C948A0070
:100010000C948A000C948A000C948A000C948A0038
:100020000C948A000C948A000C948A000C948A0028
:100030000C948A000C948A000C948A000C948A0018
:100040000C9496020C948A000C9406030C94E00223
:100050000C948A000C948A000C948A000C948A00F8
:100060000C948A000C948A000000000024002700F1
:100070002A000000000023002600290000000000E4
:10008000250028002B0004040404040404040202D4
:100090000202020203030303030301020408102007
:1000A0004080010204081020010204081020000012
:1000B0000008000201000003040700000000000027
:1000C0000000710411241FBECFEFD8E0DEBFCDBF0A
:1000D00011E0A0E0B1E0E0E9F9E002C005900D9286
:1000E000AE33B107D9F721E0AEE3B1E001C01D9214
:1000F000A43EB207E1F710E0C2E6D0E004C02197C9
:10010000FE010E94C004C136D107C9F70E9438031E
:100110000C94C6040C940000833081F028F48130E4
:1001200099F08230A9F008958730A9F08830C9F09D
:100130008430B1F4809180008F7D03C08091800075
:100140008F7780938000089584B58F7784BD08955C
:1001500084B58F7DFBCF8091B0008F778093B00006
:1001600008958091B0008F7DF9CF1F93CF93DF93D7
:10017000E2EBF0E09491EEE9F0E0D491EAE8F0E00F
:10018000C491CC23B9F0182F992319F0892F0E941C
:100190008C00EC2FF0E0EE0FFF1FE458FF4FA5910D
:1001A000B4918FB7F894EC91111108C0D095DE236B
:1001B000DC938FBFDF91CF911F910895DE2BF8CF95
:1001C0008E50806480937C0080917A00806480935C
:1001D0007A0080917A0086FDFCCF80917800909122
:1001E000790008953FB7F8948091430190914401BC
:1001F000A0914501B091460126B5A89B05C02F3FAF
:1002000019F00196A11DB11D3FBFBA2FA92F982F3C
:100210008827BC01CD01620F711D811D911D42E037
:10022000660F771F881F991F4A95D1F70895AF92DF
:10023000BF92CF92DF92EF92FF920F931F93CF93D3
:10024000DF936C017B018B01040F151FEB015E0135
:10025000AE18BF08C017D10759F06991D601ED91CA
:10026000FC910190F081E02DC6010995892B79F769
:10027000C501DF91CF911F910F91FF90EF90DF901B
:10028000CF90BF90AF900895FC01538D448D252FE2
:1002900030E0842F90E0821B930B541710F0CF9620
:1002A000089501970895FC01918D828D981761F052
:1002B000A28DAE0FBF2FB11D5D968C91928D9F5F69
:1002C0009F73928F90E008958FEF9FEF0895FC0148
:1002D000918D828D981731F0828DE80FF11D858DFB
:1002E00090E008958FEF9FEF0895FC01918D228D8E
:1002F000892F90E0805C9F4F821B91098F73992713
:10030000089587E491E00E94750121E0892B09F4AA
:1003100020E0822F089580E090E0892B29F00E9450
:10032000810181110C9400000895FC01A48DA80F97
:10033000B92FB11DA35ABF4F2C91848D90E0019627
:100340008F739927848FA689B7892C93A089B18947
:100350008C91837080648C93938D848D981306C0E8
:100360000288F389E02D80818F7D80830895EF924C
:10037000FF920F931F93CF93DF93EC0181E0888F5F
:100380009B8D8C8D98131AC0E889F989808185FF2F
:1003900015C09FB7F894EE89FF896083E889F989D1
:1003A00080818370806480839FBF81E090E0DF91D3
:1003B000CF911F910F91FF90EF900895F62E0B8D26
:1003C00010E00F5F1F4F0F731127E02E8C8D8E11E1
:1003D0000CC00FB607FCFACFE889F989808185FF48
:1003E000F5CFCE010E949501F1CFEB8DEC0FFD2FE3
:1003F000F11DE35AFF4FF0829FB7F8940B8FEA8903
:10040000FB8980818062CFCFCF93DF93EC01888D11
:100410008823B9F0AA89BB89E889F9898C9185FD7F
:1004200003C0808186FD0DC00FB607FCF7CF8C910D
:1004300085FFF2CF808185FFEDCFCE010E9495012F
:10044000E9CFDF91CF910895FC0101900020E9F7F9
:100450003197AF01481B590BBC0187E491E00C9424
:1004600017018F929F92AF92BF920F931F93CF93DA
:10047000DF93CDB7DEB7A1970FB6F894DEBF0FBEFE
:10048000CDBF19A2423008F44AE08E010F5D1F4F24
:10049000842E912CB12CA12CA50194010E949E04C4
:1004A000E62FB901CA01EA30F4F4E05DD801EE9319
:1004B0008D01232B242B252B79F790E080E01097DA
:1004C00019F0CD010E942402A1960FB6F894DEBF68
:1004D0000FBECDBFDF91CF911F910F91BF90AF9015
:1004E0009F908F900895E95CE1CFCF92DF92EF92D9
:1004F000FF92CF93DF936B017C016DE287E491E083
:100500000E94B701EC0166277727CB016C197D09A2
:100510008E099F094AE00E9431028C0F9D1FDF91D6
:10052000CF91FF90EF90DF90CF9008951F920F92A0
:100530000FB60F9211242F933F938F939F93AF93F6
:10054000BF9380913F0190914001A0914101B091F2
:10055000420130913E0123E0230F2D3758F50196DB
:10056000A11DB11D20933E0180933F019093400156
:10057000A0934101B09342018091430190914401C5
:10058000A0914501B09146010196A11DB11D809336
:10059000430190934401A0934501B0934601BF915C
:1005A000AF919F918F913F912F910F900FBE0F9020
:1005B0001F90189526E8230F0296A11DB11DD2CFDA
:1005C0001F920F920FB60F9211242F933F934F93C8
:1005D0005F936F937F938F939F93AF93BF93EF93AB
:1005E000FF9387E491E00E949501FF91EF91BF9105
:1005F000AF919F918F917F916F915F914F913F91BB
:100600002F910F900FBE0F901F9018951F920F9271
:100610000FB60F9211242F938F939F93EF93FF9315
:10062000E0915701F09158018081E0915D01F091D6
:100630005E0182FD1BC09081809160018F5F8F738E
:1006400020916101821741F0E0916001F0E0E95BE7
:10065000FE4F958F80936001FF91EF919F918F9155
:100660002F910F900FBE0F901F9018958081F4CF9F
:10067000789484B5826084BD84B5816084BD85B57D
:10068000826085BD85B5816085BD80916E00816089
:1006900080936E001092810080918100826080932F
:1006A0008100809181008160809381008091800031
:1006B0008160809380008091B10084608093B1005C
:1006C0008091B00081608093B00080917A00846056
:1006D00080937A0080917A00826080937A00809182
:1006E0007A00816080937A0080917A00806880939C
:1006F0007A001092C100E0915701F091580182E018
:100700008083E0915301F09154011082E0915501F2
:10071000F09156018FEC808310925F01E0915B01B4
:10072000F0915C0186E08083E0915901F0915A01DB
:10073000808180618083E0915901F0915A0180812C
:1007400088608083E0915901F0915A01808180682E
:100750008083E0915901F0915A0180818F7D8083DF
:10076000CEE9D0E0FE0124910AE810E0F80184917E
:10077000882399F090E0880F991FFC01E859FF4FFA
:10078000A591B491FC01E458FF4F859194918FB7E6
:10079000F8949C91292B2C938FBF80E00E94B50088
:1007A00022EB822E20E0922E30E0A32E30E0B32EFA
:1007B0008EE00E94E0006C018FE00E94E0007C016E
:1007C00082E191E00E942402B6010D2C000C880BFE
:1007D000990B97FF7EC00E94750283E291E00E9410
:1007E0002402B7010F2C000C880B990B97FF75C0E2
:1007F0000E94750287E291E00E942402F5E8CF167C
:10080000F3E0DF0634F480E025E8E21623E0F206A8
:100810000CF081E00E94B5008AE291E00E9424027F
:10082000F4018491FE01E490F801F49070E060E03E
:10083000FF2099F081110E948C00EF2DF0E0EE0F67
:10084000FF1FEE58FF4FA591B4918C91E82291E0E3
:1008500080E009F490E0692F782F072E000C880BB8
:10086000990B4AE00E94310287E291E00E94240243
:100870000E94F2006B017C0184EF482E55245394B2
:10088000612C712C0E94F2006C197D098E099F0960
:10089000683E734081059105A8F3F1E04F1A5108B5
:1008A0006108710828EEC20E23E0D21EE11CF11C83
:1008B000411451046104710429F7A114B10409F42D
:1008C00077CF0E948101882309F472CF0E94000033
:1008D0006FCF4AE00E94310280CF4AE00E9431028D
:1008E00089CFE7E4F1E01382128288EE93E0A0E082
:1008F000B0E084839583A683B78384E091E09183FD
:10090000808385EC90E09587848784EC90E09787DE
:10091000868780EC90E0918B808B81EC90E0938BCC
:10092000828B82EC90E0958B848B86EC90E0978BA9
:10093000868B118E128E138E148E0895A1E21A2EBC
:10094000AA1BBB1BFD010DC0AA1FBB1FEE1FFF1F73
:10095000A217B307E407F50720F0A21BB30BE40BC3
:10096000F50B661F771F881F991F1A9469F760950A
:100970007095809590959B01AC01BD01CF010895C4
:10098000EE0FFF1F0590F491E02D0994F894FFCF2E
:1009900000000000B7011701440104027501530172
:1009A000670153656E736F72732056616C75657362
:1009B0003A2000202D20000D0A00707265737375B7
:0E09C000726520747269676765723A200000E4
:107E0000112484B714BE81FFF0D085E080938100F7
:107E100082E08093C00088E18093C10086E0809377
:107E2000C20080E18093C4008EE0C9D0259A86E02C
:107E300020E33CEF91E0309385002093840096BBD3
:107E4000B09BFECF1D9AA8958150A9F7CC24DD24C4
:107E500088248394B5E0AB2EA1E19A2EF3E0BF2EE7
:107E6000A2D0813461F49FD0082FAFD0023811F036
:107E7000013811F484E001C083E08DD089C08234E0
:107E800011F484E103C0853419F485E0A6D080C0E4
:107E9000853579F488D0E82EFF2485D0082F10E0AE
:107EA000102F00270E291F29000F111F8ED06801E7
:107EB0006FC0863521F484E090D080E0DECF843638
:107EC00009F040C070D06FD0082F6DD080E0C81688
:107ED00080E7D80618F4F601B7BEE895C0E0D1E017
:107EE00062D089930C17E1F7F0E0CF16F0E7DF06D8
:107EF00018F0F601B7BEE89568D007B600FCFDCFD4
:107F0000A601A0E0B1E02C9130E011968C91119780
:107F100090E0982F8827822B932B1296FA010C0160
:107F200087BEE89511244E5F5F4FF1E0A038BF0790
:107F300051F7F601A7BEE89507B600FCFDCF97BE46
:107F4000E89526C08437B1F42ED02DD0F82E2BD052
:107F50003CD0F601EF2C8F010F5F1F4F84911BD097
:107F6000EA94F801C1F70894C11CD11CFA94CF0C13
:107F7000D11C0EC0853739F428D08EE10CD085E9AC
:107F80000AD08FE07ACF813511F488E018D01DD067
:107F900080E101D065CF982F8091C00085FFFCCF94
:107FA0009093C60008958091C00087FFFCCF809118
:107FB000C00084FD01C0A8958091C6000895E0E648
:107FC000F0E098E1908380830895EDDF803219F02E
:107FD00088E0F5DFFFCF84E1DECF1F93182FE3DFCA
:107FE0001150E9F7F2DF1F91089580E0E8DFEE27F6
:047FF000FF270994CA
:027FFE00040479
:00000001FF
