:020000040000FA
:100000000C945D000C9485000C9485000C94850084
:100010000C9485000C9485000C9485000C9485004C
:100020000C9485000C9485000C9485000C9485003C
:100030000C9485000C9485000C9485000C9485002C
:100040000C9418050C9485000C9485000C94850084
:100050000C9485000C9485000C9485000C9485000C
:100060000C9485000C94850000000008000201003B
:100070000003040700000000000000000000000072
:10008000250028002B0000000000240027002A0083
:10009000040404040404040402020202020203032E
:1000A0000303030301020408102040800102040836
:1000B0001020010204081020AF0611241FBECFEF4C
:1000C000D8E0DEBFCDBF11E0A0E0B1E0E4E1F7E1B0
:1000D00002C005900D92A632B107D9F721E0A6E241
:1000E000B1E001C01D92A737B207E1F710E0CDE5FE
:1000F000D0E004C02197FE010E943B0ACC35D10715
:10010000C9F70E9462050C94880B0C94000090E0E3
:10011000FC01EC55FF4F249180579F4FFC018491C7
:10012000882399F090E0880F991FFC01EA57FF4F50
:10013000A591B491FC01E458FF4F859194918FB73C
:10014000F894EC91E22BEC938FBF089590E0FC01C2
:10015000E859FF4F2491FC01EC55FF4F3491FC010D
:10016000E057FF4FE491EE23C9F0222339F023300A
:1001700001F1A8F4213019F1223029F1F0E0EE0F5D
:10018000FF1FE458FF4FA591B4918FB7F894EC91FD
:10019000611126C030953E233C938FBF08952730D0
:1001A000A9F02830C9F0243049F7809180008F7D74
:1001B00003C0809180008F7780938000DFCF84B56B
:1001C0008F7784BDDBCF84B58F7DFBCF8091B0006E
:1001D0008F778093B000D2CF8091B0008F7DF9CF20
:1001E0003E2BDACFCF93DF93FC012781222329F125
:1001F000EC0180850E94870089850E9487008F819D
:10020000843011F0883099F48A850E9487008B85AC
:100210000E9487008FA58F3F81F00E9487006EA506
:1002200081E068278FA5DF91CF910C94A6008330E1
:1002300011F0863079F78A85EBCFDF91CF91089561
:10024000CF93DF93FC0127812223A1F0EC010190E1
:10025000F081E02D0284F385E02D60E009958FA503
:100260008F3F41F00E9487006EA58FA5DF91CF914F
:100270000C94A600DF91CF910895DC01ED91FC91E3
:1002800022853385477055276627772741505109C6
:1002900061097109473051056105710560F4FA0182
:1002A000EC5AFE4F0C943B0A5E016001620164014E
:1002B000660168016A0161E0F901099465E0FCCF1B
:1002C00064E0FACF66E0F8CF62E0F6CF6AE0F4CF00
:1002D00068E0F2CF69E0F0CFCF93DF93EC01CB0180
:1002E000BA0126E030E040E050E00E941C0A623093
:1002F00071058105910589F16CF461157105810520
:100300009105D1F06130710581059105F9F0DF911A
:10031000CF910895643071058105910561F124F153
:10032000653071058105910591F7E881F9810284B5
:10033000F385E02D66E006C0E881F9810284F3854B
:10034000E02D64E0CE01DF91CF910994E881F9813D
:100350000284F385E02D65E0F5CFE881F981028420
:10036000F385E02D61E0EECFE881F9810284F38529
:10037000E02D63E0E7CFE881F9810284F385E02D89
:1003800062E0E0CFDC01ED91FC910284F385E02D89
:10039000437055276627772742305105610571055F
:1003A00071F0433051056105710559F04130510537
:1003B0006105710511F065E0099466E0FDCF6AE022
:1003C000FBCF69E0F9CFCF93DF93EC01CB01BA010A
:1003D00023E030E040E050E00E941C0A61307105EB
:1003E0008105910599F06230710581059105A9F0AB
:1003F000672B682B692BC1F4E881F9810284F385AE
:10040000E02D64E0CE01DF91CF910994E881F9817C
:100410000284F385E02D61E0F5CFE881F981028463
:10042000F385E02D62E0EECFDF91CF910895DC01FE
:10043000ED91FC910284F385E02D437055276627EA
:100440007727423051056105710571F04330510540
:100450006105710559F0413051056105710511F0D3
:1004600062E0099463E0FDCF61E0FBCF60E0F9CF8B
:10047000CF93DF93EC01E881F9810284F385E02DCD
:100480008A8160E0811162E0CE010995E881F981FD
:100490000284F385E02D8A8161E0811163E0CE0161
:1004A00009958CA59DA58230910538F0880F991F7C
:1004B000880F991F05970197F1F7E881F981028468
:1004C000F385E02D8A8160E0811162E0CE01DF9149
:1004D000CF910994CF93DF93EC0120E030E0A901A4
:1004E000688D798D8A8D9B8D0E944F0918162CF48A
:1004F000E8A9F9A9DF91CF910994EAA9FBA9FACF5C
:10050000CF92DF92EF92FF920F931F93CF93DF93DF
:10051000DC011796CC91C43039F0C83059F1C330A2
:1005200019F0C63049F1C2E08C01085F1F4FF12C71
:10053000E12CC62ED12CD1E0F8016481C6010E2C2D
:1005400002C0959587950A94E2F780FD6D270F5FAD
:100550001F4F80810E94A600BFEFEB1AFB0AEC162A
:1005600058F3DF91CF911F910F91FF90EF90DF90A3
:10057000CF900895C4E0D8CFC3E0D6CFDC01179662
:10058000EC911797E93008F038C0F0E0E653FD4FE2
:100590000C943B0AD302D902DF02E502EB02FD0212
:1005A000F102FD02F702ED91FC910684F785E02D42
:1005B0000994ED91FC910088F189E02DF9CFED913E
:1005C000FC910288F389E02DF3CFED91FC91048832
:1005D000F589E02DEDCFED91FC910688F789E02DAE
:1005E000E7CFED91FC91008CF18DE02DE1CFED9105
:1005F000FC91028CF38DE02DDBCF08954F925F923A
:100600006F927F928F929F92AF92BF92CF92DF9222
:10061000EF92FF920F931F93CF93DF93EC01CC885F
:10062000DD88EE88FF8888899989AA89BB89C81ADC
:10063000D90AEA0AFB0A688D798D8A8D9B8D9B0108
:10064000AC010E9454094B015C0168A179A18AA107
:100650009BA19B01AC010E9484079B01AC01C501D9
:10066000B4010E94F5070E946708C114D104E10497
:10067000F10409F0B6C062307105810591050CF0F6
:10068000D0C01B821C821D821E82188E198E1A8E6B
:100690001B8E1CAA1DAA1EAA1FAAC12CD12C760132
:1006A000C701B601DF91CF911F910F91FF90EF909D
:1006B000DF90CF90BF90AF909F908F907F906F9082
:1006C0005F904F9008951016110612061306B4F4A9
:1006D0006C157D058E059F051CF42A812111A1C092
:1006E0009B01AC0188279927DC01821B930BA40B8B
:1006F000B50B8CAB9DABAEABBFAB93C00115110579
:100700002105310509F48DC06C157D058E059F0509
:100710000CF087C08A81882309F483C03095209526
:10072000109501951F4F2F4F3F4F0CAB1DAB2EABBC
:100730003FAB77C0011511052105310509F471C0E2
:100740008824992454018C189D08AE08BF086815A8
:1007500079058A059B050CF064C08A81811161C00E
:10076000DDCFCCACDDACEEACFFACA7019601C70190
:10077000B6010E9484072B013C01C501B4010E940F
:100780009F0820E030E040E850E40E94540920E057
:1007900030E040E85FE30E9484079B01AC01C301A5
:1007A000B2010E94F5079B01AC01C701B6010E948E
:1007B00083073B016C01FE01E05CFF4FE080F180AC
:1007C000028113819701A8010E944F09181614F4A1
:1007D00073018601C701D8018CAF9DAFAEAFBFAF2B
:1007E0003AC00CA91DA92EA93FA91C141D041E0462
:1007F0001F040CF468CF10161106120613060CF035
:1008000099CF0027112798010C191D092E093F09BE
:1008100060177107820793070CF062CF2A812111BC
:100820005FCF8CA89DA8AEA8BFA881149104A10495
:10083000B10409F096CF88AD99ADAAADBBAD8CAF30
:100840009DAFAEAFBFAF81E01C141D041E041F049A
:100850000CF080E08A833FEF831A930AA30AB30A5D
:100860008CAA9DAAAEAABFAA8CAC9DACAEACBFAC04
:10087000C501B4010E946E086B017C01CB82DC8251
:10088000ED82FE82A501940160E074E284E799E4C0
:100890000E94F507688F798F8A8F9B8F2A8121119B
:1008A000FFCE9058688F798F8A8F9B8FF9CECF9229
:1008B000DF92EF92FF92CF93DF93CFE2D1E0688D8A
:1008C000798D8A8D9B8D9B01AC010E9454096B012F
:1008D0007C0168A179A18AA19BA19B01AC010E9426
:1008E00084079B01AC01C701B6010E94F5070E9475
:1008F00067086CAB7DAB8EAB9FABCE01DF91CF9128
:10090000FF90EF90DF90CF900C94FE0208954F92ED
:100910005F926F927F928F929F92AF92BF92CF928F
:10092000DF92EF92FF926B017C0120E030E0A901A1
:100930000E94F00787FF04C0F7FAF094F7F8F094EC
:1009400080904F0190905001A0905101B0905201C1
:10095000A7019601C501B4010E94F007882309F49C
:1009600058C060916301709164018091650190911C
:1009700066010E949F082B013C01A7019601C50159
:10098000B4010E94F5079B01AC01C301B2010E94B2
:1009900054090E9467086093630170936401809317
:1009A000650190936601A701960160E070E080E028
:1009B00090E40E94F5070E94C70926E53EE04DE25B
:1009C0005FE30E94540920E034E244E759E40E94C6
:1009D0005409609367017093680180936901909353
:1009E0006A01C0924F01D0925001E0925101F09201
:1009F00052018FE291E0FF90EF90DF90CF90BF9097
:100A0000AF909F908F907F906F905F904F900C94DD
:100A1000FE02FF90EF90DF90CF90BF90AF909F903D
:100A20008F907F906F905F904F9008950C94FF0A85
:100A30001F920F920FB60F9211242F933F938F9313
:100A40009F93AF93BF9380912B0190912C01A09124
:100A50002D01B0912E0130912A0123E0230F2D3773
:100A600058F50196A11DB11D20932A0180932B01F9
:100A700090932C01A0932D01B0932E01809126011B
:100A800090912701A0912801B09129010196A11D03
:100A9000B11D8093260190932701A0932801B09364
:100AA0002901BF91AF919F918F913F912F910F900D
:100AB0000FBE0F901F90189526E8230F0296A11DD8
:100AC000B11DD2CF789484B5826084BD84B5816035
:100AD00084BD85B5826085BD85B5816085BD809109
:100AE0006E00816080936E00109281008091810081
:100AF0008260809381008091810081608093810079
:100B0000809180008160809380008091B10084603A
:100B10008093B1008091B00081608093B00080919B
:100B20007A00846080937A0080917A00826080935A
:100B30007A0080917A00816080937A0080917A00B7
:100B4000806880937A001092C10020E030E04AE78C
:100B500054E460914B0170914C0180914D01909152
:100B60004E010E94F007882319F180E090E0AAE787
:100B7000B4E480934B0190934C01A0934D01B0934A
:100B80004E0180936F0190937001A0937101B09317
:100B900072018091630190916401A0916501B0910F
:100BA0006601181619061A061B0614F40E9457044B
:100BB00060E070E086E194E40E9487048091430144
:100BC00090914401A0914501B0914601883C910566
:100BD000A105B10581F088EC90E0A0E0B0E0809341
:100BE000430190934401A0934501B09346018FE2E5
:100BF00091E00E94FE02C0E0D0E08091430190911C
:100C00004401A0914501B091460140913F015091AE
:100C10004001609141017091420184179507A60738
:100C2000B707C1F444275527BA01481B590B6A0B73
:100C30007B0B481759076A077B0761F04093430114
:100C40005093440160934501709346018FE291E017
:100C50000E94FE028091320190913301A0913401F3
:100C6000B0913501892B8A2B8B2B09F46EC03FB7CD
:100C7000F8948091260190912701A0912801B091CC
:100C8000290126B5A89B05C02F3F19F00196A11D8B
:100C9000B11D3FBFBA2FA92F982F88276C017D0166
:100CA000C20ED11CE11CF11C42E0CC0CDD1CEE1C80
:100CB000FF1C4A95D1F78091570190915801A0915E
:100CC0005901B0915A01B701A601481B590B6A0B93
:100CD0007B0B8091320190913301A0913401B0914E
:100CE0003501481759076A077B0778F180913F0162
:100CF00090914001A0914101B091420120913101B8
:100D0000222349F10196A11DB11D80933F019093CB
:100D10004001A0934101B093420140913F015091A5
:100D2000400160914101709142018FE291E00E9487
:100D3000BE02C0925701D0925801E0925901F09240
:100D40005A018FE291E00E94FE02209709F455CFEC
:100D50000E94000052CF0197A109B109D6CFCF92CE
:100D6000DF92EF92FF928AE091E0909330018093BE
:100D70002F0181E08093360110923F0110924001D3
:100D800010924101109242011092430110924401CD
:100D900010924501109246011092470110924801AD
:100DA0001092490110924A0110924B0110924C018D
:100DB00010924D0110924E0110924F01109250016D
:100DC0001092510110925201C12CD12C80E8E82ED2
:100DD0008FE3F82EC0925301D0925401E092550156
:100DE000F0925601109232011092330110923401A8
:100DF0001092350181E090E090935C0180935B015B
:100E00008FEF80935E01109257011092580110925B
:100E1000590110925A0194E09093370185E0809334
:100E200038019093390180933A0110925D0110923C
:100E30006301109264011092650110926601109294
:100E40006701109268011092690110926A01109274
:100E50006B0110926C0110926D0110926E01C092A4
:100E60006F01D0927001E0927101F09272011092C4
:100E7000310110923B0110923C0110923D01109201
:100E80003E018FE291E00E94F200C701B6010E948C
:100E90008704A701960160914B0170914C018091EC
:100EA0004D0190914E010E94F007882339F1C092C4
:100EB0004B01D0924C01E0924D01F0924E0180E046
:100EC00094E2A4E7B9E480936F0190937001A0933A
:100ED0007101B09372018091630190916401A091BE
:100EE0006501B0916601181619061A061B0634F43E
:100EF000FF90EF90DF90CF900C945704FF90EF900D
:100F0000DF90CF9008955058BB27AA270E949B07D7
:100F10000C9415090E94070938F00E940E0920F070
:100F200039F49F3F19F426F40C9404090EF4E0956B
:100F3000E7FB0C94FE08E92F0E94260958F3BA1724
:100F4000620773078407950720F079F4A6F50C94DF
:100F500048090EF4E0950B2EBA2FA02D0B01B90114
:100F600090010C01CA01A0011124FF27591B99F01F
:100F7000593F50F4503E68F11A16F040A22F232F2B
:100F8000342F4427585FF3CF469537952795A7957B
:100F9000F0405395C9F77EF41F16BA0B620B730B22
:100FA000840BBAF09150A1F0FF0FBB1F661F771F93
:100FB000881FC2F70EC0BA0F621F731F841F48F448
:100FC000879577956795B795F7959E3F08F0B0CFD1
:100FD0009395880F08F09927EE0F979587950895B8
:100FE0000E94DA0808F481E008950E9409080C9430
:100FF00015090E940E0958F00E94070940F029F4D3
:101000005F3F29F00C94FE0851110C9449090C948F
:1010100004090E94260968F39923B1F3552391F33B
:10102000951B550BBB27AA2762177307840738F057
:101030009F5F5F4F220F331F441FAA1FA9F335D0B4
:101040000E2E3AF0E0E832D091505040E695001C68
:10105000CAF72BD0FE2F29D0660F771F881FBB1F22
:10106000261737074807AB07B0E809F0BB0B802D00
:10107000BF01FF2793585F4F3AF09E3F510578F02C
:101080000C94FE080C9449095F3FE4F3983ED4F3B6
:10109000869577956795B795F7959F5FC9F7880F00
:1010A000911D9695879597F90895E1E0660F771F52
:1010B000881FBB1F621773078407BA0720F0621BE3
:1010C000730B840BBA0BEE1F88F7E09508950E940E
:1010D0006E086894B1110C94490908950E942E0974
:1010E00088F09F5798F0B92F9927B751B0F0E1F0E9
:1010F000660F771F881F991F1AF0BA95C9F714C099
:10110000B13091F00E944809B1E008950C9448096B
:10111000672F782F8827B85F39F0B93FCCF38695D1
:1011200077956795B395D9F73EF49095809570952E
:1011300061957F4F8F4F9F4F0895E89409C097FBAB
:101140003EF490958095709561957F4F8F4F9F4F9E
:101150009923A9F0F92F96E9BB279395F6958795E2
:1011600077956795B795F111F8CFFAF4BB0F11F4A5
:1011700060FF1BC06F5F7F4F8F4F9F4F16C088234C
:1011800011F096E911C0772321F09EE8872F762F82
:1011900005C0662371F096E8862F70E060E02AF0C3
:1011A0009A95660F771F881FDAF7880F96958795AF
:1011B00097F90895990F0008550FAA0BE0E8FEEF84
:1011C00016161706E807F907C0F012161306E4070B
:1011D000F50798F0621B730B840B950B39F40A2604
:1011E00061F0232B242B252B21F408950A2609F4E2
:1011F000A140A6958FEF811D811D089597F99F67E6
:1012000080E870E060E008959FEF80EC089500248E
:101210000A941616170618060906089500240A945B
:1012200012161306140605060895092E0394000CE1
:1012300011F4882352F0BB0F40F4BF2B11F460FF70
:1012400004C06F5F7F4F8F4F9F4F089557FD905899
:10125000440F551F59F05F3F71F04795880F97FB7A
:10126000991F61F09F3F79F0879508951216130634
:101270001406551FF2CF4695F1DF08C01616170663
:101280001806991FF1CF8695710561050894089598
:10129000E894BB2766277727CB0197F908950E942A
:1012A000DA0808F48FEF08950E9467090C94150975
:1012B0000E94070938F00E940E0920F0952311F0D2
:1012C0000C94FE080C94040911240C9449090E9402
:1012D000260970F3959FC1F3950F50E0551F629F4B
:1012E000F001729FBB27F00DB11D639FAA27F00D7F
:1012F000B11DAA1F649F6627B00DA11D661F829FA6
:101300002227B00DA11D621F739FB00DA11D621F8A
:10131000839FA00D611D221F749F3327A00D611DA7
:10132000231F849F600D211D822F762F6A2F112489
:101330009F5750409AF0F1F088234AF0EE0FFF1FBC
:10134000BB1F661F771F881F91505040A9F79E3F13
:10135000510580F00C94FE080C9449095F3FE4F3BA
:10136000983ED4F3869577956795B795F795E79569
:101370009F5FC1F7FE2B880F911D9695879597F972
:10138000089519F416F40C9404090C94070A0E94A9
:101390002E09B8F39923C9F3B6F39F57550B87FF6E
:1013A0000E94150A0024A0E640EA90018058569554
:1013B000979528F4805C660F771F881F20F026170A
:1013C0003707480730F4621B730B840B202931293F
:1013D0004A2BA69517940794202531254A2758F7BC
:1013E000660F771F881F20F026173707480730F44D
:1013F000620B730B840B200D311D411DA09581F7ED
:10140000B901842F9158880F9695879508959F3F2D
:1014100031F0915020F4879577956795B795880FAF
:10142000911D9695879597F9089591505040660FB4
:10143000771F881FD2F70895052E97FB1EF400949E
:101440000E94330A57FD07D00E94410A07FC03D0CF
:101450004EF40C94330A50954095309521953F4FAA
:101460004F4F5F4F089590958095709561957F4F90
:101470008F4F9F4F0895EE0FFF1F0590F491E02DC1
:101480000994A1E21A2EAA1BBB1BFD010DC0AA1FC5
:10149000BB1FEE1FFF1FA217B307E407F50720F0DD
:1014A000A21BB30BE40BF50B661F771F881F991F58
:1014B0001A9469F760957095809590959B01AC01A1
:1014C000BD01CF0108950F931F93CF93DF93823017
:1014D000910510F482E090E0E0917501F0917601C1
:1014E00030E020E0B0E0A0E0309799F4211531051C
:1014F00009F44AC0281B390B24303105D8F58A81FC
:101500009B816115710589F1FB0193838283FE0143
:1015100011C0408151810281138148175907E0F0C1
:101520004817590799F4109761F012960C93129787
:1015300013961C933296CF01DF91CF911F910F919B
:1015400008950093750110937601F4CF21153105AC
:1015500051F04217530738F0A901DB019A01BD0190
:10156000DF01F801C1CFEF01F9CF909376018093AD
:101570007501CDCFFE01E20FF31F819391932250AD
:10158000310939832883D7CF2091730130917401B9
:10159000232B41F420910201309103013093740117
:1015A0002093730120910001309101012115310533
:1015B00041F42DB73EB74091040150910501241B21
:1015C000350BE0917301F0917401E217F307A0F479
:1015D0002E1B3F0B2817390778F0AC014E5F5F4F89
:1015E0002417350748F04E0F5F1F50937401409346
:1015F0007301819391939FCFF0E0E0E09CCFCF9374
:10160000DF930097E9F0FC01329713821282A091D8
:101610007501B0917601ED0130E020E01097A1F462
:1016200020813181820F931F2091730130917401C9
:101630002817390709F061C0F0937401E093730132
:10164000DF91CF910895EA01CE17DF07E8F54A81CF
:101650005B819E0141155105B1F7E901FB83EA83E6
:1016600049915991C40FD51FEC17FD0761F4808192
:1016700091810296840F951FE90199838883828165
:1016800093819B838A83F0E0E0E012968D919C9198
:1016900013970097B9F52D913C911197CD010296C2
:1016A000820F931F2091730130917401281739071D
:1016B00039F6309751F51092760110927501B0937A
:1016C0007401A0937301BCCFD383C2834081518145
:1016D000840F951FC817D90761F44E5F5F4F88814B
:1016E0009981480F591F518340838A819B8193833D
:1016F00082832115310509F0B0CFF0937601E09394
:1017000075019ECFFD01DC01C0CF13821282D7CFBD
:10171000F894FFCF00007701800000000000200156
:10172000F20086041605FE028002BE026A0238023A
:0A1730001702E301C2016C013D0144
:107E0000112484B714BE81FFF0D085E080938100F7
:107E100082E08093C00088E18093C10086E0809377
:107E2000C20080E18093C4008EE0C9D0259A86E02C
:107E300020E33CEF91E0309385002093840096BBD3
:107E4000B09BFECF1D9AA8958150A9F7CC24DD24C4
:107E500088248394B5E0AB2EA1E19A2EF3E0BF2EE7
:107E6000A2D0813461F49FD0082FAFD0023811F036
:107E7000013811F484E001C083E08DD089C08234E0
:107E800011F484E103C0853419F485E0A6D080C0E4
:107E9000853579F488D0E82EFF2485D0082F10E0AE
:107EA000102F00270E291F29000F111F8ED06801E7
:107EB0006FC0863521F484E090D080E0DECF843638
:107EC00009F040C070D06FD0082F6DD080E0C81688
:107ED00080E7D80618F4F601B7BEE895C0E0D1E017
:107EE00062D089930C17E1F7F0E0CF16F0E7DF06D8
:107EF00018F0F601B7BEE89568D007B600FCFDCFD4
:107F0000A601A0E0B1E02C9130E011968C91119780
:107F100090E0982F8827822B932B1296FA010C0160
:107F200087BEE89511244E5F5F4FF1E0A038BF0790
:107F300051F7F601A7BEE89507B600FCFDCF97BE46
:107F4000E89526C08437B1F42ED02DD0F82E2BD052
:107F50003CD0F601EF2C8F010F5F1F4F84911BD097
:107F6000EA94F801C1F70894C11CD11CFA94CF0C13
:107F7000D11C0EC0853739F428D08EE10CD085E9AC
:107F80000AD08FE07ACF813511F488E018D01DD067
:107F900080E101D065CF982F8091C00085FFFCCF94
:107FA0009093C60008958091C00087FFFCCF809118
:107FB000C00084FD01C0A8958091C6000895E0E648
:107FC000F0E098E1908380830895EDDF803219F02E
:107FD00088E0F5DFFFCF84E1DECF1F93182FE3DFCA
:107FE0001150E9F7F2DF1F91089580E0E8DFEE27F6
:047FF000FF270994CA
:027FFE00040479
:00000001FF
