:100000000C9479000C94A1000C94A1000C94A10014
:100010000C94A1000C94A1000C94A1000C94A100DC
:100020000C94A1000C94A1000C94A1000C94A100CC
:100030000C94A1000C94A1000C94A1000C94A100BC
:100040000C94E70C0C94A1000C94570D0C94310DFA
:100050000C94A1000C94A1000C94A1000C94A1009C
:100060000C94890D0C94A100084AD73B3BCE016E3D
:1000700084BCBFFDC12F3D6C74319ABD56833DDAFF
:100080003D00C77F11BED9E4BB4C3E916BAAAABE0E
:10009000000000803F00000000002300260029002F
:1000A00000000000240027002A00000000002500B6
:1000B00028002B00040404040404040402020202C5
:1000C000020203030303030301020408102040801B
:1000D000010204081020010204081020000000089A
:1000E00000020100000304070000000000000000FF
:1000F0003F0F11241FBECFEFD8E0DEBFCDBF23E0FE
:10010000A0EAB1E001C01D92AF3BB207E1F711E0F8
:10011000A0E0B1E0ECEEF8E302C005900D92A03A49
:10012000B107D9F710E0C9E7D0E004C02197FE017C
:100130000E94681AC837D107C9F70E94830F0C9430
:10014000741C0C9400008091390290913802891B34
:10015000990B0895833081F028F4813099F0823032
:10016000A9F008958730A9F08830C9F08430B1F43F
:10017000809180008F7D03C0809180008F77809375
:100180008000089584B58F7784BD089584B58F7DF0
:10019000FBCF8091B0008F778093B000089580915D
:1001A000B0008F7DF9CF1F93CF93DF93282F30E0DE
:1001B000F901E452FF4F8491F901E853FF4FD491C4
:1001C000F901EC54FF4FC491CC23A9F0162F8111F3
:1001D0000E94AA00EC2FF0E0EE0FFF1FE655FF4F44
:1001E000A591B4918FB7F894EC91111108C0D095F6
:1001F000DE23DC938FBFDF91CF911F910895DE2B1B
:10020000F8CFCF93DF9390E0FC01E853FF4F2491A8
:100210008C549F4FFC0184918823D1F090E0880F8B
:10022000991FFC01E056FF4FA591B491FC01E655E2
:10023000FF4FC591D49161110EC09FB7F8948C9176
:10024000E22FE0958E238C932881E223E8839FBFE1
:10025000DF91CF9108958FB7F894EC91E22BEC9356
:100260008FBFF6CF3FB7F8948091100290911102A2
:10027000A0911202B091130226B5A89B05C02F3F92
:1002800019F00196A11DB11D3FBFBA2FA92F982FBC
:100290008827BC01CD01620F711D811D911D42E0B7
:1002A000660F771F881F991F4A95D1F70895089503
:1002B00008950895AF92BF92CF92DF92EF92FF928E
:1002C0000F931F93CF93DF936C017B018B01040F7E
:1002D000151FEB015E01AE18BF08C017D10759F01A
:1002E0006991D601ED91FC910190F081E02DC6015C
:1002F0000995892B79F7C501DF91CF911F910F9156
:10030000FF90EF90DF90CF90BF90AF900895FC01E9
:10031000538D448D252F30E0842F90E0821B930B6A
:10032000541710F0CF96089501970895FC01918D10
:10033000828D981761F0A28DAE0FBF2FB11D5D9613
:100340008C91928D9F5F9F73928F90E008958FEFB5
:100350009FEF08952FB7F8948091140290911502A1
:10036000A0911602B09117022FBF80939202909332
:100370009302A0939402B09395028AE892E00E94BF
:10038000960197FF26C02FB7F894809114029091A0
:100390001502A0911602B09117022FBF4091920250
:1003A000509193026091940270919502841B950B79
:1003B000A60BB70B40918E0250918F026091900274
:1003C0007091910284179507A607B707B0F28FEFD7
:1003D0009FEF0895FC01918D828D981731F0828DE9
:1003E000E80FF11D858D90E008958FEF9FEF089540
:1003F000FC01918D228D892F90E0805C9F4F821BA4
:1004000091098F73992708958AE892E00E94F80174
:1004100021E0892B09F420E0822F089580E090E00C
:10042000892B29F00E94040281110C940000089588
:10043000FC01A48DA80FB92FB11DA35ABF4F2C9159
:10044000848D90E001968F739927848FA689B78950
:100450002C93A089B1898C91837080648C93938D47
:10046000848D981306C00288F389E02D80818F7DEA
:1004700080830895EF92FF920F931F93CF93DF93A2
:10048000EC0181E0888F9B8D8C8D98131AC0E889D0
:10049000F989808185FF15C09FB7F894EE89FF899F
:1004A0006083E889F98980818370806480839FBF3D
:1004B00081E090E0DF91CF911F910F91FF90EF903D
:1004C0000895F62E0B8D10E00F5F1F4F0F7311274D
:1004D000E02E8C8D8E110CC00FB607FCFACFE88988
:1004E000F989808185FFF5CFCE010E941802F1CFF6
:1004F000EB8DEC0FFD2FF11DE35AFF4FF0829FB7FC
:10050000F8940B8FEA89FB8980818062CFCFCF93EB
:10051000DF93EC01888D8823B9F0AA89BB89E8892B
:10052000F9898C9185FD03C0808186FD0DC00FB6D1
:1005300007FCF7CF8C9185FFF2CF808185FFEDCF4F
:10054000CE010E941802E9CFDF91CF910895CF9399
:10055000DF93FC012781222359F1EC0161E08085C2
:100560000E94010161E089850E9401018F81843030
:1005700011F08830B1F461E08A850E94010161E0E8
:100580008B850E9401018FA58F3F91F061E00E9451
:1005900001016EA581E068278FA5DF91CF910C94B2
:1005A000D300833011F0863071F761E08A85E9CF9E
:1005B000DF91CF910895CF93DF93FC012781222310
:1005C000A9F0EC010190F081E02D0284F385E02D8B
:1005D00060E009958FA58F3F49F061E00E9401011D
:1005E0006EA58FA5DF91CF910C94D300DF91CF91B1
:1005F0000895DC01ED91FC912285338547705527E4
:100600006627772741505109610971094730510523
:100610006105710560F4FA01E05FFC4F0C94681A03
:100620001A031C031E03200322032403260361E094
:10063000F901099465E0FCCF64E0FACF66E0F8CFF9
:1006400062E0F6CF6AE0F4CF68E0F2CF69E0F0CF85
:10065000CF93DF93EC01CB01BA0126E030E040E01C
:1006600050E00E94491A623071058105910589F1B7
:100670006CF46115710581059105D1F0613071054A
:1006800081059105F9F0DF91CF91089564307105EE
:100690008105910561F124F16530710581059105B0
:1006A00091F7E881F9810284F385E02D66E006C0C8
:1006B000E881F9810284F385E02D64E0CE01DF91C9
:1006C000CF910994E881F9810284F385E02D65E0FA
:1006D000F5CFE881F9810284F385E02D61E0EECF6A
:1006E000E881F9810284F385E02D63E0E7CFE881BA
:1006F000F9810284F385E02D62E0E0CFDC01ED9129
:10070000FC910284F385E02D4370552766277727F7
:10071000423051056105710571F0433051056105A5
:10072000710559F0413051056105710511F065E021
:10073000099466E0FDCF6AE0FBCF69E0F9CFCF9383
:10074000DF93EC01CB01BA0123E030E040E050E060
:100750000E94491A613071058105910599F0623056
:10076000710581059105A9F0672B682B692BC1F4F0
:10077000E881F9810284F385E02D64E0CE01DF9108
:10078000CF910994E881F9810284F385E02D61E03D
:10079000F5CFE881F9810284F385E02D62E0EECFA8
:1007A000DF91CF910895DC01ED91FC910284F385F6
:1007B000E02D4370552766277727423051056105A4
:1007C000710571F0433051056105710559F04130F3
:1007D00051056105710511F062E0099463E0FDCFF8
:1007E00061E0FBCF60E0F9CFCF93DF93EC01E881CC
:1007F000F9810284F385E02D8A8160E0811162E055
:10080000CE010995E881F9810284F385E02D8A8182
:1008100061E0811163E0CE0109958CA59DA5823030
:10082000910538F0880F991F880F991F0597019738
:10083000F1F7E881F9810284F385E02D8A8160E097
:10084000811162E0CE01DF91CF910994CF93DF93C4
:10085000EC0120E030E0A901688D798D8A8D9B8DB7
:100860000E94771918162CF4E8A9F9A9DF91CF9105
:100870000994EAA9FBA9FACFCF92DF92EF92FF92F7
:100880000F931F93CF93DF93DC011796CC91C43065
:1008900039F0C83059F1C33019F0C63049F1C2E01F
:1008A0008C01085F1F4FF12CE12CC62ED12CD1E01A
:1008B000F8016481C6010E2C02C0959587950A94B3
:1008C000E2F780FD6D270F5F1F4F80810E94D300EC
:1008D000BFEFEB1AFB0AEC1658F3DF91CF911F9193
:1008E0000F91FF90EF90DF90CF900895C4E0D8CFA4
:1008F000C3E0D6CFDC011796EC911797E93008F0EA
:1009000038C0F0E0EA57FB4F0C94681A8F04950446
:100910009B04A104A704B904AD04B904B304ED9188
:10092000FC910684F785E02D0994ED91FC910088F7
:10093000F189E02DF9CFED91FC910288F389E02D4A
:10094000F3CFED91FC910488F589E02DEDCFED9189
:10095000FC910688F789E02DE7CFED91FC91008CA2
:10096000F18DE02DE1CFED91FC91028CF38DE02D26
:10097000DBCF08954F925F926F927F928F929F92FA
:10098000AF92BF92CF92DF92EF92FF920F931F939D
:10099000CF93DF93EC01CC88DD88EE88FF888889CF
:1009A0009989AA89BB89C81AD90AEA0AFB0A688DFB
:1009B000798D8A8D9B8D9B01AC010E94D1164B01D4
:1009C0005C0168A179A18AA19BA19B01AC010E9455
:1009D000CA179B01AC01C501B4010E94A8180E946E
:1009E0001A19C114D104E104F10409F0B6C062304F
:1009F0007105810591050CF0D0C01B821C821D82FF
:100A00001E82188E198E1A8E1B8E1CAA1DAA1EAA53
:100A10001FAAC12CD12C7601C701B601DF91CF915D
:100A20001F910F91FF90EF90DF90CF90BF90AF900C
:100A30009F908F907F906F905F904F9008951016C9
:100A4000110612061306B4F46C157D058E059F057C
:100A50001CF42A812111A1C09B01AC018827992790
:100A6000DC01821B930BA40BB50B8CAB9DABAEAB27
:100A7000BFAB93C0011511052105310509F48DC0E7
:100A80006C157D058E059F050CF087C08A81882333
:100A900009F483C030952095109501951F4F2F4F75
:100AA0003F4F0CAB1DAB2EAB3FAB77C00115110513
:100AB0002105310509F471C08824992454018C184A
:100AC0009D08AE08BF08681579058A059B050CF0DE
:100AD00064C08A81811161C0DDCFCCACDDACEEACED
:100AE000FFACA7019601C701B6010E94CA172B01EE
:100AF0003C01C501B4010E94721620E030E040E8DC
:100B000050E40E94D11620E030E040E85FE30E940C
:100B1000CA179B01AC01C301B2010E94A8189B0136
:100B2000AC01C701B6010E94C9173B016C01FE016F
:100B3000E05CFF4FE080F180028113819701A80102
:100B40000E947719181614F473018601C701D801A1
:100B50008CAF9DAFAEAFBFAF3AC00CA91DA92EA9F7
:100B60003FA91C141D041E041F040CF468CF1016AA
:100B70001106120613060CF099CF002711279801D1
:100B80000C191D092E093F09601771078207930789
:100B90000CF062CF2A8121115FCF8CA89DA8AEA84E
:100BA000BFA881149104A104B10409F096CF88ADC7
:100BB00099ADAAADBBAD8CAF9DAFAEAFBFAF81E07D
:100BC0001C141D041E041F040CF080E08A833FEFF8
:100BD000831A930AA30AB30A8CAA9DAAAEAABFAA33
:100BE0008CAC9DACAEACBFACC501B4010E94211968
:100BF0006B017C01CB82DC82ED82FE82A501940137
:100C000060E074E284E799E40E94A818688F798F05
:100C10008A8F9B8F2A812111FFCE9058688F798F00
:100C20008A8F9B8FF9CECF92DF92EF92FF92CF9374
:100C3000DF93EC01688D798D8A8D9B8D9B01AC01D2
:100C40000E94D1166B017C0168A179A18AA19BA1A8
:100C50009B01AC010E94CA179B01AC01C701B60100
:100C60000E94A8180E941A196CAB7DAB8EAB9FAB8B
:100C7000CE01DF91CF91FF90EF90DF90CF900C9459
:100C8000BA04CF92DF92EF92FF92CF93DF93EC0101
:100C90008B819C81AD81BE81892B8A2B8B2B99F115
:100CA0000E9432016B017C0188A599A5AAA5BBA56C
:100CB000B701A601481B590B6A0B7B0B8B819C81EA
:100CC000AD81BE81481759076A077B07E0F0888924
:100CD0009989AA89BB892A812223B1F10196A11D94
:100CE000B11D888B998BAA8BBB8B488959896A89DE
:100CF0007B89CE010E947A04C8A6D9A6EAA6FBA6E3
:100D0000CE010E94BA0420E030E0A901688D798DFF
:100D10008A8D9B8D0E946B1681111AC081E0CC8850
:100D2000DD88EE88FF88488959896A897B89C416DD
:100D3000D506E606F70609F480E0DF91CF91FF9033
:100D4000EF90DF90CF9008950197A109B109C9CF25
:100D500081E0F3CF08952091C201260F3327331F7E
:100D600021323105ECF420916002FC0190E080E03A
:100D7000243069F082E00895A091C2012191AC0174
:100D80004E555E4FA40FB52FB11D2C9301968617BB
:100D900098F38091C201680F6093C20180E00895CA
:100DA00081E008951092600281E080935F021092CA
:100DB0003A0261E082E10E94D30061E083E10E9497
:100DC000D300E9EBF0E080818E7F808380818D7F8E
:100DD000808388E48093B80085E48093BC00089504
:100DE000CF93DF9391E09093A1018823B9F0C09154
:100DF000B800D091BA008091BC008A7B8093BC007F
:100E000060E082E10E94D30060E083E10E94D300B1
:100E10000E94D206D093BA00C093B800DF91CF9160
:100E200008958F929F92AF92BF92CF92DF92EF92EE
:100E3000FF920F931F93CF93DF93D0918902D1320A
:100E400008F0D7C0182FC09188020E9432016B01B0
:100E50007C018091600281116BC082E0809360020E
:100E600010935F028FEF80935E0210925D02D09329
:100E70005C02A8E6B2E0ECE3F2E080E0D81391C0B7
:100E800010923B0280913B02CC0FC82BC0933B02D7
:100E900080913A02813009F088C010923A020E9493
:100EA00032016B017C0180913B028093BB008091F9
:100EB000620290916302A0916402B0916502892B55
:100EC0008A2B8B2BA1F00E943201009162021091BB
:100ED000630220916402309165026C197D098E09CC
:100EE0009F09061717072807390708F442C08091A1
:100EF000BC0083FDD8CF85EC8093BC000E943201FA
:100F00006B017C0180916002823009F450C08091B5
:100F10005E028F3F09F46FC080915E02803209F457
:100F20006CC080915E02803309F469C084E026C001
:100F30008091620290916302A0916402B091650277
:100F4000892B8A2B8B2B09F484CF0E94320180904D
:100F5000620290906302A0906402B09065026C19E6
:100F60007D098E099F0986169706A806B90608F01E
:100F700070CF809161020E94F00685E010926702B6
:100F80001092890210926602DF91CF911F910F910A
:100F9000FF90EF90DF90CF90BF90AF909F908F9099
:100FA00008959D9191938F5F69CF85EEA5CF809134
:100FB000620290916302A0916402B0916502892B54
:100FC0008A2B8B2B09F49ECF0E9432010091620282
:100FD0001091630220916402309165026C197D09C1
:100FE0008E099F09061717072807390708F08ACFC7
:100FF000C0CF81E0C3CF80E0C1CF82E0BFCF83E02C
:10100000BDCF0895E091380280913902E81730F49D
:10101000F0E0E85EFD4F808190E008958FEF9FEF54
:10102000089590913802809139022FEF3FEF981781
:1010300048F4E92FF0E0E85EFD4F208130E09F5F4B
:1010400090933802C9010895CF92DF92EF92FF92F8
:101050000F931F93CF93DF937C01CB018A012091E3
:101060006602222389F0EB016B01C40ED51ECC155C
:10107000DD0569F06991D701ED91FC910190F08156
:10108000E02DC7010995F3CF642F0E94AB06C8017C
:10109000DF91CF911F910F91FF90EF90DF90CF9054
:1010A0000895CF93DF931F92CDB7DEB76983209168
:1010B00066022223F9F020918902203258F021E0C3
:1010C00030E0FC013383228390E080E00F90DF91D9
:1010D000CF91089580916702E82FF0E0E859FD4F25
:1010E000998190838F5F809367028093890281E06A
:1010F00090E0ECCF61E0CE0101960E94AB06F7CF05
:10110000CF93DF93EB0191E09093660298E6909382
:1011100088021092670210928902682F87E293E09A
:101120000E945108019781F441E050E0BE0187E23E
:1011300093E00E942408019751F481E00E94110776
:1011400090E0DF91CF9108958CEE9FEFFACF8BEE78
:101150009FEFF7CF90E080E00895DC0114966D9149
:101160007C9150E040E046175707C1F0DC01ED915B
:10117000FC91309781F41092A001E0EAF1E0208127
:10118000022E000C330B205331092A30310540F474
:101190004F5F5F4FE8CFE40FF51FF1CF81E0089577
:1011A00080E00895FC0101900020E9F73197AF013C
:1011B000481B590BBC018AE892E00C945A018F92AB
:1011C0009F92AF92BF920F931F93CF93DF93CDB7B0
:1011D000DEB7A1970FB6F894DEBF0FBECDBF19A240
:1011E000423008F44AE08E010F5D1F4F842E912C8F
:1011F000B12CA12CA50194010E94271AE62FB90158
:10120000CA01EA30F4F4E05DD801EE938D01232B9E
:10121000242B252B79F790E080E0109719F0CD0171
:101220000E94D208A1960FB6F894DEBF0FBECDBFC4
:10123000DF91CF911F910F91BF90AF909F908F90B2
:101240000895E95CE1CF4F925F926F927F928F9207
:101250009F92AF92BF92CF92DF92EF92FF920F9345
:101260001F93CF937B016A0191E09093660298E609
:10127000909388021092670210928902682F87E289
:1012800093E00E94510806EF1FEF019709F0DEC0BE
:1012900080E00E941107082F10E00115110509F0E8
:1012A000D5C00E9432014B015C0180916002811126
:1012B00065C0CC2D81E08093600280935F029FEF38
:1012C00090935E0210925D029C0D90935C0280935D
:1012D0003B0280913B02806D80933B0280913A02F9
:1012E000813009F08AC010923A020E9432014B010B
:1012F0005C0180913B028093BB00809162029091DF
:101300006302A0916402B0916502892B8A2B8B2B1A
:10131000A1F00E94320140906202509063026090FE
:10132000640270906502681979098A099B0946165A
:1013300057066806790608F442C08091BC0083FD18
:10134000D8CF85EC8093BC000E9432014B015C0138
:1013500080916002813009F452C080915D028C1747
:1013600010F4C0915D02ACE3B2E0E8E1F2E080E0AD
:101370008C1751F19D9191938F5FFACF809162020A
:1013800090916302A0916402B0916502892B8A2B2F
:101390008B2B09F48ACF0E94320140906202509058
:1013A00063026090640270906502681979098A0985
:1013B0009B09461657066806790608F076CF809195
:1013C00061020E94F006C0E010923802C093390218
:1013D0005701F12CE12C80913802C81791F1CE14FD
:1013E000DF04A1F187E293E00E9411089FEFE91A60
:1013F000F90AF50181935F01EECF85EEA3CF8091CD
:10140000620290916302A0916402B0916502892BFF
:101410008A2B8B2B09F49CCF0E94320140906202F0
:1014200050906302609064027090650268197909B7
:101430008A099B09461657066806790608F088CF80
:10144000BECFCE14DF0411F005EF1FEFC801CF911E
:101450001F910F91FF90EF90DF90CF90BF90AF90D2
:101460009F908F907F906F905F904F9008954F92D4
:101470005F926F927F928F929F92AF92BF92CF9224
:10148000DF92EF92FF926B017C01AC019B010E9405
:10149000F219882381F086E591E0FF90EF90DF90CC
:1014A000CF90BF90AF909F908F907F906F905F9004
:1014B0004F900C94D20846015701E894B7F82FEFEB
:1014C0003FEF4FE75FE7C501B4010E94F2198111B8
:1014D0000DC02FEF3FEF4FE75FE7C501B4010E945A
:1014E0006B1618161CF48AE591E0D7CF2FEF3FEF6B
:1014F0004FE75FE4C701B6010E94771918161CF484
:101500008EE591E0CACF2FEF3FEF4FE75FECC701C9
:10151000B6010E946B1687FDF3CF20E030E0A901F1
:10152000C701B6010E946B16B12CA12C87FF0AC01F
:101530006DE28AE892E00E943A025C01F7FAF094C8
:10154000F7F8F0942AE037ED43EA5BE3C701B60110
:101550000E94CA172B013C010E9421196B017C01DA
:101560000E9470169B01AC01C301B2010E94C91711
:101570002B013C014AE0C701B6010E94DF087C0153
:10158000EA0CFB1C6EE28AE892E00E943A02E80E46
:10159000F91E20E030E040E251E4C301B2010E94B4
:1015A000D1162B013C010E9421194B01B12CA12C19
:1015B0004AE0C501B4010E94DF08E80EF91EC5012A
:1015C000B4010E9470169B01AC01C301B2010E94DC
:1015D000C91720E030E040E251E40E94D1160E9499
:1015E000211990E080E04AE00E94DF088E0D9F1DE7
:1015F000FF90EF90DF90CF90BF90AF909F908F9033
:101600007F906F905F904F9008954F925F926F928E
:101610007F928F929F92AF92BF92CF92DF92EF9282
:10162000FF92CF93DF93EC016A017B0120E030E071
:10163000A901CB01B6010E946B1687FF04C0F7FA1F
:10164000F094F7F8F09488A099A0AAA0BBA0A701F5
:101650009601C501B4010E946B16882309F44DC0A0
:101660006CA97DA98EA99FA90E9472162B013C012D
:10167000A7019601C501B4010E94A8189B01AC0105
:10168000C301B2010E94D1160E941A196CAB7DAB46
:101690008EAB9FABA701960160E070E080E090E424
:1016A0000E94A8180E94AE1926E53EE04DE25FE3D5
:1016B0000E94D11620E034E244E759E40E94D1169A
:1016C00068AF79AF8AAF9BAFC8A2D9A2EAA2FBA24A
:1016D000E881F9810084F185E02DCE01DF91CF9181
:1016E000FF90EF90DF90CF90BF90AF909F908F9042
:1016F0007F906F905F904F900994DF91CF91FF9012
:10170000EF90DF90CF90BF90AF909F908F907F90A1
:101710006F905F904F900895FC01808191810097B8
:1017200011F00C940A1B08950C940A1BAF92BF92FF
:10173000CF92DF92EF92FF920F931F93CF93DF939D
:10174000DC01CD90DC901197C114D10439F01496CE
:10175000CD91DC918C017601209761F4DF91CF91DE
:101760001F910F91FF90EF90DF90CF90BF90AF90BF
:10177000089575015701BFEFAB1ABB0AF7018081CD
:10178000082E000C990B0E946216892B91F7219765
:10179000CC0DDD1D8881082E000C990B0E9462166D
:1017A000892B29F0CE15DF0510F02197F3CFAE017C
:1017B0004F5F5F4F4E195F09D80115965C934E93AA
:1017C0001497CE14DF0420F4B701C6010E94501C08
:1017D000D801ED91FC91119714968D919C91E80F91
:1017E000F91F1082BBCF0F931F93CF93DF93EC01B0
:1017F00088819981009759F02A813B812617370704
:1018000030F081E0DF91CF911F910F9108958B010E
:101810006F5F7F4F0E94931B009759F099838883D5
:101820001B830A832C813D81232B59F7FC011082F5
:10183000E8CF80E0E7CFEF92FF920F931F93CF9313
:10184000DF93EC017B018A01BA010E94F30B28812E
:101850003981811114C02115310519F0C9010E9487
:101860000A1B198218821D821C821B821A82CE01D9
:10187000DF91CF911F910F91FF90EF9008951D83FD
:101880000C83B701C9010E946D1CF1CF50E040E00C
:101890006DE771E00C941B0CAF92BF92CF92DF9278
:1018A000EF92FF920F931F93CF93DF93EC016B01A5
:1018B0005A0179012417350720F48B2D5901E42EA4
:1018C000F82E198218821B821A821D821C82CE0178
:1018D0000E94460CD60114960D911C91A016B106DB
:1018E00028F5E016F10608F48701D601ED91FC9188
:1018F0001197E00FF11FF08010826D917C916A0DBD
:101900007B1D61157105F1F0FB0101900020E9F7E5
:101910003197AF01461B570BCE010E941B0CF601FD
:1019200080819181080F191FD801FC92CE01DF91AF
:10193000CF911F910F91FF90EF90DF90CF90BF90CC
:10194000AF90089588819981009711F00E940A1B39
:10195000198218821D821C821B821A82E0CF85EDBB
:101960008093BC008091620290916302A091640216
:10197000B09165020796A11DB11D23E0B695A7950C
:10198000979587952A95D1F72091BC0024FD03C037
:10199000109260020895409162025091630260913A
:1019A000640270916502452B462B472B69F3009723
:1019B000A105B10541F02AE22A95F1F700C001978F
:1019C000A109B109E1CF809161020C94F0061F9248
:1019D0000F920FB60F9211242F933F938F939F93E3
:1019E000AF93BF938091140290911502A0911602BB
:1019F000B091170230910F0223E0230F2D3758F5D5
:101A00000196A11DB11D20930F02809314029093A3
:101A10001502A0931602B0931702809110029091C4
:101A20001102A0911202B09113020196A11DB11DE5
:101A30008093100290931102A0931202B0931302AC
:101A4000BF91AF919F918F913F912F910F900FBEBA
:101A50000F901F90189526E8230F0296A11DB11D27
:101A6000D2CF1F920F920FB60F9211242F933F9354
:101A70004F935F936F937F938F939F93AF93BF9396
:101A8000EF93FF938AE892E00E941802FF91EF9192
:101A9000BF91AF919F918F917F916F915F914F9186
:101AA0003F912F910F900FBE0F901F9018951F928E
:101AB0000F920FB60F9211242F938F939F93EF9352
:101AC000FF93E0919A02F0919B028081E091A00245
:101AD000F091A10282FD1BC090818091A3028F5FD3
:101AE0008F732091A402821741F0E091A302F0E0ED
:101AF000E657FD4F958F8093A302FF91EF919F9141
:101B00008F912F910F900FBE0F901F90189580818D
:101B1000F4CF1F920F920FB60F9211242F933F9381
:101B20004F935F936F937F938F939F93AF93BF93E5
:101B3000EF93FF938091B900887F803609F44AC003
:101B4000F0F5883209F4A7C018F5803109F49BC07C
:101B5000B8F4882309F4F9C0883009F494C0FF91DF
:101B6000EF91BF91AF919F918F917F916F915F9115
:101B70004F913F912F910F900FBE0F901F9018958E
:101B8000883109F488C0803251F780935E0214C016
:101B9000803409F49DC040F48033B9F38833F9F6FA
:101BA00080935E0285ECB0C0803509F485C088352D
:101BB00009F496C0883499F60E94AF0CD0CF8839CA
:101BC00009F48CC038F5883729F050F4883611F0C4
:101BD000803729F683E0809360021092E40157C0B9
:101BE000883809F47BC0803919F0803809F0B7CF04
:101BF0008091E401803208F071C0E091E40181E05D
:101C00008E0F8093E4018091BB00F0E0EC53FE4F17
:101C100080833DC0803B39F0E0F4803A09F479C01C
:101C2000883A09F09CCF84E0809360021092C3014F
:101C30001092C201E091E701F091E80109958091CD
:101C4000C20181110FC081E08093C2011092A201F4
:101C500009C0803C09F4A6CF883C09F4A3CF883B97
:101C600009F07DCFE091C30181E08E0F8093C30125
:101C7000F0E0EE55FE4F80818093BB009091C30150
:101C80008091C20129C080913B028093BB0085EC0A
:101C90008093BC0064CF90915D0280915C029817A4
:101CA00058F5E0915D0281E08E0F80935D02F0E0D7
:101CB000E45CFD4F8081E9CFE0915D0281E08E0F11
:101CC00080935D028091BB00F0E0E45CFD4F808377
:101CD00090915D0280915C029817C8F285E8D8CF98
:101CE000E0915D0281E08E0F80935D028091BB00E8
:101CF000F0E0E45CFD4F808380915F0281115CCF56
:101D000081E080933A0284EA8093BC0010926002E2
:101D100026CF85EC8093BC00109260028091E40194
:101D2000803230F4E091E401F0E0EC53FE4F108299
:101D30006091E40170E0E091E501F091E60184EC4E
:101D400091E009951092E4010ACF10925E0234CF1F
:101D5000CF92DF92EF92FF920F931F93CF93DF9377
:101D6000EC0186E191E09983888381E08F83188A72
:101D7000198A1A8A1B8A1C8A1D8A1E8A1F8A188E33
:101D8000198E1A8E1B8E1C8E1D8E1E8E1F8E18A2F3
:101D900019A21AA21BA2C12CD12C80E8E82E8FE335
:101DA000F82ECCA2DDA2EEA2FFA21B821C821D8215
:101DB0001E8281E090E09DA78CA78FEF8FA718A6C9
:101DC00019A61AA61BA66887498784E08A8785E03A
:101DD0008B871EA61CAA1DAA1EAA1FAA18AE19AE82
:101DE0001AAE1BAE1CAE1DAE1EAE1FAE8E01005C49
:101DF0001F4FF801C082D182E282F3821A821C86D0
:101E00001D861E861F86CE010E94A702B701A6016D
:101E1000CE010E94050BA70196016C8D7D8D8E8DE4
:101E20009F8D0E946B16882309F1CC8EDD8EEE8E7D
:101E3000FF8E80E094E2A4E7B9E4F8018083918307
:101E4000A283B3838CA99DA9AEA9BFA918161906B0
:101E50001A061B065CF4CE01DF91CF911F910F9102
:101E6000FF90EF90DF90CF900C941306DF91CF910D
:101E70001F910F91FF90EF90DF90CF900895EAE8C7
:101E8000F2E01382128288EE93E0A0E0B0E0848357
:101E90009583A683B78326E331E03183208325EC45
:101EA00030E03587248724EC30E03787268720EC24
:101EB00030E0318B208B21EC30E0338B228B22EC15
:101EC00030E0358B248B26EC30E0378B268B118E5F
:101ED000128E138E148EE7E2F3E013821282848353
:101EE0009583A683B78388E491E09183808344E05F
:101EF00065E087E793E00E94A80E46E067E083E391
:101F000093E00C94A80ECF93DF93CDB7DEB7E297A2
:101F10000FB6F894DEBF0FBECDBF789484B5826053
:101F200084BD84B5816084BD85B5826085BD85B57D
:101F3000816085BD80916E00816080936E001092FB
:101F40008100809181008260809381008091810076
:101F50008160809381008091800081608093800007
:101F60008091B10084608093B1008091B000816065
:101F70008093B00080917A00846080937A00809191
:101F80007A00826080937A0080917A0081608093E9
:101F90007A0080917A00806880937A001092C10064
:101FA000E0919A02F0919B0282E08083E091960298
:101FB000F09197021082E0919802F09199028FECD3
:101FC00080831092A202E0919E02F0919F0286E02F
:101FD0008083E0919C02F0919D02808180618083EA
:101FE000E0919C02F0919D02808188608083E09165
:101FF0009C02F0919D02808180688083E0919C0228
:10200000F0919D0280818F7D808310923802109222
:10201000390210926702109289020E94D20688E566
:1020200091E09093E8018093E70189E591E0909336
:10203000E6018093E5011FA2BE01695D7F4F8BE63B
:1020400090E00E94800881E088A7BE01685D7F4F14
:102050008AE190E00E94800888E089A7BE01675D60
:102060007F4F8BE190E00E94800880E28AA7BE014A
:10207000665D7F4F89E190E00E94800804EF11E0E7
:102080001BA61CA61DA61EA6812C912C5401412C1A
:10209000512C320146E050E0BE016F5F7F4F83E478
:1020A00090E00E942309811171C089819A8198274B
:1020B00089279827092E000CAA0BBB0B480E591E26
:1020C0006A1E7B1E8B819C81982789279827092E61
:1020D000000CAA0BBB0B880E991EAA1EBB1E8D817D
:1020E0009E81982789279827092E000CAA0BBB0BE5
:1020F0002BA53CA54DA55EA5280F391F4A1F5B1FC8
:102100002BA73CA74DA75EA70150110909F0C2CF2C
:1021100024EFC22EDD24D394E12CF12CC301B201B3
:10212000A70196010E94491ACA01B9010E947216BC
:10213000609308017093090180930A0190930B0149
:10214000C501B401A70196010E94491ACA01B9014B
:102150000E9472166093040170930501809306013A
:10216000909307016BA57CA58DA59EA5A70196015F
:102170000E94491ACA01B9010E94721660930001B7
:1021800070930101809302019093030120E030E0FD
:102190004AEF54E460919303709194038091950306
:1021A000909196030E946B16882349F180E090E09D
:1021B000AAEFB4E48093930390939403A0939503C0
:1021C000B093960380E090E0AAEFB3E48093B70366
:1021D0009093B803A093B903B093BA038091AB0373
:1021E0009091AC03A091AD03B091AE0318161906FF
:1021F0001A061B0624F487E793E00E94130640E0CA
:1022000050E06AE774E487E793E00E94050B20E062
:1022100030E04AEF54E460914F0370915003809195
:102220005103909152030E946B16882349F180E07C
:1022300090E0AAEFB4E480934F0390935003A093EF
:102240005103B093520380E090E0AAEFB3E480938F
:10225000730390937403A0937503B09376038091F6
:10226000670390916803A0916903B0916A031816FF
:1022700019061A061B0624F483E393E00E94130652
:1022800040E050E06AE774E483E393E00E94050BCA
:1022900060E088E00E94010190E0292E90E0392E54
:1022A0008FB7F894209114023091150240911602D4
:1022B000509117022FA738AB49AB5AAB8FBF4EE0F6
:1022C00050E0BE016F5F7F4F8BE390E00E942309D7
:1022D000811184C089819A819827892798279093B2
:1022E0000A02809309028B819C819827892798276D
:1022F00090930E0280930D028D819E8198278927ED
:10230000982790930C0280930B0269857A85762733
:1023100067277627072E000C880B990B0E947216F0
:10232000209108013091090140910A0150910B015F
:102330000E94C91720E030E043E852E40E94A81848
:10234000609305027093060280930702909308023F
:102350006B857C85762767277627072E000C880BF0
:10236000990B0E9472162091040130910501409151
:102370000601509107010E94C91720E030E043E8B0
:1023800052E40E94A8186093F9017093FA018093B7
:10239000FB019093FC016D857E8576276727762764
:1023A000072E000C880B990B0E94721620910001D9
:1023B0003091010140910201509103010E94C9171F
:1023C00020E030E043E852E40E94A8186093F50151
:1023D0007093F6018093F7019093F80160910D02DC
:1023E00070910E02072E000C880B990B0E9472163A
:1023F0006B017C0160910B0270910C02072E000CA6
:10240000880B990B0E9472169B01AC010E94D11699
:102410002B013C01A7019601C701B6010E94D1160C
:10242000A30192010E94CA170E94AE196BA77CA754
:102430008DA79EA76091090270910A02072E000CD9
:10244000880B990B0E9472164B015C012BA53CA5D1
:102450004DA55EA50E9449186BA77CA78DA79EA7D6
:10246000A5019401C501B4010E94D116A3019201F6
:102470000E94CA170E94AE199B01AC01C701B601A8
:102480000E9449184B015C0120E030E040EF51E42C
:1024900060910502709106028091070290910802F6
:1024A0000E94A8182091010230910202409103027B
:1024B000509104020E94CA172B013C0120E030E039
:1024C00040EF51E46091F9017091FA018091FB01B4
:1024D0009091FC010E94A8189B01AC016091FD0144
:1024E0007091FE018091FF01909100020E94C91736
:1024F0006B017C0120E030E040EF51E46091F50198
:102500007091F6018091F7019091F8010E94A8184E
:102510009B01AC016091F1017091F2018091F30196
:102520009091F4010E94CA176093F1017093F20137
:102530008093F3019093F40120E030E044E353E40E
:10254000C501B4010E94D1162BED3FE049E450E4EF
:102550000E94A8182AE037ED43E25DE30E94D116FD
:102560004B015C012FE832EC45E75FE3C301B201A8
:102570000E94D1169B01AC01C501B4010E94CA178B
:10258000609301027093020280930302909304020D
:1025900020E030E044E353E46BA57CA58DA59EA527
:1025A0000E94D1162BED3FE049E450E40E94A818A8
:1025B0002AE037ED43E25DE30E94D1164B015C0156
:1025C0002FE832EC45E75FE3C701B6010E94D11660
:1025D0009B01AC01C501B4010E94CA176093FD01C3
:1025E0007093FE018093FF01909300028AE892E0CD
:1025F0000E94F801892B09F413C11AA219A21CA286
:102600001BA21EA21DA2CE0181960E94460C1A8218
:1026100019821C821B821E821D82CE0101960E949D
:10262000460C0E94AA0197FD1EC08A309105D9F080
:102630008F87188A0D811E810F5F1F4FB801CE0151
:1026400001960E94F30B882361F329813A818D81E1
:102650009E81BE01615F7F4F820F931F0E946D1CA0
:102660001E830D83DECF89A19AA1009709F4A1C032
:1026700069817A816115710509F499C04BA15CA14A
:102680002D813E814217530708F491C00E946D1CB2
:102690008D819E819EA38DA31E821D82CE010196F7
:1026A0000E948C0BCE0181960E94960B0DA11EA15B
:1026B0000115110509F4F5C0E9A0FAA062E671E080
:1026C000C7010E94641C6C01892B09F095C08090A1
:1026D000F1019090F201A090F301B090F40120E09C
:1026E00030E044EB53E4C501B4010E94771987FD43
:1026F00071C020E030E044EB53E4C501B4010E9416
:10270000C9176093F1017093F2018093F3019093E4
:10271000F40184E691E00E94D2086091FD0170917D
:10272000FE018091FF01909100020E9484190E9495
:10273000370A88E691E00E94D2086091F101709119
:10274000F2018091F3019091F4010E9484190E949A
:10275000370A8EE691E00E94D208E4EEF0E0849120
:10276000E0EDF0E01491ECEBF0E00491002399F03F
:1027700081110E94AA00E02FF0E0EE0FFF1FEA5641
:10278000FF4FA591B4918C91182391E080E009F45A
:1027900090E0C92ED82EB601DD0C880B990B4AE0CB
:1027A0000E94DF088BE791E00E94D20835C00E94AA
:1027B0000A1B89819A819AA389A38B819C819CA3FE
:1027C0008BA38D819E819EA38DA31A8219821C8268
:1027D0001B8262CF20E030E0A901C501B4010E9454
:1027E0006B1687FF96CF20E030E044EB53E4C50141
:1027F000B4010E94CA1785CF6EE771E0C7010E943D
:10280000641C892B09F043C01092F1011092F2016F
:102810001092F3011092F401CE0181960E948C0B6C
:102820002FB7F894609114027091150280911602EE
:10283000909117022FBF2FA538A949A95AA9621B49
:10284000730B840B950B0E9470169B01AC0166E51F
:1028500075E585E092E40E94C9170E9421196B0179
:102860007C010E9432014B015C01C114D104E104DE
:10287000F10409F0DFC12114310409F411CD0E94E3
:102880000402882309F408CD0E94000005CD6CE203
:1028900070E0C7010E94591C9C012E193F09892B29
:1028A00011F42FEF3FEF7901FFEFEF1AFF0A42E03B
:1028B000E416F10428F0015011092017310729F41A
:1028C00080E891E00E94D2086DCF50E040E0BE0168
:1028D0006F5D7F4FCE014B960E944C0C2DA13EA107
:1028E000A701BE016F5D7F4FCE0145960E944C0C43
:1028F000CE014B960E94960BCE0145960E94960BF8
:102900001A8219821C821B821E821D826B8D7C8D15
:102910006115710531F04F8D58A1CE0101960E94CD
:102920001B0CCE0101960E94AD08182F8823D1F010
:10293000188A1F861A8A198A1C8A1B8A6D897E89C1
:102940006115710531F0498D5A8DCE010F960E94A7
:102950001B0CCE010F960E94AD08182FCE010F96CA
:102960000E948C0BCE0101960E948C0B112309F45E
:1029700016C18B8D9C8D009709F4C8C00E94261645
:102980007B018D899E89009709F4C4C00E94261698
:102990008B018090050290900602A0900702B090F3
:1029A000080220E030E0A901C501B4010E947719B6
:1029B00018160CF0B3C020E030E040E450E4C5014C
:1029C000B4010E946B1687FDB4C08090ED01909019
:1029D000EE01A090EF01B090F001B701FF0C880B61
:1029E000990B0E94721624EE38E34EE850E40E94E0
:1029F000D1160E941A19DC01CB0188199909AA097C
:102A0000BB09813253E09507A105B1050CF4E7C07D
:102A100080549640A109B109880E991EAA1EBB1EBA
:102A200080918B0390918C03A0918D03B0918E03C4
:102A300088169906AA06BB0661F080928B039092D5
:102A40008C03A0928D03B0928E0387E793E00E94DF
:102A5000BA048092ED019092EE01A092EF01B09243
:102A6000F001C090E901D090EA01E090EB01F09014
:102A7000EC01B801110F880B990B0E94721624EE1D
:102A800038E34EE850E40E94D1160E941A19DC0186
:102A9000CB018C199D09AE09BF098132F3E09F0774
:102AA000A105B1050CF4A8C080549640A109B10954
:102AB000C80ED91EEA1EFB1E809147039091480361
:102AC000A0914903B0914A03C816D906EA06FB064D
:102AD00061F0C0924703D0924803E0924903F0921C
:102AE0004A0383E393E00E94BA04C092E901D092C2
:102AF000EA01E092EB01F092EC0187E793E00E949B
:102B0000410683E393E00E94410649C060E070E023
:102B1000CB0136CF60E070E0CB013ACF20E030E06F
:102B200040E450ECC501B4010E94771918160CF06E
:102B30004CCF8090F9019090FA01A090FB01B090E9
:102B4000FC0120E030E0A901C501B4010E94771921
:102B5000181674F520E030E040E450E4C501B401FB
:102B60000E946B1687FF31CF8090F5019090F6019F
:102B7000A090F701B090F80120E030E0A901C50174
:102B8000B4010E9477191816FCF420E030E040E40C
:102B900050E4C501B4010E946B1687FF16CFCE0129
:102BA00045960E948C0BCE014B960E948C0B34CE26
:102BB00020E030E040E450ECC501B4010E947719F8
:102BC00018160CF002CFD0CF20E030E040E450ECFB
:102BD000C501B4010E94771918160CF3F6CE803E99
:102BE000ECEF9E07EFEFAE07BE070CF015CF805C51
:102BF000994FAF4FBF4F10CF803E2CEF92072FEF72
:102C0000A207B2070CF054CF805C994FAF4FBF4F73
:102C10004FCF31E0C31AD108E108F10848EE840E25
:102C200043E0941EA11CB11CC114D104E104F104C1
:102C300009F41BCE0E943201681979098A099B099F
:102C4000683E73408105910520F70FCE1F93FC016C
:102C500099278827BC01E89411911032E9F31930C3
:102C600010F01E30C8F31B3251F01D3249F4689445
:102C700006C00E944D16610F711D811D911D11919D
:102C800010531A30B0F33EF490958095709561958D
:102C90007F4F8F4F9F4F1F910895592F482F372FE8
:102CA000262F660F771F881F991F660F771F881FB3
:102CB000991F620F731F841F951F660F771F881F50
:102CC000991F089591110C943E17803219F0895084
:102CD0008550C8F708950E94AD1608F481E0089564
:102CE000E89409C097FB3EF49095809570956195A6
:102CF0007F4F8F4F9F4F9923A9F0F92F96E9BB275C
:102D00009395F695879577956795B795F111F8CFD7
:102D1000FAF4BB0F11F460FF1BC06F5F7F4F8F4F42
:102D20009F4F16C0882311F096E911C0772321F038
:102D30009EE8872F762F05C0662371F096E8862FD0
:102D400070E060E02AF09A95660F771F881FDAF727
:102D5000880F9695879597F90895990F0008550F54
:102D6000AA0BE0E8FEEF16161706E807F907C0F011
:102D700012161306E407F50798F0621B730B840B19
:102D8000950B39F40A2661F0232B242B252B21F4F3
:102D900008950A2609F4A140A6958FEF811D811D93
:102DA00008950E94E4160C9458170E944A1738F0B0
:102DB0000E94511720F0952311F00C9441170C94A8
:102DC000471711240C948C170E94691770F3959F74
:102DD000C1F3950F50E0551F629FF001729FBB2712
:102DE000F00DB11D639FAA27F00DB11DAA1F649FAE
:102DF0006627B00DA11D661F829F2227B00DA11D61
:102E0000621F739FB00DA11D621F839FA00D611DE6
:102E1000221F749F3327A00D611D231F849F600D07
:102E2000211D822F762F6A2F11249F5750409AF030
:102E3000F1F088234AF0EE0FFF1FBB1F661F771FBC
:102E4000881F91505040A9F79E3F510580F00C9487
:102E500041170C948C175F3FE4F3983ED4F38695AA
:102E600077956795B795F795E7959F5FC1F7FE2B27
:102E7000880F911D9695879597F90895992788272A
:102E8000089597F99F6780E870E060E008959FEFEC
:102E900080EC089500240A941616170618060906F1
:102EA000089500240A9412161306140605060895C0
:102EB000092E0394000C11F4882352F0BB0F40F448
:102EC000BF2B11F460FF04C06F5F7F4F8F4F9F4F88
:102ED000089557FD9058440F551F59F05F3F71F00A
:102EE0004795880F97FB991F61F09F3F79F0879571
:102EF0000895121613061406551FF2CF4695F1DFFA
:102F000008C0161617061806991FF1CF8695710589
:102F1000610508940895E894BB2766277727CB01BD
:102F200097F908952F923F924F925F926F927F92FE
:102F30008F929F92AF92BF92CF92DF92EF92FF92C9
:102F40000F931F93CF93DF93CDB7DEB7CA1BDB0B75
:102F50000FB6F894DEBF0FBECDBF09942A8839881A
:102F600048885F846E847D848C849B84AA84B98421
:102F7000C884DF80EE80FD800C811B81AA81B9812D
:102F8000CE0FD11D0FB6F894DEBF0FBECDBFED0141
:102F900008955058BB27AA270E94E1170C94581790
:102FA0000E944A1738F00E94511720F039F49F3FD1
:102FB00019F426F40C9447170EF4E095E7FB0C94F3
:102FC0004117E92F0E94691758F3BA176207730770
:102FD0008407950720F079F4A6F50C948B170EF46E
:102FE000E0950B2EBA2FA02D0B01B90190010C0119
:102FF000CA01A0011124FF27591B99F0593F50F431
:10300000503E68F11A16F040A22F232F342F442788
:10301000585FF3CF469537952795A795F040539580
:10302000C9F77EF41F16BA0B620B730B840BBAF050
:103030009150A1F0FF0FBB1F661F771F881FC2F7BB
:103040000EC0BA0F621F731F841F48F487957795CF
:103050006795B795F7959E3F08F0B0CF9395880F89
:1030600008F09927EE0F9795879508950E944A17C3
:1030700060F080E891E009F49EEF0E94511728F07B
:1030800040E851E071F45EEF0CC00C9447170C94CB
:103090008B17E92FE0780E94691740F3092E052A63
:1030A000B1F3261737074807590738F00E2E07F8EF
:1030B000E02569F0E025E0640AC0EF6307F80094BA
:1030C00007FADB01B9019D01DC01CA01AD01EF93F3
:1030D0000E94BF180E9458170E9479185F915523CB
:1030E00039F02BED3FE049E450FD49EC0C94CA1750
:1030F0000895DF93DD27B92FBF7740E85FE3161609
:10310000170648075B0718F4D92F0E947C199F9374
:103110008F937F936F930E94EE19E8E6F0E00E9490
:1031200050190E9458172F913F914F915F910E9423
:10313000E416DD2351F09058A2EA2AED3FE049EC75
:103140005FE3D0785D270E94E117DF910C94581758
:103150000E94BC180C9458170E94511758F00E94F6
:103160004A1740F029F45F3F29F00C9441175111A0
:103170000C948C170C9447170E94691768F39923D5
:10318000B1F3552391F3951B550BBB27AA27621763
:103190007307840738F09F5F5F4F220F331F441F70
:1031A000AA1FA9F335D00E2E3AF0E0E832D09150A4
:1031B0005040E695001CCAF72BD0FE2F29D0660F91
:1031C000771F881FBB1F261737074807AB07B0E8D4
:1031D00009F0BB0B802DBF01FF2793585F4F3AF0DA
:1031E0009E3F510578F00C9441170C948C175F3F6B
:1031F000E4F3983ED4F3869577956795B795F79560
:103200009F5FC9F7880F911D9695879597F9089547
:10321000E1E0660F771F881FBB1F621773078407E3
:10322000BA0720F0621B730B840BBA0BEE1F88F7F2
:10323000E09508950E9421196894B1110C948C179F
:1032400008950E94711788F09F5798F0B92F992719
:10325000B751B0F0E1F0660F771F881F991F1AF081
:10326000BA95C9F714C0B13091F00E948B17B1E044
:1032700008950C948B17672F782F8827B85F39F043
:10328000B93FCCF3869577956795B395D9F73EF41A
:1032900090958095709561957F4F8F4F9F4F0895C2
:1032A000DF93CF931F930F93FF92EF92DF927B01F7
:1032B0008C01689406C0DA2EEF010E94E416FE012C
:1032C000E894A5912591359145915591A6F3EF018B
:1032D0000E94E117FE019701A801DA9469F7DF90D7
:1032E000EF90FF900F911F91CF91DF9108950E9471
:1032F000AD1608F48FEF08959B01AC0160E070E01B
:1033000080E89FE30C94A8180E947117E8F09E379C
:10331000E8F09639B8F49E3848F4672F782F88275C
:10332000985FF9CF86957795679593959539D0F302
:10333000B62FB1706B0F711D811D20F487957795A5
:10334000679593950C94F7190C94121A0C948C179A
:1033500019F416F40C9447170C94121A0E94711762
:10336000B8F39923C9F3B6F39F57550B87FF0E9413
:10337000201A0024A0E640EA9001805856959795BF
:1033800028F4805C660F771F881F20F02617370708
:10339000480730F4621B730B840B202931294A2B18
:1033A000A69517940794202531254A2758F7660FCC
:1033B000771F881F20F026173707480730F4620B65
:1033C000730B840B200D311D411DA09581F7B901B0
:1033D000842F9158880F9695879508959B01AC018D
:1033E0000C94D1160E94AD16880B990B0895882372
:1033F00071F4772321F09850872B762F07C066232E
:1034000011F499270DC09051862B70E060E02AF0EE
:103410009A95660F771F881FDAF7880F969587951C
:1034200097F908959F3F31F0915020F48795779553
:103430006795B795880F911D9695879597F908958B
:1034400091505040660F771F881FD2F70895A1E270
:103450001A2EAA1BBB1BFD010DC0AA1FBB1FEE1F0E
:10346000FF1FA217B307E407F50720F0A21BB30B59
:10347000E40BF50B661F771F881F991F1A9469F7D5
:1034800060957095809590959B01AC01BD01CF0131
:103490000895052E97FB1EF400940E94601A57FDB4
:1034A00007D00E94271A07FC03D04EF40C94601A30
:1034B00050954095309521953F4F4F4F5F4F089560
:1034C00090958095709561957F4F8F4F9F4F089590
:1034D000EE0FFF1F0590F491E02D09940F931F93B9
:1034E000CF93DF938230910510F482E090E0E09179
:1034F000BD03F091BE0330E020E0B0E0A0E03097E3
:1035000099F42115310509F44AC0281B390B2430E0
:103510003105D8F58A819B816115710589F1FB011F
:1035200093838283FE0111C0408151810281138106
:1035300048175907E0F04817590799F4109761F0B8
:1035400012960C93129713961C933296CF01DF912B
:10355000CF911F910F9108950093BD031093BE0367
:10356000F4CF2115310551F04217530738F0A90166
:10357000DB019A01BD01DF01F801C1CFEF01F9CFF5
:103580009093BE038093BD03CDCFFE01E20FF31FE6
:10359000819391932250310939832883D7CF209189
:1035A000BB033091BC03232B41F420910E013091D9
:1035B0000F013093BC032093BB0320910C01309189
:1035C0000D012115310541F42DB73EB74091100191
:1035D00050911101241B350BE091BB03F091BC030A
:1035E000E217F307A0F42E1B3F0B2817390778F0DA
:1035F000AC014E5F5F4F2417350748F04E0F5F1F39
:103600005093BC034093BB03819391939FCFF0E011
:10361000E0E09CCFCF93DF930097E9F0FC01329775
:1036200013821282A091BD03B091BE03ED0130E080
:1036300020E01097A1F420813181820F931F209107
:10364000BB033091BC032817390709F061C0F09320
:10365000BC03E093BB03DF91CF910895EA01CE173D
:10366000DF07E8F54A815B819E0141155105B1F7FD
:10367000E901FB83EA8349915991C40FD51FEC17E7
:10368000FD0761F4808191810296840F951FE90105
:1036900099838883828193819B838A83F0E0E0E031
:1036A00012968D919C9113970097B9F52D913C91AD
:1036B0001197CD010296820F931F2091BB03309189
:1036C000BC032817390739F6309751F51092BE031D
:1036D0001092BD03B093BC03A093BB03BCCFD383B4
:1036E000C28340815181840F951FC817D90761F4A7
:1036F0004E5F5F4F88819981480F591F51834083E6
:103700008A819B81938382832115310509F0B0CF93
:10371000F093BE03E093BD039ECFFD01DC01C0CF5B
:1037200013821282D7CFB0E0A0E0E9E9FBE10C946C
:1037300094178C01009751F4CB010E946E1A8C01F2
:10374000C801CDB7DEB7E0E10C94B017FC01E60F7D
:10375000F71F9C0122503109E217F30708F49DC0BE
:10376000D901CD91DC911197C617D70798F0C530D4
:10377000D10530F3CE0104978617970708F3C61BCF
:10378000D70B2297C193D1936D937C93CF010E9465
:103790000A1BD6CF5B01AC1ABD0A4C018C0E9D1ED4
:1037A000A091BD03B091BE03512C412CF12CE12C12
:1037B000109731F58091BB039091BC038815990552
:1037C00009F05CC04616570608F058C080910C01FD
:1037D00090910D01009741F48DB79EB74091100173
:1037E00050911101841B950BE817F90708F055C09B
:1037F000F093BC03E093BB03F90171836083A0CF16
:103800008D919C91119712966C90129713967C90C3
:103810001397A815B90559F56C0142E0C40ED11CE7
:10382000CA14DB0420F1AC014A195B09DA011296D3
:10383000159780F06282738251834083D9016D9322
:103840007C93E114F10471F0D7011396FC93EE938D
:10385000129776CF22968C0F9D1FF901918380835A
:10386000F301EFCFF093BE03E093BD0369CF481699
:10387000590608F42C017D01D3019ACFCB010E9497
:103880006E1A7C01009749F0AE01B8010E94501CED
:10389000C8010E940A1B870153CF10E000E050CFFF
:1038A000FB01DC0102C001900D9241505040D8F75D
:1038B0000895FC018191861721F08823D9F7992773
:1038C00008953197CF010895FB01DC018D9101909E
:1038D00080190110D9F3990B0895FB01DC010190C7
:0C38E0000D920020E1F70895F894FFCF4E
:1038EC000000A6C20000904100808CC30000BF0302
:1038FC00800000000000DB02A702AA06940BBA04A9
:10390C003C047A042604F403D3039F037E032803A8
:10391C00F902000000003A025A0187018702F801FF
:10392C009601EA010000000051082408AA080108C9
:10393C00A300110802086E616E00696E66006F7656
:10394C0066002E00793A20002C207A3A20002C2098
:10395C0070726573737572653A20000D0A007A00F7
:10396C0050617273696E67206661696C65643A2098
:10397C00496E76616C696420666F726D61740000CB
:00000001FF
