:020000040000FA
:100000000C9479000C94A1000C94A1000C94A10014
:100010000C94A1000C94A1000C94A1000C94A100DC
:100020000C94A1000C94A1000C94A1000C94A100CC
:100030000C94A1000C94A1000C94A1000C94A100BC
:100040000C94BE0C0C94A1000C942E0D0C94080D75
:100050000C94A1000C94A1000C94A1000C94A1009C
:100060000C94600D0C94A100084AD73B3BCE016E66
:1000700084BCBFFDC12F3D6C74319ABD56833DDAFF
:100080003D00C77F11BED9E4BB4C3E916BAAAABE0E
:10009000000000803F00000000002300260029002F
:1000A00000000000240027002A00000000002500B6
:1000B00028002B00040404040404040402020202C5
:1000C000020203030303030301020408102040801B
:1000D000010204081020010204081020000000089A
:1000E00000020100000304070000000000000000FF
:1000F000160F11241FBECFEFD8E0DEBFCDBF23E027
:10010000A0EAB1E001C01D92A23CB207E1F711E004
:10011000A0E0B1E0E2E8F7E302C005900D92A03A5A
:10012000B107D9F710E0C9E7D0E004C02197FE017C
:100130000E94B319C837D107C9F70E945A0F0C940F
:10014000BF1B0C94000080913C0290913B02891BE4
:10015000990B0895833081F028F4813099F0823032
:10016000A9F008958730A9F08830C9F08430B1F43F
:10017000809180008F7D03C0809180008F77809375
:100180008000089584B58F7784BD089584B58F7DF0
:10019000FBCF8091B0008F778093B000089580915D
:1001A000B0008F7DF9CF1F93CF93DF93282F30E0DE
:1001B000F901E452FF4F8491F901E853FF4FD491C4
:1001C000F901EC54FF4FC491CC23A9F0162F8111F3
:1001D0000E94AA00EC2FF0E0EE0FFF1FE655FF4F44
:1001E000A591B4918FB7F894EC91111108C0D095F6
:1001F000DE23DC938FBFDF91CF911F910895DE2B1B
:10020000F8CFCF93DF9390E0FC01E853FF4F2491A8
:100210008C549F4FFC0184918823D1F090E0880F8B
:10022000991FFC01E056FF4FA591B491FC01E655E2
:10023000FF4FC591D49161110EC09FB7F8948C9176
:10024000E22FE0958E238C932881E223E8839FBFE1
:10025000DF91CF9108958FB7F894EC91E22BEC9356
:100260008FBFF6CF3FB7F89480911302909114029C
:10027000A0911502B091160226B5A89B05C02F3F8C
:1002800019F00196A11DB11D3FBFBA2FA92F982FBC
:100290008827BC01CD01620F711D811D911D42E0B7
:1002A000660F771F881F991F4A95D1F70895089503
:1002B00008950895AF92BF92CF92DF92EF92FF928E
:1002C0000F931F93CF93DF936C017B018B01040F7E
:1002D000151FEB015E01AE18BF08C017D10759F01A
:1002E0006991D601ED91FC910190F081E02DC6015C
:1002F0000995892B79F7C501DF91CF911F910F9156
:10030000FF90EF90DF90CF90BF90AF900895FC01E9
:10031000538D448D252F30E0842F90E0821B930B6A
:10032000541710F0CF96089501970895FC01918D10
:10033000828D981761F0A28DAE0FBF2FB11D5D9613
:100340008C91928D9F5F9F73928F90E008958FEFB5
:100350009FEF08952FB7F89480911702909118029B
:10036000A0911902B0911A022FBF80939502909329
:100370009602A0939702B09398028DE892E00E94B3
:10038000960197FF26C02FB7F8948091170290919D
:100390001802A0911902B0911A022FBF4091950244
:1003A000509196026091970270919802841B950B70
:1003B000A60BB70B4091910250919202609193026B
:1003C0007091940284179507A607B707B0F28FEFD4
:1003D0009FEF0895FC01918D828D981731F0828DE9
:1003E000E80FF11D858D90E008958FEF9FEF089540
:1003F000FC01918D228D892F90E0805C9F4F821BA4
:1004000091098F73992708958DE892E00E94F80171
:1004100021E0892B09F420E0822F089580E090E00C
:10042000892B29F00E94040281110C940000089588
:10043000FC01A48DA80FB92FB11DA35ABF4F2C9159
:10044000848D90E001968F739927848FA689B78950
:100450002C93A089B1898C91837080648C93938D47
:10046000848D981306C00288F389E02D80818F7DEA
:1004700080830895EF92FF920F931F93CF93DF93A2
:10048000EC0181E0888F9B8D8C8D98131AC0E889D0
:10049000F989808185FF15C09FB7F894EE89FF899F
:1004A0006083E889F98980818370806480839FBF3D
:1004B00081E090E0DF91CF911F910F91FF90EF903D
:1004C0000895F62E0B8D10E00F5F1F4F0F7311274D
:1004D000E02E8C8D8E110CC00FB607FCFACFE88988
:1004E000F989808185FFF5CFCE010E941802F1CFF6
:1004F000EB8DEC0FFD2FF11DE35AFF4FF0829FB7FC
:10050000F8940B8FEA89FB8980818062CFCFCF93EB
:10051000DF93EC01888D8823B9F0AA89BB89E8892B
:10052000F9898C9185FD03C0808186FD0DC00FB6D1
:1005300007FCF7CF8C9185FFF2CF808185FFEDCF4F
:10054000CE010E941802E9CFDF91CF910895CF9399
:10055000DF93FC012781222359F1EC0161E08085C2
:100560000E94010161E089850E9401018F81843030
:1005700011F08830B1F461E08A850E94010161E0E8
:100580008B850E9401018FA58F3F91F061E00E9451
:1005900001016EA581E068278FA5DF91CF910C94B2
:1005A000D300833011F0863071F761E08A85E9CF9E
:1005B000DF91CF910895CF93DF93FC012781222310
:1005C000A9F0EC010190F081E02D0284F385E02D8B
:1005D00060E009958FA58F3F49F061E00E9401011D
:1005E0006EA58FA5DF91CF910C94D300DF91CF91B1
:1005F0000895DC01ED91FC912285338547705527E4
:100600006627772741505109610971094730510523
:100610006105710560F4FA01E05FFC4F0C94B319B9
:100620001A031C031E03200322032403260361E094
:10063000F901099465E0FCCF64E0FACF66E0F8CFF9
:1006400062E0F6CF6AE0F4CF68E0F2CF69E0F0CF85
:10065000CF93DF93EC01CB01BA0126E030E040E01C
:1006600050E00E949419623071058105910589F16D
:100670006CF46115710581059105D1F0613071054A
:1006800081059105F9F0DF91CF91089564307105EE
:100690008105910561F124F16530710581059105B0
:1006A00091F7E881F9810284F385E02D66E006C0C8
:1006B000E881F9810284F385E02D64E0CE01DF91C9
:1006C000CF910994E881F9810284F385E02D65E0FA
:1006D000F5CFE881F9810284F385E02D61E0EECF6A
:1006E000E881F9810284F385E02D63E0E7CFE881BA
:1006F000F9810284F385E02D62E0E0CFDC01ED9129
:10070000FC910284F385E02D4370552766277727F7
:10071000423051056105710571F0433051056105A5
:10072000710559F0413051056105710511F065E021
:10073000099466E0FDCF6AE0FBCF69E0F9CFCF9383
:10074000DF93EC01CB01BA0123E030E040E050E060
:100750000E949419613071058105910599F062300C
:10076000710581059105A9F0672B682B692BC1F4F0
:10077000E881F9810284F385E02D64E0CE01DF9108
:10078000CF910994E881F9810284F385E02D61E03D
:10079000F5CFE881F9810284F385E02D62E0EECFA8
:1007A000DF91CF910895DC01ED91FC910284F385F6
:1007B000E02D4370552766277727423051056105A4
:1007C000710571F0433051056105710559F04130F3
:1007D00051056105710511F062E0099463E0FDCFF8
:1007E00061E0FBCF60E0F9CFCF93DF93EC01E881CC
:1007F000F9810284F385E02D8A8160E0811162E055
:10080000CE010995E881F9810284F385E02D8A8182
:1008100061E0811163E0CE0109958CA59DA5823030
:10082000910538F0880F991F880F991F0597019738
:10083000F1F7E881F9810284F385E02D8A8160E097
:10084000811162E0CE01DF91CF910994CF93DF93C4
:10085000EC0120E030E0A901688D798D8A8D9B8DB7
:100860000E94C21818162CF4E8A9F9A9DF91CF91BB
:100870000994EAA9FBA9FACFCF92DF92EF92FF92F7
:100880000F931F93CF93DF93DC011796CC91C43065
:1008900039F0C83059F1C33019F0C63049F1C2E01F
:1008A0008C01085F1F4FF12CE12CC62ED12CD1E01A
:1008B000F8016481C6010E2C02C0959587950A94B3
:1008C000E2F780FD6D270F5F1F4F80810E94D300EC
:1008D000BFEFEB1AFB0AEC1658F3DF91CF911F9193
:1008E0000F91FF90EF90DF90CF900895C4E0D8CFA4
:1008F000C3E0D6CFDC011796EC911797E93008F0EA
:1009000038C0F0E0EA57FB4F0C94B3198F049504FC
:100910009B04A104A704B904AD04B904B304ED9188
:10092000FC910684F785E02D0994ED91FC910088F7
:10093000F189E02DF9CFED91FC910288F389E02D4A
:10094000F3CFED91FC910488F589E02DEDCFED9189
:10095000FC910688F789E02DE7CFED91FC91008CA2
:10096000F18DE02DE1CFED91FC91028CF38DE02D26
:10097000DBCF08954F925F926F927F928F929F92FA
:10098000AF92BF92CF92DF92EF92FF920F931F939D
:10099000CF93DF93EC01CC88DD88EE88FF888889CF
:1009A0009989AA89BB89C81AD90AEA0AFB0A688DFB
:1009B000798D8A8D9B8D9B01AC010E941C164B0189
:1009C0005C0168A179A18AA19BA19B01AC010E9455
:1009D00015179B01AC01C501B4010E94F3170E94D9
:1009E0006518C114D104E104F10409F0B6C0623005
:1009F0007105810591050CF0D0C01B821C821D82FF
:100A00001E82188E198E1A8E1B8E1CAA1DAA1EAA53
:100A10001FAAC12CD12C7601C701B601DF91CF915D
:100A20001F910F91FF90EF90DF90CF90BF90AF900C
:100A30009F908F907F906F905F904F9008951016C9
:100A4000110612061306B4F46C157D058E059F057C
:100A50001CF42A812111A1C09B01AC018827992790
:100A6000DC01821B930BA40BB50B8CAB9DABAEAB27
:100A7000BFAB93C0011511052105310509F48DC0E7
:100A80006C157D058E059F050CF087C08A81882333
:100A900009F483C030952095109501951F4F2F4F75
:100AA0003F4F0CAB1DAB2EAB3FAB77C00115110513
:100AB0002105310509F471C08824992454018C184A
:100AC0009D08AE08BF08681579058A059B050CF0DE
:100AD00064C08A81811161C0DDCFCCACDDACEEACED
:100AE000FFACA7019601C701B6010E9415172B01A3
:100AF0003C01C501B4010E94BD1520E030E040E892
:100B000050E40E941C1620E030E040E85FE30E94C1
:100B100015179B01AC01C301B2010E94F3179B01A1
:100B2000AC01C701B6010E9414173B016C01FE0124
:100B3000E05CFF4FE080F180028113819701A80102
:100B40000E94C218181614F473018601C701D80157
:100B50008CAF9DAFAEAFBFAF3AC00CA91DA92EA9F7
:100B60003FA91C141D041E041F040CF468CF1016AA
:100B70001106120613060CF099CF002711279801D1
:100B80000C191D092E093F09601771078207930789
:100B90000CF062CF2A8121115FCF8CA89DA8AEA84E
:100BA000BFA881149104A104B10409F096CF88ADC7
:100BB00099ADAAADBBAD8CAF9DAFAEAFBFAF81E07D
:100BC0001C141D041E041F040CF080E08A833FEFF8
:100BD000831A930AA30AB30A8CAA9DAAAEAABFAA33
:100BE0008CAC9DACAEACBFACC501B4010E946C181E
:100BF0006B017C01CB82DC82ED82FE82A501940137
:100C000060E074E284E799E40E94F317688F798FBB
:100C10008A8F9B8F2A812111FFCE9058688F798F00
:100C20008A8F9B8FF9CECF92DF92EF92FF92CF9374
:100C3000DF93EC01688D798D8A8D9B8D9B01AC01D2
:100C40000E941C166B017C0168A179A18AA19BA15D
:100C50009B01AC010E9415179B01AC01C701B601B5
:100C60000E94F3170E9465186CAB7DAB8EAB9FABF7
:100C7000CE01DF91CF91FF90EF90DF90CF900C9459
:100C8000BA04CF92DF92EF92FF92CF93DF93EC0101
:100C90008B819C81AD81BE81892B8A2B8B2B99F115
:100CA0000E9432016B017C0188A599A5AAA5BBA56C
:100CB000B701A601481B590B6A0B7B0B8B819C81EA
:100CC000AD81BE81481759076A077B07E0F0888924
:100CD0009989AA89BB892A812223B1F10196A11D94
:100CE000B11D888B998BAA8BBB8B488959896A89DE
:100CF0007B89CE010E947A04C8A6D9A6EAA6FBA6E3
:100D0000CE010E94BA0420E030E0A901688D798DFF
:100D10008A8D9B8D0E94B61581111AC081E0CC8806
:100D2000DD88EE88FF88488959896A897B89C416DD
:100D3000D506E606F70609F480E0DF91CF91FF9033
:100D4000EF90DF90CF9008950197A109B109C9CF25
:100D500081E0F3CF08952091C101260F3327331F7F
:100D600021323105ECF420916302FC0190E080E037
:100D7000243069F082E00895A091C1012191AC0175
:100D80004F555E4FA40FB52FB11D2C9301968617BA
:100D900098F38091C101680F6093C10180E00895CC
:100DA00081E008951092630281E0809362021092C4
:100DB0003D0261E082E10E94D30061E083E10E9494
:100DC000D300E9EBF0E080818E7F808380818D7F8E
:100DD000808388E48093B80085E48093BC00089504
:100DE000CF93DF9391E09093A0018823B9F0C09155
:100DF000B800D091BA008091BC008A7B8093BC007F
:100E000060E082E10E94D30060E083E10E94D300B1
:100E10000E94D206D093BA00C093B800DF91CF9160
:100E200008958F929F92AF92BF92CF92DF92EF92EE
:100E3000FF920F931F93CF93DF93D0918C02D13207
:100E400008F0D7C0182FC0918B020E9432016B01AD
:100E50007C018091630281116BC082E08093630208
:100E6000109362028FEF8093610210926002D09320
:100E70005F02ABE6B2E0EFE3F2E080E0D81391C0AE
:100E800010923E0280913E02CC0FC82BC0933E02CE
:100E900080913D02813009F088C010923D020E948D
:100EA00032016B017C0180913E028093BB008091F6
:100EB000650290916602A0916702B0916802892B49
:100EC0008A2B8B2BA1F00E943201009165021091B8
:100ED000660220916702309168026C197D098E09C3
:100EE0009F09061717072807390708F442C08091A1
:100EF000BC0083FDD8CF85EC8093BC000E943201FA
:100F00006B017C0180916302823009F450C08091B2
:100F100061028F3F09F46FC080916102803209F451
:100F20006CC080916102803309F469C084E026C0FE
:100F30008091650290916602A0916702B09168026B
:100F4000892B8A2B8B2B09F484CF0E94320180904D
:100F5000650290906602A0906702B09068026C19DA
:100F60007D098E099F0986169706A806B90608F01E
:100F700070CF809164020E94F00685E010926A02B0
:100F800010928C0210926902DF91CF911F910F9104
:100F9000FF90EF90DF90CF90BF90AF909F908F9099
:100FA00008959D9191938F5F69CF85EEA5CF809134
:100FB000650290916602A0916702B0916802892B48
:100FC0008A2B8B2B09F49ECF0E943201009165027F
:100FD0001091660220916702309168026C197D09B8
:100FE0008E099F09061717072807390708F08ACFC7
:100FF000C0CF81E0C3CF80E0C1CF82E0BFCF83E02C
:10100000BDCF0895E0913B0280913C02E81730F497
:10101000F0E0E55EFD4F808190E008958FEF9FEF57
:10102000089590913B0280913C022FEF3FEF98177B
:1010300048F4E92FF0E0E55EFD4F208130E09F5F4E
:1010400090933B02C9010895CF92DF92EF92FF92F5
:101050000F931F93CF93DF937C01CB018A012091E3
:101060006902222389F0EB016B01C40ED51ECC1559
:10107000DD0569F06991D701ED91FC910190F08156
:10108000E02DC7010995F3CF642F0E94AB06C8017C
:10109000DF91CF911F910F91FF90EF90DF90CF9054
:1010A0000895CF93DF931F92CDB7DEB76983209168
:1010B00069022223F9F020918C02203258F021E0BD
:1010C00030E0FC013383228390E080E00F90DF91D9
:1010D000CF91089580916A02E82FF0E0E559FD4F25
:1010E000998190838F5F80936A0280938C0281E064
:1010F00090E0ECCF61E0CE0101960E94AB06F7CF05
:10110000CF93DF93EB0191E09093690298E690937F
:101110008B0210926A0210928C02682F8AE293E08E
:101120000E945108019781F441E050E0BE018AE23B
:1011300093E00E942408019751F481E00E94110776
:1011400090E0DF91CF9108958CEE9FEFFACF8BEE78
:101150009FEFF7CF90E080E00895FC010190002020
:10116000E9F73197AF01481B590BBC018DE892E0BC
:101170000C945A018F929F92AF92BF920F931F933C
:10118000CF93DF93CDB7DEB7A1970FB6F894DEBF4C
:101190000FBECDBF19A2423008F44AE08E010F5DA8
:1011A0001F4F842E912CB12CA12CA50194010E94DB
:1011B0007219E62FB901CA01EA30F4F4E05DD801F2
:1011C000EE938D01232B242B252B79F790E080E0E3
:1011D000109719F0CD010E94AD08A1960FB6F894B2
:1011E000DEBF0FBECDBFDF91CF911F910F91BF909A
:1011F000AF909F908F900895E95CE1CF4F925F92FE
:101200006F927F928F929F92AF92BF92CF92DF9216
:10121000EF92FF920F931F93CF937B016A0191E0AE
:101220009093690298E690938B0210926A02109252
:101230008C02682F8AE293E00E94510806EF1FEFAC
:10124000019709F0DEC080E00E941107082F10E02E
:101250000115110509F0D5C00E9432014B015C0156
:1012600080916302811165C0CC2D81E0809363027F
:10127000809362029FEF90936102109260029C0D36
:1012800090935F0280933E0280913E02806D809336
:101290003E0280913D02813009F08AC010923D02E9
:1012A0000E9432014B015C0180913E028093BB00A1
:1012B0008091650290916602A0916702B0916802E8
:1012C000892B8A2B8B2BA1F00E9432014090650262
:1012D0005090660260906702709068026819790900
:1012E0008A099B09461657066806790608F442C023
:1012F0008091BC0083FDD8CF85EC8093BC000E9418
:1013000032014B015C0180916302813009F452C0CB
:10131000809160028C1710F4C0916002AFE3B2E0DC
:10132000EBE1F2E080E08C1751F19D9191938F5F9A
:10133000FACF8091650290916602A0916702B09108
:101340006802892B8A2B8B2B09F48ACF0E943201E9
:10135000409065025090660260906702709068024B
:10136000681979098A099B0946165706680679069D
:1013700008F076CF809164020E94F006C0E01092DF
:101380003B02C0933C025701F12CE12C80913B02BF
:10139000C81791F1CE14DF04A1F18AE293E00E9414
:1013A00011089FEFE91AF90AF50181935F01EECF69
:1013B00085EEA3CF8091650290916602A0916702AD
:1013C000B0916802892B8A2B8B2B09F49CCF0E9449
:1013D0003201409065025090660260906702709002
:1013E0006802681979098A099B0946165706680632
:1013F000790608F088CFBECFCE14DF0411F005EFD8
:101400001FEFC801CF911F910F91FF90EF90DF90D8
:10141000CF90BF90AF909F908F907F906F905F9094
:101420004F9008954F925F926F927F928F929F920A
:10143000AF92BF92CF92DF92EF92FF926B017C014D
:10144000AC019B010E943D19882381F086E591E063
:10145000FF90EF90DF90CF90BF90AF909F908F90D4
:101460007F906F905F904F900C94AD0846015701AC
:10147000E894B7F82FEF3FEF4FE75FE7C501B401FE
:101480000E943D1981110DC02FEF3FEF4FE75FE73D
:10149000C501B4010E94B61518161CF48AE591E046
:1014A000D7CF2FEF3FEF4FE75FE4C701B6010E94B0
:1014B000C21818161CF48EE591E0CACF2FEF3FEF4B
:1014C0004FE75FECC701B6010E94B61587FDF3CF69
:1014D00020E030E0A901C701B6010E94B615B12C89
:1014E000A12C87FF0AC06DE28DE892E00E943A02CB
:1014F0005C01F7FAF094F7F8F0942AE037ED43EA4C
:101500005BE3C701B6010E9415172B013C010E9445
:101510006C186B017C010E94BB159B01AC01C301DF
:10152000B2010E9414172B013C014AE0C701B60129
:101530000E94BA087C01EA0CFB1C6EE28DE892E086
:101540000E943A02E80EF91E20E030E040E251E449
:10155000C301B2010E941C162B013C010E946C18B1
:101560004B01B12CA12C4AE0C501B4010E94BA087C
:10157000E80EF91EC501B4010E94BB159B01AC0128
:10158000C301B2010E94141720E030E040E251E4B0
:101590000E941C160E946C1890E080E04AE00E94B5
:1015A000BA088E0D9F1DFF90EF90DF90CF90BF90F7
:1015B000AF909F908F907F906F905F904F90089525
:1015C0004F925F926F927F928F929F92AF92BF9253
:1015D000CF92DF92EF92FF92CF93DF93EC016A01FB
:1015E0007B0120E030E0A901CB01B6010E94B615D5
:1015F00087FF04C0F7FAF094F7F8F09488A099A058
:10160000AAA0BBA0A7019601C501B4010E94B6150E
:10161000882309F44DC06CA97DA98EA99FA90E94B9
:10162000BD152B013C01A7019601C501B4010E9423
:10163000F3179B01AC01C301B2010E941C160E946A
:1016400065186CAB7DAB8EAB9FABA701960160E0DC
:1016500070E080E090E40E94F3170E94F91826E5FC
:101660003EE04DE25FE30E941C1620E034E244E7D6
:1016700059E40E941C1668AF79AF8AAF9BAFC8A22D
:10168000D9A2EAA2FBA2E881F9810084F185E02DCC
:10169000CE01DF91CF91FF90EF90DF90CF90BF9080
:1016A000AF909F908F907F906F905F904F90099434
:1016B000DF91CF91FF90EF90DF90CF90BF90AF90F0
:1016C0009F908F907F906F905F904F900895CF93F1
:1016D000DF93EC0188819981009711F00E94551ADF
:1016E000198218821D821C821B821A82DF91CF917F
:1016F0000895FC0180819181009711F00C94551A96
:1017000008950C94551AAF92BF92CF92DF92EF9248
:10171000FF920F931F93CF93DF93DC01CD90DC906A
:101720001197C114D10439F01496CD91DC918C013C
:101730007601209761F4DF91CF911F910F91FF9077
:10174000EF90DF90CF90BF90AF9008957501570153
:10175000BFEFAB1ABB0AF7018081082E000C990B72
:101760000E94AD15892B91F72197CC0DDD1D888145
:10177000082E000C990B0E94AD15892B29F0CE156F
:10178000DF0510F02197F3CFAE014F5F5F4F4E1989
:101790005F09D80115965C934E931497CE14DF041D
:1017A00020F4B701C6010E949B1BD801ED91FC916A
:1017B000119714968D919C91E80FF91F1082BBCF61
:1017C0000F931F93CF93DF93EC018881998100974A
:1017D00059F02A813B812617370730F081E0DF91ED
:1017E000CF911F910F9108958B016F5F7F4F0E94E2
:1017F000DE1A009759F0998388831B830A832C8112
:101800003D81232B59F7FC011082E8CF80E0E7CF20
:10181000CF93DF93EC0170E060E00E94E00B811158
:1018200005C0CE01DF91CF910C94670B1D821C8205
:101830006DE771E088819981DF91CF910C94B81B9D
:101840009F92AF92BF92CF92DF92EF92FF920F934F
:101850001F93CF93DF93EC016B015A017901241799
:10186000350720F48B2D5901E42EF82E19821882A9
:101870001B821A821D821C82CE010E94080CD60196
:1018800014960D911C91A016B10658F5E016F106BC
:1018900008F48701D601ED91FC911197E00FF11F3B
:1018A00090801082ED90FC90EA0CFB1CE114F10496
:1018B00071F0F70101900020E9F731975F01AE1850
:1018C000BF08B501CE010E94E00B811117C0CE0107
:1018D0000E94670BF60180819181080F191FD801C2
:1018E0009C92CE01DF91CF911F910F91FF90EF90CD
:1018F000DF90CF90BF90AF909F900895BD82AC8253
:10190000B701888199810E94B81BE4CF85ED80934F
:10191000BC008091650290916602A0916702B0912F
:1019200068020796A11DB11D23E0B695A79597956E
:1019300087952A95D1F72091BC0024FD03C0109211
:1019400063020895409165025091660260916702BA
:1019500070916802452B462B472B69F30097A10530
:10196000B10541F02AE22A95F1F700C00197A109DB
:10197000B109E1CF809164020C94F0061F920F929E
:101980000FB60F9211242F933F938F939F93AF9392
:10199000BF938091170290911802A0911902B09103
:1019A0001A023091120223E0230F2D3758F50196C9
:1019B000A11DB11D2093120280931702909318026B
:1019C000A0931902B0931A0280911302909114020D
:1019D000A0911502B09116020196A11DB11D809330
:1019E000130290931402A0931502B0931602BF91B4
:1019F000AF919F918F913F912F910F900FBE0F90BC
:101A00001F90189526E8230F0296A11DB11DD2CF75
:101A10001F920F920FB60F9211242F933F934F9363
:101A20005F936F937F938F939F93AF93BF93EF9346
:101A3000FF938DE892E00E941802FF91EF91BF9111
:101A4000AF919F918F917F916F915F914F913F9156
:101A50002F910F900FBE0F901F9018951F920F920D
:101A60000FB60F9211242F938F939F93EF93FF93B1
:101A7000E0919D02F0919E028081E091A302F0919D
:101A8000A40282FD1BC090818091A6028F5F8F739C
:101A90002091A702821741F0E091A602F0E0E357FF
:101AA000FD4F958F8093A602FF91EF919F918F91AB
:101AB0002F910F900FBE0F901F9018958081F4CF3B
:101AC0001F920F920FB60F9211242F933F934F93B3
:101AD0005F936F937F938F939F93AF93BF93EF9396
:101AE000FF938091B900887F803609F44AC0F0F5F1
:101AF000883209F4A7C018F5803109F49BC0B8F406
:101B0000882309F4F9C0883009F494C0FF91EF915B
:101B1000BF91AF919F918F917F916F915F914F9105
:101B20003F912F910F900FBE0F901F901895883105
:101B300009F488C0803251F78093610214C0803468
:101B400009F49DC040F48033B9F38833F9F68093EB
:101B5000610285ECB0C0803509F485C0883509F490
:101B600096C0883499F60E94860CD0CF883909F443
:101B70008CC038F5883729F050F4883611F080375A
:101B800029F683E0809363021092E30157C08838FE
:101B900009F47BC0803919F0803809F0B7CF809103
:101BA000E301803208F071C0E091E30181E08E0F23
:101BB0008093E3018091BB00F0E0ED53FE4F808302
:101BC0003DC0803B39F0E0F4803A09F479C0883AAE
:101BD00009F09CCF84E0809363021092C2011092BE
:101BE000C101E091E601F091E70109958091C10101
:101BF00081110FC081E08093C1011092A10109C041
:101C0000803C09F4A6CF883C09F4A3CF883B09F0B7
:101C10007DCFE091C20181E08E0F8093C201F0E0A0
:101C2000EF55FE4F80818093BB009091C20180915F
:101C3000C10129C080913E028093BB0085EC809356
:101C4000BC0064CF9091600280915F02981758F5B4
:101C5000E091600281E08E0F80936002F0E0E15C31
:101C6000FD4F8081E9CFE091600281E08E0F80938B
:101C700060028091BB00F0E0E15CFD4F80839091B9
:101C8000600280915F029817C8F285E8D8CFE09192
:101C9000600281E08E0F809360028091BB00F0E0D3
:101CA000E15CFD4F80838091620281115CCF81E015
:101CB00080933D0284EA8093BC001092630226CF99
:101CC00085EC8093BC00109263028091E301803226
:101CD00030F4E091E301F0E0ED53FE4F10826091AB
:101CE000E30170E0E091E401F091E50183EC91E023
:101CF00009951092E3010ACF1092610234CFCF927E
:101D0000DF92EF92FF920F931F93CF93DF93EC013B
:101D100086E191E09983888381E08F83188A198A0C
:101D20001A8A1B8A1C8A1D8A1E8A1F8A188E198E7F
:101D30001A8E1B8E1C8E1D8E1E8E1F8E18A219A22F
:101D40001AA21BA2C12CD12C80E8E82E8FE3F82E1A
:101D5000CCA2DDA2EEA2FFA21B821C821D821E82EB
:101D600081E090E09DA78CA78FEF8FA718A619A6FA
:101D70001AA61BA66887498784E08A8785E08B8737
:101D80001EA61CAA1DAA1EAA1FAA18AE19AE1AAE1C
:101D90001BAE1CAE1DAE1EAE1FAE8E01005C1F4FF3
:101DA000F801C082D182E282F3821A821C861D86EB
:101DB0001E861F86CE010E94A702B701A601CE0192
:101DC0000E94E00AA70196016C8D7D8D8E8D9F8DFE
:101DD0000E94B615882309F1CC8EDD8EEE8EFF8E23
:101DE00080E094E2A4E7B9E4F80180839183A283C0
:101DF000B3838CA99DA9AEA9BFA9181619061A0606
:101E00001B065CF4CE01DF91CF911F910F91FF90E3
:101E1000EF90DF90CF900C941306DF91CF911F913C
:101E20000F91FF90EF90DF90CF900895EDE8F2E0F2
:101E30001382128288EE93E0A0E0B0E08483958361
:101E4000A683B78326E331E03183208325EC30E09D
:101E50003587248724EC30E03787268720EC30E074
:101E6000318B208B21EC30E0338B228B22EC30E065
:101E7000358B248B26EC30E0378B268B118E128E1F
:101E8000138E148EEAE2F3E0138212828483958328
:101E9000A683B78388E491E09183808344E065E082
:101EA0008AE793E00E947F0E46E067E086E393E0D6
:101EB0000C947F0ECF93DF93CDB7DEB7A6970FB606
:101EC000F894DEBF0FBECDBF789484B5826084BD28
:101ED00084B5816084BD85B5826085BD85B581602E
:101EE00085BD80916E00816080936E0010928100AC
:101EF0008091810082608093810080918100816067
:101F00008093810080918000816080938000809127
:101F1000B10084608093B1008091B00081608093B3
:101F2000B00080917A00846080937A0080917A007A
:101F3000826080937A0080917A00816080937A0039
:101F400080917A00806880937A001092C100E091BD
:101F50009D02F0919E0282E08083E0919902F091CF
:101F60009A021082E0919B02F0919C028FEC808398
:101F70001092A502E091A102F091A20286E0808376
:101F8000E0919F02F091A002808180618083E091C6
:101F90009F02F091A002808188608083E0919F027F
:101FA000F091A002808180688083E0919F02F0918F
:101FB000A00280818F7D808310923B0210923C02B0
:101FC00010926A0210928C020E94D20688E591E07B
:101FD0009093E7018093E60189E591E09093E50114
:101FE0008093E4011B8EBE01655E7F4F8BE690E01F
:101FF0000E94800881E08C8FBE01645E7F4F8AE181
:1020000090E00E94800888E08D8FBE01635E7F4F64
:102010008BE190E00E94800880E28E8FBE01625EBC
:102020007F4F89E190E00E94800804EF11E01F8E4D
:1020300018A219A21AA2812C912C5401412C512CC6
:10204000320146E050E0BE016F5F7F4F83E490E0D5
:102050000E94FE08811171C089819A819827892781
:102060009827092E000CAA0BBB0B480E591E6A1E9E
:102070007B1E8B819C81982789279827092E000C2D
:10208000AA0BBB0B880E991EAA1EBB1E8D819E81BA
:10209000982789279827092E000CAA0BBB0BCF8CF9
:1020A000D8A0E9A0FAA0C80ED91EEA1EFB1ECF8E4A
:1020B000D8A2E9A2FAA20150110909F0C2CF24EF77
:1020C000C22EDD24D394E12CF12CC301B201A7016F
:1020D00096010E949419CA01B9010E94BD1560932E
:1020E00008017093090180930A0190930B01C501C7
:1020F000B401A70196010E949419CA01B9010E9476
:10210000BD156093040170930501809306019093BF
:1021100007016F8D78A189A19AA1A70196010E945C
:102120009419CA01B9010E94BD1560930001709312
:102130000101809302019093030120E030E04AE71F
:1021400054E4609196037091970380919803909165
:1021500099030E94B615882329F180E090E0AAE750
:10216000B4E48093960390939703A0939803B0935D
:1021700099038093BA039093BB03A093BC03B093DD
:10218000BD038091AE039091AF03A091B003B091D5
:10219000B103181619061A061B0624F48AE793E001
:1021A0000E94130640E050E066E973E48AE793E09A
:1021B0000E94E00A20E030E04AE754E460915203D4
:1021C0007091530380915403909155030E94B6156A
:1021D000882329F180E090E0AAE7B4E480935203D9
:1021E00090935303A0935403B093550380937603C5
:1021F00090937703A0937803B093790380916A0357
:1022000090916B03A0916C03B0916D0318161906A1
:102210001A061B0624F486E393E00E94130640E0AE
:1022200050E066E973E486E393E00E94E00A60E030
:1022300088E00E9401019CEB292E90E0392E00E0FD
:1022400010E02FB7F8948091170290911802A09196
:102250001902B0911A022FBF40910E0250910F0245
:1022600060911002709111026C017D01C41AD50AAF
:10227000E60AF70AB701A601413251056105710569
:1022800008F4B4C280930E0290930F02A093100240
:10229000B09311024EE050E0BE016F5F7F4F8BE3C1
:1022A00090E00E94FE08811184C089819A8198275C
:1022B0008927982790930902809308028B819C813B
:1022C00098278927982790930D0280930C028D817F
:1022D0009E8198278927982790930B0280930A0262
:1022E00069857A85762767277627072E000C880B65
:1022F000990B0E94BD152091080130910901409170
:102300000A0150910B010E94141720E030E043E8CD
:1023100052E40E94F31760930402709305028093C5
:102320000602909307026B857C85762767277627C0
:10233000072E000C880B990B0E94BD1520910401FB
:102340003091050140910601509107010E94141738
:1023500020E030E043E852E40E94F3176093F80174
:102360007093F9018093FA019093FB016D857E854E
:10237000762767277627072E000C880B990B0E947B
:10238000BD15209100013091010140910201509151
:1023900003010E94141720E030E043E852E40E9459
:1023A000F3176093F4017093F5018093F601909315
:1023B000F70160910C0270910D02072E000C880B42
:1023C000990B0E94BD156B017C0160910A0270910E
:1023D0000B02072E000C880B990B0E94BD159B0168
:1023E000AC010E941C162B013C01A7019601C701FC
:1023F000B6010E941C16A30192010E9415170E94AB
:10240000F9186F8F78A389A39AA36091080270913D
:102410000902072E000C880B990B0E94BD154B0179
:102420005C012F8D38A149A15AA10E9494176F8F8A
:1024300078A389A39AA3A5019401C501B4010E94C0
:102440001C16A30192010E9415170E94F9189B0106
:10245000AC01C701B6010E9494174B015C0120E05A
:1024600030E040EF51E460910402709105028091E8
:102470000602909107020E94F3172091000230910A
:10248000010240910202509103020E9415172B0194
:102490003C0120E030E040EF51E46091F8017091A0
:1024A000F9018091FA019091FB010E94F3179B01C1
:1024B000AC016091FC017091FD018091FE01909151
:1024C000FF010E9414176BA37CA38DA39EA320E0A1
:1024D00030E040EF51E46091F4017091F50180919A
:1024E000F6019091F7010E94F3172091F0013091CD
:1024F000F1014091F2015091F3010E9415176B0117
:102500007C01C092F001D092F101E092F201F092D0
:10251000F30120E030E044E353E4C501B4010E943C
:102520001C162BED3FE049E450E40E94F3172AE02B
:1025300037ED43E25DE30E941C164B015C012FE87E
:1025400032EC45E75FE3C301B2010E941C169B0118
:10255000AC01C501B4010E9415176093000270938D
:102560000102809302029093030220E030E044E3F2
:1025700053E46F8D78A189A19AA10E941C162BEDBE
:102580003FE049E450E40E94F3172AE037ED43E2CC
:102590005DE30E941C164B015C012FE832EC45E71D
:1025A0005FE36BA17CA18DA19EA10E941C169B01E3
:1025B000AC01C501B4010E9415176093FC01709332
:1025C000FD018093FE019093FF0120E030E044EB99
:1025D00053E4C701B6010E94C21887FD4EC020E037
:1025E00030E044EB53E4C701B6010E941417609336
:1025F000F0017093F1018093F2019093F3018DE863
:1026000092E00E94F801892B09F4F0C01E8A1D8A0D
:10261000188E1F8A1A8E198ECE0145960E94080CBC
:102620001A8219821C821B821E821D82CE01019693
:102630000E94080C0E94AA0197FD31C08A309105C2
:1026400071F18F87188AED80FE802FEFE21AF20A6F
:10265000B701CE0101960E94E00B882359F329812E
:102660003A818D819E81BE01615F7F4F820F931FF2
:102670000E94B81BFE82ED82DDCF20E030E0A90190
:10268000C701B6010E94B61587FFB9CF20E030E040
:1026900044EB53E4C701B6010E941517A8CF8D89FA
:1026A0009E89009709F47EC069817A816115710560
:1026B00009F476C04F89588D2D813E81421753070A
:1026C00008F46EC00E94B81B8D819E819A8F898FFD
:1026D0001E821D82CE0101960E94790BCE01459685
:1026E0000E94830BC98CDA8CC114D10409F47AC01E
:1026F000AD88BE8862E671E0C5010E94AF1B7C0117
:10270000892B09F060C084E691E00E94AD086091D9
:10271000FC017091FD018091FE019091FF010E94EA
:10272000CF180E94120A88E691E00E94AD086091DD
:10273000F0017091F1018091F2019091F3010E94FA
:10274000CF180E94120A8EE691E00E94AD08E4EED6
:10275000F0E08491E0EDF0E0D490F101C490CC2061
:1027600099F081110E94AA00EC2DF0E0EE0FFF1FFE
:10277000EA56FF4FA591B4918C91D82291E080E068
:1027800009F490E0E92EF82EB701FF0C880B990BA5
:102790004AE00E94BA088BE791E00E94AD0822C08F
:1027A0000E94551A89819A819E8B8D8B8B819C8189
:1027B000988F8F8B8D819E819A8F898F1A82198233
:1027C0001C821B8285CF6EE771E0C5010E94AF1BA2
:1027D000892B01F51092F0011092F1011092F20193
:1027E0001092F301CE0145960E94790B8AE793E09F
:1027F0000E94410686E393E00E94410601151105FF
:1028000009F41FCD0E940402882309F418CD0E9408
:10281000000015CD6CE270E0C5010E94A41B9C0174
:102820002A193B09892B11F42FEF3FEF7901FFEFB4
:10283000EF1AFF0A42E0E416F10430F051E0C51A45
:10284000D1082C153D0529F480E891E00E94AD08DF
:10285000A2CF50E040E0BE016B5E7F4FCE010F96ED
:102860000E94200C298D3A8DA701BE016B5E7F4F1F
:10287000CE0101960E94200CCE010F960E94830B80
:10288000CE0101960E94830B8F859889009709F4E9
:1028900006C10E9471156B0189819A81009709F424
:1028A00002C10E9471157B014090EC015090ED0136
:1028B0006090EE017090EF018090E8019090E90146
:1028C000A090EA01B090EB01B601D7FE04C06627E4
:1028D00077276C197D09072E000C880B990BA30133
:1028E000920177FE07C022273327A9012419350951
:1028F00046095709621B730B840B950B97FF07C0A2
:1029000090958095709561957F4F8F4F9F4F0E9456
:10291000BD1520E030E040E450E40E94B61587FF8A
:102920002DC0B701F7FE04C0662777276E197F090F
:10293000072E000C880B990BA5019401B7FE07C068
:1029400022273327A901281939094A095B09621B83
:10295000730B840B950B97FF07C09095809570952E
:1029600061957F4F8F4F9F4F0E94BD1520E030E053
:1029700040E450E40E94B61587FD88C0B601DD0C26
:10298000880B990B0E94BD1524EE38E34EE050E40D
:102990000E941C160E946518DC01CB018419950960
:1029A000A609B7098139E1E09E07A105B1050CF43C
:1029B0007EC080529340A109B109480E591E6A1E7B
:1029C0007B1E80918E0390918F03A0919003B09114
:1029D0009103481659066A067B0661F040928E0301
:1029E00050928F0360929003709291038AE793E074
:1029F0000E94BA044092EC015092ED016092EE0107
:102A00007092EF01B701FF0C880B990B0E94BD1566
:102A100024EE38E34EE050E40E941C160E94651834
:102A2000DC01CB0188199909AA09BB09813921E088
:102A30009207A105B1050CF447C080529340A1094B
:102A4000B109880E991EAA1EBB1E80914A0390915F
:102A50004B03A0914C03B0914D0388169906AA062A
:102A6000BB0661F080924A0390924B03A0924C0304
:102A7000B0924D0386E393E00E94BA048092E8018D
:102A80009092E901A092EA01B092EB01CE01019689
:102A90000E94790BCE010F960E94790BA3CE60E0C5
:102AA00070E0CB01F8CE60E070E0CB01FCCE803767
:102AB000FEEF9F07FFEFAF07BF070CF07ECF805EF2
:102AC0009C4FAF4FBF4F79CF80373EEF93073FEF1B
:102AD000A307B3070CF0B5CF805E9C4FAF4FBF4F3D
:102AE000B0CF1F93FC0199278827BC01E89411916E
:102AF0001032E9F3193010F01E30C8F31B3251F0D8
:102B00001D3249F4689406C00E949815610F711D2A
:102B1000811D911D119110531A30B0F33EF4909520
:102B20008095709561957F4F8F4F9F4F1F910895AE
:102B3000592F482F372F262F660F771F881F991F71
:102B4000660F771F881F991F620F731F841F951FC1
:102B5000660F771F881F991F089591110C9489168D
:102B6000803219F089508550C8F708950E94F815F1
:102B700008F481E00895E89409C097FB3EF490952D
:102B80008095709561957F4F8F4F9F4F9923A9F046
:102B9000F92F96E9BB279395F695879577956795D5
:102BA000B795F111F8CFFAF4BB0F11F460FF1BC019
:102BB0006F5F7F4F8F4F9F4F16C0882311F096E9AC
:102BC00011C0772321F09EE8872F762F05C066235A
:102BD00071F096E8862F70E060E02AF09A95660F13
:102BE000771F881FDAF7880F9695879597F90895CC
:102BF000990F0008550FAA0BE0E8FEEF161617060E
:102C0000E807F907C0F012161306E407F50798F075
:102C1000621B730B840B950B39F40A2661F0232B8E
:102C2000242B252B21F408950A2609F4A140A6950A
:102C30008FEF811D811D08950E942F160C94A316FD
:102C40000E94951638F00E949C1620F0952311F0F2
:102C50000C948C160C94921611240C94D7160E9486
:102C6000B41670F3959FC1F3950F50E0551F629F06
:102C7000F001729FBB27F00DB11D639FAA27F00DD5
:102C8000B11DAA1F649F6627B00DA11D661F829FFC
:102C90002227B00DA11D621F739FB00DA11D621FE1
:102CA000839FA00D611D221F749F3327A00D611DFE
:102CB000231F849F600D211D822F762F6A2F1124E0
:102CC0009F5750409AF0F1F088234AF0EE0FFF1F13
:102CD000BB1F661F771F881F91505040A9F79E3F6A
:102CE000510580F00C948C160C94D7165F3FE4F3DA
:102CF000983ED4F3869577956795B795F795E795C0
:102D00009F5FC1F7FE2B880F911D9695879597F9C8
:102D1000089599278827089597F99F6780E870E0BC
:102D200060E008959FEF80EC089500240A94161641
:102D3000170618060906089500240A9412161306A9
:102D4000140605060895092E0394000C11F4882337
:102D500052F0BB0F40F4BF2B11F460FF04C06F5F53
:102D60007F4F8F4F9F4F089557FD9058440F551F29
:102D700059F05F3F71F04795880F97FB991F61F0FD
:102D80009F3F79F087950895121613061406551F74
:102D9000F2CF4695F1DF08C0161617061806991FE0
:102DA000F1CF86957105610508940895E894BB27D5
:102DB00066277727CB0197F908952F923F924F927C
:102DC0005F926F927F928F929F92AF92BF92CF92BB
:102DD000DF92EF92FF920F931F93CF93DF93CDB7C4
:102DE000DEB7CA1BDB0B0FB6F894DEBF0FBECDBF3C
:102DF00009942A88398848885F846E847D848C840D
:102E00009B84AA84B984C884DF80EE80FD800C8115
:102E10001B81AA81B981CE0FD11D0FB6F894DEBFF8
:102E20000FBECDBFED0108955058BB27AA270E94C1
:102E30002C170C94A3160E94951638F00E949C162D
:102E400020F039F49F3F19F426F40C9492160EF4F6
:102E5000E095E7FB0C948C16E92F0E94B41658F30A
:102E6000BA17620773078407950720F079F4A6F56F
:102E70000C94D6160EF4E0950B2EBA2FA02D0B0154
:102E8000B90190010C01CA01A0011124FF27591BAF
:102E900099F0593F50F4503E68F11A16F040A22FB5
:102EA000232F342F4427585FF3CF46953795279526
:102EB000A795F0405395C9F77EF41F16BA0B620B25
:102EC000730B840BBAF09150A1F0FF0FBB1F661F6C
:102ED000771F881FC2F70EC0BA0F621F731F841FAF
:102EE00048F4879577956795B795F7959E3F08F0D5
:102EF000B0CF9395880F08F09927EE0F9795879597
:102F000008950E94951660F080E891E009F49EEF24
:102F10000E949C1628F040E851E071F45EEF0CC06E
:102F20000C9492160C94D616E92FE0780E94B416F1
:102F300040F3092E052AB1F326173707480759072A
:102F400038F00E2E07F8E02569F0E025E0640AC0AD
:102F5000EF6307F8009407FADB01B9019D01DC017A
:102F6000CA01AD01EF930E940A180E94A3160E94A5
:102F7000C4175F91552339F02BED3FE049E450FD34
:102F800049EC0C9415170895DF93DD27B92FBF770F
:102F900040E85FE31616170648075B0718F4D92FB9
:102FA0000E94C7189F938F937F936F930E94391944
:102FB000E8E6F0E00E949B180E94A3162F913F9133
:102FC0004F915F910E942F16DD2351F09058A2EA95
:102FD0002AED3FE049EC5FE3D0785D270E942C1793
:102FE000DF910C94A3160E9407180C94A3160E945C
:102FF0009C1658F00E94951640F029F45F3F29F086
:103000000C948C1651110C94D7160C9492160E94A5
:10301000B41668F39923B1F3552391F3951B550B1F
:10302000BB27AA2762177307840738F09F5F5F4F9B
:10303000220F331F441FAA1FA9F335D00E2E3AF0DA
:10304000E0E832D091505040E695001CCAF72BD0F2
:10305000FE2F29D0660F771F881FBB1F2617370743
:103060004807AB07B0E809F0BB0B802DBF01FF2775
:1030700093585F4F3AF09E3F510578F00C948C16B0
:103080000C94D7165F3FE4F3983ED4F3869577957A
:103090006795B795F7959F5FC9F7880F911D96952E
:1030A000879597F90895E1E0660F771F881FBB1F8A
:1030B000621773078407BA0720F0621B730B840B37
:1030C000BA0BEE1F88F7E09508950E946C1868947B
:1030D000B1110C94D71608950E94BC1688F09F5722
:1030E00098F0B92F9927B751B0F0E1F0660F771F2C
:1030F000881F991F1AF0BA95C9F714C0B13091F022
:103100000E94D616B1E008950C94D616672F782F3A
:103110008827B85F39F0B93FCCF3869577956795E6
:10312000B395D9F73EF490958095709561957F4F52
:103130008F4F9F4F0895DF93CF931F930F93FF926D
:10314000EF92DF927B018C01689406C0DA2EEF01CA
:103150000E942F16FE01E894A59125913591459185
:103160005591A6F3EF010E942C17FE019701A801CB
:10317000DA9469F7DF90EF90FF900F911F91CF9154
:10318000DF9108950E94F81508F48FEF08959B01D0
:10319000AC0160E070E080E89FE30C94F3170E94BC
:1031A000BC16E8F09E37E8F09639B8F49E3848F43B
:1031B000672F782F8827985FF9CF86957795679541
:1031C00093959539D0F3B62FB1706B0F711D811D9A
:1031D00020F487957795679593950C9442190C94F4
:1031E0005D190C94D71619F416F40C9492160C94DD
:1031F0005D190E94BC16B8F39923C9F3B6F39F5723
:10320000550B87FF0E946B190024A0E640EA90014D
:1032100080585695979528F4805C660F771F881F15
:1032200020F026173707480730F4621B730B840B16
:10323000202931294A2BA69517940794202531255A
:103240004A2758F7660F771F881F20F02617370781
:10325000480730F4620B730B840B200D311D411DA8
:10326000A09581F7B901842F9158880F969587957D
:1032700008959B01AC010C941C160E94F815880B54
:10328000990B0895882371F4772321F09850872BA8
:10329000762F07C0662311F499270DC09051862B15
:1032A00070E060E02AF09A95660F771F881FDAF7C2
:1032B000880F9695879597F908959F3F31F0915023
:1032C00020F4879577956795B795880F911D96950A
:1032D000879597F9089591505040660F771F881F82
:1032E000D2F70895A1E21A2EAA1BBB1BFD010DC047
:1032F000AA1FBB1FEE1FFF1FA217B307E407F507A6
:1033000020F0A21BB30BE40BF50B661F771F881F81
:10331000991F1A9469F760957095809590959B0117
:10332000AC01BD01CF010895052E97FB1EF400945A
:103330000E94AB1957FD07D00E94721907FC03D0F9
:103340004EF40C94AB1950954095309521953F4F14
:103350004F4F5F4F089590958095709561957F4F81
:103360008F4F9F4F0895EE0FFF1F0590F491E02DB2
:1033700009940F931F93CF93DF938230910510F43C
:1033800082E090E0E091C003F091C10330E020E0E2
:10339000B0E0A0E0309799F42115310509F44AC056
:1033A000281B390B24303105D8F58A819B816115A2
:1033B000710589F1FB0193838283FE0111C0408175
:1033C00051810281138148175907E0F048175907C6
:1033D00099F4109761F012960C93129713961C9320
:1033E0003296CF01DF91CF911F910F9108950093F5
:1033F000C0031093C103F4CF2115310551F04217DA
:10340000530738F0A901DB019A01BD01DF01F80182
:10341000C1CFEF01F9CF9093C1038093C003CDCF0B
:10342000FE01E20FF31F81939193225031093983FA
:103430002883D7CF2091BE033091BF03232B41F4C3
:1034400020910E0130910F013093BF032093BE03F2
:1034500020910C0130910D012115310541F42DB75A
:103460003EB74091100150911101241B350BE091A2
:10347000BE03F091BF03E217F307A0F42E1B3F0B2E
:103480002817390778F0AC014E5F5F4F24173507D6
:1034900048F04E0F5F1F5093BF034093BE038193CC
:1034A00091939FCFF0E0E0E09CCFCF93DF93009724
:1034B000E9F0FC01329713821282A091C003B0910F
:1034C000C103ED0130E020E01097A1F420813181AB
:1034D000820F931F2091BE033091BF032817390735
:1034E00009F061C0F093BF03E093BE03DF91CF9179
:1034F0000895EA01CE17DF07E8F54A815B819E0156
:1035000041155105B1F7E901FB83EA8349915991CE
:10351000C40FD51FEC17FD0761F4808191810296DD
:10352000840F951FE90199838883828193819B830E
:103530008A83F0E0E0E012968D919C9113970097BA
:10354000B9F52D913C911197CD010296820F931FF1
:103550002091BE033091BF032817390739F6309701
:1035600051F51092C1031092C003B093BF03A09312
:10357000BE03BCCFD383C28340815181840F951F8A
:10358000C817D90761F44E5F5F4F88819981480F52
:10359000591F518340838A819B81938382832115A4
:1035A000310509F0B0CFF093C103E093C0039ECF83
:1035B000FD01DC01C0CF13821282D7CFB0E0A0E0C2
:1035C000E4EEFAE10C94DF168C01009751F4CB0184
:1035D0000E94B9198C01C801CDB7DEB7E0E10C94A7
:1035E000FB16FC01E60FF71F9C0122503109E21780
:1035F000F30708F49DC0D901CD91DC911197C6174E
:10360000D70798F0C530D10530F3CE01049786175F
:10361000970708F3C61BD70B2297C193D1936D93DD
:103620007C93CF010E94551AD6CF5B01AC1ABD0A1C
:103630004C018C0E9D1EA091C003B091C103512C72
:10364000412CF12CE12C109731F58091BE03909123
:10365000BF038815990509F05CC04616570608F0A7
:1036600058C080910C0190910D01009741F48DB7E5
:103670009EB74091100150911101841B950BE817E2
:10368000F90708F055C0F093BF03E093BE03F901BA
:1036900071836083A0CF8D919C91119712966C904D
:1036A000129713967C901397A815B90559F56C01DC
:1036B00042E0C40ED11CCA14DB0420F1AC014A194B
:1036C0005B09DA011296159780F06282738251834A
:1036D0004083D9016D937C93E114F10471F0D7011B
:1036E0001396FC93EE93129776CF22968C0F9D1F24
:1036F000F90191838083F301EFCFF093C103E0934D
:10370000C00369CF4816590608F42C017D01D30186
:103710009ACFCB010E94B9197C01009749F0AE0104
:10372000B8010E949B1BC8010E94551A870153CF04
:1037300010E000E050CFFB01DC0102C001900D92CF
:1037400041505040D8F70895FC018191861721F02F
:103750008823D9F7992708953197CF010895FB0160
:10376000DC018D91019080190110D9F3990B089516
:10377000FB01DC0101900D920020E1F70895F8941F
:10378000FFCF0000A6C20000904100808CC3000063
:10379000C203800000000000DB02A702AA06810B22
:1037A000BA043C047A042604F403D3039F037E0383
:1037B0002803F902000000003A025A01870187023B
:1037C000F8019601EA010000000051082408AA0847
:1037D0000108A300110802086E616E00696E6600A0
:1037E0006F7666002E00793A20002C207A3A20006D
:1037F0002C2070726573737572653A20000D0A0093
:103800007A0050617273696E67206661696C6564E5
:103810003A20496E76616C696420666F726D6174DE
:023820000000A6
:107E0000112484B714BE81FFF0D085E080938100F7
:107E100082E08093C00088E18093C10086E0809377
:107E2000C20080E18093C4008EE0C9D0259A86E02C
:107E300020E33CEF91E0309385002093840096BBD3
:107E4000B09BFECF1D9AA8958150A9F7CC24DD24C4
:107E500088248394B5E0AB2EA1E19A2EF3E0BF2EE7
:107E6000A2D0813461F49FD0082FAFD0023811F036
:107E7000013811F484E001C083E08DD089C08234E0
:107E800011F484E103C0853419F485E0A6D080C0E4
:107E9000853579F488D0E82EFF2485D0082F10E0AE
:107EA000102F00270E291F29000F111F8ED06801E7
:107EB0006FC0863521F484E090D080E0DECF843638
:107EC00009F040C070D06FD0082F6DD080E0C81688
:107ED00080E7D80618F4F601B7BEE895C0E0D1E017
:107EE00062D089930C17E1F7F0E0CF16F0E7DF06D8
:107EF00018F0F601B7BEE89568D007B600FCFDCFD4
:107F0000A601A0E0B1E02C9130E011968C91119780
:107F100090E0982F8827822B932B1296FA010C0160
:107F200087BEE89511244E5F5F4FF1E0A038BF0790
:107F300051F7F601A7BEE89507B600FCFDCF97BE46
:107F4000E89526C08437B1F42ED02DD0F82E2BD052
:107F50003CD0F601EF2C8F010F5F1F4F84911BD097
:107F6000EA94F801C1F70894C11CD11CFA94CF0C13
:107F7000D11C0EC0853739F428D08EE10CD085E9AC
:107F80000AD08FE07ACF813511F488E018D01DD067
:107F900080E101D065CF982F8091C00085FFFCCF94
:107FA0009093C60008958091C00087FFFCCF809118
:107FB000C00084FD01C0A8958091C6000895E0E648
:107FC000F0E098E1908380830895EDDF803219F02E
:107FD00088E0F5DFFFCF84E1DECF1F93182FE3DFCA
:107FE0001150E9F7F2DF1F91089580E0E8DFEE27F6
:047FF000FF270994CA
:027FFE00040479
:00000001FF
